{
	"contracts/salesannouncement.sol": {
		"SalesAnnouncement": {
			"abi": [
				{
					"anonymous": false,
					"inputs": [
						{
							"indexed": false,
							"internalType": "address",
							"name": "who",
							"type": "address"
						},
						{
							"indexed": false,
							"internalType": "uint256",
							"name": "howMuch",
							"type": "uint256"
						}
					],
					"name": "newYell",
					"type": "event"
				},
				{
					"inputs": [],
					"name": "dealer",
					"outputs": [
						{
							"internalType": "address payable",
							"name": "",
							"type": "address"
						}
					],
					"stateMutability": "view",
					"type": "function"
				},
				{
					"inputs": [],
					"name": "description",
					"outputs": [
						{
							"internalType": "string",
							"name": "",
							"type": "string"
						}
					],
					"stateMutability": "view",
					"type": "function"
				},
				{
					"inputs": [],
					"name": "endtime",
					"outputs": [
						{
							"internalType": "uint256",
							"name": "",
							"type": "uint256"
						}
					],
					"stateMutability": "view",
					"type": "function"
				},
				{
					"inputs": [],
					"name": "finished",
					"outputs": [],
					"stateMutability": "nonpayable",
					"type": "function"
				},
				{
					"inputs": [],
					"name": "floorprice",
					"outputs": [
						{
							"internalType": "uint256",
							"name": "",
							"type": "uint256"
						}
					],
					"stateMutability": "view",
					"type": "function"
				},
				{
					"inputs": [],
					"name": "higherYell",
					"outputs": [
						{
							"internalType": "address payable",
							"name": "",
							"type": "address"
						}
					],
					"stateMutability": "view",
					"type": "function"
				},
				{
					"inputs": [
						{
							"internalType": "address",
							"name": "",
							"type": "address"
						}
					],
					"name": "huutajat",
					"outputs": [
						{
							"internalType": "uint256",
							"name": "",
							"type": "uint256"
						}
					],
					"stateMutability": "view",
					"type": "function"
				},
				{
					"inputs": [
						{
							"internalType": "address payable",
							"name": "_dealer",
							"type": "address"
						},
						{
							"internalType": "address payable",
							"name": "_person",
							"type": "address"
						},
						{
							"internalType": "string",
							"name": "_title",
							"type": "string"
						},
						{
							"internalType": "string",
							"name": "_description",
							"type": "string"
						},
						{
							"internalType": "uint256",
							"name": "_price",
							"type": "uint256"
						},
						{
							"internalType": "uint256",
							"name": "_endtime",
							"type": "uint256"
						},
						{
							"internalType": "uint256",
							"name": "_reward",
							"type": "uint256"
						}
					],
					"name": "newNotification",
					"outputs": [],
					"stateMutability": "payable",
					"type": "function"
				},
				{
					"inputs": [],
					"name": "newPrice",
					"outputs": [
						{
							"internalType": "uint256",
							"name": "",
							"type": "uint256"
						}
					],
					"stateMutability": "view",
					"type": "function"
				},
				{
					"inputs": [],
					"name": "person",
					"outputs": [
						{
							"internalType": "address payable",
							"name": "",
							"type": "address"
						}
					],
					"stateMutability": "view",
					"type": "function"
				},
				{
					"inputs": [
						{
							"internalType": "uint256",
							"name": "",
							"type": "uint256"
						}
					],
					"name": "previousOffers",
					"outputs": [
						{
							"internalType": "address payable",
							"name": "",
							"type": "address"
						}
					],
					"stateMutability": "view",
					"type": "function"
				},
				{
					"inputs": [],
					"name": "reward",
					"outputs": [
						{
							"internalType": "uint256",
							"name": "",
							"type": "uint256"
						}
					],
					"stateMutability": "view",
					"type": "function"
				},
				{
					"inputs": [
						{
							"internalType": "address",
							"name": "_newoffer",
							"type": "address"
						},
						{
							"internalType": "uint256",
							"name": "offer",
							"type": "uint256"
						}
					],
					"name": "setYell",
					"outputs": [
						{
							"internalType": "bool",
							"name": "",
							"type": "bool"
						}
					],
					"stateMutability": "payable",
					"type": "function"
				},
				{
					"inputs": [],
					"name": "title",
					"outputs": [
						{
							"internalType": "string",
							"name": "",
							"type": "string"
						}
					],
					"stateMutability": "view",
					"type": "function"
				},
				{
					"stateMutability": "payable",
					"type": "receive"
				}
			],
			"devdoc": {
				"kind": "dev",
				"methods": {},
				"version": 1
			},
			"evm": {
				"assembly": "    /* \"contracts/salesannouncement.sol\":247:2079  contract SalesAnnouncement{\r... */\n  mstore(0x40, 0x80)\n    /* \"contracts/salesannouncement.sol\":798:799  0 */\n  0x00\n    /* \"contracts/salesannouncement.sol\":785:799  uint index = 0 */\n  0x0b\n  sstore\n    /* \"contracts/salesannouncement.sol\":247:2079  contract SalesAnnouncement{\r... */\n  callvalue\n  dup1\n  iszero\n  tag_1\n  jumpi\n  0x00\n  dup1\n  revert\ntag_1:\n  pop\n  dataSize(sub_0)\n  dup1\n  dataOffset(sub_0)\n  0x00\n  codecopy\n  0x00\n  return\nstop\n\nsub_0: assembly {\n        /* \"contracts/salesannouncement.sol\":247:2079  contract SalesAnnouncement{\r... */\n      mstore(0x40, 0x80)\n      jumpi(tag_1, lt(calldatasize, 0x04))\n      shr(0xe0, calldataload(0x00))\n      dup1\n      0x7284e416\n      gt\n      tag_17\n      jumpi\n      dup1\n      0x9de2ee21\n      gt\n      tag_18\n      jumpi\n      dup1\n      0x9de2ee21\n      eq\n      tag_13\n      jumpi\n      dup1\n      0xaf128b91\n      eq\n      tag_14\n      jumpi\n      dup1\n      0xbef4876b\n      eq\n      tag_15\n      jumpi\n      dup1\n      0xf681cc51\n      eq\n      tag_16\n      jumpi\n      jump(tag_2)\n    tag_18:\n      dup1\n      0x7284e416\n      eq\n      tag_10\n      jumpi\n      dup1\n      0x77ec2b55\n      eq\n      tag_11\n      jumpi\n      dup1\n      0x9c72606d\n      eq\n      tag_12\n      jumpi\n      jump(tag_2)\n    tag_17:\n      dup1\n      0x2ca126f8\n      gt\n      tag_19\n      jumpi\n      dup1\n      0x2ca126f8\n      eq\n      tag_6\n      jumpi\n      dup1\n      0x3a326bb8\n      eq\n      tag_7\n      jumpi\n      dup1\n      0x4a79d50c\n      eq\n      tag_8\n      jumpi\n      dup1\n      0x51df9db9\n      eq\n      tag_9\n      jumpi\n      jump(tag_2)\n    tag_19:\n      dup1\n      0x09ce5f9e\n      eq\n      tag_3\n      jumpi\n      dup1\n      0x1d71e4fc\n      eq\n      tag_4\n      jumpi\n      dup1\n      0x228cb733\n      eq\n      tag_5\n      jumpi\n      jump(tag_2)\n    tag_1:\n      jumpi(tag_2, calldatasize)\n        /* \"contracts/salesannouncement.sol\":1281:1291  floorprice */\n      sload(0x07)\n        /* \"contracts/salesannouncement.sol\":1269:1278  msg.value */\n      callvalue\n        /* \"contracts/salesannouncement.sol\":1269:1291  msg.value < floorprice */\n      lt\n        /* \"contracts/salesannouncement.sol\":1261:1315  require(msg.value < floorprice,\"Floorprice is higher\") */\n      tag_22\n      jumpi\n      mload(0x40)\n      0x08c379a000000000000000000000000000000000000000000000000000000000\n      dup2\n      mstore\n      0x04\n      add\n      tag_23\n      swap1\n      tag_24\n      jump\t// in\n    tag_23:\n      mload(0x40)\n      dup1\n      swap2\n      sub\n      swap1\n      revert\n    tag_22:\n        /* \"contracts/salesannouncement.sol\":1337:1346  msg.value */\n      callvalue\n        /* \"contracts/salesannouncement.sol\":1326:1334  newPrice */\n      0x09\n        /* \"contracts/salesannouncement.sol\":1326:1346  newPrice = msg.value */\n      dup2\n      swap1\n      sstore\n      pop\n        /* \"contracts/salesannouncement.sol\":247:2079  contract SalesAnnouncement{\r... */\n      stop\n    tag_2:\n      0x00\n      dup1\n      revert\n        /* \"contracts/salesannouncement.sol\":808:1216  function newNotification(address payable _dealer,address payable _person, string memory _title, string memory _description, uint _price, uint _endtime,uint _reward) external payable{\r... */\n    tag_3:\n      tag_25\n      0x04\n      dup1\n      calldatasize\n      sub\n      dup2\n      add\n      swap1\n      tag_26\n      swap2\n      swap1\n      tag_27\n      jump\t// in\n    tag_26:\n      tag_28\n      jump\t// in\n    tag_25:\n      stop\n        /* \"contracts/salesannouncement.sol\":282:322  mapping(address => uint) public huutajat */\n    tag_4:\n      callvalue\n      dup1\n      iszero\n      tag_29\n      jumpi\n      0x00\n      dup1\n      revert\n    tag_29:\n      pop\n      tag_30\n      0x04\n      dup1\n      calldatasize\n      sub\n      dup2\n      add\n      swap1\n      tag_31\n      swap2\n      swap1\n      tag_32\n      jump\t// in\n    tag_31:\n      tag_33\n      jump\t// in\n    tag_30:\n      mload(0x40)\n      tag_34\n      swap2\n      swap1\n      tag_35\n      jump\t// in\n    tag_34:\n      mload(0x40)\n      dup1\n      swap2\n      sub\n      swap1\n      return\n        /* \"contracts/salesannouncement.sol\":760:778  uint public reward */\n    tag_5:\n      callvalue\n      dup1\n      iszero\n      tag_36\n      jumpi\n      0x00\n      dup1\n      revert\n    tag_36:\n      pop\n      tag_37\n      tag_38\n      jump\t// in\n    tag_37:\n      mload(0x40)\n      tag_39\n      swap2\n      swap1\n      tag_35\n      jump\t// in\n    tag_39:\n      mload(0x40)\n      dup1\n      swap2\n      sub\n      swap1\n      return\n        /* \"contracts/salesannouncement.sol\":675:694  uint public endtime */\n    tag_6:\n      callvalue\n      dup1\n      iszero\n      tag_40\n      jumpi\n      0x00\n      dup1\n      revert\n    tag_40:\n      pop\n      tag_41\n      tag_42\n      jump\t// in\n    tag_41:\n      mload(0x40)\n      tag_43\n      swap2\n      swap1\n      tag_35\n      jump\t// in\n    tag_43:\n      mload(0x40)\n      dup1\n      swap2\n      sub\n      swap1\n      return\n        /* \"contracts/salesannouncement.sol\":632:654  uint public floorprice */\n    tag_7:\n      callvalue\n      dup1\n      iszero\n      tag_44\n      jumpi\n      0x00\n      dup1\n      revert\n    tag_44:\n      pop\n      tag_45\n      tag_46\n      jump\t// in\n    tag_45:\n      mload(0x40)\n      tag_47\n      swap2\n      swap1\n      tag_35\n      jump\t// in\n    tag_47:\n      mload(0x40)\n      dup1\n      swap2\n      sub\n      swap1\n      return\n        /* \"contracts/salesannouncement.sol\":537:556  string public title */\n    tag_8:\n      callvalue\n      dup1\n      iszero\n      tag_48\n      jumpi\n      0x00\n      dup1\n      revert\n    tag_48:\n      pop\n      tag_49\n      tag_50\n      jump\t// in\n    tag_49:\n      mload(0x40)\n      tag_51\n      swap2\n      swap1\n      tag_52\n      jump\t// in\n    tag_51:\n      mload(0x40)\n      dup1\n      swap2\n      sub\n      swap1\n      return\n        /* \"contracts/salesannouncement.sol\":720:740  uint public newPrice */\n    tag_9:\n      callvalue\n      dup1\n      iszero\n      tag_53\n      jumpi\n      0x00\n      dup1\n      revert\n    tag_53:\n      pop\n      tag_54\n      tag_55\n      jump\t// in\n    tag_54:\n      mload(0x40)\n      tag_56\n      swap2\n      swap1\n      tag_35\n      jump\t// in\n    tag_56:\n      mload(0x40)\n      dup1\n      swap2\n      sub\n      swap1\n      return\n        /* \"contracts/salesannouncement.sol\":582:607  string public description */\n    tag_10:\n      callvalue\n      dup1\n      iszero\n      tag_57\n      jumpi\n      0x00\n      dup1\n      revert\n    tag_57:\n      pop\n      tag_58\n      tag_59\n      jump\t// in\n    tag_58:\n      mload(0x40)\n      tag_60\n      swap2\n      swap1\n      tag_52\n      jump\t// in\n    tag_60:\n      mload(0x40)\n      dup1\n      swap2\n      sub\n      swap1\n      return\n        /* \"contracts/salesannouncement.sol\":389:418  address payable public person */\n    tag_11:\n      callvalue\n      dup1\n      iszero\n      tag_61\n      jumpi\n      0x00\n      dup1\n      revert\n    tag_61:\n      pop\n      tag_62\n      tag_63\n      jump\t// in\n    tag_62:\n      mload(0x40)\n      tag_64\n      swap2\n      swap1\n      tag_65\n      jump\t// in\n    tag_64:\n      mload(0x40)\n      dup1\n      swap2\n      sub\n      swap1\n      return\n        /* \"contracts/salesannouncement.sol\":1678:1995  function setYell(address _newoffer,uint offer)external payable returns(bool){\r... */\n    tag_12:\n      tag_66\n      0x04\n      dup1\n      calldatasize\n      sub\n      dup2\n      add\n      swap1\n      tag_67\n      swap2\n      swap1\n      tag_68\n      jump\t// in\n    tag_67:\n      tag_69\n      jump\t// in\n    tag_66:\n      mload(0x40)\n      tag_70\n      swap2\n      swap1\n      tag_71\n      jump\t// in\n    tag_70:\n      mload(0x40)\n      dup1\n      swap2\n      sub\n      swap1\n      return\n        /* \"contracts/salesannouncement.sol\":329:358  address payable public dealer */\n    tag_13:\n      callvalue\n      dup1\n      iszero\n      tag_72\n      jumpi\n      0x00\n      dup1\n      revert\n    tag_72:\n      pop\n      tag_73\n      tag_74\n      jump\t// in\n    tag_73:\n      mload(0x40)\n      tag_75\n      swap2\n      swap1\n      tag_65\n      jump\t// in\n    tag_75:\n      mload(0x40)\n      dup1\n      swap2\n      sub\n      swap1\n      return\n        /* \"contracts/salesannouncement.sol\":491:530  address payable[] public previousOffers */\n    tag_14:\n      callvalue\n      dup1\n      iszero\n      tag_76\n      jumpi\n      0x00\n      dup1\n      revert\n    tag_76:\n      pop\n      tag_77\n      0x04\n      dup1\n      calldatasize\n      sub\n      dup2\n      add\n      swap1\n      tag_78\n      swap2\n      swap1\n      tag_79\n      jump\t// in\n    tag_78:\n      tag_80\n      jump\t// in\n    tag_77:\n      mload(0x40)\n      tag_81\n      swap2\n      swap1\n      tag_65\n      jump\t// in\n    tag_81:\n      mload(0x40)\n      dup1\n      swap2\n      sub\n      swap1\n      return\n        /* \"contracts/salesannouncement.sol\":2003:2068  function finished()OnlyPerson OnlyHigherShoulter public{\r... */\n    tag_15:\n      callvalue\n      dup1\n      iszero\n      tag_82\n      jumpi\n      0x00\n      dup1\n      revert\n    tag_82:\n      pop\n      tag_83\n      tag_84\n      jump\t// in\n    tag_83:\n      stop\n        /* \"contracts/salesannouncement.sol\":451:484  address payable public higherYell */\n    tag_16:\n      callvalue\n      dup1\n      iszero\n      tag_85\n      jumpi\n      0x00\n      dup1\n      revert\n    tag_85:\n      pop\n      tag_86\n      tag_87\n      jump\t// in\n    tag_86:\n      mload(0x40)\n      tag_88\n      swap2\n      swap1\n      tag_65\n      jump\t// in\n    tag_88:\n      mload(0x40)\n      dup1\n      swap2\n      sub\n      swap1\n      return\n        /* \"contracts/salesannouncement.sol\":808:1216  function newNotification(address payable _dealer,address payable _person, string memory _title, string memory _description, uint _price, uint _endtime,uint _reward) external payable{\r... */\n    tag_28:\n        /* \"contracts/salesannouncement.sol\":1011:1018  _dealer */\n      dup7\n        /* \"contracts/salesannouncement.sol\":1002:1008  dealer */\n      0x01\n      0x00\n        /* \"contracts/salesannouncement.sol\":1002:1018  dealer = _dealer */\n      0x0100\n      exp\n      dup2\n      sload\n      dup2\n      0xffffffffffffffffffffffffffffffffffffffff\n      mul\n      not\n      and\n      swap1\n      dup4\n      0xffffffffffffffffffffffffffffffffffffffff\n      and\n      mul\n      or\n      swap1\n      sstore\n      pop\n        /* \"contracts/salesannouncement.sol\":1038:1045  _person */\n      dup6\n        /* \"contracts/salesannouncement.sol\":1029:1035  person */\n      0x02\n      0x00\n        /* \"contracts/salesannouncement.sol\":1029:1045  person = _person */\n      0x0100\n      exp\n      dup2\n      sload\n      dup2\n      0xffffffffffffffffffffffffffffffffffffffff\n      mul\n      not\n      and\n      swap1\n      dup4\n      0xffffffffffffffffffffffffffffffffffffffff\n      and\n      mul\n      or\n      swap1\n      sstore\n      pop\n        /* \"contracts/salesannouncement.sol\":1064:1070  _title */\n      dup5\n        /* \"contracts/salesannouncement.sol\":1056:1061  title */\n      0x05\n        /* \"contracts/salesannouncement.sol\":1056:1070  title = _title */\n      swap1\n      dup1\n      mload\n      swap1\n      0x20\n      add\n      swap1\n      tag_90\n      swap3\n      swap2\n      swap1\n      tag_91\n      jump\t// in\n    tag_90:\n      pop\n        /* \"contracts/salesannouncement.sol\":1095:1107  _description */\n      dup4\n        /* \"contracts/salesannouncement.sol\":1081:1092  description */\n      0x06\n        /* \"contracts/salesannouncement.sol\":1081:1107  description = _description */\n      swap1\n      dup1\n      mload\n      swap1\n      0x20\n      add\n      swap1\n      tag_92\n      swap3\n      swap2\n      swap1\n      tag_91\n      jump\t// in\n    tag_92:\n      pop\n        /* \"contracts/salesannouncement.sol\":1131:1137  _price */\n      dup3\n        /* \"contracts/salesannouncement.sol\":1118:1128  floorprice */\n      0x07\n        /* \"contracts/salesannouncement.sol\":1118:1137  floorprice = _price */\n      dup2\n      swap1\n      sstore\n      pop\n        /* \"contracts/salesannouncement.sol\":1173:1181  _endtime */\n      dup2\n        /* \"contracts/salesannouncement.sol\":1158:1170  block.number */\n      number\n        /* \"contracts/salesannouncement.sol\":1158:1181  block.number + _endtime */\n      tag_93\n      swap2\n      swap1\n      tag_94\n      jump\t// in\n    tag_93:\n        /* \"contracts/salesannouncement.sol\":1148:1155  endtime */\n      0x08\n        /* \"contracts/salesannouncement.sol\":1148:1181  endtime = block.number + _endtime */\n      dup2\n      swap1\n      sstore\n      pop\n        /* \"contracts/salesannouncement.sol\":1201:1208  _reward */\n      dup1\n        /* \"contracts/salesannouncement.sol\":1192:1198  reward */\n      0x0a\n        /* \"contracts/salesannouncement.sol\":1192:1208  reward = _reward */\n      dup2\n      swap1\n      sstore\n      pop\n        /* \"contracts/salesannouncement.sol\":808:1216  function newNotification(address payable _dealer,address payable _person, string memory _title, string memory _description, uint _price, uint _endtime,uint _reward) external payable{\r... */\n      pop\n      pop\n      pop\n      pop\n      pop\n      pop\n      pop\n      jump\t// out\n        /* \"contracts/salesannouncement.sol\":282:322  mapping(address => uint) public huutajat */\n    tag_33:\n      mstore(0x20, 0x00)\n      dup1\n      0x00\n      mstore\n      keccak256(0x00, 0x40)\n      0x00\n      swap2\n      pop\n      swap1\n      pop\n      sload\n      dup2\n      jump\t// out\n        /* \"contracts/salesannouncement.sol\":760:778  uint public reward */\n    tag_38:\n      sload(0x0a)\n      dup2\n      jump\t// out\n        /* \"contracts/salesannouncement.sol\":675:694  uint public endtime */\n    tag_42:\n      sload(0x08)\n      dup2\n      jump\t// out\n        /* \"contracts/salesannouncement.sol\":632:654  uint public floorprice */\n    tag_46:\n      sload(0x07)\n      dup2\n      jump\t// out\n        /* \"contracts/salesannouncement.sol\":537:556  string public title */\n    tag_50:\n      0x05\n      dup1\n      sload\n      tag_95\n      swap1\n      tag_96\n      jump\t// in\n    tag_95:\n      dup1\n      0x1f\n      add\n      0x20\n      dup1\n      swap2\n      div\n      mul\n      0x20\n      add\n      mload(0x40)\n      swap1\n      dup2\n      add\n      0x40\n      mstore\n      dup1\n      swap3\n      swap2\n      swap1\n      dup2\n      dup2\n      mstore\n      0x20\n      add\n      dup3\n      dup1\n      sload\n      tag_97\n      swap1\n      tag_96\n      jump\t// in\n    tag_97:\n      dup1\n      iszero\n      tag_98\n      jumpi\n      dup1\n      0x1f\n      lt\n      tag_99\n      jumpi\n      0x0100\n      dup1\n      dup4\n      sload\n      div\n      mul\n      dup4\n      mstore\n      swap2\n      0x20\n      add\n      swap2\n      jump(tag_98)\n    tag_99:\n      dup3\n      add\n      swap2\n      swap1\n      0x00\n      mstore\n      keccak256(0x00, 0x20)\n      swap1\n    tag_100:\n      dup2\n      sload\n      dup2\n      mstore\n      swap1\n      0x01\n      add\n      swap1\n      0x20\n      add\n      dup1\n      dup4\n      gt\n      tag_100\n      jumpi\n      dup3\n      swap1\n      sub\n      0x1f\n      and\n      dup3\n      add\n      swap2\n    tag_98:\n      pop\n      pop\n      pop\n      pop\n      pop\n      dup2\n      jump\t// out\n        /* \"contracts/salesannouncement.sol\":720:740  uint public newPrice */\n    tag_55:\n      sload(0x09)\n      dup2\n      jump\t// out\n        /* \"contracts/salesannouncement.sol\":582:607  string public description */\n    tag_59:\n      0x06\n      dup1\n      sload\n      tag_101\n      swap1\n      tag_96\n      jump\t// in\n    tag_101:\n      dup1\n      0x1f\n      add\n      0x20\n      dup1\n      swap2\n      div\n      mul\n      0x20\n      add\n      mload(0x40)\n      swap1\n      dup2\n      add\n      0x40\n      mstore\n      dup1\n      swap3\n      swap2\n      swap1\n      dup2\n      dup2\n      mstore\n      0x20\n      add\n      dup3\n      dup1\n      sload\n      tag_102\n      swap1\n      tag_96\n      jump\t// in\n    tag_102:\n      dup1\n      iszero\n      tag_103\n      jumpi\n      dup1\n      0x1f\n      lt\n      tag_104\n      jumpi\n      0x0100\n      dup1\n      dup4\n      sload\n      div\n      mul\n      dup4\n      mstore\n      swap2\n      0x20\n      add\n      swap2\n      jump(tag_103)\n    tag_104:\n      dup3\n      add\n      swap2\n      swap1\n      0x00\n      mstore\n      keccak256(0x00, 0x20)\n      swap1\n    tag_105:\n      dup2\n      sload\n      dup2\n      mstore\n      swap1\n      0x01\n      add\n      swap1\n      0x20\n      add\n      dup1\n      dup4\n      gt\n      tag_105\n      jumpi\n      dup3\n      swap1\n      sub\n      0x1f\n      and\n      dup3\n      add\n      swap2\n    tag_103:\n      pop\n      pop\n      pop\n      pop\n      pop\n      dup2\n      jump\t// out\n        /* \"contracts/salesannouncement.sol\":389:418  address payable public person */\n    tag_63:\n      0x02\n      0x00\n      swap1\n      sload\n      swap1\n      0x0100\n      exp\n      swap1\n      div\n      0xffffffffffffffffffffffffffffffffffffffff\n      and\n      dup2\n      jump\t// out\n        /* \"contracts/salesannouncement.sol\":1678:1995  function setYell(address _newoffer,uint offer)external payable returns(bool){\r... */\n    tag_69:\n        /* \"contracts/salesannouncement.sol\":1749:1753  bool */\n      0x00\n        /* \"contracts/salesannouncement.sol\":1781:1791  floorprice */\n      sload(0x07)\n        /* \"contracts/salesannouncement.sol\":1773:1778  offer */\n      dup3\n        /* \"contracts/salesannouncement.sol\":1773:1791  offer < floorprice */\n      lt\n        /* \"contracts/salesannouncement.sol\":1765:1829  require(offer < floorprice,\"You offer is lower than floorprice\") */\n      tag_107\n      jumpi\n      mload(0x40)\n      0x08c379a000000000000000000000000000000000000000000000000000000000\n      dup2\n      mstore\n      0x04\n      add\n      tag_108\n      swap1\n      tag_109\n      jump\t// in\n    tag_108:\n      mload(0x40)\n      dup1\n      swap2\n      sub\n      swap1\n      revert\n    tag_107:\n        /* \"contracts/salesannouncement.sol\":1859:1864  offer */\n      dup2\n        /* \"contracts/salesannouncement.sol\":1848:1856  newPrice */\n      sload(0x09)\n        /* \"contracts/salesannouncement.sol\":1848:1864  newPrice > offer */\n      gt\n        /* \"contracts/salesannouncement.sol\":1840:1888  require(newPrice > offer,\"You offer is too low\") */\n      tag_110\n      jumpi\n      mload(0x40)\n      0x08c379a000000000000000000000000000000000000000000000000000000000\n      dup2\n      mstore\n      0x04\n      add\n      tag_111\n      swap1\n      tag_112\n      jump\t// in\n    tag_111:\n      mload(0x40)\n      dup1\n      swap2\n      sub\n      swap1\n      revert\n    tag_110:\n        /* \"contracts/salesannouncement.sol\":1920:1925  offer */\n      dup2\n        /* \"contracts/salesannouncement.sol\":1909:1917  newPrice */\n      0x09\n        /* \"contracts/salesannouncement.sol\":1909:1925  newPrice = offer */\n      dup2\n      swap1\n      sstore\n      pop\n        /* \"contracts/salesannouncement.sol\":1941:1965  newYell(_newoffer,offer) */\n      0xee242ca320573fd3309d8cc97ef2994fe7704919768fc46f3332be6e9536d0de\n        /* \"contracts/salesannouncement.sol\":1949:1958  _newoffer */\n      dup4\n        /* \"contracts/salesannouncement.sol\":1959:1964  offer */\n      dup4\n        /* \"contracts/salesannouncement.sol\":1941:1965  newYell(_newoffer,offer) */\n      mload(0x40)\n      tag_113\n      swap3\n      swap2\n      swap1\n      tag_114\n      jump\t// in\n    tag_113:\n      mload(0x40)\n      dup1\n      swap2\n      sub\n      swap1\n      log1\n        /* \"contracts/salesannouncement.sol\":1983:1987  true */\n      0x01\n        /* \"contracts/salesannouncement.sol\":1976:1987  return true */\n      swap1\n      pop\n        /* \"contracts/salesannouncement.sol\":1678:1995  function setYell(address _newoffer,uint offer)external payable returns(bool){\r... */\n      swap3\n      swap2\n      pop\n      pop\n      jump\t// out\n        /* \"contracts/salesannouncement.sol\":329:358  address payable public dealer */\n    tag_74:\n      0x01\n      0x00\n      swap1\n      sload\n      swap1\n      0x0100\n      exp\n      swap1\n      div\n      0xffffffffffffffffffffffffffffffffffffffff\n      and\n      dup2\n      jump\t// out\n        /* \"contracts/salesannouncement.sol\":491:530  address payable[] public previousOffers */\n    tag_80:\n      0x04\n      dup2\n      dup2\n      sload\n      dup2\n      lt\n      tag_115\n      jumpi\n      0x00\n      dup1\n      revert\n    tag_115:\n      swap1\n      0x00\n      mstore\n      keccak256(0x00, 0x20)\n      add\n      0x00\n      swap2\n      pop\n      sload\n      swap1\n      0x0100\n      exp\n      swap1\n      div\n      0xffffffffffffffffffffffffffffffffffffffff\n      and\n      dup2\n      jump\t// out\n        /* \"contracts/salesannouncement.sol\":2003:2068  function finished()OnlyPerson OnlyHigherShoulter public{\r... */\n    tag_84:\n        /* \"contracts/salesannouncement.sol\":1464:1470  person */\n      0x02\n      0x00\n      swap1\n      sload\n      swap1\n      0x0100\n      exp\n      swap1\n      div\n      0xffffffffffffffffffffffffffffffffffffffff\n      and\n        /* \"contracts/salesannouncement.sol\":1450:1470  msg.sender == person */\n      0xffffffffffffffffffffffffffffffffffffffff\n      and\n        /* \"contracts/salesannouncement.sol\":1450:1460  msg.sender */\n      caller\n        /* \"contracts/salesannouncement.sol\":1450:1470  msg.sender == person */\n      0xffffffffffffffffffffffffffffffffffffffff\n      and\n      eq\n        /* \"contracts/salesannouncement.sol\":1442:1518  require(msg.sender == person,\"You are not the submitter of the sale notice\") */\n      tag_118\n      jumpi\n      mload(0x40)\n      0x08c379a000000000000000000000000000000000000000000000000000000000\n      dup2\n      mstore\n      0x04\n      add\n      tag_119\n      swap1\n      tag_120\n      jump\t// in\n    tag_119:\n      mload(0x40)\n      dup1\n      swap2\n      sub\n      swap1\n      revert\n    tag_118:\n        /* \"contracts/salesannouncement.sol\":1608:1618  higherYell */\n      0x03\n      0x00\n      swap1\n      sload\n      swap1\n      0x0100\n      exp\n      swap1\n      div\n      0xffffffffffffffffffffffffffffffffffffffff\n      and\n        /* \"contracts/salesannouncement.sol\":1594:1618  msg.sender == higherYell */\n      0xffffffffffffffffffffffffffffffffffffffff\n      and\n        /* \"contracts/salesannouncement.sol\":1594:1604  msg.sender */\n      caller\n        /* \"contracts/salesannouncement.sol\":1594:1618  msg.sender == higherYell */\n      0xffffffffffffffffffffffffffffffffffffffff\n      and\n      eq\n        /* \"contracts/salesannouncement.sol\":1586:1650  require(msg.sender == higherYell, \"You are not the higher yell\") */\n      tag_122\n      jumpi\n      mload(0x40)\n      0x08c379a000000000000000000000000000000000000000000000000000000000\n      dup2\n      mstore\n      0x04\n      add\n      tag_123\n      swap1\n      tag_124\n      jump\t// in\n    tag_123:\n      mload(0x40)\n      dup1\n      swap2\n      sub\n      swap1\n      revert\n    tag_122:\n        /* \"contracts/salesannouncement.sol\":2003:2068  function finished()OnlyPerson OnlyHigherShoulter public{\r... */\n      jump\t// out\n        /* \"contracts/salesannouncement.sol\":451:484  address payable public higherYell */\n    tag_87:\n      0x03\n      0x00\n      swap1\n      sload\n      swap1\n      0x0100\n      exp\n      swap1\n      div\n      0xffffffffffffffffffffffffffffffffffffffff\n      and\n      dup2\n      jump\t// out\n    tag_91:\n      dup3\n      dup1\n      sload\n      tag_126\n      swap1\n      tag_96\n      jump\t// in\n    tag_126:\n      swap1\n      0x00\n      mstore\n      keccak256(0x00, 0x20)\n      swap1\n      0x1f\n      add\n      0x20\n      swap1\n      div\n      dup2\n      add\n      swap3\n      dup3\n      tag_128\n      jumpi\n      0x00\n      dup6\n      sstore\n      jump(tag_127)\n    tag_128:\n      dup3\n      0x1f\n      lt\n      tag_129\n      jumpi\n      dup1\n      mload\n      not(0xff)\n      and\n      dup4\n      dup1\n      add\n      or\n      dup6\n      sstore\n      jump(tag_127)\n    tag_129:\n      dup3\n      dup1\n      add\n      0x01\n      add\n      dup6\n      sstore\n      dup3\n      iszero\n      tag_127\n      jumpi\n      swap2\n      dup3\n      add\n    tag_130:\n      dup3\n      dup2\n      gt\n      iszero\n      tag_131\n      jumpi\n      dup3\n      mload\n      dup3\n      sstore\n      swap2\n      0x20\n      add\n      swap2\n      swap1\n      0x01\n      add\n      swap1\n      jump(tag_130)\n    tag_131:\n    tag_127:\n      pop\n      swap1\n      pop\n      tag_132\n      swap2\n      swap1\n      tag_133\n      jump\t// in\n    tag_132:\n      pop\n      swap1\n      jump\t// out\n    tag_133:\n    tag_134:\n      dup1\n      dup3\n      gt\n      iszero\n      tag_135\n      jumpi\n      0x00\n      dup2\n      0x00\n      swap1\n      sstore\n      pop\n      0x01\n      add\n      jump(tag_134)\n    tag_135:\n      pop\n      swap1\n      jump\t// out\n        /* \"#utility.yul\":7:419   */\n    tag_137:\n        /* \"#utility.yul\":85:90   */\n      0x00\n        /* \"#utility.yul\":110:176   */\n      tag_139\n        /* \"#utility.yul\":126:175   */\n      tag_140\n        /* \"#utility.yul\":168:174   */\n      dup5\n        /* \"#utility.yul\":126:175   */\n      tag_141\n      jump\t// in\n    tag_140:\n        /* \"#utility.yul\":110:176   */\n      tag_142\n      jump\t// in\n    tag_139:\n        /* \"#utility.yul\":101:176   */\n      swap1\n      pop\n        /* \"#utility.yul\":199:205   */\n      dup3\n        /* \"#utility.yul\":192:197   */\n      dup2\n        /* \"#utility.yul\":185:206   */\n      mstore\n        /* \"#utility.yul\":237:241   */\n      0x20\n        /* \"#utility.yul\":230:235   */\n      dup2\n        /* \"#utility.yul\":226:242   */\n      add\n        /* \"#utility.yul\":275:278   */\n      dup5\n        /* \"#utility.yul\":266:272   */\n      dup5\n        /* \"#utility.yul\":261:264   */\n      dup5\n        /* \"#utility.yul\":257:273   */\n      add\n        /* \"#utility.yul\":254:279   */\n      gt\n        /* \"#utility.yul\":251:363   */\n      iszero\n      tag_143\n      jumpi\n        /* \"#utility.yul\":282:361   */\n      tag_144\n      tag_145\n      jump\t// in\n    tag_144:\n        /* \"#utility.yul\":251:363   */\n    tag_143:\n        /* \"#utility.yul\":372:413   */\n      tag_146\n        /* \"#utility.yul\":406:412   */\n      dup5\n        /* \"#utility.yul\":401:404   */\n      dup3\n        /* \"#utility.yul\":396:399   */\n      dup6\n        /* \"#utility.yul\":372:413   */\n      tag_147\n      jump\t// in\n    tag_146:\n        /* \"#utility.yul\":91:419   */\n      pop\n        /* \"#utility.yul\":7:419   */\n      swap4\n      swap3\n      pop\n      pop\n      pop\n      jump\t// out\n        /* \"#utility.yul\":425:564   */\n    tag_148:\n        /* \"#utility.yul\":471:476   */\n      0x00\n        /* \"#utility.yul\":509:515   */\n      dup2\n        /* \"#utility.yul\":496:516   */\n      calldataload\n        /* \"#utility.yul\":487:516   */\n      swap1\n      pop\n        /* \"#utility.yul\":525:558   */\n      tag_150\n        /* \"#utility.yul\":552:557   */\n      dup2\n        /* \"#utility.yul\":525:558   */\n      tag_151\n      jump\t// in\n    tag_150:\n        /* \"#utility.yul\":425:564   */\n      swap3\n      swap2\n      pop\n      pop\n      jump\t// out\n        /* \"#utility.yul\":570:725   */\n    tag_152:\n        /* \"#utility.yul\":624:629   */\n      0x00\n        /* \"#utility.yul\":662:668   */\n      dup2\n        /* \"#utility.yul\":649:669   */\n      calldataload\n        /* \"#utility.yul\":640:669   */\n      swap1\n      pop\n        /* \"#utility.yul\":678:719   */\n      tag_154\n        /* \"#utility.yul\":713:718   */\n      dup2\n        /* \"#utility.yul\":678:719   */\n      tag_155\n      jump\t// in\n    tag_154:\n        /* \"#utility.yul\":570:725   */\n      swap3\n      swap2\n      pop\n      pop\n      jump\t// out\n        /* \"#utility.yul\":745:1085   */\n    tag_156:\n        /* \"#utility.yul\":801:806   */\n      0x00\n        /* \"#utility.yul\":850:853   */\n      dup3\n        /* \"#utility.yul\":843:847   */\n      0x1f\n        /* \"#utility.yul\":835:841   */\n      dup4\n        /* \"#utility.yul\":831:848   */\n      add\n        /* \"#utility.yul\":827:854   */\n      slt\n        /* \"#utility.yul\":817:939   */\n      tag_158\n      jumpi\n        /* \"#utility.yul\":858:937   */\n      tag_159\n      tag_160\n      jump\t// in\n    tag_159:\n        /* \"#utility.yul\":817:939   */\n    tag_158:\n        /* \"#utility.yul\":975:981   */\n      dup2\n        /* \"#utility.yul\":962:982   */\n      calldataload\n        /* \"#utility.yul\":1000:1079   */\n      tag_161\n        /* \"#utility.yul\":1075:1078   */\n      dup5\n        /* \"#utility.yul\":1067:1073   */\n      dup3\n        /* \"#utility.yul\":1060:1064   */\n      0x20\n        /* \"#utility.yul\":1052:1058   */\n      dup7\n        /* \"#utility.yul\":1048:1065   */\n      add\n        /* \"#utility.yul\":1000:1079   */\n      tag_137\n      jump\t// in\n    tag_161:\n        /* \"#utility.yul\":991:1079   */\n      swap2\n      pop\n        /* \"#utility.yul\":807:1085   */\n      pop\n        /* \"#utility.yul\":745:1085   */\n      swap3\n      swap2\n      pop\n      pop\n      jump\t// out\n        /* \"#utility.yul\":1091:1230   */\n    tag_162:\n        /* \"#utility.yul\":1137:1142   */\n      0x00\n        /* \"#utility.yul\":1175:1181   */\n      dup2\n        /* \"#utility.yul\":1162:1182   */\n      calldataload\n        /* \"#utility.yul\":1153:1182   */\n      swap1\n      pop\n        /* \"#utility.yul\":1191:1224   */\n      tag_164\n        /* \"#utility.yul\":1218:1223   */\n      dup2\n        /* \"#utility.yul\":1191:1224   */\n      tag_165\n      jump\t// in\n    tag_164:\n        /* \"#utility.yul\":1091:1230   */\n      swap3\n      swap2\n      pop\n      pop\n      jump\t// out\n        /* \"#utility.yul\":1236:1565   */\n    tag_32:\n        /* \"#utility.yul\":1295:1301   */\n      0x00\n        /* \"#utility.yul\":1344:1346   */\n      0x20\n        /* \"#utility.yul\":1332:1341   */\n      dup3\n        /* \"#utility.yul\":1323:1330   */\n      dup5\n        /* \"#utility.yul\":1319:1342   */\n      sub\n        /* \"#utility.yul\":1315:1347   */\n      slt\n        /* \"#utility.yul\":1312:1431   */\n      iszero\n      tag_167\n      jumpi\n        /* \"#utility.yul\":1350:1429   */\n      tag_168\n      tag_169\n      jump\t// in\n    tag_168:\n        /* \"#utility.yul\":1312:1431   */\n    tag_167:\n        /* \"#utility.yul\":1470:1471   */\n      0x00\n        /* \"#utility.yul\":1495:1548   */\n      tag_170\n        /* \"#utility.yul\":1540:1547   */\n      dup5\n        /* \"#utility.yul\":1531:1537   */\n      dup3\n        /* \"#utility.yul\":1520:1529   */\n      dup6\n        /* \"#utility.yul\":1516:1538   */\n      add\n        /* \"#utility.yul\":1495:1548   */\n      tag_148\n      jump\t// in\n    tag_170:\n        /* \"#utility.yul\":1485:1548   */\n      swap2\n      pop\n        /* \"#utility.yul\":1441:1558   */\n      pop\n        /* \"#utility.yul\":1236:1565   */\n      swap3\n      swap2\n      pop\n      pop\n      jump\t// out\n        /* \"#utility.yul\":1571:3166   */\n    tag_27:\n        /* \"#utility.yul\":1720:1726   */\n      0x00\n        /* \"#utility.yul\":1728:1734   */\n      dup1\n        /* \"#utility.yul\":1736:1742   */\n      0x00\n        /* \"#utility.yul\":1744:1750   */\n      dup1\n        /* \"#utility.yul\":1752:1758   */\n      0x00\n        /* \"#utility.yul\":1760:1766   */\n      dup1\n        /* \"#utility.yul\":1768:1774   */\n      0x00\n        /* \"#utility.yul\":1817:1820   */\n      0xe0\n        /* \"#utility.yul\":1805:1814   */\n      dup9\n        /* \"#utility.yul\":1796:1803   */\n      dup11\n        /* \"#utility.yul\":1792:1815   */\n      sub\n        /* \"#utility.yul\":1788:1821   */\n      slt\n        /* \"#utility.yul\":1785:1905   */\n      iszero\n      tag_172\n      jumpi\n        /* \"#utility.yul\":1824:1903   */\n      tag_173\n      tag_169\n      jump\t// in\n    tag_173:\n        /* \"#utility.yul\":1785:1905   */\n    tag_172:\n        /* \"#utility.yul\":1944:1945   */\n      0x00\n        /* \"#utility.yul\":1969:2030   */\n      tag_174\n        /* \"#utility.yul\":2022:2029   */\n      dup11\n        /* \"#utility.yul\":2013:2019   */\n      dup3\n        /* \"#utility.yul\":2002:2011   */\n      dup12\n        /* \"#utility.yul\":1998:2020   */\n      add\n        /* \"#utility.yul\":1969:2030   */\n      tag_152\n      jump\t// in\n    tag_174:\n        /* \"#utility.yul\":1959:2030   */\n      swap8\n      pop\n        /* \"#utility.yul\":1915:2040   */\n      pop\n        /* \"#utility.yul\":2079:2081   */\n      0x20\n        /* \"#utility.yul\":2105:2166   */\n      tag_175\n        /* \"#utility.yul\":2158:2165   */\n      dup11\n        /* \"#utility.yul\":2149:2155   */\n      dup3\n        /* \"#utility.yul\":2138:2147   */\n      dup12\n        /* \"#utility.yul\":2134:2156   */\n      add\n        /* \"#utility.yul\":2105:2166   */\n      tag_152\n      jump\t// in\n    tag_175:\n        /* \"#utility.yul\":2095:2166   */\n      swap7\n      pop\n        /* \"#utility.yul\":2050:2176   */\n      pop\n        /* \"#utility.yul\":2243:2245   */\n      0x40\n        /* \"#utility.yul\":2232:2241   */\n      dup9\n        /* \"#utility.yul\":2228:2246   */\n      add\n        /* \"#utility.yul\":2215:2247   */\n      calldataload\n        /* \"#utility.yul\":2274:2292   */\n      0xffffffffffffffff\n        /* \"#utility.yul\":2266:2272   */\n      dup2\n        /* \"#utility.yul\":2263:2293   */\n      gt\n        /* \"#utility.yul\":2260:2377   */\n      iszero\n      tag_176\n      jumpi\n        /* \"#utility.yul\":2296:2375   */\n      tag_177\n      tag_178\n      jump\t// in\n    tag_177:\n        /* \"#utility.yul\":2260:2377   */\n    tag_176:\n        /* \"#utility.yul\":2401:2464   */\n      tag_179\n        /* \"#utility.yul\":2456:2463   */\n      dup11\n        /* \"#utility.yul\":2447:2453   */\n      dup3\n        /* \"#utility.yul\":2436:2445   */\n      dup12\n        /* \"#utility.yul\":2432:2454   */\n      add\n        /* \"#utility.yul\":2401:2464   */\n      tag_156\n      jump\t// in\n    tag_179:\n        /* \"#utility.yul\":2391:2464   */\n      swap6\n      pop\n        /* \"#utility.yul\":2186:2474   */\n      pop\n        /* \"#utility.yul\":2541:2543   */\n      0x60\n        /* \"#utility.yul\":2530:2539   */\n      dup9\n        /* \"#utility.yul\":2526:2544   */\n      add\n        /* \"#utility.yul\":2513:2545   */\n      calldataload\n        /* \"#utility.yul\":2572:2590   */\n      0xffffffffffffffff\n        /* \"#utility.yul\":2564:2570   */\n      dup2\n        /* \"#utility.yul\":2561:2591   */\n      gt\n        /* \"#utility.yul\":2558:2675   */\n      iszero\n      tag_180\n      jumpi\n        /* \"#utility.yul\":2594:2673   */\n      tag_181\n      tag_178\n      jump\t// in\n    tag_181:\n        /* \"#utility.yul\":2558:2675   */\n    tag_180:\n        /* \"#utility.yul\":2699:2762   */\n      tag_182\n        /* \"#utility.yul\":2754:2761   */\n      dup11\n        /* \"#utility.yul\":2745:2751   */\n      dup3\n        /* \"#utility.yul\":2734:2743   */\n      dup12\n        /* \"#utility.yul\":2730:2752   */\n      add\n        /* \"#utility.yul\":2699:2762   */\n      tag_156\n      jump\t// in\n    tag_182:\n        /* \"#utility.yul\":2689:2762   */\n      swap5\n      pop\n        /* \"#utility.yul\":2484:2772   */\n      pop\n        /* \"#utility.yul\":2811:2814   */\n      0x80\n        /* \"#utility.yul\":2838:2891   */\n      tag_183\n        /* \"#utility.yul\":2883:2890   */\n      dup11\n        /* \"#utility.yul\":2874:2880   */\n      dup3\n        /* \"#utility.yul\":2863:2872   */\n      dup12\n        /* \"#utility.yul\":2859:2881   */\n      add\n        /* \"#utility.yul\":2838:2891   */\n      tag_162\n      jump\t// in\n    tag_183:\n        /* \"#utility.yul\":2828:2891   */\n      swap4\n      pop\n        /* \"#utility.yul\":2782:2901   */\n      pop\n        /* \"#utility.yul\":2940:2943   */\n      0xa0\n        /* \"#utility.yul\":2967:3020   */\n      tag_184\n        /* \"#utility.yul\":3012:3019   */\n      dup11\n        /* \"#utility.yul\":3003:3009   */\n      dup3\n        /* \"#utility.yul\":2992:3001   */\n      dup12\n        /* \"#utility.yul\":2988:3010   */\n      add\n        /* \"#utility.yul\":2967:3020   */\n      tag_162\n      jump\t// in\n    tag_184:\n        /* \"#utility.yul\":2957:3020   */\n      swap3\n      pop\n        /* \"#utility.yul\":2911:3030   */\n      pop\n        /* \"#utility.yul\":3069:3072   */\n      0xc0\n        /* \"#utility.yul\":3096:3149   */\n      tag_185\n        /* \"#utility.yul\":3141:3148   */\n      dup11\n        /* \"#utility.yul\":3132:3138   */\n      dup3\n        /* \"#utility.yul\":3121:3130   */\n      dup12\n        /* \"#utility.yul\":3117:3139   */\n      add\n        /* \"#utility.yul\":3096:3149   */\n      tag_162\n      jump\t// in\n    tag_185:\n        /* \"#utility.yul\":3086:3149   */\n      swap2\n      pop\n        /* \"#utility.yul\":3040:3159   */\n      pop\n        /* \"#utility.yul\":1571:3166   */\n      swap3\n      swap6\n      swap9\n      swap2\n      swap5\n      swap8\n      pop\n      swap3\n      swap6\n      pop\n      jump\t// out\n        /* \"#utility.yul\":3172:3646   */\n    tag_68:\n        /* \"#utility.yul\":3240:3246   */\n      0x00\n        /* \"#utility.yul\":3248:3254   */\n      dup1\n        /* \"#utility.yul\":3297:3299   */\n      0x40\n        /* \"#utility.yul\":3285:3294   */\n      dup4\n        /* \"#utility.yul\":3276:3283   */\n      dup6\n        /* \"#utility.yul\":3272:3295   */\n      sub\n        /* \"#utility.yul\":3268:3300   */\n      slt\n        /* \"#utility.yul\":3265:3384   */\n      iszero\n      tag_187\n      jumpi\n        /* \"#utility.yul\":3303:3382   */\n      tag_188\n      tag_169\n      jump\t// in\n    tag_188:\n        /* \"#utility.yul\":3265:3384   */\n    tag_187:\n        /* \"#utility.yul\":3423:3424   */\n      0x00\n        /* \"#utility.yul\":3448:3501   */\n      tag_189\n        /* \"#utility.yul\":3493:3500   */\n      dup6\n        /* \"#utility.yul\":3484:3490   */\n      dup3\n        /* \"#utility.yul\":3473:3482   */\n      dup7\n        /* \"#utility.yul\":3469:3491   */\n      add\n        /* \"#utility.yul\":3448:3501   */\n      tag_148\n      jump\t// in\n    tag_189:\n        /* \"#utility.yul\":3438:3501   */\n      swap3\n      pop\n        /* \"#utility.yul\":3394:3511   */\n      pop\n        /* \"#utility.yul\":3550:3552   */\n      0x20\n        /* \"#utility.yul\":3576:3629   */\n      tag_190\n        /* \"#utility.yul\":3621:3628   */\n      dup6\n        /* \"#utility.yul\":3612:3618   */\n      dup3\n        /* \"#utility.yul\":3601:3610   */\n      dup7\n        /* \"#utility.yul\":3597:3619   */\n      add\n        /* \"#utility.yul\":3576:3629   */\n      tag_162\n      jump\t// in\n    tag_190:\n        /* \"#utility.yul\":3566:3629   */\n      swap2\n      pop\n        /* \"#utility.yul\":3521:3639   */\n      pop\n        /* \"#utility.yul\":3172:3646   */\n      swap3\n      pop\n      swap3\n      swap1\n      pop\n      jump\t// out\n        /* \"#utility.yul\":3652:3981   */\n    tag_79:\n        /* \"#utility.yul\":3711:3717   */\n      0x00\n        /* \"#utility.yul\":3760:3762   */\n      0x20\n        /* \"#utility.yul\":3748:3757   */\n      dup3\n        /* \"#utility.yul\":3739:3746   */\n      dup5\n        /* \"#utility.yul\":3735:3758   */\n      sub\n        /* \"#utility.yul\":3731:3763   */\n      slt\n        /* \"#utility.yul\":3728:3847   */\n      iszero\n      tag_192\n      jumpi\n        /* \"#utility.yul\":3766:3845   */\n      tag_193\n      tag_169\n      jump\t// in\n    tag_193:\n        /* \"#utility.yul\":3728:3847   */\n    tag_192:\n        /* \"#utility.yul\":3886:3887   */\n      0x00\n        /* \"#utility.yul\":3911:3964   */\n      tag_194\n        /* \"#utility.yul\":3956:3963   */\n      dup5\n        /* \"#utility.yul\":3947:3953   */\n      dup3\n        /* \"#utility.yul\":3936:3945   */\n      dup6\n        /* \"#utility.yul\":3932:3954   */\n      add\n        /* \"#utility.yul\":3911:3964   */\n      tag_162\n      jump\t// in\n    tag_194:\n        /* \"#utility.yul\":3901:3964   */\n      swap2\n      pop\n        /* \"#utility.yul\":3857:3974   */\n      pop\n        /* \"#utility.yul\":3652:3981   */\n      swap3\n      swap2\n      pop\n      pop\n      jump\t// out\n        /* \"#utility.yul\":3987:4129   */\n    tag_195:\n        /* \"#utility.yul\":4090:4122   */\n      tag_197\n        /* \"#utility.yul\":4116:4121   */\n      dup2\n        /* \"#utility.yul\":4090:4122   */\n      tag_198\n      jump\t// in\n    tag_197:\n        /* \"#utility.yul\":4085:4088   */\n      dup3\n        /* \"#utility.yul\":4078:4123   */\n      mstore\n        /* \"#utility.yul\":3987:4129   */\n      pop\n      pop\n      jump\t// out\n        /* \"#utility.yul\":4135:4253   */\n    tag_199:\n        /* \"#utility.yul\":4222:4246   */\n      tag_201\n        /* \"#utility.yul\":4240:4245   */\n      dup2\n        /* \"#utility.yul\":4222:4246   */\n      tag_202\n      jump\t// in\n    tag_201:\n        /* \"#utility.yul\":4217:4220   */\n      dup3\n        /* \"#utility.yul\":4210:4247   */\n      mstore\n        /* \"#utility.yul\":4135:4253   */\n      pop\n      pop\n      jump\t// out\n        /* \"#utility.yul\":4259:4368   */\n    tag_203:\n        /* \"#utility.yul\":4340:4361   */\n      tag_205\n        /* \"#utility.yul\":4355:4360   */\n      dup2\n        /* \"#utility.yul\":4340:4361   */\n      tag_206\n      jump\t// in\n    tag_205:\n        /* \"#utility.yul\":4335:4338   */\n      dup3\n        /* \"#utility.yul\":4328:4362   */\n      mstore\n        /* \"#utility.yul\":4259:4368   */\n      pop\n      pop\n      jump\t// out\n        /* \"#utility.yul\":4374:4738   */\n    tag_207:\n        /* \"#utility.yul\":4462:4465   */\n      0x00\n        /* \"#utility.yul\":4490:4529   */\n      tag_209\n        /* \"#utility.yul\":4523:4528   */\n      dup3\n        /* \"#utility.yul\":4490:4529   */\n      tag_210\n      jump\t// in\n    tag_209:\n        /* \"#utility.yul\":4545:4616   */\n      tag_211\n        /* \"#utility.yul\":4609:4615   */\n      dup2\n        /* \"#utility.yul\":4604:4607   */\n      dup6\n        /* \"#utility.yul\":4545:4616   */\n      tag_212\n      jump\t// in\n    tag_211:\n        /* \"#utility.yul\":4538:4616   */\n      swap4\n      pop\n        /* \"#utility.yul\":4625:4677   */\n      tag_213\n        /* \"#utility.yul\":4670:4676   */\n      dup2\n        /* \"#utility.yul\":4665:4668   */\n      dup6\n        /* \"#utility.yul\":4658:4662   */\n      0x20\n        /* \"#utility.yul\":4651:4656   */\n      dup7\n        /* \"#utility.yul\":4647:4663   */\n      add\n        /* \"#utility.yul\":4625:4677   */\n      tag_214\n      jump\t// in\n    tag_213:\n        /* \"#utility.yul\":4702:4731   */\n      tag_215\n        /* \"#utility.yul\":4724:4730   */\n      dup2\n        /* \"#utility.yul\":4702:4731   */\n      tag_216\n      jump\t// in\n    tag_215:\n        /* \"#utility.yul\":4697:4700   */\n      dup5\n        /* \"#utility.yul\":4693:4732   */\n      add\n        /* \"#utility.yul\":4686:4732   */\n      swap2\n      pop\n        /* \"#utility.yul\":4466:4738   */\n      pop\n        /* \"#utility.yul\":4374:4738   */\n      swap3\n      swap2\n      pop\n      pop\n      jump\t// out\n        /* \"#utility.yul\":4744:5110   */\n    tag_217:\n        /* \"#utility.yul\":4886:4889   */\n      0x00\n        /* \"#utility.yul\":4907:4974   */\n      tag_219\n        /* \"#utility.yul\":4971:4973   */\n      0x14\n        /* \"#utility.yul\":4966:4969   */\n      dup4\n        /* \"#utility.yul\":4907:4974   */\n      tag_212\n      jump\t// in\n    tag_219:\n        /* \"#utility.yul\":4900:4974   */\n      swap2\n      pop\n        /* \"#utility.yul\":4983:5076   */\n      tag_220\n        /* \"#utility.yul\":5072:5075   */\n      dup3\n        /* \"#utility.yul\":4983:5076   */\n      tag_221\n      jump\t// in\n    tag_220:\n        /* \"#utility.yul\":5101:5103   */\n      0x20\n        /* \"#utility.yul\":5096:5099   */\n      dup3\n        /* \"#utility.yul\":5092:5104   */\n      add\n        /* \"#utility.yul\":5085:5104   */\n      swap1\n      pop\n        /* \"#utility.yul\":4744:5110   */\n      swap2\n      swap1\n      pop\n      jump\t// out\n        /* \"#utility.yul\":5116:5482   */\n    tag_222:\n        /* \"#utility.yul\":5258:5261   */\n      0x00\n        /* \"#utility.yul\":5279:5346   */\n      tag_224\n        /* \"#utility.yul\":5343:5345   */\n      0x22\n        /* \"#utility.yul\":5338:5341   */\n      dup4\n        /* \"#utility.yul\":5279:5346   */\n      tag_212\n      jump\t// in\n    tag_224:\n        /* \"#utility.yul\":5272:5346   */\n      swap2\n      pop\n        /* \"#utility.yul\":5355:5448   */\n      tag_225\n        /* \"#utility.yul\":5444:5447   */\n      dup3\n        /* \"#utility.yul\":5355:5448   */\n      tag_226\n      jump\t// in\n    tag_225:\n        /* \"#utility.yul\":5473:5475   */\n      0x40\n        /* \"#utility.yul\":5468:5471   */\n      dup3\n        /* \"#utility.yul\":5464:5476   */\n      add\n        /* \"#utility.yul\":5457:5476   */\n      swap1\n      pop\n        /* \"#utility.yul\":5116:5482   */\n      swap2\n      swap1\n      pop\n      jump\t// out\n        /* \"#utility.yul\":5488:5854   */\n    tag_227:\n        /* \"#utility.yul\":5630:5633   */\n      0x00\n        /* \"#utility.yul\":5651:5718   */\n      tag_229\n        /* \"#utility.yul\":5715:5717   */\n      0x1b\n        /* \"#utility.yul\":5710:5713   */\n      dup4\n        /* \"#utility.yul\":5651:5718   */\n      tag_212\n      jump\t// in\n    tag_229:\n        /* \"#utility.yul\":5644:5718   */\n      swap2\n      pop\n        /* \"#utility.yul\":5727:5820   */\n      tag_230\n        /* \"#utility.yul\":5816:5819   */\n      dup3\n        /* \"#utility.yul\":5727:5820   */\n      tag_231\n      jump\t// in\n    tag_230:\n        /* \"#utility.yul\":5845:5847   */\n      0x20\n        /* \"#utility.yul\":5840:5843   */\n      dup3\n        /* \"#utility.yul\":5836:5848   */\n      add\n        /* \"#utility.yul\":5829:5848   */\n      swap1\n      pop\n        /* \"#utility.yul\":5488:5854   */\n      swap2\n      swap1\n      pop\n      jump\t// out\n        /* \"#utility.yul\":5860:6226   */\n    tag_232:\n        /* \"#utility.yul\":6002:6005   */\n      0x00\n        /* \"#utility.yul\":6023:6090   */\n      tag_234\n        /* \"#utility.yul\":6087:6089   */\n      0x14\n        /* \"#utility.yul\":6082:6085   */\n      dup4\n        /* \"#utility.yul\":6023:6090   */\n      tag_212\n      jump\t// in\n    tag_234:\n        /* \"#utility.yul\":6016:6090   */\n      swap2\n      pop\n        /* \"#utility.yul\":6099:6192   */\n      tag_235\n        /* \"#utility.yul\":6188:6191   */\n      dup3\n        /* \"#utility.yul\":6099:6192   */\n      tag_236\n      jump\t// in\n    tag_235:\n        /* \"#utility.yul\":6217:6219   */\n      0x20\n        /* \"#utility.yul\":6212:6215   */\n      dup3\n        /* \"#utility.yul\":6208:6220   */\n      add\n        /* \"#utility.yul\":6201:6220   */\n      swap1\n      pop\n        /* \"#utility.yul\":5860:6226   */\n      swap2\n      swap1\n      pop\n      jump\t// out\n        /* \"#utility.yul\":6232:6598   */\n    tag_237:\n        /* \"#utility.yul\":6374:6377   */\n      0x00\n        /* \"#utility.yul\":6395:6462   */\n      tag_239\n        /* \"#utility.yul\":6459:6461   */\n      0x2c\n        /* \"#utility.yul\":6454:6457   */\n      dup4\n        /* \"#utility.yul\":6395:6462   */\n      tag_212\n      jump\t// in\n    tag_239:\n        /* \"#utility.yul\":6388:6462   */\n      swap2\n      pop\n        /* \"#utility.yul\":6471:6564   */\n      tag_240\n        /* \"#utility.yul\":6560:6563   */\n      dup3\n        /* \"#utility.yul\":6471:6564   */\n      tag_241\n      jump\t// in\n    tag_240:\n        /* \"#utility.yul\":6589:6591   */\n      0x40\n        /* \"#utility.yul\":6584:6587   */\n      dup3\n        /* \"#utility.yul\":6580:6592   */\n      add\n        /* \"#utility.yul\":6573:6592   */\n      swap1\n      pop\n        /* \"#utility.yul\":6232:6598   */\n      swap2\n      swap1\n      pop\n      jump\t// out\n        /* \"#utility.yul\":6604:6722   */\n    tag_242:\n        /* \"#utility.yul\":6691:6715   */\n      tag_244\n        /* \"#utility.yul\":6709:6714   */\n      dup2\n        /* \"#utility.yul\":6691:6715   */\n      tag_245\n      jump\t// in\n    tag_244:\n        /* \"#utility.yul\":6686:6689   */\n      dup3\n        /* \"#utility.yul\":6679:6716   */\n      mstore\n        /* \"#utility.yul\":6604:6722   */\n      pop\n      pop\n      jump\t// out\n        /* \"#utility.yul\":6728:6982   */\n    tag_65:\n        /* \"#utility.yul\":6837:6841   */\n      0x00\n        /* \"#utility.yul\":6875:6877   */\n      0x20\n        /* \"#utility.yul\":6864:6873   */\n      dup3\n        /* \"#utility.yul\":6860:6878   */\n      add\n        /* \"#utility.yul\":6852:6878   */\n      swap1\n      pop\n        /* \"#utility.yul\":6888:6975   */\n      tag_247\n        /* \"#utility.yul\":6972:6973   */\n      0x00\n        /* \"#utility.yul\":6961:6970   */\n      dup4\n        /* \"#utility.yul\":6957:6974   */\n      add\n        /* \"#utility.yul\":6948:6954   */\n      dup5\n        /* \"#utility.yul\":6888:6975   */\n      tag_195\n      jump\t// in\n    tag_247:\n        /* \"#utility.yul\":6728:6982   */\n      swap3\n      swap2\n      pop\n      pop\n      jump\t// out\n        /* \"#utility.yul\":6988:7320   */\n    tag_114:\n        /* \"#utility.yul\":7109:7113   */\n      0x00\n        /* \"#utility.yul\":7147:7149   */\n      0x40\n        /* \"#utility.yul\":7136:7145   */\n      dup3\n        /* \"#utility.yul\":7132:7150   */\n      add\n        /* \"#utility.yul\":7124:7150   */\n      swap1\n      pop\n        /* \"#utility.yul\":7160:7231   */\n      tag_249\n        /* \"#utility.yul\":7228:7229   */\n      0x00\n        /* \"#utility.yul\":7217:7226   */\n      dup4\n        /* \"#utility.yul\":7213:7230   */\n      add\n        /* \"#utility.yul\":7204:7210   */\n      dup6\n        /* \"#utility.yul\":7160:7231   */\n      tag_199\n      jump\t// in\n    tag_249:\n        /* \"#utility.yul\":7241:7313   */\n      tag_250\n        /* \"#utility.yul\":7309:7311   */\n      0x20\n        /* \"#utility.yul\":7298:7307   */\n      dup4\n        /* \"#utility.yul\":7294:7312   */\n      add\n        /* \"#utility.yul\":7285:7291   */\n      dup5\n        /* \"#utility.yul\":7241:7313   */\n      tag_242\n      jump\t// in\n    tag_250:\n        /* \"#utility.yul\":6988:7320   */\n      swap4\n      swap3\n      pop\n      pop\n      pop\n      jump\t// out\n        /* \"#utility.yul\":7326:7536   */\n    tag_71:\n        /* \"#utility.yul\":7413:7417   */\n      0x00\n        /* \"#utility.yul\":7451:7453   */\n      0x20\n        /* \"#utility.yul\":7440:7449   */\n      dup3\n        /* \"#utility.yul\":7436:7454   */\n      add\n        /* \"#utility.yul\":7428:7454   */\n      swap1\n      pop\n        /* \"#utility.yul\":7464:7529   */\n      tag_252\n        /* \"#utility.yul\":7526:7527   */\n      0x00\n        /* \"#utility.yul\":7515:7524   */\n      dup4\n        /* \"#utility.yul\":7511:7528   */\n      add\n        /* \"#utility.yul\":7502:7508   */\n      dup5\n        /* \"#utility.yul\":7464:7529   */\n      tag_203\n      jump\t// in\n    tag_252:\n        /* \"#utility.yul\":7326:7536   */\n      swap3\n      swap2\n      pop\n      pop\n      jump\t// out\n        /* \"#utility.yul\":7542:7855   */\n    tag_52:\n        /* \"#utility.yul\":7655:7659   */\n      0x00\n        /* \"#utility.yul\":7693:7695   */\n      0x20\n        /* \"#utility.yul\":7682:7691   */\n      dup3\n        /* \"#utility.yul\":7678:7696   */\n      add\n        /* \"#utility.yul\":7670:7696   */\n      swap1\n      pop\n        /* \"#utility.yul\":7742:7751   */\n      dup2\n        /* \"#utility.yul\":7736:7740   */\n      dup2\n        /* \"#utility.yul\":7732:7752   */\n      sub\n        /* \"#utility.yul\":7728:7729   */\n      0x00\n        /* \"#utility.yul\":7717:7726   */\n      dup4\n        /* \"#utility.yul\":7713:7730   */\n      add\n        /* \"#utility.yul\":7706:7753   */\n      mstore\n        /* \"#utility.yul\":7770:7848   */\n      tag_254\n        /* \"#utility.yul\":7843:7847   */\n      dup2\n        /* \"#utility.yul\":7834:7840   */\n      dup5\n        /* \"#utility.yul\":7770:7848   */\n      tag_207\n      jump\t// in\n    tag_254:\n        /* \"#utility.yul\":7762:7848   */\n      swap1\n      pop\n        /* \"#utility.yul\":7542:7855   */\n      swap3\n      swap2\n      pop\n      pop\n      jump\t// out\n        /* \"#utility.yul\":7861:8280   */\n    tag_24:\n        /* \"#utility.yul\":8027:8031   */\n      0x00\n        /* \"#utility.yul\":8065:8067   */\n      0x20\n        /* \"#utility.yul\":8054:8063   */\n      dup3\n        /* \"#utility.yul\":8050:8068   */\n      add\n        /* \"#utility.yul\":8042:8068   */\n      swap1\n      pop\n        /* \"#utility.yul\":8114:8123   */\n      dup2\n        /* \"#utility.yul\":8108:8112   */\n      dup2\n        /* \"#utility.yul\":8104:8124   */\n      sub\n        /* \"#utility.yul\":8100:8101   */\n      0x00\n        /* \"#utility.yul\":8089:8098   */\n      dup4\n        /* \"#utility.yul\":8085:8102   */\n      add\n        /* \"#utility.yul\":8078:8125   */\n      mstore\n        /* \"#utility.yul\":8142:8273   */\n      tag_256\n        /* \"#utility.yul\":8268:8272   */\n      dup2\n        /* \"#utility.yul\":8142:8273   */\n      tag_217\n      jump\t// in\n    tag_256:\n        /* \"#utility.yul\":8134:8273   */\n      swap1\n      pop\n        /* \"#utility.yul\":7861:8280   */\n      swap2\n      swap1\n      pop\n      jump\t// out\n        /* \"#utility.yul\":8286:8705   */\n    tag_109:\n        /* \"#utility.yul\":8452:8456   */\n      0x00\n        /* \"#utility.yul\":8490:8492   */\n      0x20\n        /* \"#utility.yul\":8479:8488   */\n      dup3\n        /* \"#utility.yul\":8475:8493   */\n      add\n        /* \"#utility.yul\":8467:8493   */\n      swap1\n      pop\n        /* \"#utility.yul\":8539:8548   */\n      dup2\n        /* \"#utility.yul\":8533:8537   */\n      dup2\n        /* \"#utility.yul\":8529:8549   */\n      sub\n        /* \"#utility.yul\":8525:8526   */\n      0x00\n        /* \"#utility.yul\":8514:8523   */\n      dup4\n        /* \"#utility.yul\":8510:8527   */\n      add\n        /* \"#utility.yul\":8503:8550   */\n      mstore\n        /* \"#utility.yul\":8567:8698   */\n      tag_258\n        /* \"#utility.yul\":8693:8697   */\n      dup2\n        /* \"#utility.yul\":8567:8698   */\n      tag_222\n      jump\t// in\n    tag_258:\n        /* \"#utility.yul\":8559:8698   */\n      swap1\n      pop\n        /* \"#utility.yul\":8286:8705   */\n      swap2\n      swap1\n      pop\n      jump\t// out\n        /* \"#utility.yul\":8711:9130   */\n    tag_124:\n        /* \"#utility.yul\":8877:8881   */\n      0x00\n        /* \"#utility.yul\":8915:8917   */\n      0x20\n        /* \"#utility.yul\":8904:8913   */\n      dup3\n        /* \"#utility.yul\":8900:8918   */\n      add\n        /* \"#utility.yul\":8892:8918   */\n      swap1\n      pop\n        /* \"#utility.yul\":8964:8973   */\n      dup2\n        /* \"#utility.yul\":8958:8962   */\n      dup2\n        /* \"#utility.yul\":8954:8974   */\n      sub\n        /* \"#utility.yul\":8950:8951   */\n      0x00\n        /* \"#utility.yul\":8939:8948   */\n      dup4\n        /* \"#utility.yul\":8935:8952   */\n      add\n        /* \"#utility.yul\":8928:8975   */\n      mstore\n        /* \"#utility.yul\":8992:9123   */\n      tag_260\n        /* \"#utility.yul\":9118:9122   */\n      dup2\n        /* \"#utility.yul\":8992:9123   */\n      tag_227\n      jump\t// in\n    tag_260:\n        /* \"#utility.yul\":8984:9123   */\n      swap1\n      pop\n        /* \"#utility.yul\":8711:9130   */\n      swap2\n      swap1\n      pop\n      jump\t// out\n        /* \"#utility.yul\":9136:9555   */\n    tag_112:\n        /* \"#utility.yul\":9302:9306   */\n      0x00\n        /* \"#utility.yul\":9340:9342   */\n      0x20\n        /* \"#utility.yul\":9329:9338   */\n      dup3\n        /* \"#utility.yul\":9325:9343   */\n      add\n        /* \"#utility.yul\":9317:9343   */\n      swap1\n      pop\n        /* \"#utility.yul\":9389:9398   */\n      dup2\n        /* \"#utility.yul\":9383:9387   */\n      dup2\n        /* \"#utility.yul\":9379:9399   */\n      sub\n        /* \"#utility.yul\":9375:9376   */\n      0x00\n        /* \"#utility.yul\":9364:9373   */\n      dup4\n        /* \"#utility.yul\":9360:9377   */\n      add\n        /* \"#utility.yul\":9353:9400   */\n      mstore\n        /* \"#utility.yul\":9417:9548   */\n      tag_262\n        /* \"#utility.yul\":9543:9547   */\n      dup2\n        /* \"#utility.yul\":9417:9548   */\n      tag_232\n      jump\t// in\n    tag_262:\n        /* \"#utility.yul\":9409:9548   */\n      swap1\n      pop\n        /* \"#utility.yul\":9136:9555   */\n      swap2\n      swap1\n      pop\n      jump\t// out\n        /* \"#utility.yul\":9561:9980   */\n    tag_120:\n        /* \"#utility.yul\":9727:9731   */\n      0x00\n        /* \"#utility.yul\":9765:9767   */\n      0x20\n        /* \"#utility.yul\":9754:9763   */\n      dup3\n        /* \"#utility.yul\":9750:9768   */\n      add\n        /* \"#utility.yul\":9742:9768   */\n      swap1\n      pop\n        /* \"#utility.yul\":9814:9823   */\n      dup2\n        /* \"#utility.yul\":9808:9812   */\n      dup2\n        /* \"#utility.yul\":9804:9824   */\n      sub\n        /* \"#utility.yul\":9800:9801   */\n      0x00\n        /* \"#utility.yul\":9789:9798   */\n      dup4\n        /* \"#utility.yul\":9785:9802   */\n      add\n        /* \"#utility.yul\":9778:9825   */\n      mstore\n        /* \"#utility.yul\":9842:9973   */\n      tag_264\n        /* \"#utility.yul\":9968:9972   */\n      dup2\n        /* \"#utility.yul\":9842:9973   */\n      tag_237\n      jump\t// in\n    tag_264:\n        /* \"#utility.yul\":9834:9973   */\n      swap1\n      pop\n        /* \"#utility.yul\":9561:9980   */\n      swap2\n      swap1\n      pop\n      jump\t// out\n        /* \"#utility.yul\":9986:10208   */\n    tag_35:\n        /* \"#utility.yul\":10079:10083   */\n      0x00\n        /* \"#utility.yul\":10117:10119   */\n      0x20\n        /* \"#utility.yul\":10106:10115   */\n      dup3\n        /* \"#utility.yul\":10102:10120   */\n      add\n        /* \"#utility.yul\":10094:10120   */\n      swap1\n      pop\n        /* \"#utility.yul\":10130:10201   */\n      tag_266\n        /* \"#utility.yul\":10198:10199   */\n      0x00\n        /* \"#utility.yul\":10187:10196   */\n      dup4\n        /* \"#utility.yul\":10183:10200   */\n      add\n        /* \"#utility.yul\":10174:10180   */\n      dup5\n        /* \"#utility.yul\":10130:10201   */\n      tag_242\n      jump\t// in\n    tag_266:\n        /* \"#utility.yul\":9986:10208   */\n      swap3\n      swap2\n      pop\n      pop\n      jump\t// out\n        /* \"#utility.yul\":10214:10343   */\n    tag_142:\n        /* \"#utility.yul\":10248:10254   */\n      0x00\n        /* \"#utility.yul\":10275:10295   */\n      tag_268\n      tag_269\n      jump\t// in\n    tag_268:\n        /* \"#utility.yul\":10265:10295   */\n      swap1\n      pop\n        /* \"#utility.yul\":10304:10337   */\n      tag_270\n        /* \"#utility.yul\":10332:10336   */\n      dup3\n        /* \"#utility.yul\":10324:10330   */\n      dup3\n        /* \"#utility.yul\":10304:10337   */\n      tag_271\n      jump\t// in\n    tag_270:\n        /* \"#utility.yul\":10214:10343   */\n      swap2\n      swap1\n      pop\n      jump\t// out\n        /* \"#utility.yul\":10349:10424   */\n    tag_269:\n        /* \"#utility.yul\":10382:10388   */\n      0x00\n        /* \"#utility.yul\":10415:10417   */\n      0x40\n        /* \"#utility.yul\":10409:10418   */\n      mload\n        /* \"#utility.yul\":10399:10418   */\n      swap1\n      pop\n        /* \"#utility.yul\":10349:10424   */\n      swap1\n      jump\t// out\n        /* \"#utility.yul\":10430:10738   */\n    tag_141:\n        /* \"#utility.yul\":10492:10496   */\n      0x00\n        /* \"#utility.yul\":10582:10600   */\n      0xffffffffffffffff\n        /* \"#utility.yul\":10574:10580   */\n      dup3\n        /* \"#utility.yul\":10571:10601   */\n      gt\n        /* \"#utility.yul\":10568:10624   */\n      iszero\n      tag_274\n      jumpi\n        /* \"#utility.yul\":10604:10622   */\n      tag_275\n      tag_276\n      jump\t// in\n    tag_275:\n        /* \"#utility.yul\":10568:10624   */\n    tag_274:\n        /* \"#utility.yul\":10642:10671   */\n      tag_277\n        /* \"#utility.yul\":10664:10670   */\n      dup3\n        /* \"#utility.yul\":10642:10671   */\n      tag_216\n      jump\t// in\n    tag_277:\n        /* \"#utility.yul\":10634:10671   */\n      swap1\n      pop\n        /* \"#utility.yul\":10726:10730   */\n      0x20\n        /* \"#utility.yul\":10720:10724   */\n      dup2\n        /* \"#utility.yul\":10716:10731   */\n      add\n        /* \"#utility.yul\":10708:10731   */\n      swap1\n      pop\n        /* \"#utility.yul\":10430:10738   */\n      swap2\n      swap1\n      pop\n      jump\t// out\n        /* \"#utility.yul\":10744:10843   */\n    tag_210:\n        /* \"#utility.yul\":10796:10802   */\n      0x00\n        /* \"#utility.yul\":10830:10835   */\n      dup2\n        /* \"#utility.yul\":10824:10836   */\n      mload\n        /* \"#utility.yul\":10814:10836   */\n      swap1\n      pop\n        /* \"#utility.yul\":10744:10843   */\n      swap2\n      swap1\n      pop\n      jump\t// out\n        /* \"#utility.yul\":10849:11018   */\n    tag_212:\n        /* \"#utility.yul\":10933:10944   */\n      0x00\n        /* \"#utility.yul\":10967:10973   */\n      dup3\n        /* \"#utility.yul\":10962:10965   */\n      dup3\n        /* \"#utility.yul\":10955:10974   */\n      mstore\n        /* \"#utility.yul\":11007:11011   */\n      0x20\n        /* \"#utility.yul\":11002:11005   */\n      dup3\n        /* \"#utility.yul\":10998:11012   */\n      add\n        /* \"#utility.yul\":10983:11012   */\n      swap1\n      pop\n        /* \"#utility.yul\":10849:11018   */\n      swap3\n      swap2\n      pop\n      pop\n      jump\t// out\n        /* \"#utility.yul\":11024:11329   */\n    tag_94:\n        /* \"#utility.yul\":11064:11067   */\n      0x00\n        /* \"#utility.yul\":11083:11103   */\n      tag_281\n        /* \"#utility.yul\":11101:11102   */\n      dup3\n        /* \"#utility.yul\":11083:11103   */\n      tag_245\n      jump\t// in\n    tag_281:\n        /* \"#utility.yul\":11078:11103   */\n      swap2\n      pop\n        /* \"#utility.yul\":11117:11137   */\n      tag_282\n        /* \"#utility.yul\":11135:11136   */\n      dup4\n        /* \"#utility.yul\":11117:11137   */\n      tag_245\n      jump\t// in\n    tag_282:\n        /* \"#utility.yul\":11112:11137   */\n      swap3\n      pop\n        /* \"#utility.yul\":11271:11272   */\n      dup3\n        /* \"#utility.yul\":11203:11269   */\n      0xffffffffffffffffffffffffffffffffffffffffffffffffffffffffffffffff\n        /* \"#utility.yul\":11199:11273   */\n      sub\n        /* \"#utility.yul\":11196:11197   */\n      dup3\n        /* \"#utility.yul\":11193:11274   */\n      gt\n        /* \"#utility.yul\":11190:11297   */\n      iszero\n      tag_283\n      jumpi\n        /* \"#utility.yul\":11277:11295   */\n      tag_284\n      tag_285\n      jump\t// in\n    tag_284:\n        /* \"#utility.yul\":11190:11297   */\n    tag_283:\n        /* \"#utility.yul\":11321:11322   */\n      dup3\n        /* \"#utility.yul\":11318:11319   */\n      dup3\n        /* \"#utility.yul\":11314:11323   */\n      add\n        /* \"#utility.yul\":11307:11323   */\n      swap1\n      pop\n        /* \"#utility.yul\":11024:11329   */\n      swap3\n      swap2\n      pop\n      pop\n      jump\t// out\n        /* \"#utility.yul\":11335:11431   */\n    tag_202:\n        /* \"#utility.yul\":11372:11379   */\n      0x00\n        /* \"#utility.yul\":11401:11425   */\n      tag_287\n        /* \"#utility.yul\":11419:11424   */\n      dup3\n        /* \"#utility.yul\":11401:11425   */\n      tag_288\n      jump\t// in\n    tag_287:\n        /* \"#utility.yul\":11390:11425   */\n      swap1\n      pop\n        /* \"#utility.yul\":11335:11431   */\n      swap2\n      swap1\n      pop\n      jump\t// out\n        /* \"#utility.yul\":11437:11541   */\n    tag_198:\n        /* \"#utility.yul\":11482:11489   */\n      0x00\n        /* \"#utility.yul\":11511:11535   */\n      tag_290\n        /* \"#utility.yul\":11529:11534   */\n      dup3\n        /* \"#utility.yul\":11511:11535   */\n      tag_288\n      jump\t// in\n    tag_290:\n        /* \"#utility.yul\":11500:11535   */\n      swap1\n      pop\n        /* \"#utility.yul\":11437:11541   */\n      swap2\n      swap1\n      pop\n      jump\t// out\n        /* \"#utility.yul\":11547:11637   */\n    tag_206:\n        /* \"#utility.yul\":11581:11588   */\n      0x00\n        /* \"#utility.yul\":11624:11629   */\n      dup2\n        /* \"#utility.yul\":11617:11630   */\n      iszero\n        /* \"#utility.yul\":11610:11631   */\n      iszero\n        /* \"#utility.yul\":11599:11631   */\n      swap1\n      pop\n        /* \"#utility.yul\":11547:11637   */\n      swap2\n      swap1\n      pop\n      jump\t// out\n        /* \"#utility.yul\":11643:11769   */\n    tag_288:\n        /* \"#utility.yul\":11680:11687   */\n      0x00\n        /* \"#utility.yul\":11720:11762   */\n      0xffffffffffffffffffffffffffffffffffffffff\n        /* \"#utility.yul\":11713:11718   */\n      dup3\n        /* \"#utility.yul\":11709:11763   */\n      and\n        /* \"#utility.yul\":11698:11763   */\n      swap1\n      pop\n        /* \"#utility.yul\":11643:11769   */\n      swap2\n      swap1\n      pop\n      jump\t// out\n        /* \"#utility.yul\":11775:11852   */\n    tag_245:\n        /* \"#utility.yul\":11812:11819   */\n      0x00\n        /* \"#utility.yul\":11841:11846   */\n      dup2\n        /* \"#utility.yul\":11830:11846   */\n      swap1\n      pop\n        /* \"#utility.yul\":11775:11852   */\n      swap2\n      swap1\n      pop\n      jump\t// out\n        /* \"#utility.yul\":11858:12012   */\n    tag_147:\n        /* \"#utility.yul\":11942:11948   */\n      dup3\n        /* \"#utility.yul\":11937:11940   */\n      dup2\n        /* \"#utility.yul\":11932:11935   */\n      dup4\n        /* \"#utility.yul\":11919:11949   */\n      calldatacopy\n        /* \"#utility.yul\":12004:12005   */\n      0x00\n        /* \"#utility.yul\":11995:12001   */\n      dup4\n        /* \"#utility.yul\":11990:11993   */\n      dup4\n        /* \"#utility.yul\":11986:12002   */\n      add\n        /* \"#utility.yul\":11979:12006   */\n      mstore\n        /* \"#utility.yul\":11858:12012   */\n      pop\n      pop\n      pop\n      jump\t// out\n        /* \"#utility.yul\":12018:12325   */\n    tag_214:\n        /* \"#utility.yul\":12086:12087   */\n      0x00\n        /* \"#utility.yul\":12096:12209   */\n    tag_296:\n        /* \"#utility.yul\":12110:12116   */\n      dup4\n        /* \"#utility.yul\":12107:12108   */\n      dup2\n        /* \"#utility.yul\":12104:12117   */\n      lt\n        /* \"#utility.yul\":12096:12209   */\n      iszero\n      tag_298\n      jumpi\n        /* \"#utility.yul\":12195:12196   */\n      dup1\n        /* \"#utility.yul\":12190:12193   */\n      dup3\n        /* \"#utility.yul\":12186:12197   */\n      add\n        /* \"#utility.yul\":12180:12198   */\n      mload\n        /* \"#utility.yul\":12176:12177   */\n      dup2\n        /* \"#utility.yul\":12171:12174   */\n      dup5\n        /* \"#utility.yul\":12167:12178   */\n      add\n        /* \"#utility.yul\":12160:12199   */\n      mstore\n        /* \"#utility.yul\":12132:12134   */\n      0x20\n        /* \"#utility.yul\":12129:12130   */\n      dup2\n        /* \"#utility.yul\":12125:12135   */\n      add\n        /* \"#utility.yul\":12120:12135   */\n      swap1\n      pop\n        /* \"#utility.yul\":12096:12209   */\n      jump(tag_296)\n    tag_298:\n        /* \"#utility.yul\":12227:12233   */\n      dup4\n        /* \"#utility.yul\":12224:12225   */\n      dup2\n        /* \"#utility.yul\":12221:12234   */\n      gt\n        /* \"#utility.yul\":12218:12319   */\n      iszero\n      tag_299\n      jumpi\n        /* \"#utility.yul\":12307:12308   */\n      0x00\n        /* \"#utility.yul\":12298:12304   */\n      dup5\n        /* \"#utility.yul\":12293:12296   */\n      dup5\n        /* \"#utility.yul\":12289:12305   */\n      add\n        /* \"#utility.yul\":12282:12309   */\n      mstore\n        /* \"#utility.yul\":12218:12319   */\n    tag_299:\n        /* \"#utility.yul\":12067:12325   */\n      pop\n        /* \"#utility.yul\":12018:12325   */\n      pop\n      pop\n      pop\n      jump\t// out\n        /* \"#utility.yul\":12331:12651   */\n    tag_96:\n        /* \"#utility.yul\":12375:12381   */\n      0x00\n        /* \"#utility.yul\":12412:12413   */\n      0x02\n        /* \"#utility.yul\":12406:12410   */\n      dup3\n        /* \"#utility.yul\":12402:12414   */\n      div\n        /* \"#utility.yul\":12392:12414   */\n      swap1\n      pop\n        /* \"#utility.yul\":12459:12460   */\n      0x01\n        /* \"#utility.yul\":12453:12457   */\n      dup3\n        /* \"#utility.yul\":12449:12461   */\n      and\n        /* \"#utility.yul\":12480:12498   */\n      dup1\n        /* \"#utility.yul\":12470:12551   */\n      tag_301\n      jumpi\n        /* \"#utility.yul\":12536:12540   */\n      0x7f\n        /* \"#utility.yul\":12528:12534   */\n      dup3\n        /* \"#utility.yul\":12524:12541   */\n      and\n        /* \"#utility.yul\":12514:12541   */\n      swap2\n      pop\n        /* \"#utility.yul\":12470:12551   */\n    tag_301:\n        /* \"#utility.yul\":12598:12600   */\n      0x20\n        /* \"#utility.yul\":12590:12596   */\n      dup3\n        /* \"#utility.yul\":12587:12601   */\n      lt\n        /* \"#utility.yul\":12567:12585   */\n      dup2\n        /* \"#utility.yul\":12564:12602   */\n      eq\n        /* \"#utility.yul\":12561:12645   */\n      iszero\n      tag_302\n      jumpi\n        /* \"#utility.yul\":12617:12635   */\n      tag_303\n      tag_304\n      jump\t// in\n    tag_303:\n        /* \"#utility.yul\":12561:12645   */\n    tag_302:\n        /* \"#utility.yul\":12382:12651   */\n      pop\n        /* \"#utility.yul\":12331:12651   */\n      swap2\n      swap1\n      pop\n      jump\t// out\n        /* \"#utility.yul\":12657:12938   */\n    tag_271:\n        /* \"#utility.yul\":12740:12767   */\n      tag_306\n        /* \"#utility.yul\":12762:12766   */\n      dup3\n        /* \"#utility.yul\":12740:12767   */\n      tag_216\n      jump\t// in\n    tag_306:\n        /* \"#utility.yul\":12732:12738   */\n      dup2\n        /* \"#utility.yul\":12728:12768   */\n      add\n        /* \"#utility.yul\":12870:12876   */\n      dup2\n        /* \"#utility.yul\":12858:12868   */\n      dup2\n        /* \"#utility.yul\":12855:12877   */\n      lt\n        /* \"#utility.yul\":12834:12852   */\n      0xffffffffffffffff\n        /* \"#utility.yul\":12822:12832   */\n      dup3\n        /* \"#utility.yul\":12819:12853   */\n      gt\n        /* \"#utility.yul\":12816:12878   */\n      or\n        /* \"#utility.yul\":12813:12901   */\n      iszero\n      tag_307\n      jumpi\n        /* \"#utility.yul\":12881:12899   */\n      tag_308\n      tag_276\n      jump\t// in\n    tag_308:\n        /* \"#utility.yul\":12813:12901   */\n    tag_307:\n        /* \"#utility.yul\":12921:12931   */\n      dup1\n        /* \"#utility.yul\":12917:12919   */\n      0x40\n        /* \"#utility.yul\":12910:12932   */\n      mstore\n        /* \"#utility.yul\":12700:12938   */\n      pop\n        /* \"#utility.yul\":12657:12938   */\n      pop\n      pop\n      jump\t// out\n        /* \"#utility.yul\":12944:13124   */\n    tag_285:\n        /* \"#utility.yul\":12992:13069   */\n      0x4e487b7100000000000000000000000000000000000000000000000000000000\n        /* \"#utility.yul\":12989:12990   */\n      0x00\n        /* \"#utility.yul\":12982:13070   */\n      mstore\n        /* \"#utility.yul\":13089:13093   */\n      0x11\n        /* \"#utility.yul\":13086:13087   */\n      0x04\n        /* \"#utility.yul\":13079:13094   */\n      mstore\n        /* \"#utility.yul\":13113:13117   */\n      0x24\n        /* \"#utility.yul\":13110:13111   */\n      0x00\n        /* \"#utility.yul\":13103:13118   */\n      revert\n        /* \"#utility.yul\":13130:13310   */\n    tag_304:\n        /* \"#utility.yul\":13178:13255   */\n      0x4e487b7100000000000000000000000000000000000000000000000000000000\n        /* \"#utility.yul\":13175:13176   */\n      0x00\n        /* \"#utility.yul\":13168:13256   */\n      mstore\n        /* \"#utility.yul\":13275:13279   */\n      0x22\n        /* \"#utility.yul\":13272:13273   */\n      0x04\n        /* \"#utility.yul\":13265:13280   */\n      mstore\n        /* \"#utility.yul\":13299:13303   */\n      0x24\n        /* \"#utility.yul\":13296:13297   */\n      0x00\n        /* \"#utility.yul\":13289:13304   */\n      revert\n        /* \"#utility.yul\":13316:13496   */\n    tag_276:\n        /* \"#utility.yul\":13364:13441   */\n      0x4e487b7100000000000000000000000000000000000000000000000000000000\n        /* \"#utility.yul\":13361:13362   */\n      0x00\n        /* \"#utility.yul\":13354:13442   */\n      mstore\n        /* \"#utility.yul\":13461:13465   */\n      0x41\n        /* \"#utility.yul\":13458:13459   */\n      0x04\n        /* \"#utility.yul\":13451:13466   */\n      mstore\n        /* \"#utility.yul\":13485:13489   */\n      0x24\n        /* \"#utility.yul\":13482:13483   */\n      0x00\n        /* \"#utility.yul\":13475:13490   */\n      revert\n        /* \"#utility.yul\":13502:13619   */\n    tag_160:\n        /* \"#utility.yul\":13611:13612   */\n      0x00\n        /* \"#utility.yul\":13608:13609   */\n      dup1\n        /* \"#utility.yul\":13601:13613   */\n      revert\n        /* \"#utility.yul\":13625:13742   */\n    tag_145:\n        /* \"#utility.yul\":13734:13735   */\n      0x00\n        /* \"#utility.yul\":13731:13732   */\n      dup1\n        /* \"#utility.yul\":13724:13736   */\n      revert\n        /* \"#utility.yul\":13748:13865   */\n    tag_178:\n        /* \"#utility.yul\":13857:13858   */\n      0x00\n        /* \"#utility.yul\":13854:13855   */\n      dup1\n        /* \"#utility.yul\":13847:13859   */\n      revert\n        /* \"#utility.yul\":13871:13988   */\n    tag_169:\n        /* \"#utility.yul\":13980:13981   */\n      0x00\n        /* \"#utility.yul\":13977:13978   */\n      dup1\n        /* \"#utility.yul\":13970:13982   */\n      revert\n        /* \"#utility.yul\":13994:14096   */\n    tag_216:\n        /* \"#utility.yul\":14035:14041   */\n      0x00\n        /* \"#utility.yul\":14086:14088   */\n      0x1f\n        /* \"#utility.yul\":14082:14089   */\n      not\n        /* \"#utility.yul\":14077:14079   */\n      0x1f\n        /* \"#utility.yul\":14070:14075   */\n      dup4\n        /* \"#utility.yul\":14066:14080   */\n      add\n        /* \"#utility.yul\":14062:14090   */\n      and\n        /* \"#utility.yul\":14052:14090   */\n      swap1\n      pop\n        /* \"#utility.yul\":13994:14096   */\n      swap2\n      swap1\n      pop\n      jump\t// out\n        /* \"#utility.yul\":14102:14272   */\n    tag_221:\n        /* \"#utility.yul\":14242:14264   */\n      0x466c6f6f72707269636520697320686967686572000000000000000000000000\n        /* \"#utility.yul\":14238:14239   */\n      0x00\n        /* \"#utility.yul\":14230:14236   */\n      dup3\n        /* \"#utility.yul\":14226:14240   */\n      add\n        /* \"#utility.yul\":14219:14265   */\n      mstore\n        /* \"#utility.yul\":14102:14272   */\n      pop\n      jump\t// out\n        /* \"#utility.yul\":14278:14499   */\n    tag_226:\n        /* \"#utility.yul\":14418:14452   */\n      0x596f75206f66666572206973206c6f776572207468616e20666c6f6f72707269\n        /* \"#utility.yul\":14414:14415   */\n      0x00\n        /* \"#utility.yul\":14406:14412   */\n      dup3\n        /* \"#utility.yul\":14402:14416   */\n      add\n        /* \"#utility.yul\":14395:14453   */\n      mstore\n        /* \"#utility.yul\":14487:14491   */\n      0x6365000000000000000000000000000000000000000000000000000000000000\n        /* \"#utility.yul\":14482:14484   */\n      0x20\n        /* \"#utility.yul\":14474:14480   */\n      dup3\n        /* \"#utility.yul\":14470:14485   */\n      add\n        /* \"#utility.yul\":14463:14492   */\n      mstore\n        /* \"#utility.yul\":14278:14499   */\n      pop\n      jump\t// out\n        /* \"#utility.yul\":14505:14682   */\n    tag_231:\n        /* \"#utility.yul\":14645:14674   */\n      0x596f7520617265206e6f7420746865206869676865722079656c6c0000000000\n        /* \"#utility.yul\":14641:14642   */\n      0x00\n        /* \"#utility.yul\":14633:14639   */\n      dup3\n        /* \"#utility.yul\":14629:14643   */\n      add\n        /* \"#utility.yul\":14622:14675   */\n      mstore\n        /* \"#utility.yul\":14505:14682   */\n      pop\n      jump\t// out\n        /* \"#utility.yul\":14688:14858   */\n    tag_236:\n        /* \"#utility.yul\":14828:14850   */\n      0x596f75206f6666657220697320746f6f206c6f77000000000000000000000000\n        /* \"#utility.yul\":14824:14825   */\n      0x00\n        /* \"#utility.yul\":14816:14822   */\n      dup3\n        /* \"#utility.yul\":14812:14826   */\n      add\n        /* \"#utility.yul\":14805:14851   */\n      mstore\n        /* \"#utility.yul\":14688:14858   */\n      pop\n      jump\t// out\n        /* \"#utility.yul\":14864:15095   */\n    tag_241:\n        /* \"#utility.yul\":15004:15038   */\n      0x596f7520617265206e6f7420746865207375626d6974746572206f6620746865\n        /* \"#utility.yul\":15000:15001   */\n      0x00\n        /* \"#utility.yul\":14992:14998   */\n      dup3\n        /* \"#utility.yul\":14988:15002   */\n      add\n        /* \"#utility.yul\":14981:15039   */\n      mstore\n        /* \"#utility.yul\":15073:15087   */\n      0x2073616c65206e6f746963650000000000000000000000000000000000000000\n        /* \"#utility.yul\":15068:15070   */\n      0x20\n        /* \"#utility.yul\":15060:15066   */\n      dup3\n        /* \"#utility.yul\":15056:15071   */\n      add\n        /* \"#utility.yul\":15049:15088   */\n      mstore\n        /* \"#utility.yul\":14864:15095   */\n      pop\n      jump\t// out\n        /* \"#utility.yul\":15101:15223   */\n    tag_151:\n        /* \"#utility.yul\":15174:15198   */\n      tag_323\n        /* \"#utility.yul\":15192:15197   */\n      dup2\n        /* \"#utility.yul\":15174:15198   */\n      tag_202\n      jump\t// in\n    tag_323:\n        /* \"#utility.yul\":15167:15172   */\n      dup2\n        /* \"#utility.yul\":15164:15199   */\n      eq\n        /* \"#utility.yul\":15154:15217   */\n      tag_324\n      jumpi\n        /* \"#utility.yul\":15213:15214   */\n      0x00\n        /* \"#utility.yul\":15210:15211   */\n      dup1\n        /* \"#utility.yul\":15203:15215   */\n      revert\n        /* \"#utility.yul\":15154:15217   */\n    tag_324:\n        /* \"#utility.yul\":15101:15223   */\n      pop\n      jump\t// out\n        /* \"#utility.yul\":15229:15367   */\n    tag_155:\n        /* \"#utility.yul\":15310:15342   */\n      tag_326\n        /* \"#utility.yul\":15336:15341   */\n      dup2\n        /* \"#utility.yul\":15310:15342   */\n      tag_198\n      jump\t// in\n    tag_326:\n        /* \"#utility.yul\":15303:15308   */\n      dup2\n        /* \"#utility.yul\":15300:15343   */\n      eq\n        /* \"#utility.yul\":15290:15361   */\n      tag_327\n      jumpi\n        /* \"#utility.yul\":15357:15358   */\n      0x00\n        /* \"#utility.yul\":15354:15355   */\n      dup1\n        /* \"#utility.yul\":15347:15359   */\n      revert\n        /* \"#utility.yul\":15290:15361   */\n    tag_327:\n        /* \"#utility.yul\":15229:15367   */\n      pop\n      jump\t// out\n        /* \"#utility.yul\":15373:15495   */\n    tag_165:\n        /* \"#utility.yul\":15446:15470   */\n      tag_329\n        /* \"#utility.yul\":15464:15469   */\n      dup2\n        /* \"#utility.yul\":15446:15470   */\n      tag_245\n      jump\t// in\n    tag_329:\n        /* \"#utility.yul\":15439:15444   */\n      dup2\n        /* \"#utility.yul\":15436:15471   */\n      eq\n        /* \"#utility.yul\":15426:15489   */\n      tag_330\n      jumpi\n        /* \"#utility.yul\":15485:15486   */\n      0x00\n        /* \"#utility.yul\":15482:15483   */\n      dup1\n        /* \"#utility.yul\":15475:15487   */\n      revert\n        /* \"#utility.yul\":15426:15489   */\n    tag_330:\n        /* \"#utility.yul\":15373:15495   */\n      pop\n      jump\t// out\n\n    auxdata: 0xa2646970667358221220221b130bea2f1a2d7de9663785b7410e5a80ab95861c88449fb1584b369c2dcf64736f6c63430008070033\n}\n",
				"bytecode": {
					"linkReferences": {},
					"object": "60806040526000600b5534801561001557600080fd5b50611197806100256000396000f3fe6080604052600436106100e15760003560e01c80637284e4161161007f5780639de2ee21116100595780639de2ee21146102ee578063af128b9114610319578063bef4876b14610356578063f681cc511461036d57610133565b80637284e4161461026857806377ec2b55146102935780639c72606d146102be57610133565b80632ca126f8116100bb5780632ca126f8146101bc5780633a326bb8146101e75780634a79d50c1461021257806351df9db91461023d57610133565b806309ce5f9e146101385780631d71e4fc14610154578063228cb7331461019157610133565b3661013357600754341061012a576040517f08c379a000000000000000000000000000000000000000000000000000000000815260040161012190610ccf565b60405180910390fd5b34600981905550005b600080fd5b610152600480360381019061014d91906109e3565b610398565b005b34801561016057600080fd5b5061017b600480360381019061017691906109b6565b610471565b6040516101889190610d6f565b60405180910390f35b34801561019d57600080fd5b506101a6610489565b6040516101b39190610d6f565b60405180910390f35b3480156101c857600080fd5b506101d161048f565b6040516101de9190610d6f565b60405180910390f35b3480156101f357600080fd5b506101fc610495565b6040516102099190610d6f565b60405180910390f35b34801561021e57600080fd5b5061022761049b565b6040516102349190610cad565b60405180910390f35b34801561024957600080fd5b50610252610529565b60405161025f9190610d6f565b60405180910390f35b34801561027457600080fd5b5061027d61052f565b60405161028a9190610cad565b60405180910390f35b34801561029f57600080fd5b506102a86105bd565b6040516102b59190610c4e565b60405180910390f35b6102d860048036038101906102d39190610abd565b6105e3565b6040516102e59190610c92565b60405180910390f35b3480156102fa57600080fd5b506103036106b7565b6040516103109190610c4e565b60405180910390f35b34801561032557600080fd5b50610340600480360381019061033b9190610afd565b6106dd565b60405161034d9190610c4e565b60405180910390f35b34801561036257600080fd5b5061036b61071c565b005b34801561037957600080fd5b5061038261083e565b60405161038f9190610c4e565b60405180910390f35b86600160006101000a81548173ffffffffffffffffffffffffffffffffffffffff021916908373ffffffffffffffffffffffffffffffffffffffff16021790555085600260006101000a81548173ffffffffffffffffffffffffffffffffffffffff021916908373ffffffffffffffffffffffffffffffffffffffff1602179055508460059080519060200190610430929190610864565b508360069080519060200190610447929190610864565b5082600781905550814361045b9190610dfc565b60088190555080600a8190555050505050505050565b60006020528060005260406000206000915090505481565b600a5481565b60085481565b60075481565b600580546104a890610eee565b80601f01602080910402602001604051908101604052809291908181526020018280546104d490610eee565b80156105215780601f106104f657610100808354040283529160200191610521565b820191906000526020600020905b81548152906001019060200180831161050457829003601f168201915b505050505081565b60095481565b6006805461053c90610eee565b80601f016020809104026020016040519081016040528092919081815260200182805461056890610eee565b80156105b55780601f1061058a576101008083540402835291602001916105b5565b820191906000526020600020905b81548152906001019060200180831161059857829003601f168201915b505050505081565b600260009054906101000a900473ffffffffffffffffffffffffffffffffffffffff1681565b60006007548210610629576040517f08c379a000000000000000000000000000000000000000000000000000000000815260040161062090610cef565b60405180910390fd5b816009541161066d576040517f08c379a000000000000000000000000000000000000000000000000000000000815260040161066490610d2f565b60405180910390fd5b816009819055507fee242ca320573fd3309d8cc97ef2994fe7704919768fc46f3332be6e9536d0de83836040516106a5929190610c69565b60405180910390a16001905092915050565b600160009054906101000a900473ffffffffffffffffffffffffffffffffffffffff1681565b600481815481106106ed57600080fd5b906000526020600020016000915054906101000a900473ffffffffffffffffffffffffffffffffffffffff1681565b600260009054906101000a900473ffffffffffffffffffffffffffffffffffffffff1673ffffffffffffffffffffffffffffffffffffffff163373ffffffffffffffffffffffffffffffffffffffff16146107ac576040517f08c379a00000000000000000000000000000000000000000000000000000000081526004016107a390610d4f565b60405180910390fd5b600360009054906101000a900473ffffffffffffffffffffffffffffffffffffffff1673ffffffffffffffffffffffffffffffffffffffff163373ffffffffffffffffffffffffffffffffffffffff161461083c576040517f08c379a000000000000000000000000000000000000000000000000000000000815260040161083390610d0f565b60405180910390fd5b565b600360009054906101000a900473ffffffffffffffffffffffffffffffffffffffff1681565b82805461087090610eee565b90600052602060002090601f01602090048101928261089257600085556108d9565b82601f106108ab57805160ff19168380011785556108d9565b828001600101855582156108d9579182015b828111156108d85782518255916020019190600101906108bd565b5b5090506108e691906108ea565b5090565b5b808211156109035760008160009055506001016108eb565b5090565b600061091a61091584610daf565b610d8a565b90508281526020810184848401111561093657610935610fe3565b5b610941848285610eac565b509392505050565b6000813590506109588161111c565b92915050565b60008135905061096d81611133565b92915050565b600082601f83011261098857610987610fde565b5b8135610998848260208601610907565b91505092915050565b6000813590506109b08161114a565b92915050565b6000602082840312156109cc576109cb610fed565b5b60006109da84828501610949565b91505092915050565b600080600080600080600060e0888a031215610a0257610a01610fed565b5b6000610a108a828b0161095e565b9750506020610a218a828b0161095e565b965050604088013567ffffffffffffffff811115610a4257610a41610fe8565b5b610a4e8a828b01610973565b955050606088013567ffffffffffffffff811115610a6f57610a6e610fe8565b5b610a7b8a828b01610973565b9450506080610a8c8a828b016109a1565b93505060a0610a9d8a828b016109a1565b92505060c0610aae8a828b016109a1565b91505092959891949750929550565b60008060408385031215610ad457610ad3610fed565b5b6000610ae285828601610949565b9250506020610af3858286016109a1565b9150509250929050565b600060208284031215610b1357610b12610fed565b5b6000610b21848285016109a1565b91505092915050565b610b3381610e64565b82525050565b610b4281610e52565b82525050565b610b5181610e76565b82525050565b6000610b6282610de0565b610b6c8185610deb565b9350610b7c818560208601610ebb565b610b8581610ff2565b840191505092915050565b6000610b9d601483610deb565b9150610ba882611003565b602082019050919050565b6000610bc0602283610deb565b9150610bcb8261102c565b604082019050919050565b6000610be3601b83610deb565b9150610bee8261107b565b602082019050919050565b6000610c06601483610deb565b9150610c11826110a4565b602082019050919050565b6000610c29602c83610deb565b9150610c34826110cd565b604082019050919050565b610c4881610ea2565b82525050565b6000602082019050610c636000830184610b2a565b92915050565b6000604082019050610c7e6000830185610b39565b610c8b6020830184610c3f565b9392505050565b6000602082019050610ca76000830184610b48565b92915050565b60006020820190508181036000830152610cc78184610b57565b905092915050565b60006020820190508181036000830152610ce881610b90565b9050919050565b60006020820190508181036000830152610d0881610bb3565b9050919050565b60006020820190508181036000830152610d2881610bd6565b9050919050565b60006020820190508181036000830152610d4881610bf9565b9050919050565b60006020820190508181036000830152610d6881610c1c565b9050919050565b6000602082019050610d846000830184610c3f565b92915050565b6000610d94610da5565b9050610da08282610f20565b919050565b6000604051905090565b600067ffffffffffffffff821115610dca57610dc9610faf565b5b610dd382610ff2565b9050602081019050919050565b600081519050919050565b600082825260208201905092915050565b6000610e0782610ea2565b9150610e1283610ea2565b9250827fffffffffffffffffffffffffffffffffffffffffffffffffffffffffffffffff03821115610e4757610e46610f51565b5b828201905092915050565b6000610e5d82610e82565b9050919050565b6000610e6f82610e82565b9050919050565b60008115159050919050565b600073ffffffffffffffffffffffffffffffffffffffff82169050919050565b6000819050919050565b82818337600083830152505050565b60005b83811015610ed9578082015181840152602081019050610ebe565b83811115610ee8576000848401525b50505050565b60006002820490506001821680610f0657607f821691505b60208210811415610f1a57610f19610f80565b5b50919050565b610f2982610ff2565b810181811067ffffffffffffffff82111715610f4857610f47610faf565b5b80604052505050565b7f4e487b7100000000000000000000000000000000000000000000000000000000600052601160045260246000fd5b7f4e487b7100000000000000000000000000000000000000000000000000000000600052602260045260246000fd5b7f4e487b7100000000000000000000000000000000000000000000000000000000600052604160045260246000fd5b600080fd5b600080fd5b600080fd5b600080fd5b6000601f19601f8301169050919050565b7f466c6f6f72707269636520697320686967686572000000000000000000000000600082015250565b7f596f75206f66666572206973206c6f776572207468616e20666c6f6f7270726960008201527f6365000000000000000000000000000000000000000000000000000000000000602082015250565b7f596f7520617265206e6f7420746865206869676865722079656c6c0000000000600082015250565b7f596f75206f6666657220697320746f6f206c6f77000000000000000000000000600082015250565b7f596f7520617265206e6f7420746865207375626d6974746572206f662074686560008201527f2073616c65206e6f746963650000000000000000000000000000000000000000602082015250565b61112581610e52565b811461113057600080fd5b50565b61113c81610e64565b811461114757600080fd5b50565b61115381610ea2565b811461115e57600080fd5b5056fea2646970667358221220221b130bea2f1a2d7de9663785b7410e5a80ab95861c88449fb1584b369c2dcf64736f6c63430008070033",
					"opcodes": "PUSH1 0x80 PUSH1 0x40 MSTORE PUSH1 0x0 PUSH1 0xB SSTORE CALLVALUE DUP1 ISZERO PUSH2 0x15 JUMPI PUSH1 0x0 DUP1 REVERT JUMPDEST POP PUSH2 0x1197 DUP1 PUSH2 0x25 PUSH1 0x0 CODECOPY PUSH1 0x0 RETURN INVALID PUSH1 0x80 PUSH1 0x40 MSTORE PUSH1 0x4 CALLDATASIZE LT PUSH2 0xE1 JUMPI PUSH1 0x0 CALLDATALOAD PUSH1 0xE0 SHR DUP1 PUSH4 0x7284E416 GT PUSH2 0x7F JUMPI DUP1 PUSH4 0x9DE2EE21 GT PUSH2 0x59 JUMPI DUP1 PUSH4 0x9DE2EE21 EQ PUSH2 0x2EE JUMPI DUP1 PUSH4 0xAF128B91 EQ PUSH2 0x319 JUMPI DUP1 PUSH4 0xBEF4876B EQ PUSH2 0x356 JUMPI DUP1 PUSH4 0xF681CC51 EQ PUSH2 0x36D JUMPI PUSH2 0x133 JUMP JUMPDEST DUP1 PUSH4 0x7284E416 EQ PUSH2 0x268 JUMPI DUP1 PUSH4 0x77EC2B55 EQ PUSH2 0x293 JUMPI DUP1 PUSH4 0x9C72606D EQ PUSH2 0x2BE JUMPI PUSH2 0x133 JUMP JUMPDEST DUP1 PUSH4 0x2CA126F8 GT PUSH2 0xBB JUMPI DUP1 PUSH4 0x2CA126F8 EQ PUSH2 0x1BC JUMPI DUP1 PUSH4 0x3A326BB8 EQ PUSH2 0x1E7 JUMPI DUP1 PUSH4 0x4A79D50C EQ PUSH2 0x212 JUMPI DUP1 PUSH4 0x51DF9DB9 EQ PUSH2 0x23D JUMPI PUSH2 0x133 JUMP JUMPDEST DUP1 PUSH4 0x9CE5F9E EQ PUSH2 0x138 JUMPI DUP1 PUSH4 0x1D71E4FC EQ PUSH2 0x154 JUMPI DUP1 PUSH4 0x228CB733 EQ PUSH2 0x191 JUMPI PUSH2 0x133 JUMP JUMPDEST CALLDATASIZE PUSH2 0x133 JUMPI PUSH1 0x7 SLOAD CALLVALUE LT PUSH2 0x12A JUMPI PUSH1 0x40 MLOAD PUSH32 0x8C379A000000000000000000000000000000000000000000000000000000000 DUP2 MSTORE PUSH1 0x4 ADD PUSH2 0x121 SWAP1 PUSH2 0xCCF JUMP JUMPDEST PUSH1 0x40 MLOAD DUP1 SWAP2 SUB SWAP1 REVERT JUMPDEST CALLVALUE PUSH1 0x9 DUP2 SWAP1 SSTORE POP STOP JUMPDEST PUSH1 0x0 DUP1 REVERT JUMPDEST PUSH2 0x152 PUSH1 0x4 DUP1 CALLDATASIZE SUB DUP2 ADD SWAP1 PUSH2 0x14D SWAP2 SWAP1 PUSH2 0x9E3 JUMP JUMPDEST PUSH2 0x398 JUMP JUMPDEST STOP JUMPDEST CALLVALUE DUP1 ISZERO PUSH2 0x160 JUMPI PUSH1 0x0 DUP1 REVERT JUMPDEST POP PUSH2 0x17B PUSH1 0x4 DUP1 CALLDATASIZE SUB DUP2 ADD SWAP1 PUSH2 0x176 SWAP2 SWAP1 PUSH2 0x9B6 JUMP JUMPDEST PUSH2 0x471 JUMP JUMPDEST PUSH1 0x40 MLOAD PUSH2 0x188 SWAP2 SWAP1 PUSH2 0xD6F JUMP JUMPDEST PUSH1 0x40 MLOAD DUP1 SWAP2 SUB SWAP1 RETURN JUMPDEST CALLVALUE DUP1 ISZERO PUSH2 0x19D JUMPI PUSH1 0x0 DUP1 REVERT JUMPDEST POP PUSH2 0x1A6 PUSH2 0x489 JUMP JUMPDEST PUSH1 0x40 MLOAD PUSH2 0x1B3 SWAP2 SWAP1 PUSH2 0xD6F JUMP JUMPDEST PUSH1 0x40 MLOAD DUP1 SWAP2 SUB SWAP1 RETURN JUMPDEST CALLVALUE DUP1 ISZERO PUSH2 0x1C8 JUMPI PUSH1 0x0 DUP1 REVERT JUMPDEST POP PUSH2 0x1D1 PUSH2 0x48F JUMP JUMPDEST PUSH1 0x40 MLOAD PUSH2 0x1DE SWAP2 SWAP1 PUSH2 0xD6F JUMP JUMPDEST PUSH1 0x40 MLOAD DUP1 SWAP2 SUB SWAP1 RETURN JUMPDEST CALLVALUE DUP1 ISZERO PUSH2 0x1F3 JUMPI PUSH1 0x0 DUP1 REVERT JUMPDEST POP PUSH2 0x1FC PUSH2 0x495 JUMP JUMPDEST PUSH1 0x40 MLOAD PUSH2 0x209 SWAP2 SWAP1 PUSH2 0xD6F JUMP JUMPDEST PUSH1 0x40 MLOAD DUP1 SWAP2 SUB SWAP1 RETURN JUMPDEST CALLVALUE DUP1 ISZERO PUSH2 0x21E JUMPI PUSH1 0x0 DUP1 REVERT JUMPDEST POP PUSH2 0x227 PUSH2 0x49B JUMP JUMPDEST PUSH1 0x40 MLOAD PUSH2 0x234 SWAP2 SWAP1 PUSH2 0xCAD JUMP JUMPDEST PUSH1 0x40 MLOAD DUP1 SWAP2 SUB SWAP1 RETURN JUMPDEST CALLVALUE DUP1 ISZERO PUSH2 0x249 JUMPI PUSH1 0x0 DUP1 REVERT JUMPDEST POP PUSH2 0x252 PUSH2 0x529 JUMP JUMPDEST PUSH1 0x40 MLOAD PUSH2 0x25F SWAP2 SWAP1 PUSH2 0xD6F JUMP JUMPDEST PUSH1 0x40 MLOAD DUP1 SWAP2 SUB SWAP1 RETURN JUMPDEST CALLVALUE DUP1 ISZERO PUSH2 0x274 JUMPI PUSH1 0x0 DUP1 REVERT JUMPDEST POP PUSH2 0x27D PUSH2 0x52F JUMP JUMPDEST PUSH1 0x40 MLOAD PUSH2 0x28A SWAP2 SWAP1 PUSH2 0xCAD JUMP JUMPDEST PUSH1 0x40 MLOAD DUP1 SWAP2 SUB SWAP1 RETURN JUMPDEST CALLVALUE DUP1 ISZERO PUSH2 0x29F JUMPI PUSH1 0x0 DUP1 REVERT JUMPDEST POP PUSH2 0x2A8 PUSH2 0x5BD JUMP JUMPDEST PUSH1 0x40 MLOAD PUSH2 0x2B5 SWAP2 SWAP1 PUSH2 0xC4E JUMP JUMPDEST PUSH1 0x40 MLOAD DUP1 SWAP2 SUB SWAP1 RETURN JUMPDEST PUSH2 0x2D8 PUSH1 0x4 DUP1 CALLDATASIZE SUB DUP2 ADD SWAP1 PUSH2 0x2D3 SWAP2 SWAP1 PUSH2 0xABD JUMP JUMPDEST PUSH2 0x5E3 JUMP JUMPDEST PUSH1 0x40 MLOAD PUSH2 0x2E5 SWAP2 SWAP1 PUSH2 0xC92 JUMP JUMPDEST PUSH1 0x40 MLOAD DUP1 SWAP2 SUB SWAP1 RETURN JUMPDEST CALLVALUE DUP1 ISZERO PUSH2 0x2FA JUMPI PUSH1 0x0 DUP1 REVERT JUMPDEST POP PUSH2 0x303 PUSH2 0x6B7 JUMP JUMPDEST PUSH1 0x40 MLOAD PUSH2 0x310 SWAP2 SWAP1 PUSH2 0xC4E JUMP JUMPDEST PUSH1 0x40 MLOAD DUP1 SWAP2 SUB SWAP1 RETURN JUMPDEST CALLVALUE DUP1 ISZERO PUSH2 0x325 JUMPI PUSH1 0x0 DUP1 REVERT JUMPDEST POP PUSH2 0x340 PUSH1 0x4 DUP1 CALLDATASIZE SUB DUP2 ADD SWAP1 PUSH2 0x33B SWAP2 SWAP1 PUSH2 0xAFD JUMP JUMPDEST PUSH2 0x6DD JUMP JUMPDEST PUSH1 0x40 MLOAD PUSH2 0x34D SWAP2 SWAP1 PUSH2 0xC4E JUMP JUMPDEST PUSH1 0x40 MLOAD DUP1 SWAP2 SUB SWAP1 RETURN JUMPDEST CALLVALUE DUP1 ISZERO PUSH2 0x362 JUMPI PUSH1 0x0 DUP1 REVERT JUMPDEST POP PUSH2 0x36B PUSH2 0x71C JUMP JUMPDEST STOP JUMPDEST CALLVALUE DUP1 ISZERO PUSH2 0x379 JUMPI PUSH1 0x0 DUP1 REVERT JUMPDEST POP PUSH2 0x382 PUSH2 0x83E JUMP JUMPDEST PUSH1 0x40 MLOAD PUSH2 0x38F SWAP2 SWAP1 PUSH2 0xC4E JUMP JUMPDEST PUSH1 0x40 MLOAD DUP1 SWAP2 SUB SWAP1 RETURN JUMPDEST DUP7 PUSH1 0x1 PUSH1 0x0 PUSH2 0x100 EXP DUP2 SLOAD DUP2 PUSH20 0xFFFFFFFFFFFFFFFFFFFFFFFFFFFFFFFFFFFFFFFF MUL NOT AND SWAP1 DUP4 PUSH20 0xFFFFFFFFFFFFFFFFFFFFFFFFFFFFFFFFFFFFFFFF AND MUL OR SWAP1 SSTORE POP DUP6 PUSH1 0x2 PUSH1 0x0 PUSH2 0x100 EXP DUP2 SLOAD DUP2 PUSH20 0xFFFFFFFFFFFFFFFFFFFFFFFFFFFFFFFFFFFFFFFF MUL NOT AND SWAP1 DUP4 PUSH20 0xFFFFFFFFFFFFFFFFFFFFFFFFFFFFFFFFFFFFFFFF AND MUL OR SWAP1 SSTORE POP DUP5 PUSH1 0x5 SWAP1 DUP1 MLOAD SWAP1 PUSH1 0x20 ADD SWAP1 PUSH2 0x430 SWAP3 SWAP2 SWAP1 PUSH2 0x864 JUMP JUMPDEST POP DUP4 PUSH1 0x6 SWAP1 DUP1 MLOAD SWAP1 PUSH1 0x20 ADD SWAP1 PUSH2 0x447 SWAP3 SWAP2 SWAP1 PUSH2 0x864 JUMP JUMPDEST POP DUP3 PUSH1 0x7 DUP2 SWAP1 SSTORE POP DUP2 NUMBER PUSH2 0x45B SWAP2 SWAP1 PUSH2 0xDFC JUMP JUMPDEST PUSH1 0x8 DUP2 SWAP1 SSTORE POP DUP1 PUSH1 0xA DUP2 SWAP1 SSTORE POP POP POP POP POP POP POP POP JUMP JUMPDEST PUSH1 0x0 PUSH1 0x20 MSTORE DUP1 PUSH1 0x0 MSTORE PUSH1 0x40 PUSH1 0x0 KECCAK256 PUSH1 0x0 SWAP2 POP SWAP1 POP SLOAD DUP2 JUMP JUMPDEST PUSH1 0xA SLOAD DUP2 JUMP JUMPDEST PUSH1 0x8 SLOAD DUP2 JUMP JUMPDEST PUSH1 0x7 SLOAD DUP2 JUMP JUMPDEST PUSH1 0x5 DUP1 SLOAD PUSH2 0x4A8 SWAP1 PUSH2 0xEEE JUMP JUMPDEST DUP1 PUSH1 0x1F ADD PUSH1 0x20 DUP1 SWAP2 DIV MUL PUSH1 0x20 ADD PUSH1 0x40 MLOAD SWAP1 DUP2 ADD PUSH1 0x40 MSTORE DUP1 SWAP3 SWAP2 SWAP1 DUP2 DUP2 MSTORE PUSH1 0x20 ADD DUP3 DUP1 SLOAD PUSH2 0x4D4 SWAP1 PUSH2 0xEEE JUMP JUMPDEST DUP1 ISZERO PUSH2 0x521 JUMPI DUP1 PUSH1 0x1F LT PUSH2 0x4F6 JUMPI PUSH2 0x100 DUP1 DUP4 SLOAD DIV MUL DUP4 MSTORE SWAP2 PUSH1 0x20 ADD SWAP2 PUSH2 0x521 JUMP JUMPDEST DUP3 ADD SWAP2 SWAP1 PUSH1 0x0 MSTORE PUSH1 0x20 PUSH1 0x0 KECCAK256 SWAP1 JUMPDEST DUP2 SLOAD DUP2 MSTORE SWAP1 PUSH1 0x1 ADD SWAP1 PUSH1 0x20 ADD DUP1 DUP4 GT PUSH2 0x504 JUMPI DUP3 SWAP1 SUB PUSH1 0x1F AND DUP3 ADD SWAP2 JUMPDEST POP POP POP POP POP DUP2 JUMP JUMPDEST PUSH1 0x9 SLOAD DUP2 JUMP JUMPDEST PUSH1 0x6 DUP1 SLOAD PUSH2 0x53C SWAP1 PUSH2 0xEEE JUMP JUMPDEST DUP1 PUSH1 0x1F ADD PUSH1 0x20 DUP1 SWAP2 DIV MUL PUSH1 0x20 ADD PUSH1 0x40 MLOAD SWAP1 DUP2 ADD PUSH1 0x40 MSTORE DUP1 SWAP3 SWAP2 SWAP1 DUP2 DUP2 MSTORE PUSH1 0x20 ADD DUP3 DUP1 SLOAD PUSH2 0x568 SWAP1 PUSH2 0xEEE JUMP JUMPDEST DUP1 ISZERO PUSH2 0x5B5 JUMPI DUP1 PUSH1 0x1F LT PUSH2 0x58A JUMPI PUSH2 0x100 DUP1 DUP4 SLOAD DIV MUL DUP4 MSTORE SWAP2 PUSH1 0x20 ADD SWAP2 PUSH2 0x5B5 JUMP JUMPDEST DUP3 ADD SWAP2 SWAP1 PUSH1 0x0 MSTORE PUSH1 0x20 PUSH1 0x0 KECCAK256 SWAP1 JUMPDEST DUP2 SLOAD DUP2 MSTORE SWAP1 PUSH1 0x1 ADD SWAP1 PUSH1 0x20 ADD DUP1 DUP4 GT PUSH2 0x598 JUMPI DUP3 SWAP1 SUB PUSH1 0x1F AND DUP3 ADD SWAP2 JUMPDEST POP POP POP POP POP DUP2 JUMP JUMPDEST PUSH1 0x2 PUSH1 0x0 SWAP1 SLOAD SWAP1 PUSH2 0x100 EXP SWAP1 DIV PUSH20 0xFFFFFFFFFFFFFFFFFFFFFFFFFFFFFFFFFFFFFFFF AND DUP2 JUMP JUMPDEST PUSH1 0x0 PUSH1 0x7 SLOAD DUP3 LT PUSH2 0x629 JUMPI PUSH1 0x40 MLOAD PUSH32 0x8C379A000000000000000000000000000000000000000000000000000000000 DUP2 MSTORE PUSH1 0x4 ADD PUSH2 0x620 SWAP1 PUSH2 0xCEF JUMP JUMPDEST PUSH1 0x40 MLOAD DUP1 SWAP2 SUB SWAP1 REVERT JUMPDEST DUP2 PUSH1 0x9 SLOAD GT PUSH2 0x66D JUMPI PUSH1 0x40 MLOAD PUSH32 0x8C379A000000000000000000000000000000000000000000000000000000000 DUP2 MSTORE PUSH1 0x4 ADD PUSH2 0x664 SWAP1 PUSH2 0xD2F JUMP JUMPDEST PUSH1 0x40 MLOAD DUP1 SWAP2 SUB SWAP1 REVERT JUMPDEST DUP2 PUSH1 0x9 DUP2 SWAP1 SSTORE POP PUSH32 0xEE242CA320573FD3309D8CC97EF2994FE7704919768FC46F3332BE6E9536D0DE DUP4 DUP4 PUSH1 0x40 MLOAD PUSH2 0x6A5 SWAP3 SWAP2 SWAP1 PUSH2 0xC69 JUMP JUMPDEST PUSH1 0x40 MLOAD DUP1 SWAP2 SUB SWAP1 LOG1 PUSH1 0x1 SWAP1 POP SWAP3 SWAP2 POP POP JUMP JUMPDEST PUSH1 0x1 PUSH1 0x0 SWAP1 SLOAD SWAP1 PUSH2 0x100 EXP SWAP1 DIV PUSH20 0xFFFFFFFFFFFFFFFFFFFFFFFFFFFFFFFFFFFFFFFF AND DUP2 JUMP JUMPDEST PUSH1 0x4 DUP2 DUP2 SLOAD DUP2 LT PUSH2 0x6ED JUMPI PUSH1 0x0 DUP1 REVERT JUMPDEST SWAP1 PUSH1 0x0 MSTORE PUSH1 0x20 PUSH1 0x0 KECCAK256 ADD PUSH1 0x0 SWAP2 POP SLOAD SWAP1 PUSH2 0x100 EXP SWAP1 DIV PUSH20 0xFFFFFFFFFFFFFFFFFFFFFFFFFFFFFFFFFFFFFFFF AND DUP2 JUMP JUMPDEST PUSH1 0x2 PUSH1 0x0 SWAP1 SLOAD SWAP1 PUSH2 0x100 EXP SWAP1 DIV PUSH20 0xFFFFFFFFFFFFFFFFFFFFFFFFFFFFFFFFFFFFFFFF AND PUSH20 0xFFFFFFFFFFFFFFFFFFFFFFFFFFFFFFFFFFFFFFFF AND CALLER PUSH20 0xFFFFFFFFFFFFFFFFFFFFFFFFFFFFFFFFFFFFFFFF AND EQ PUSH2 0x7AC JUMPI PUSH1 0x40 MLOAD PUSH32 0x8C379A000000000000000000000000000000000000000000000000000000000 DUP2 MSTORE PUSH1 0x4 ADD PUSH2 0x7A3 SWAP1 PUSH2 0xD4F JUMP JUMPDEST PUSH1 0x40 MLOAD DUP1 SWAP2 SUB SWAP1 REVERT JUMPDEST PUSH1 0x3 PUSH1 0x0 SWAP1 SLOAD SWAP1 PUSH2 0x100 EXP SWAP1 DIV PUSH20 0xFFFFFFFFFFFFFFFFFFFFFFFFFFFFFFFFFFFFFFFF AND PUSH20 0xFFFFFFFFFFFFFFFFFFFFFFFFFFFFFFFFFFFFFFFF AND CALLER PUSH20 0xFFFFFFFFFFFFFFFFFFFFFFFFFFFFFFFFFFFFFFFF AND EQ PUSH2 0x83C JUMPI PUSH1 0x40 MLOAD PUSH32 0x8C379A000000000000000000000000000000000000000000000000000000000 DUP2 MSTORE PUSH1 0x4 ADD PUSH2 0x833 SWAP1 PUSH2 0xD0F JUMP JUMPDEST PUSH1 0x40 MLOAD DUP1 SWAP2 SUB SWAP1 REVERT JUMPDEST JUMP JUMPDEST PUSH1 0x3 PUSH1 0x0 SWAP1 SLOAD SWAP1 PUSH2 0x100 EXP SWAP1 DIV PUSH20 0xFFFFFFFFFFFFFFFFFFFFFFFFFFFFFFFFFFFFFFFF AND DUP2 JUMP JUMPDEST DUP3 DUP1 SLOAD PUSH2 0x870 SWAP1 PUSH2 0xEEE JUMP JUMPDEST SWAP1 PUSH1 0x0 MSTORE PUSH1 0x20 PUSH1 0x0 KECCAK256 SWAP1 PUSH1 0x1F ADD PUSH1 0x20 SWAP1 DIV DUP2 ADD SWAP3 DUP3 PUSH2 0x892 JUMPI PUSH1 0x0 DUP6 SSTORE PUSH2 0x8D9 JUMP JUMPDEST DUP3 PUSH1 0x1F LT PUSH2 0x8AB JUMPI DUP1 MLOAD PUSH1 0xFF NOT AND DUP4 DUP1 ADD OR DUP6 SSTORE PUSH2 0x8D9 JUMP JUMPDEST DUP3 DUP1 ADD PUSH1 0x1 ADD DUP6 SSTORE DUP3 ISZERO PUSH2 0x8D9 JUMPI SWAP2 DUP3 ADD JUMPDEST DUP3 DUP2 GT ISZERO PUSH2 0x8D8 JUMPI DUP3 MLOAD DUP3 SSTORE SWAP2 PUSH1 0x20 ADD SWAP2 SWAP1 PUSH1 0x1 ADD SWAP1 PUSH2 0x8BD JUMP JUMPDEST JUMPDEST POP SWAP1 POP PUSH2 0x8E6 SWAP2 SWAP1 PUSH2 0x8EA JUMP JUMPDEST POP SWAP1 JUMP JUMPDEST JUMPDEST DUP1 DUP3 GT ISZERO PUSH2 0x903 JUMPI PUSH1 0x0 DUP2 PUSH1 0x0 SWAP1 SSTORE POP PUSH1 0x1 ADD PUSH2 0x8EB JUMP JUMPDEST POP SWAP1 JUMP JUMPDEST PUSH1 0x0 PUSH2 0x91A PUSH2 0x915 DUP5 PUSH2 0xDAF JUMP JUMPDEST PUSH2 0xD8A JUMP JUMPDEST SWAP1 POP DUP3 DUP2 MSTORE PUSH1 0x20 DUP2 ADD DUP5 DUP5 DUP5 ADD GT ISZERO PUSH2 0x936 JUMPI PUSH2 0x935 PUSH2 0xFE3 JUMP JUMPDEST JUMPDEST PUSH2 0x941 DUP5 DUP3 DUP6 PUSH2 0xEAC JUMP JUMPDEST POP SWAP4 SWAP3 POP POP POP JUMP JUMPDEST PUSH1 0x0 DUP2 CALLDATALOAD SWAP1 POP PUSH2 0x958 DUP2 PUSH2 0x111C JUMP JUMPDEST SWAP3 SWAP2 POP POP JUMP JUMPDEST PUSH1 0x0 DUP2 CALLDATALOAD SWAP1 POP PUSH2 0x96D DUP2 PUSH2 0x1133 JUMP JUMPDEST SWAP3 SWAP2 POP POP JUMP JUMPDEST PUSH1 0x0 DUP3 PUSH1 0x1F DUP4 ADD SLT PUSH2 0x988 JUMPI PUSH2 0x987 PUSH2 0xFDE JUMP JUMPDEST JUMPDEST DUP2 CALLDATALOAD PUSH2 0x998 DUP5 DUP3 PUSH1 0x20 DUP7 ADD PUSH2 0x907 JUMP JUMPDEST SWAP2 POP POP SWAP3 SWAP2 POP POP JUMP JUMPDEST PUSH1 0x0 DUP2 CALLDATALOAD SWAP1 POP PUSH2 0x9B0 DUP2 PUSH2 0x114A JUMP JUMPDEST SWAP3 SWAP2 POP POP JUMP JUMPDEST PUSH1 0x0 PUSH1 0x20 DUP3 DUP5 SUB SLT ISZERO PUSH2 0x9CC JUMPI PUSH2 0x9CB PUSH2 0xFED JUMP JUMPDEST JUMPDEST PUSH1 0x0 PUSH2 0x9DA DUP5 DUP3 DUP6 ADD PUSH2 0x949 JUMP JUMPDEST SWAP2 POP POP SWAP3 SWAP2 POP POP JUMP JUMPDEST PUSH1 0x0 DUP1 PUSH1 0x0 DUP1 PUSH1 0x0 DUP1 PUSH1 0x0 PUSH1 0xE0 DUP9 DUP11 SUB SLT ISZERO PUSH2 0xA02 JUMPI PUSH2 0xA01 PUSH2 0xFED JUMP JUMPDEST JUMPDEST PUSH1 0x0 PUSH2 0xA10 DUP11 DUP3 DUP12 ADD PUSH2 0x95E JUMP JUMPDEST SWAP8 POP POP PUSH1 0x20 PUSH2 0xA21 DUP11 DUP3 DUP12 ADD PUSH2 0x95E JUMP JUMPDEST SWAP7 POP POP PUSH1 0x40 DUP9 ADD CALLDATALOAD PUSH8 0xFFFFFFFFFFFFFFFF DUP2 GT ISZERO PUSH2 0xA42 JUMPI PUSH2 0xA41 PUSH2 0xFE8 JUMP JUMPDEST JUMPDEST PUSH2 0xA4E DUP11 DUP3 DUP12 ADD PUSH2 0x973 JUMP JUMPDEST SWAP6 POP POP PUSH1 0x60 DUP9 ADD CALLDATALOAD PUSH8 0xFFFFFFFFFFFFFFFF DUP2 GT ISZERO PUSH2 0xA6F JUMPI PUSH2 0xA6E PUSH2 0xFE8 JUMP JUMPDEST JUMPDEST PUSH2 0xA7B DUP11 DUP3 DUP12 ADD PUSH2 0x973 JUMP JUMPDEST SWAP5 POP POP PUSH1 0x80 PUSH2 0xA8C DUP11 DUP3 DUP12 ADD PUSH2 0x9A1 JUMP JUMPDEST SWAP4 POP POP PUSH1 0xA0 PUSH2 0xA9D DUP11 DUP3 DUP12 ADD PUSH2 0x9A1 JUMP JUMPDEST SWAP3 POP POP PUSH1 0xC0 PUSH2 0xAAE DUP11 DUP3 DUP12 ADD PUSH2 0x9A1 JUMP JUMPDEST SWAP2 POP POP SWAP3 SWAP6 SWAP9 SWAP2 SWAP5 SWAP8 POP SWAP3 SWAP6 POP JUMP JUMPDEST PUSH1 0x0 DUP1 PUSH1 0x40 DUP4 DUP6 SUB SLT ISZERO PUSH2 0xAD4 JUMPI PUSH2 0xAD3 PUSH2 0xFED JUMP JUMPDEST JUMPDEST PUSH1 0x0 PUSH2 0xAE2 DUP6 DUP3 DUP7 ADD PUSH2 0x949 JUMP JUMPDEST SWAP3 POP POP PUSH1 0x20 PUSH2 0xAF3 DUP6 DUP3 DUP7 ADD PUSH2 0x9A1 JUMP JUMPDEST SWAP2 POP POP SWAP3 POP SWAP3 SWAP1 POP JUMP JUMPDEST PUSH1 0x0 PUSH1 0x20 DUP3 DUP5 SUB SLT ISZERO PUSH2 0xB13 JUMPI PUSH2 0xB12 PUSH2 0xFED JUMP JUMPDEST JUMPDEST PUSH1 0x0 PUSH2 0xB21 DUP5 DUP3 DUP6 ADD PUSH2 0x9A1 JUMP JUMPDEST SWAP2 POP POP SWAP3 SWAP2 POP POP JUMP JUMPDEST PUSH2 0xB33 DUP2 PUSH2 0xE64 JUMP JUMPDEST DUP3 MSTORE POP POP JUMP JUMPDEST PUSH2 0xB42 DUP2 PUSH2 0xE52 JUMP JUMPDEST DUP3 MSTORE POP POP JUMP JUMPDEST PUSH2 0xB51 DUP2 PUSH2 0xE76 JUMP JUMPDEST DUP3 MSTORE POP POP JUMP JUMPDEST PUSH1 0x0 PUSH2 0xB62 DUP3 PUSH2 0xDE0 JUMP JUMPDEST PUSH2 0xB6C DUP2 DUP6 PUSH2 0xDEB JUMP JUMPDEST SWAP4 POP PUSH2 0xB7C DUP2 DUP6 PUSH1 0x20 DUP7 ADD PUSH2 0xEBB JUMP JUMPDEST PUSH2 0xB85 DUP2 PUSH2 0xFF2 JUMP JUMPDEST DUP5 ADD SWAP2 POP POP SWAP3 SWAP2 POP POP JUMP JUMPDEST PUSH1 0x0 PUSH2 0xB9D PUSH1 0x14 DUP4 PUSH2 0xDEB JUMP JUMPDEST SWAP2 POP PUSH2 0xBA8 DUP3 PUSH2 0x1003 JUMP JUMPDEST PUSH1 0x20 DUP3 ADD SWAP1 POP SWAP2 SWAP1 POP JUMP JUMPDEST PUSH1 0x0 PUSH2 0xBC0 PUSH1 0x22 DUP4 PUSH2 0xDEB JUMP JUMPDEST SWAP2 POP PUSH2 0xBCB DUP3 PUSH2 0x102C JUMP JUMPDEST PUSH1 0x40 DUP3 ADD SWAP1 POP SWAP2 SWAP1 POP JUMP JUMPDEST PUSH1 0x0 PUSH2 0xBE3 PUSH1 0x1B DUP4 PUSH2 0xDEB JUMP JUMPDEST SWAP2 POP PUSH2 0xBEE DUP3 PUSH2 0x107B JUMP JUMPDEST PUSH1 0x20 DUP3 ADD SWAP1 POP SWAP2 SWAP1 POP JUMP JUMPDEST PUSH1 0x0 PUSH2 0xC06 PUSH1 0x14 DUP4 PUSH2 0xDEB JUMP JUMPDEST SWAP2 POP PUSH2 0xC11 DUP3 PUSH2 0x10A4 JUMP JUMPDEST PUSH1 0x20 DUP3 ADD SWAP1 POP SWAP2 SWAP1 POP JUMP JUMPDEST PUSH1 0x0 PUSH2 0xC29 PUSH1 0x2C DUP4 PUSH2 0xDEB JUMP JUMPDEST SWAP2 POP PUSH2 0xC34 DUP3 PUSH2 0x10CD JUMP JUMPDEST PUSH1 0x40 DUP3 ADD SWAP1 POP SWAP2 SWAP1 POP JUMP JUMPDEST PUSH2 0xC48 DUP2 PUSH2 0xEA2 JUMP JUMPDEST DUP3 MSTORE POP POP JUMP JUMPDEST PUSH1 0x0 PUSH1 0x20 DUP3 ADD SWAP1 POP PUSH2 0xC63 PUSH1 0x0 DUP4 ADD DUP5 PUSH2 0xB2A JUMP JUMPDEST SWAP3 SWAP2 POP POP JUMP JUMPDEST PUSH1 0x0 PUSH1 0x40 DUP3 ADD SWAP1 POP PUSH2 0xC7E PUSH1 0x0 DUP4 ADD DUP6 PUSH2 0xB39 JUMP JUMPDEST PUSH2 0xC8B PUSH1 0x20 DUP4 ADD DUP5 PUSH2 0xC3F JUMP JUMPDEST SWAP4 SWAP3 POP POP POP JUMP JUMPDEST PUSH1 0x0 PUSH1 0x20 DUP3 ADD SWAP1 POP PUSH2 0xCA7 PUSH1 0x0 DUP4 ADD DUP5 PUSH2 0xB48 JUMP JUMPDEST SWAP3 SWAP2 POP POP JUMP JUMPDEST PUSH1 0x0 PUSH1 0x20 DUP3 ADD SWAP1 POP DUP2 DUP2 SUB PUSH1 0x0 DUP4 ADD MSTORE PUSH2 0xCC7 DUP2 DUP5 PUSH2 0xB57 JUMP JUMPDEST SWAP1 POP SWAP3 SWAP2 POP POP JUMP JUMPDEST PUSH1 0x0 PUSH1 0x20 DUP3 ADD SWAP1 POP DUP2 DUP2 SUB PUSH1 0x0 DUP4 ADD MSTORE PUSH2 0xCE8 DUP2 PUSH2 0xB90 JUMP JUMPDEST SWAP1 POP SWAP2 SWAP1 POP JUMP JUMPDEST PUSH1 0x0 PUSH1 0x20 DUP3 ADD SWAP1 POP DUP2 DUP2 SUB PUSH1 0x0 DUP4 ADD MSTORE PUSH2 0xD08 DUP2 PUSH2 0xBB3 JUMP JUMPDEST SWAP1 POP SWAP2 SWAP1 POP JUMP JUMPDEST PUSH1 0x0 PUSH1 0x20 DUP3 ADD SWAP1 POP DUP2 DUP2 SUB PUSH1 0x0 DUP4 ADD MSTORE PUSH2 0xD28 DUP2 PUSH2 0xBD6 JUMP JUMPDEST SWAP1 POP SWAP2 SWAP1 POP JUMP JUMPDEST PUSH1 0x0 PUSH1 0x20 DUP3 ADD SWAP1 POP DUP2 DUP2 SUB PUSH1 0x0 DUP4 ADD MSTORE PUSH2 0xD48 DUP2 PUSH2 0xBF9 JUMP JUMPDEST SWAP1 POP SWAP2 SWAP1 POP JUMP JUMPDEST PUSH1 0x0 PUSH1 0x20 DUP3 ADD SWAP1 POP DUP2 DUP2 SUB PUSH1 0x0 DUP4 ADD MSTORE PUSH2 0xD68 DUP2 PUSH2 0xC1C JUMP JUMPDEST SWAP1 POP SWAP2 SWAP1 POP JUMP JUMPDEST PUSH1 0x0 PUSH1 0x20 DUP3 ADD SWAP1 POP PUSH2 0xD84 PUSH1 0x0 DUP4 ADD DUP5 PUSH2 0xC3F JUMP JUMPDEST SWAP3 SWAP2 POP POP JUMP JUMPDEST PUSH1 0x0 PUSH2 0xD94 PUSH2 0xDA5 JUMP JUMPDEST SWAP1 POP PUSH2 0xDA0 DUP3 DUP3 PUSH2 0xF20 JUMP JUMPDEST SWAP2 SWAP1 POP JUMP JUMPDEST PUSH1 0x0 PUSH1 0x40 MLOAD SWAP1 POP SWAP1 JUMP JUMPDEST PUSH1 0x0 PUSH8 0xFFFFFFFFFFFFFFFF DUP3 GT ISZERO PUSH2 0xDCA JUMPI PUSH2 0xDC9 PUSH2 0xFAF JUMP JUMPDEST JUMPDEST PUSH2 0xDD3 DUP3 PUSH2 0xFF2 JUMP JUMPDEST SWAP1 POP PUSH1 0x20 DUP2 ADD SWAP1 POP SWAP2 SWAP1 POP JUMP JUMPDEST PUSH1 0x0 DUP2 MLOAD SWAP1 POP SWAP2 SWAP1 POP JUMP JUMPDEST PUSH1 0x0 DUP3 DUP3 MSTORE PUSH1 0x20 DUP3 ADD SWAP1 POP SWAP3 SWAP2 POP POP JUMP JUMPDEST PUSH1 0x0 PUSH2 0xE07 DUP3 PUSH2 0xEA2 JUMP JUMPDEST SWAP2 POP PUSH2 0xE12 DUP4 PUSH2 0xEA2 JUMP JUMPDEST SWAP3 POP DUP3 PUSH32 0xFFFFFFFFFFFFFFFFFFFFFFFFFFFFFFFFFFFFFFFFFFFFFFFFFFFFFFFFFFFFFFFF SUB DUP3 GT ISZERO PUSH2 0xE47 JUMPI PUSH2 0xE46 PUSH2 0xF51 JUMP JUMPDEST JUMPDEST DUP3 DUP3 ADD SWAP1 POP SWAP3 SWAP2 POP POP JUMP JUMPDEST PUSH1 0x0 PUSH2 0xE5D DUP3 PUSH2 0xE82 JUMP JUMPDEST SWAP1 POP SWAP2 SWAP1 POP JUMP JUMPDEST PUSH1 0x0 PUSH2 0xE6F DUP3 PUSH2 0xE82 JUMP JUMPDEST SWAP1 POP SWAP2 SWAP1 POP JUMP JUMPDEST PUSH1 0x0 DUP2 ISZERO ISZERO SWAP1 POP SWAP2 SWAP1 POP JUMP JUMPDEST PUSH1 0x0 PUSH20 0xFFFFFFFFFFFFFFFFFFFFFFFFFFFFFFFFFFFFFFFF DUP3 AND SWAP1 POP SWAP2 SWAP1 POP JUMP JUMPDEST PUSH1 0x0 DUP2 SWAP1 POP SWAP2 SWAP1 POP JUMP JUMPDEST DUP3 DUP2 DUP4 CALLDATACOPY PUSH1 0x0 DUP4 DUP4 ADD MSTORE POP POP POP JUMP JUMPDEST PUSH1 0x0 JUMPDEST DUP4 DUP2 LT ISZERO PUSH2 0xED9 JUMPI DUP1 DUP3 ADD MLOAD DUP2 DUP5 ADD MSTORE PUSH1 0x20 DUP2 ADD SWAP1 POP PUSH2 0xEBE JUMP JUMPDEST DUP4 DUP2 GT ISZERO PUSH2 0xEE8 JUMPI PUSH1 0x0 DUP5 DUP5 ADD MSTORE JUMPDEST POP POP POP POP JUMP JUMPDEST PUSH1 0x0 PUSH1 0x2 DUP3 DIV SWAP1 POP PUSH1 0x1 DUP3 AND DUP1 PUSH2 0xF06 JUMPI PUSH1 0x7F DUP3 AND SWAP2 POP JUMPDEST PUSH1 0x20 DUP3 LT DUP2 EQ ISZERO PUSH2 0xF1A JUMPI PUSH2 0xF19 PUSH2 0xF80 JUMP JUMPDEST JUMPDEST POP SWAP2 SWAP1 POP JUMP JUMPDEST PUSH2 0xF29 DUP3 PUSH2 0xFF2 JUMP JUMPDEST DUP2 ADD DUP2 DUP2 LT PUSH8 0xFFFFFFFFFFFFFFFF DUP3 GT OR ISZERO PUSH2 0xF48 JUMPI PUSH2 0xF47 PUSH2 0xFAF JUMP JUMPDEST JUMPDEST DUP1 PUSH1 0x40 MSTORE POP POP POP JUMP JUMPDEST PUSH32 0x4E487B7100000000000000000000000000000000000000000000000000000000 PUSH1 0x0 MSTORE PUSH1 0x11 PUSH1 0x4 MSTORE PUSH1 0x24 PUSH1 0x0 REVERT JUMPDEST PUSH32 0x4E487B7100000000000000000000000000000000000000000000000000000000 PUSH1 0x0 MSTORE PUSH1 0x22 PUSH1 0x4 MSTORE PUSH1 0x24 PUSH1 0x0 REVERT JUMPDEST PUSH32 0x4E487B7100000000000000000000000000000000000000000000000000000000 PUSH1 0x0 MSTORE PUSH1 0x41 PUSH1 0x4 MSTORE PUSH1 0x24 PUSH1 0x0 REVERT JUMPDEST PUSH1 0x0 DUP1 REVERT JUMPDEST PUSH1 0x0 DUP1 REVERT JUMPDEST PUSH1 0x0 DUP1 REVERT JUMPDEST PUSH1 0x0 DUP1 REVERT JUMPDEST PUSH1 0x0 PUSH1 0x1F NOT PUSH1 0x1F DUP4 ADD AND SWAP1 POP SWAP2 SWAP1 POP JUMP JUMPDEST PUSH32 0x466C6F6F72707269636520697320686967686572000000000000000000000000 PUSH1 0x0 DUP3 ADD MSTORE POP JUMP JUMPDEST PUSH32 0x596F75206F66666572206973206C6F776572207468616E20666C6F6F72707269 PUSH1 0x0 DUP3 ADD MSTORE PUSH32 0x6365000000000000000000000000000000000000000000000000000000000000 PUSH1 0x20 DUP3 ADD MSTORE POP JUMP JUMPDEST PUSH32 0x596F7520617265206E6F7420746865206869676865722079656C6C0000000000 PUSH1 0x0 DUP3 ADD MSTORE POP JUMP JUMPDEST PUSH32 0x596F75206F6666657220697320746F6F206C6F77000000000000000000000000 PUSH1 0x0 DUP3 ADD MSTORE POP JUMP JUMPDEST PUSH32 0x596F7520617265206E6F7420746865207375626D6974746572206F6620746865 PUSH1 0x0 DUP3 ADD MSTORE PUSH32 0x2073616C65206E6F746963650000000000000000000000000000000000000000 PUSH1 0x20 DUP3 ADD MSTORE POP JUMP JUMPDEST PUSH2 0x1125 DUP2 PUSH2 0xE52 JUMP JUMPDEST DUP2 EQ PUSH2 0x1130 JUMPI PUSH1 0x0 DUP1 REVERT JUMPDEST POP JUMP JUMPDEST PUSH2 0x113C DUP2 PUSH2 0xE64 JUMP JUMPDEST DUP2 EQ PUSH2 0x1147 JUMPI PUSH1 0x0 DUP1 REVERT JUMPDEST POP JUMP JUMPDEST PUSH2 0x1153 DUP2 PUSH2 0xEA2 JUMP JUMPDEST DUP2 EQ PUSH2 0x115E JUMPI PUSH1 0x0 DUP1 REVERT JUMPDEST POP JUMP INVALID LOG2 PUSH5 0x6970667358 0x22 SLT KECCAK256 0x22 SHL SGT SIGNEXTEND 0xEA 0x2F BYTE 0x2D PUSH30 0xE9663785B7410E5A80AB95861C88449FB1584B369C2DCF64736F6C634300 ADDMOD SMOD STOP CALLER "
				},
				"gasEstimates": {
					"creation": {
						"codeDepositCost": "900600",
						"executionCost": "5941",
						"totalCost": "906541"
					},
					"external": {
						"dealer()": "2536",
						"description()": "infinite",
						"endtime()": "2452",
						"finished()": "4839",
						"floorprice()": "2474",
						"higherYell()": "2602",
						"huutajat(address)": "2860",
						"newNotification(address,address,string,string,uint256,uint256,uint256)": "infinite",
						"newPrice()": "2518",
						"person()": "2559",
						"previousOffers(uint256)": "5000",
						"reward()": "2497",
						"setYell(address,uint256)": "infinite",
						"title()": "infinite"
					}
				},
				"methodIdentifiers": {
					"dealer()": "9de2ee21",
					"description()": "7284e416",
					"endtime()": "2ca126f8",
					"finished()": "bef4876b",
					"floorprice()": "3a326bb8",
					"higherYell()": "f681cc51",
					"huutajat(address)": "1d71e4fc",
					"newNotification(address,address,string,string,uint256,uint256,uint256)": "09ce5f9e",
					"newPrice()": "51df9db9",
					"person()": "77ec2b55",
					"previousOffers(uint256)": "af128b91",
					"reward()": "228cb733",
					"setYell(address,uint256)": "9c72606d",
					"title()": "4a79d50c"
				}
			},
			"storageLayout": {
				"storage": [
					{
						"astId": 2729,
						"contract": "contracts/salesannouncement.sol:SalesAnnouncement",
						"label": "huutajat",
						"offset": 0,
						"slot": "0",
						"type": "t_mapping(t_address,t_uint256)"
					},
					{
						"astId": 2731,
						"contract": "contracts/salesannouncement.sol:SalesAnnouncement",
						"label": "dealer",
						"offset": 0,
						"slot": "1",
						"type": "t_address_payable"
					},
					{
						"astId": 2733,
						"contract": "contracts/salesannouncement.sol:SalesAnnouncement",
						"label": "person",
						"offset": 0,
						"slot": "2",
						"type": "t_address_payable"
					},
					{
						"astId": 2735,
						"contract": "contracts/salesannouncement.sol:SalesAnnouncement",
						"label": "higherYell",
						"offset": 0,
						"slot": "3",
						"type": "t_address_payable"
					},
					{
						"astId": 2738,
						"contract": "contracts/salesannouncement.sol:SalesAnnouncement",
						"label": "previousOffers",
						"offset": 0,
						"slot": "4",
						"type": "t_array(t_address_payable)dyn_storage"
					},
					{
						"astId": 2740,
						"contract": "contracts/salesannouncement.sol:SalesAnnouncement",
						"label": "title",
						"offset": 0,
						"slot": "5",
						"type": "t_string_storage"
					},
					{
						"astId": 2742,
						"contract": "contracts/salesannouncement.sol:SalesAnnouncement",
						"label": "description",
						"offset": 0,
						"slot": "6",
						"type": "t_string_storage"
					},
					{
						"astId": 2744,
						"contract": "contracts/salesannouncement.sol:SalesAnnouncement",
						"label": "floorprice",
						"offset": 0,
						"slot": "7",
						"type": "t_uint256"
					},
					{
						"astId": 2746,
						"contract": "contracts/salesannouncement.sol:SalesAnnouncement",
						"label": "endtime",
						"offset": 0,
						"slot": "8",
						"type": "t_uint256"
					},
					{
						"astId": 2748,
						"contract": "contracts/salesannouncement.sol:SalesAnnouncement",
						"label": "newPrice",
						"offset": 0,
						"slot": "9",
						"type": "t_uint256"
					},
					{
						"astId": 2750,
						"contract": "contracts/salesannouncement.sol:SalesAnnouncement",
						"label": "reward",
						"offset": 0,
						"slot": "10",
						"type": "t_uint256"
					},
					{
						"astId": 2753,
						"contract": "contracts/salesannouncement.sol:SalesAnnouncement",
						"label": "index",
						"offset": 0,
						"slot": "11",
						"type": "t_uint256"
					}
				],
				"types": {
					"t_address": {
						"encoding": "inplace",
						"label": "address",
						"numberOfBytes": "20"
					},
					"t_address_payable": {
						"encoding": "inplace",
						"label": "address payable",
						"numberOfBytes": "20"
					},
					"t_array(t_address_payable)dyn_storage": {
						"base": "t_address_payable",
						"encoding": "dynamic_array",
						"label": "address payable[]",
						"numberOfBytes": "32"
					},
					"t_mapping(t_address,t_uint256)": {
						"encoding": "mapping",
						"key": "t_address",
						"label": "mapping(address => uint256)",
						"numberOfBytes": "32",
						"value": "t_uint256"
					},
					"t_string_storage": {
						"encoding": "bytes",
						"label": "string",
						"numberOfBytes": "32"
					},
					"t_uint256": {
						"encoding": "inplace",
						"label": "uint256",
						"numberOfBytes": "32"
					}
				}
			},
			"userdoc": {
				"kind": "user",
				"methods": {},
				"version": 1
			}
		}
	}
}