{
	"contracts/huutokauppa.sol": {
		"Auction": {
			"abi": [
				{
					"inputs": [],
					"stateMutability": "nonpayable",
					"type": "constructor"
				},
				{
					"inputs": [
						{
							"internalType": "address",
							"name": "",
							"type": "address"
						}
					],
					"name": "announcements",
					"outputs": [
						{
							"internalType": "uint256",
							"name": "",
							"type": "uint256"
						}
					],
					"stateMutability": "view",
					"type": "function"
				},
				{
					"inputs": [
						{
							"internalType": "uint256",
							"name": "_reward",
							"type": "uint256"
						}
					],
					"name": "exchangeCommission",
					"outputs": [],
					"stateMutability": "nonpayable",
					"type": "function"
				},
				{
					"inputs": [],
					"name": "reward",
					"outputs": [
						{
							"internalType": "uint256",
							"name": "",
							"type": "uint256"
						}
					],
					"stateMutability": "view",
					"type": "function"
				}
			],
			"devdoc": {
				"kind": "dev",
				"methods": {},
				"version": 1
			},
			"evm": {
				"assembly": "    /* \"contracts/huutokauppa.sol\":113:658  contract Auction{\r... */\n  mstore(0x40, 0x80)\n    /* \"contracts/huutokauppa.sol\":295:403  constructor(){\r... */\n  callvalue\n  dup1\n  iszero\n  tag_1\n  jumpi\n  0x00\n  dup1\n  revert\ntag_1:\n  pop\n    /* \"contracts/huutokauppa.sol\":328:329  5 */\n  0x05\n    /* \"contracts/huutokauppa.sol\":319:325  reward */\n  0x00\n    /* \"contracts/huutokauppa.sol\":319:329  reward = 5 */\n  dup2\n  swap1\n  sstore\n  pop\n    /* \"contracts/huutokauppa.sol\":385:395  msg.sender */\n  caller\n    /* \"contracts/huutokauppa.sol\":377:382  owner */\n  0x02\n  0x00\n    /* \"contracts/huutokauppa.sol\":377:395  owner = msg.sender */\n  0x0100\n  exp\n  dup2\n  sload\n  dup2\n  0xffffffffffffffffffffffffffffffffffffffff\n  mul\n  not\n  and\n  swap1\n  dup4\n  0xffffffffffffffffffffffffffffffffffffffff\n  and\n  mul\n  or\n  swap1\n  sstore\n  pop\n    /* \"contracts/huutokauppa.sol\":113:658  contract Auction{\r... */\n  dataSize(sub_0)\n  dup1\n  dataOffset(sub_0)\n  0x00\n  codecopy\n  0x00\n  return\nstop\n\nsub_0: assembly {\n        /* \"contracts/huutokauppa.sol\":113:658  contract Auction{\r... */\n      mstore(0x40, 0x80)\n      callvalue\n      dup1\n      iszero\n      tag_1\n      jumpi\n      0x00\n      dup1\n      revert\n    tag_1:\n      pop\n      jumpi(tag_2, lt(calldatasize, 0x04))\n      shr(0xe0, calldataload(0x00))\n      dup1\n      0x228cb733\n      eq\n      tag_3\n      jumpi\n      dup1\n      0x413feec6\n      eq\n      tag_4\n      jumpi\n      dup1\n      0x692a76df\n      eq\n      tag_5\n      jumpi\n    tag_2:\n      0x00\n      dup1\n      revert\n        /* \"contracts/huutokauppa.sol\":136:154  uint public reward */\n    tag_3:\n      tag_6\n      tag_7\n      jump\t// in\n    tag_6:\n      mload(0x40)\n      tag_8\n      swap2\n      swap1\n      tag_9\n      jump\t// in\n    tag_8:\n      mload(0x40)\n      dup1\n      swap2\n      sub\n      swap1\n      return\n        /* \"contracts/huutokauppa.sol\":529:651  function exchangeCommission(uint _reward)OnlyOwner public{ // vaihdetaan välityspalkkio\r... */\n    tag_4:\n      tag_10\n      0x04\n      dup1\n      calldatasize\n      sub\n      dup2\n      add\n      swap1\n      tag_11\n      swap2\n      swap1\n      tag_12\n      jump\t// in\n    tag_11:\n      tag_13\n      jump\t// in\n    tag_10:\n      stop\n        /* \"contracts/huutokauppa.sol\":172:217  mapping(address => uint) public announcements */\n    tag_5:\n      tag_14\n      0x04\n      dup1\n      calldatasize\n      sub\n      dup2\n      add\n      swap1\n      tag_15\n      swap2\n      swap1\n      tag_16\n      jump\t// in\n    tag_15:\n      tag_17\n      jump\t// in\n    tag_14:\n      mload(0x40)\n      tag_18\n      swap2\n      swap1\n      tag_9\n      jump\t// in\n    tag_18:\n      mload(0x40)\n      dup1\n      swap2\n      sub\n      swap1\n      return\n        /* \"contracts/huutokauppa.sol\":136:154  uint public reward */\n    tag_7:\n      sload(0x00)\n      dup2\n      jump\t// out\n        /* \"contracts/huutokauppa.sol\":529:651  function exchangeCommission(uint _reward)OnlyOwner public{ // vaihdetaan välityspalkkio\r... */\n    tag_13:\n        /* \"contracts/huutokauppa.sol\":462:467  owner */\n      0x02\n      0x00\n      swap1\n      sload\n      swap1\n      0x0100\n      exp\n      swap1\n      div\n      0xffffffffffffffffffffffffffffffffffffffff\n      and\n        /* \"contracts/huutokauppa.sol\":448:467  msg.sender == owner */\n      0xffffffffffffffffffffffffffffffffffffffff\n      and\n        /* \"contracts/huutokauppa.sol\":448:458  msg.sender */\n      caller\n        /* \"contracts/huutokauppa.sol\":448:467  msg.sender == owner */\n      0xffffffffffffffffffffffffffffffffffffffff\n      and\n      eq\n        /* \"contracts/huutokauppa.sol\":440:501  require(msg.sender == owner,\"Decline, you are not the owner\") */\n      tag_20\n      jumpi\n      mload(0x40)\n      0x08c379a000000000000000000000000000000000000000000000000000000000\n      dup2\n      mstore\n      0x04\n      add\n      tag_21\n      swap1\n      tag_22\n      jump\t// in\n    tag_21:\n      mload(0x40)\n      dup1\n      swap2\n      sub\n      swap1\n      revert\n    tag_20:\n        /* \"contracts/huutokauppa.sol\":636:643  _reward */\n      dup1\n        /* \"contracts/huutokauppa.sol\":627:633  reward */\n      0x00\n        /* \"contracts/huutokauppa.sol\":627:643  reward = _reward */\n      dup2\n      swap1\n      sstore\n      pop\n        /* \"contracts/huutokauppa.sol\":529:651  function exchangeCommission(uint _reward)OnlyOwner public{ // vaihdetaan välityspalkkio\r... */\n      pop\n      jump\t// out\n        /* \"contracts/huutokauppa.sol\":172:217  mapping(address => uint) public announcements */\n    tag_17:\n      mstore(0x20, 0x01)\n      dup1\n      0x00\n      mstore\n      keccak256(0x00, 0x40)\n      0x00\n      swap2\n      pop\n      swap1\n      pop\n      sload\n      dup2\n      jump\t// out\n        /* \"#utility.yul\":7:146   */\n    tag_25:\n        /* \"#utility.yul\":53:58   */\n      0x00\n        /* \"#utility.yul\":91:97   */\n      dup2\n        /* \"#utility.yul\":78:98   */\n      calldataload\n        /* \"#utility.yul\":69:98   */\n      swap1\n      pop\n        /* \"#utility.yul\":107:140   */\n      tag_27\n        /* \"#utility.yul\":134:139   */\n      dup2\n        /* \"#utility.yul\":107:140   */\n      tag_28\n      jump\t// in\n    tag_27:\n        /* \"#utility.yul\":7:146   */\n      swap3\n      swap2\n      pop\n      pop\n      jump\t// out\n        /* \"#utility.yul\":152:291   */\n    tag_29:\n        /* \"#utility.yul\":198:203   */\n      0x00\n        /* \"#utility.yul\":236:242   */\n      dup2\n        /* \"#utility.yul\":223:243   */\n      calldataload\n        /* \"#utility.yul\":214:243   */\n      swap1\n      pop\n        /* \"#utility.yul\":252:285   */\n      tag_31\n        /* \"#utility.yul\":279:284   */\n      dup2\n        /* \"#utility.yul\":252:285   */\n      tag_32\n      jump\t// in\n    tag_31:\n        /* \"#utility.yul\":152:291   */\n      swap3\n      swap2\n      pop\n      pop\n      jump\t// out\n        /* \"#utility.yul\":297:626   */\n    tag_16:\n        /* \"#utility.yul\":356:362   */\n      0x00\n        /* \"#utility.yul\":405:407   */\n      0x20\n        /* \"#utility.yul\":393:402   */\n      dup3\n        /* \"#utility.yul\":384:391   */\n      dup5\n        /* \"#utility.yul\":380:403   */\n      sub\n        /* \"#utility.yul\":376:408   */\n      slt\n        /* \"#utility.yul\":373:492   */\n      iszero\n      tag_34\n      jumpi\n        /* \"#utility.yul\":411:490   */\n      tag_35\n      tag_36\n      jump\t// in\n    tag_35:\n        /* \"#utility.yul\":373:492   */\n    tag_34:\n        /* \"#utility.yul\":531:532   */\n      0x00\n        /* \"#utility.yul\":556:609   */\n      tag_37\n        /* \"#utility.yul\":601:608   */\n      dup5\n        /* \"#utility.yul\":592:598   */\n      dup3\n        /* \"#utility.yul\":581:590   */\n      dup6\n        /* \"#utility.yul\":577:599   */\n      add\n        /* \"#utility.yul\":556:609   */\n      tag_25\n      jump\t// in\n    tag_37:\n        /* \"#utility.yul\":546:609   */\n      swap2\n      pop\n        /* \"#utility.yul\":502:619   */\n      pop\n        /* \"#utility.yul\":297:626   */\n      swap3\n      swap2\n      pop\n      pop\n      jump\t// out\n        /* \"#utility.yul\":632:961   */\n    tag_12:\n        /* \"#utility.yul\":691:697   */\n      0x00\n        /* \"#utility.yul\":740:742   */\n      0x20\n        /* \"#utility.yul\":728:737   */\n      dup3\n        /* \"#utility.yul\":719:726   */\n      dup5\n        /* \"#utility.yul\":715:738   */\n      sub\n        /* \"#utility.yul\":711:743   */\n      slt\n        /* \"#utility.yul\":708:827   */\n      iszero\n      tag_39\n      jumpi\n        /* \"#utility.yul\":746:825   */\n      tag_40\n      tag_36\n      jump\t// in\n    tag_40:\n        /* \"#utility.yul\":708:827   */\n    tag_39:\n        /* \"#utility.yul\":866:867   */\n      0x00\n        /* \"#utility.yul\":891:944   */\n      tag_41\n        /* \"#utility.yul\":936:943   */\n      dup5\n        /* \"#utility.yul\":927:933   */\n      dup3\n        /* \"#utility.yul\":916:925   */\n      dup6\n        /* \"#utility.yul\":912:934   */\n      add\n        /* \"#utility.yul\":891:944   */\n      tag_29\n      jump\t// in\n    tag_41:\n        /* \"#utility.yul\":881:944   */\n      swap2\n      pop\n        /* \"#utility.yul\":837:954   */\n      pop\n        /* \"#utility.yul\":632:961   */\n      swap3\n      swap2\n      pop\n      pop\n      jump\t// out\n        /* \"#utility.yul\":967:1333   */\n    tag_42:\n        /* \"#utility.yul\":1109:1112   */\n      0x00\n        /* \"#utility.yul\":1130:1197   */\n      tag_44\n        /* \"#utility.yul\":1194:1196   */\n      0x1e\n        /* \"#utility.yul\":1189:1192   */\n      dup4\n        /* \"#utility.yul\":1130:1197   */\n      tag_45\n      jump\t// in\n    tag_44:\n        /* \"#utility.yul\":1123:1197   */\n      swap2\n      pop\n        /* \"#utility.yul\":1206:1299   */\n      tag_46\n        /* \"#utility.yul\":1295:1298   */\n      dup3\n        /* \"#utility.yul\":1206:1299   */\n      tag_47\n      jump\t// in\n    tag_46:\n        /* \"#utility.yul\":1324:1326   */\n      0x20\n        /* \"#utility.yul\":1319:1322   */\n      dup3\n        /* \"#utility.yul\":1315:1327   */\n      add\n        /* \"#utility.yul\":1308:1327   */\n      swap1\n      pop\n        /* \"#utility.yul\":967:1333   */\n      swap2\n      swap1\n      pop\n      jump\t// out\n        /* \"#utility.yul\":1339:1457   */\n    tag_48:\n        /* \"#utility.yul\":1426:1450   */\n      tag_50\n        /* \"#utility.yul\":1444:1449   */\n      dup2\n        /* \"#utility.yul\":1426:1450   */\n      tag_51\n      jump\t// in\n    tag_50:\n        /* \"#utility.yul\":1421:1424   */\n      dup3\n        /* \"#utility.yul\":1414:1451   */\n      mstore\n        /* \"#utility.yul\":1339:1457   */\n      pop\n      pop\n      jump\t// out\n        /* \"#utility.yul\":1463:1882   */\n    tag_22:\n        /* \"#utility.yul\":1629:1633   */\n      0x00\n        /* \"#utility.yul\":1667:1669   */\n      0x20\n        /* \"#utility.yul\":1656:1665   */\n      dup3\n        /* \"#utility.yul\":1652:1670   */\n      add\n        /* \"#utility.yul\":1644:1670   */\n      swap1\n      pop\n        /* \"#utility.yul\":1716:1725   */\n      dup2\n        /* \"#utility.yul\":1710:1714   */\n      dup2\n        /* \"#utility.yul\":1706:1726   */\n      sub\n        /* \"#utility.yul\":1702:1703   */\n      0x00\n        /* \"#utility.yul\":1691:1700   */\n      dup4\n        /* \"#utility.yul\":1687:1704   */\n      add\n        /* \"#utility.yul\":1680:1727   */\n      mstore\n        /* \"#utility.yul\":1744:1875   */\n      tag_53\n        /* \"#utility.yul\":1870:1874   */\n      dup2\n        /* \"#utility.yul\":1744:1875   */\n      tag_42\n      jump\t// in\n    tag_53:\n        /* \"#utility.yul\":1736:1875   */\n      swap1\n      pop\n        /* \"#utility.yul\":1463:1882   */\n      swap2\n      swap1\n      pop\n      jump\t// out\n        /* \"#utility.yul\":1888:2110   */\n    tag_9:\n        /* \"#utility.yul\":1981:1985   */\n      0x00\n        /* \"#utility.yul\":2019:2021   */\n      0x20\n        /* \"#utility.yul\":2008:2017   */\n      dup3\n        /* \"#utility.yul\":2004:2022   */\n      add\n        /* \"#utility.yul\":1996:2022   */\n      swap1\n      pop\n        /* \"#utility.yul\":2032:2103   */\n      tag_55\n        /* \"#utility.yul\":2100:2101   */\n      0x00\n        /* \"#utility.yul\":2089:2098   */\n      dup4\n        /* \"#utility.yul\":2085:2102   */\n      add\n        /* \"#utility.yul\":2076:2082   */\n      dup5\n        /* \"#utility.yul\":2032:2103   */\n      tag_48\n      jump\t// in\n    tag_55:\n        /* \"#utility.yul\":1888:2110   */\n      swap3\n      swap2\n      pop\n      pop\n      jump\t// out\n        /* \"#utility.yul\":2197:2366   */\n    tag_45:\n        /* \"#utility.yul\":2281:2292   */\n      0x00\n        /* \"#utility.yul\":2315:2321   */\n      dup3\n        /* \"#utility.yul\":2310:2313   */\n      dup3\n        /* \"#utility.yul\":2303:2322   */\n      mstore\n        /* \"#utility.yul\":2355:2359   */\n      0x20\n        /* \"#utility.yul\":2350:2353   */\n      dup3\n        /* \"#utility.yul\":2346:2360   */\n      add\n        /* \"#utility.yul\":2331:2360   */\n      swap1\n      pop\n        /* \"#utility.yul\":2197:2366   */\n      swap3\n      swap2\n      pop\n      pop\n      jump\t// out\n        /* \"#utility.yul\":2372:2468   */\n    tag_59:\n        /* \"#utility.yul\":2409:2416   */\n      0x00\n        /* \"#utility.yul\":2438:2462   */\n      tag_61\n        /* \"#utility.yul\":2456:2461   */\n      dup3\n        /* \"#utility.yul\":2438:2462   */\n      tag_62\n      jump\t// in\n    tag_61:\n        /* \"#utility.yul\":2427:2462   */\n      swap1\n      pop\n        /* \"#utility.yul\":2372:2468   */\n      swap2\n      swap1\n      pop\n      jump\t// out\n        /* \"#utility.yul\":2474:2600   */\n    tag_62:\n        /* \"#utility.yul\":2511:2518   */\n      0x00\n        /* \"#utility.yul\":2551:2593   */\n      0xffffffffffffffffffffffffffffffffffffffff\n        /* \"#utility.yul\":2544:2549   */\n      dup3\n        /* \"#utility.yul\":2540:2594   */\n      and\n        /* \"#utility.yul\":2529:2594   */\n      swap1\n      pop\n        /* \"#utility.yul\":2474:2600   */\n      swap2\n      swap1\n      pop\n      jump\t// out\n        /* \"#utility.yul\":2606:2683   */\n    tag_51:\n        /* \"#utility.yul\":2643:2650   */\n      0x00\n        /* \"#utility.yul\":2672:2677   */\n      dup2\n        /* \"#utility.yul\":2661:2677   */\n      swap1\n      pop\n        /* \"#utility.yul\":2606:2683   */\n      swap2\n      swap1\n      pop\n      jump\t// out\n        /* \"#utility.yul\":2812:2929   */\n    tag_36:\n        /* \"#utility.yul\":2921:2922   */\n      0x00\n        /* \"#utility.yul\":2918:2919   */\n      dup1\n        /* \"#utility.yul\":2911:2923   */\n      revert\n        /* \"#utility.yul\":2935:3115   */\n    tag_47:\n        /* \"#utility.yul\":3075:3107   */\n      0x4465636c696e652c20796f7520617265206e6f7420746865206f776e65720000\n        /* \"#utility.yul\":3071:3072   */\n      0x00\n        /* \"#utility.yul\":3063:3069   */\n      dup3\n        /* \"#utility.yul\":3059:3073   */\n      add\n        /* \"#utility.yul\":3052:3108   */\n      mstore\n        /* \"#utility.yul\":2935:3115   */\n      pop\n      jump\t// out\n        /* \"#utility.yul\":3121:3243   */\n    tag_28:\n        /* \"#utility.yul\":3194:3218   */\n      tag_70\n        /* \"#utility.yul\":3212:3217   */\n      dup2\n        /* \"#utility.yul\":3194:3218   */\n      tag_59\n      jump\t// in\n    tag_70:\n        /* \"#utility.yul\":3187:3192   */\n      dup2\n        /* \"#utility.yul\":3184:3219   */\n      eq\n        /* \"#utility.yul\":3174:3237   */\n      tag_71\n      jumpi\n        /* \"#utility.yul\":3233:3234   */\n      0x00\n        /* \"#utility.yul\":3230:3231   */\n      dup1\n        /* \"#utility.yul\":3223:3235   */\n      revert\n        /* \"#utility.yul\":3174:3237   */\n    tag_71:\n        /* \"#utility.yul\":3121:3243   */\n      pop\n      jump\t// out\n        /* \"#utility.yul\":3249:3371   */\n    tag_32:\n        /* \"#utility.yul\":3322:3346   */\n      tag_73\n        /* \"#utility.yul\":3340:3345   */\n      dup2\n        /* \"#utility.yul\":3322:3346   */\n      tag_51\n      jump\t// in\n    tag_73:\n        /* \"#utility.yul\":3315:3320   */\n      dup2\n        /* \"#utility.yul\":3312:3347   */\n      eq\n        /* \"#utility.yul\":3302:3365   */\n      tag_74\n      jumpi\n        /* \"#utility.yul\":3361:3362   */\n      0x00\n        /* \"#utility.yul\":3358:3359   */\n      dup1\n        /* \"#utility.yul\":3351:3363   */\n      revert\n        /* \"#utility.yul\":3302:3365   */\n    tag_74:\n        /* \"#utility.yul\":3249:3371   */\n      pop\n      jump\t// out\n\n    auxdata: 0xa2646970667358221220640da342ce12d7146504f7c6c718a62ab2b6fa9cd61199d524787609cc56c53164736f6c63430008070033\n}\n",
				"bytecode": {
					"linkReferences": {},
					"object": "608060405234801561001057600080fd5b50600560008190555033600260006101000a81548173ffffffffffffffffffffffffffffffffffffffff021916908373ffffffffffffffffffffffffffffffffffffffff160217905550610338806100696000396000f3fe608060405234801561001057600080fd5b50600436106100415760003560e01c8063228cb73314610046578063413feec614610064578063692a76df14610080575b600080fd5b61004e6100b0565b60405161005b919061023e565b60405180910390f35b61007e600480360381019061007991906101bf565b6100b6565b005b61009a60048036038101906100959190610192565b610150565b6040516100a7919061023e565b60405180910390f35b60005481565b600260009054906101000a900473ffffffffffffffffffffffffffffffffffffffff1673ffffffffffffffffffffffffffffffffffffffff163373ffffffffffffffffffffffffffffffffffffffff1614610146576040517f08c379a000000000000000000000000000000000000000000000000000000000815260040161013d9061021e565b60405180910390fd5b8060008190555050565b60016020528060005260406000206000915090505481565b600081359050610177816102d4565b92915050565b60008135905061018c816102eb565b92915050565b6000602082840312156101a8576101a76102a6565b5b60006101b684828501610168565b91505092915050565b6000602082840312156101d5576101d46102a6565b5b60006101e38482850161017d565b91505092915050565b60006101f9601e83610259565b9150610204826102ab565b602082019050919050565b6102188161029c565b82525050565b60006020820190508181036000830152610237816101ec565b9050919050565b6000602082019050610253600083018461020f565b92915050565b600082825260208201905092915050565b60006102758261027c565b9050919050565b600073ffffffffffffffffffffffffffffffffffffffff82169050919050565b6000819050919050565b600080fd5b7f4465636c696e652c20796f7520617265206e6f7420746865206f776e65720000600082015250565b6102dd8161026a565b81146102e857600080fd5b50565b6102f48161029c565b81146102ff57600080fd5b5056fea2646970667358221220640da342ce12d7146504f7c6c718a62ab2b6fa9cd61199d524787609cc56c53164736f6c63430008070033",
					"opcodes": "PUSH1 0x80 PUSH1 0x40 MSTORE CALLVALUE DUP1 ISZERO PUSH2 0x10 JUMPI PUSH1 0x0 DUP1 REVERT JUMPDEST POP PUSH1 0x5 PUSH1 0x0 DUP2 SWAP1 SSTORE POP CALLER PUSH1 0x2 PUSH1 0x0 PUSH2 0x100 EXP DUP2 SLOAD DUP2 PUSH20 0xFFFFFFFFFFFFFFFFFFFFFFFFFFFFFFFFFFFFFFFF MUL NOT AND SWAP1 DUP4 PUSH20 0xFFFFFFFFFFFFFFFFFFFFFFFFFFFFFFFFFFFFFFFF AND MUL OR SWAP1 SSTORE POP PUSH2 0x338 DUP1 PUSH2 0x69 PUSH1 0x0 CODECOPY PUSH1 0x0 RETURN INVALID PUSH1 0x80 PUSH1 0x40 MSTORE CALLVALUE DUP1 ISZERO PUSH2 0x10 JUMPI PUSH1 0x0 DUP1 REVERT JUMPDEST POP PUSH1 0x4 CALLDATASIZE LT PUSH2 0x41 JUMPI PUSH1 0x0 CALLDATALOAD PUSH1 0xE0 SHR DUP1 PUSH4 0x228CB733 EQ PUSH2 0x46 JUMPI DUP1 PUSH4 0x413FEEC6 EQ PUSH2 0x64 JUMPI DUP1 PUSH4 0x692A76DF EQ PUSH2 0x80 JUMPI JUMPDEST PUSH1 0x0 DUP1 REVERT JUMPDEST PUSH2 0x4E PUSH2 0xB0 JUMP JUMPDEST PUSH1 0x40 MLOAD PUSH2 0x5B SWAP2 SWAP1 PUSH2 0x23E JUMP JUMPDEST PUSH1 0x40 MLOAD DUP1 SWAP2 SUB SWAP1 RETURN JUMPDEST PUSH2 0x7E PUSH1 0x4 DUP1 CALLDATASIZE SUB DUP2 ADD SWAP1 PUSH2 0x79 SWAP2 SWAP1 PUSH2 0x1BF JUMP JUMPDEST PUSH2 0xB6 JUMP JUMPDEST STOP JUMPDEST PUSH2 0x9A PUSH1 0x4 DUP1 CALLDATASIZE SUB DUP2 ADD SWAP1 PUSH2 0x95 SWAP2 SWAP1 PUSH2 0x192 JUMP JUMPDEST PUSH2 0x150 JUMP JUMPDEST PUSH1 0x40 MLOAD PUSH2 0xA7 SWAP2 SWAP1 PUSH2 0x23E JUMP JUMPDEST PUSH1 0x40 MLOAD DUP1 SWAP2 SUB SWAP1 RETURN JUMPDEST PUSH1 0x0 SLOAD DUP2 JUMP JUMPDEST PUSH1 0x2 PUSH1 0x0 SWAP1 SLOAD SWAP1 PUSH2 0x100 EXP SWAP1 DIV PUSH20 0xFFFFFFFFFFFFFFFFFFFFFFFFFFFFFFFFFFFFFFFF AND PUSH20 0xFFFFFFFFFFFFFFFFFFFFFFFFFFFFFFFFFFFFFFFF AND CALLER PUSH20 0xFFFFFFFFFFFFFFFFFFFFFFFFFFFFFFFFFFFFFFFF AND EQ PUSH2 0x146 JUMPI PUSH1 0x40 MLOAD PUSH32 0x8C379A000000000000000000000000000000000000000000000000000000000 DUP2 MSTORE PUSH1 0x4 ADD PUSH2 0x13D SWAP1 PUSH2 0x21E JUMP JUMPDEST PUSH1 0x40 MLOAD DUP1 SWAP2 SUB SWAP1 REVERT JUMPDEST DUP1 PUSH1 0x0 DUP2 SWAP1 SSTORE POP POP JUMP JUMPDEST PUSH1 0x1 PUSH1 0x20 MSTORE DUP1 PUSH1 0x0 MSTORE PUSH1 0x40 PUSH1 0x0 KECCAK256 PUSH1 0x0 SWAP2 POP SWAP1 POP SLOAD DUP2 JUMP JUMPDEST PUSH1 0x0 DUP2 CALLDATALOAD SWAP1 POP PUSH2 0x177 DUP2 PUSH2 0x2D4 JUMP JUMPDEST SWAP3 SWAP2 POP POP JUMP JUMPDEST PUSH1 0x0 DUP2 CALLDATALOAD SWAP1 POP PUSH2 0x18C DUP2 PUSH2 0x2EB JUMP JUMPDEST SWAP3 SWAP2 POP POP JUMP JUMPDEST PUSH1 0x0 PUSH1 0x20 DUP3 DUP5 SUB SLT ISZERO PUSH2 0x1A8 JUMPI PUSH2 0x1A7 PUSH2 0x2A6 JUMP JUMPDEST JUMPDEST PUSH1 0x0 PUSH2 0x1B6 DUP5 DUP3 DUP6 ADD PUSH2 0x168 JUMP JUMPDEST SWAP2 POP POP SWAP3 SWAP2 POP POP JUMP JUMPDEST PUSH1 0x0 PUSH1 0x20 DUP3 DUP5 SUB SLT ISZERO PUSH2 0x1D5 JUMPI PUSH2 0x1D4 PUSH2 0x2A6 JUMP JUMPDEST JUMPDEST PUSH1 0x0 PUSH2 0x1E3 DUP5 DUP3 DUP6 ADD PUSH2 0x17D JUMP JUMPDEST SWAP2 POP POP SWAP3 SWAP2 POP POP JUMP JUMPDEST PUSH1 0x0 PUSH2 0x1F9 PUSH1 0x1E DUP4 PUSH2 0x259 JUMP JUMPDEST SWAP2 POP PUSH2 0x204 DUP3 PUSH2 0x2AB JUMP JUMPDEST PUSH1 0x20 DUP3 ADD SWAP1 POP SWAP2 SWAP1 POP JUMP JUMPDEST PUSH2 0x218 DUP2 PUSH2 0x29C JUMP JUMPDEST DUP3 MSTORE POP POP JUMP JUMPDEST PUSH1 0x0 PUSH1 0x20 DUP3 ADD SWAP1 POP DUP2 DUP2 SUB PUSH1 0x0 DUP4 ADD MSTORE PUSH2 0x237 DUP2 PUSH2 0x1EC JUMP JUMPDEST SWAP1 POP SWAP2 SWAP1 POP JUMP JUMPDEST PUSH1 0x0 PUSH1 0x20 DUP3 ADD SWAP1 POP PUSH2 0x253 PUSH1 0x0 DUP4 ADD DUP5 PUSH2 0x20F JUMP JUMPDEST SWAP3 SWAP2 POP POP JUMP JUMPDEST PUSH1 0x0 DUP3 DUP3 MSTORE PUSH1 0x20 DUP3 ADD SWAP1 POP SWAP3 SWAP2 POP POP JUMP JUMPDEST PUSH1 0x0 PUSH2 0x275 DUP3 PUSH2 0x27C JUMP JUMPDEST SWAP1 POP SWAP2 SWAP1 POP JUMP JUMPDEST PUSH1 0x0 PUSH20 0xFFFFFFFFFFFFFFFFFFFFFFFFFFFFFFFFFFFFFFFF DUP3 AND SWAP1 POP SWAP2 SWAP1 POP JUMP JUMPDEST PUSH1 0x0 DUP2 SWAP1 POP SWAP2 SWAP1 POP JUMP JUMPDEST PUSH1 0x0 DUP1 REVERT JUMPDEST PUSH32 0x4465636C696E652C20796F7520617265206E6F7420746865206F776E65720000 PUSH1 0x0 DUP3 ADD MSTORE POP JUMP JUMPDEST PUSH2 0x2DD DUP2 PUSH2 0x26A JUMP JUMPDEST DUP2 EQ PUSH2 0x2E8 JUMPI PUSH1 0x0 DUP1 REVERT JUMPDEST POP JUMP JUMPDEST PUSH2 0x2F4 DUP2 PUSH2 0x29C JUMP JUMPDEST DUP2 EQ PUSH2 0x2FF JUMPI PUSH1 0x0 DUP1 REVERT JUMPDEST POP JUMP INVALID LOG2 PUSH5 0x6970667358 0x22 SLT KECCAK256 PUSH5 0xDA342CE12 0xD7 EQ PUSH6 0x4F7C6C718A6 0x2A 0xB2 0xB6 STATICCALL SWAP13 0xD6 GT SWAP10 0xD5 0x24 PUSH25 0x7609CC56C53164736F6C634300080700330000000000000000 "
				},
				"gasEstimates": {
					"creation": {
						"codeDepositCost": "164800",
						"executionCost": "46588",
						"totalCost": "211388"
					},
					"external": {
						"announcements(address)": "2836",
						"exchangeCommission(uint256)": "24690",
						"reward()": "2407"
					}
				},
				"methodIdentifiers": {
					"announcements(address)": "692a76df",
					"exchangeCommission(uint256)": "413feec6",
					"reward()": "228cb733"
				}
			},
			"storageLayout": {
				"storage": [
					{
						"astId": 4,
						"contract": "contracts/huutokauppa.sol:Auction",
						"label": "reward",
						"offset": 0,
						"slot": "0",
						"type": "t_uint256"
					},
					{
						"astId": 8,
						"contract": "contracts/huutokauppa.sol:Auction",
						"label": "announcements",
						"offset": 0,
						"slot": "1",
						"type": "t_mapping(t_address,t_uint256)"
					},
					{
						"astId": 10,
						"contract": "contracts/huutokauppa.sol:Auction",
						"label": "owner",
						"offset": 0,
						"slot": "2",
						"type": "t_address"
					}
				],
				"types": {
					"t_address": {
						"encoding": "inplace",
						"label": "address",
						"numberOfBytes": "20"
					},
					"t_mapping(t_address,t_uint256)": {
						"encoding": "mapping",
						"key": "t_address",
						"label": "mapping(address => uint256)",
						"numberOfBytes": "32",
						"value": "t_uint256"
					},
					"t_uint256": {
						"encoding": "inplace",
						"label": "uint256",
						"numberOfBytes": "32"
					}
				}
			},
			"userdoc": {
				"kind": "user",
				"methods": {},
				"version": 1
			}
		}
	}
}