{
	"contracts/salesannouncement.sol": {
		"SalesAnnouncement": {
			"abi": [
				{
					"inputs": [],
					"stateMutability": "nonpayable",
					"type": "constructor"
				},
				{
					"inputs": [],
					"name": "huuda",
					"outputs": [],
					"stateMutability": "payable",
					"type": "function"
				},
				{
					"inputs": [
						{
							"internalType": "address",
							"name": "",
							"type": "address"
						}
					],
					"name": "huutajat",
					"outputs": [
						{
							"internalType": "uint256",
							"name": "",
							"type": "uint256"
						}
					],
					"stateMutability": "view",
					"type": "function"
				},
				{
					"inputs": [],
					"name": "kuvaus",
					"outputs": [
						{
							"internalType": "string",
							"name": "",
							"type": "string"
						}
					],
					"stateMutability": "view",
					"type": "function"
				},
				{
					"inputs": [
						{
							"internalType": "string",
							"name": "_otsikko",
							"type": "string"
						},
						{
							"internalType": "string",
							"name": "_kuvaus",
							"type": "string"
						}
					],
					"name": "luoMyyntiIlmoitus",
					"outputs": [],
					"stateMutability": "nonpayable",
					"type": "function"
				},
				{
					"inputs": [],
					"name": "otsikko",
					"outputs": [
						{
							"internalType": "string",
							"name": "",
							"type": "string"
						}
					],
					"stateMutability": "view",
					"type": "function"
				},
				{
					"inputs": [],
					"name": "paattymisaika",
					"outputs": [
						{
							"internalType": "uint256",
							"name": "",
							"type": "uint256"
						}
					],
					"stateMutability": "view",
					"type": "function"
				},
				{
					"inputs": [],
					"name": "pohjahinta",
					"outputs": [
						{
							"internalType": "uint256",
							"name": "",
							"type": "uint256"
						}
					],
					"stateMutability": "view",
					"type": "function"
				}
			],
			"devdoc": {
				"kind": "dev",
				"methods": {},
				"version": 1
			},
			"evm": {
				"assembly": "    /* \"contracts/salesannouncement.sol\":80:511  contract SalesAnnouncement{\r... */\n  mstore(0x40, 0x80)\n    /* \"contracts/salesannouncement.sol\":280:303  constructor(){\r... */\n  callvalue\n  dup1\n  iszero\n  tag_1\n  jumpi\n  0x00\n  dup1\n  revert\ntag_1:\n  pop\n    /* \"contracts/salesannouncement.sol\":80:511  contract SalesAnnouncement{\r... */\n  dataSize(sub_0)\n  dup1\n  dataOffset(sub_0)\n  0x00\n  codecopy\n  0x00\n  return\nstop\n\nsub_0: assembly {\n        /* \"contracts/salesannouncement.sol\":80:511  contract SalesAnnouncement{\r... */\n      mstore(0x40, 0x80)\n      jumpi(tag_1, lt(calldatasize, 0x04))\n      shr(0xe0, calldataload(0x00))\n      dup1\n      0x65a5faf9\n      gt\n      tag_9\n      jumpi\n      dup1\n      0x65a5faf9\n      eq\n      tag_5\n      jumpi\n      dup1\n      0x8da017e3\n      eq\n      tag_6\n      jumpi\n      dup1\n      0xb7366028\n      eq\n      tag_7\n      jumpi\n      dup1\n      0xdcc8fa7f\n      eq\n      tag_8\n      jumpi\n      jump(tag_1)\n    tag_9:\n      dup1\n      0x1d71e4fc\n      eq\n      tag_2\n      jumpi\n      dup1\n      0x2654f756\n      eq\n      tag_3\n      jumpi\n      dup1\n      0x55c4e1e2\n      eq\n      tag_4\n      jumpi\n    tag_1:\n      0x00\n      dup1\n      revert\n        /* \"contracts/salesannouncement.sol\":113:153  mapping(address => uint) public huutajat */\n    tag_2:\n      callvalue\n      dup1\n      iszero\n      tag_10\n      jumpi\n      0x00\n      dup1\n      revert\n    tag_10:\n      pop\n      tag_11\n      0x04\n      dup1\n      calldatasize\n      sub\n      dup2\n      add\n      swap1\n      tag_12\n      swap2\n      swap1\n      tag_13\n      jump\t// in\n    tag_12:\n      tag_14\n      jump\t// in\n    tag_11:\n      mload(0x40)\n      tag_15\n      swap2\n      swap1\n      tag_16\n      jump\t// in\n    tag_15:\n      mload(0x40)\n      dup1\n      swap2\n      sub\n      swap1\n      return\n        /* \"contracts/salesannouncement.sol\":311:354  function huuda () public payable {\r... */\n    tag_3:\n      tag_17\n      tag_18\n      jump\t// in\n    tag_17:\n      stop\n        /* \"contracts/salesannouncement.sol\":362:506  function luoMyyntiIlmoitus(string memory _otsikko, string memory _kuvaus) public{\r... */\n    tag_4:\n      callvalue\n      dup1\n      iszero\n      tag_19\n      jumpi\n      0x00\n      dup1\n      revert\n    tag_19:\n      pop\n      tag_20\n      0x04\n      dup1\n      calldatasize\n      sub\n      dup2\n      add\n      swap1\n      tag_21\n      swap2\n      swap1\n      tag_22\n      jump\t// in\n    tag_21:\n      tag_23\n      jump\t// in\n    tag_20:\n      stop\n        /* \"contracts/salesannouncement.sol\":244:269  uint public paattymisaika */\n    tag_5:\n      callvalue\n      dup1\n      iszero\n      tag_24\n      jumpi\n      0x00\n      dup1\n      revert\n    tag_24:\n      pop\n      tag_25\n      tag_26\n      jump\t// in\n    tag_25:\n      mload(0x40)\n      tag_27\n      swap2\n      swap1\n      tag_16\n      jump\t// in\n    tag_27:\n      mload(0x40)\n      dup1\n      swap2\n      sub\n      swap1\n      return\n        /* \"contracts/salesannouncement.sol\":215:237  uint public pohjahinta */\n    tag_6:\n      callvalue\n      dup1\n      iszero\n      tag_28\n      jumpi\n      0x00\n      dup1\n      revert\n    tag_28:\n      pop\n      tag_29\n      tag_30\n      jump\t// in\n    tag_29:\n      mload(0x40)\n      tag_31\n      swap2\n      swap1\n      tag_16\n      jump\t// in\n    tag_31:\n      mload(0x40)\n      dup1\n      swap2\n      sub\n      swap1\n      return\n        /* \"contracts/salesannouncement.sol\":188:208  string public kuvaus */\n    tag_7:\n      callvalue\n      dup1\n      iszero\n      tag_32\n      jumpi\n      0x00\n      dup1\n      revert\n    tag_32:\n      pop\n      tag_33\n      tag_34\n      jump\t// in\n    tag_33:\n      mload(0x40)\n      tag_35\n      swap2\n      swap1\n      tag_36\n      jump\t// in\n    tag_35:\n      mload(0x40)\n      dup1\n      swap2\n      sub\n      swap1\n      return\n        /* \"contracts/salesannouncement.sol\":160:181  string public otsikko */\n    tag_8:\n      callvalue\n      dup1\n      iszero\n      tag_37\n      jumpi\n      0x00\n      dup1\n      revert\n    tag_37:\n      pop\n      tag_38\n      tag_39\n      jump\t// in\n    tag_38:\n      mload(0x40)\n      tag_40\n      swap2\n      swap1\n      tag_36\n      jump\t// in\n    tag_40:\n      mload(0x40)\n      dup1\n      swap2\n      sub\n      swap1\n      return\n        /* \"contracts/salesannouncement.sol\":113:153  mapping(address => uint) public huutajat */\n    tag_14:\n      mstore(0x20, 0x00)\n      dup1\n      0x00\n      mstore\n      keccak256(0x00, 0x40)\n      0x00\n      swap2\n      pop\n      swap1\n      pop\n      sload\n      dup2\n      jump\t// out\n        /* \"contracts/salesannouncement.sol\":311:354  function huuda () public payable {\r... */\n    tag_18:\n      jump\t// out\n        /* \"contracts/salesannouncement.sol\":362:506  function luoMyyntiIlmoitus(string memory _otsikko, string memory _kuvaus) public{\r... */\n    tag_23:\n        /* \"contracts/salesannouncement.sol\":463:471  _otsikko */\n      dup2\n        /* \"contracts/salesannouncement.sol\":453:460  otsikko */\n      0x01\n        /* \"contracts/salesannouncement.sol\":453:471  otsikko = _otsikko */\n      swap1\n      dup1\n      mload\n      swap1\n      0x20\n      add\n      swap1\n      tag_43\n      swap3\n      swap2\n      swap1\n      tag_44\n      jump\t// in\n    tag_43:\n      pop\n        /* \"contracts/salesannouncement.sol\":491:498  _kuvaus */\n      dup1\n        /* \"contracts/salesannouncement.sol\":482:488  kuvaus */\n      0x02\n        /* \"contracts/salesannouncement.sol\":482:498  kuvaus = _kuvaus */\n      swap1\n      dup1\n      mload\n      swap1\n      0x20\n      add\n      swap1\n      tag_45\n      swap3\n      swap2\n      swap1\n      tag_44\n      jump\t// in\n    tag_45:\n      pop\n        /* \"contracts/salesannouncement.sol\":362:506  function luoMyyntiIlmoitus(string memory _otsikko, string memory _kuvaus) public{\r... */\n      pop\n      pop\n      jump\t// out\n        /* \"contracts/salesannouncement.sol\":244:269  uint public paattymisaika */\n    tag_26:\n      sload(0x04)\n      dup2\n      jump\t// out\n        /* \"contracts/salesannouncement.sol\":215:237  uint public pohjahinta */\n    tag_30:\n      sload(0x03)\n      dup2\n      jump\t// out\n        /* \"contracts/salesannouncement.sol\":188:208  string public kuvaus */\n    tag_34:\n      0x02\n      dup1\n      sload\n      tag_46\n      swap1\n      tag_47\n      jump\t// in\n    tag_46:\n      dup1\n      0x1f\n      add\n      0x20\n      dup1\n      swap2\n      div\n      mul\n      0x20\n      add\n      mload(0x40)\n      swap1\n      dup2\n      add\n      0x40\n      mstore\n      dup1\n      swap3\n      swap2\n      swap1\n      dup2\n      dup2\n      mstore\n      0x20\n      add\n      dup3\n      dup1\n      sload\n      tag_48\n      swap1\n      tag_47\n      jump\t// in\n    tag_48:\n      dup1\n      iszero\n      tag_49\n      jumpi\n      dup1\n      0x1f\n      lt\n      tag_50\n      jumpi\n      0x0100\n      dup1\n      dup4\n      sload\n      div\n      mul\n      dup4\n      mstore\n      swap2\n      0x20\n      add\n      swap2\n      jump(tag_49)\n    tag_50:\n      dup3\n      add\n      swap2\n      swap1\n      0x00\n      mstore\n      keccak256(0x00, 0x20)\n      swap1\n    tag_51:\n      dup2\n      sload\n      dup2\n      mstore\n      swap1\n      0x01\n      add\n      swap1\n      0x20\n      add\n      dup1\n      dup4\n      gt\n      tag_51\n      jumpi\n      dup3\n      swap1\n      sub\n      0x1f\n      and\n      dup3\n      add\n      swap2\n    tag_49:\n      pop\n      pop\n      pop\n      pop\n      pop\n      dup2\n      jump\t// out\n        /* \"contracts/salesannouncement.sol\":160:181  string public otsikko */\n    tag_39:\n      0x01\n      dup1\n      sload\n      tag_52\n      swap1\n      tag_47\n      jump\t// in\n    tag_52:\n      dup1\n      0x1f\n      add\n      0x20\n      dup1\n      swap2\n      div\n      mul\n      0x20\n      add\n      mload(0x40)\n      swap1\n      dup2\n      add\n      0x40\n      mstore\n      dup1\n      swap3\n      swap2\n      swap1\n      dup2\n      dup2\n      mstore\n      0x20\n      add\n      dup3\n      dup1\n      sload\n      tag_53\n      swap1\n      tag_47\n      jump\t// in\n    tag_53:\n      dup1\n      iszero\n      tag_54\n      jumpi\n      dup1\n      0x1f\n      lt\n      tag_55\n      jumpi\n      0x0100\n      dup1\n      dup4\n      sload\n      div\n      mul\n      dup4\n      mstore\n      swap2\n      0x20\n      add\n      swap2\n      jump(tag_54)\n    tag_55:\n      dup3\n      add\n      swap2\n      swap1\n      0x00\n      mstore\n      keccak256(0x00, 0x20)\n      swap1\n    tag_56:\n      dup2\n      sload\n      dup2\n      mstore\n      swap1\n      0x01\n      add\n      swap1\n      0x20\n      add\n      dup1\n      dup4\n      gt\n      tag_56\n      jumpi\n      dup3\n      swap1\n      sub\n      0x1f\n      and\n      dup3\n      add\n      swap2\n    tag_54:\n      pop\n      pop\n      pop\n      pop\n      pop\n      dup2\n      jump\t// out\n    tag_44:\n      dup3\n      dup1\n      sload\n      tag_57\n      swap1\n      tag_47\n      jump\t// in\n    tag_57:\n      swap1\n      0x00\n      mstore\n      keccak256(0x00, 0x20)\n      swap1\n      0x1f\n      add\n      0x20\n      swap1\n      div\n      dup2\n      add\n      swap3\n      dup3\n      tag_59\n      jumpi\n      0x00\n      dup6\n      sstore\n      jump(tag_58)\n    tag_59:\n      dup3\n      0x1f\n      lt\n      tag_60\n      jumpi\n      dup1\n      mload\n      not(0xff)\n      and\n      dup4\n      dup1\n      add\n      or\n      dup6\n      sstore\n      jump(tag_58)\n    tag_60:\n      dup3\n      dup1\n      add\n      0x01\n      add\n      dup6\n      sstore\n      dup3\n      iszero\n      tag_58\n      jumpi\n      swap2\n      dup3\n      add\n    tag_61:\n      dup3\n      dup2\n      gt\n      iszero\n      tag_62\n      jumpi\n      dup3\n      mload\n      dup3\n      sstore\n      swap2\n      0x20\n      add\n      swap2\n      swap1\n      0x01\n      add\n      swap1\n      jump(tag_61)\n    tag_62:\n    tag_58:\n      pop\n      swap1\n      pop\n      tag_63\n      swap2\n      swap1\n      tag_64\n      jump\t// in\n    tag_63:\n      pop\n      swap1\n      jump\t// out\n    tag_64:\n    tag_65:\n      dup1\n      dup3\n      gt\n      iszero\n      tag_66\n      jumpi\n      0x00\n      dup2\n      0x00\n      swap1\n      sstore\n      pop\n      0x01\n      add\n      jump(tag_65)\n    tag_66:\n      pop\n      swap1\n      jump\t// out\n        /* \"#utility.yul\":7:419   */\n    tag_68:\n        /* \"#utility.yul\":85:90   */\n      0x00\n        /* \"#utility.yul\":110:176   */\n      tag_70\n        /* \"#utility.yul\":126:175   */\n      tag_71\n        /* \"#utility.yul\":168:174   */\n      dup5\n        /* \"#utility.yul\":126:175   */\n      tag_72\n      jump\t// in\n    tag_71:\n        /* \"#utility.yul\":110:176   */\n      tag_73\n      jump\t// in\n    tag_70:\n        /* \"#utility.yul\":101:176   */\n      swap1\n      pop\n        /* \"#utility.yul\":199:205   */\n      dup3\n        /* \"#utility.yul\":192:197   */\n      dup2\n        /* \"#utility.yul\":185:206   */\n      mstore\n        /* \"#utility.yul\":237:241   */\n      0x20\n        /* \"#utility.yul\":230:235   */\n      dup2\n        /* \"#utility.yul\":226:242   */\n      add\n        /* \"#utility.yul\":275:278   */\n      dup5\n        /* \"#utility.yul\":266:272   */\n      dup5\n        /* \"#utility.yul\":261:264   */\n      dup5\n        /* \"#utility.yul\":257:273   */\n      add\n        /* \"#utility.yul\":254:279   */\n      gt\n        /* \"#utility.yul\":251:363   */\n      iszero\n      tag_74\n      jumpi\n        /* \"#utility.yul\":282:361   */\n      tag_75\n      tag_76\n      jump\t// in\n    tag_75:\n        /* \"#utility.yul\":251:363   */\n    tag_74:\n        /* \"#utility.yul\":372:413   */\n      tag_77\n        /* \"#utility.yul\":406:412   */\n      dup5\n        /* \"#utility.yul\":401:404   */\n      dup3\n        /* \"#utility.yul\":396:399   */\n      dup6\n        /* \"#utility.yul\":372:413   */\n      tag_78\n      jump\t// in\n    tag_77:\n        /* \"#utility.yul\":91:419   */\n      pop\n        /* \"#utility.yul\":7:419   */\n      swap4\n      swap3\n      pop\n      pop\n      pop\n      jump\t// out\n        /* \"#utility.yul\":425:564   */\n    tag_79:\n        /* \"#utility.yul\":471:476   */\n      0x00\n        /* \"#utility.yul\":509:515   */\n      dup2\n        /* \"#utility.yul\":496:516   */\n      calldataload\n        /* \"#utility.yul\":487:516   */\n      swap1\n      pop\n        /* \"#utility.yul\":525:558   */\n      tag_81\n        /* \"#utility.yul\":552:557   */\n      dup2\n        /* \"#utility.yul\":525:558   */\n      tag_82\n      jump\t// in\n    tag_81:\n        /* \"#utility.yul\":425:564   */\n      swap3\n      swap2\n      pop\n      pop\n      jump\t// out\n        /* \"#utility.yul\":584:924   */\n    tag_83:\n        /* \"#utility.yul\":640:645   */\n      0x00\n        /* \"#utility.yul\":689:692   */\n      dup3\n        /* \"#utility.yul\":682:686   */\n      0x1f\n        /* \"#utility.yul\":674:680   */\n      dup4\n        /* \"#utility.yul\":670:687   */\n      add\n        /* \"#utility.yul\":666:693   */\n      slt\n        /* \"#utility.yul\":656:778   */\n      tag_85\n      jumpi\n        /* \"#utility.yul\":697:776   */\n      tag_86\n      tag_87\n      jump\t// in\n    tag_86:\n        /* \"#utility.yul\":656:778   */\n    tag_85:\n        /* \"#utility.yul\":814:820   */\n      dup2\n        /* \"#utility.yul\":801:821   */\n      calldataload\n        /* \"#utility.yul\":839:918   */\n      tag_88\n        /* \"#utility.yul\":914:917   */\n      dup5\n        /* \"#utility.yul\":906:912   */\n      dup3\n        /* \"#utility.yul\":899:903   */\n      0x20\n        /* \"#utility.yul\":891:897   */\n      dup7\n        /* \"#utility.yul\":887:904   */\n      add\n        /* \"#utility.yul\":839:918   */\n      tag_68\n      jump\t// in\n    tag_88:\n        /* \"#utility.yul\":830:918   */\n      swap2\n      pop\n        /* \"#utility.yul\":646:924   */\n      pop\n        /* \"#utility.yul\":584:924   */\n      swap3\n      swap2\n      pop\n      pop\n      jump\t// out\n        /* \"#utility.yul\":930:1259   */\n    tag_13:\n        /* \"#utility.yul\":989:995   */\n      0x00\n        /* \"#utility.yul\":1038:1040   */\n      0x20\n        /* \"#utility.yul\":1026:1035   */\n      dup3\n        /* \"#utility.yul\":1017:1024   */\n      dup5\n        /* \"#utility.yul\":1013:1036   */\n      sub\n        /* \"#utility.yul\":1009:1041   */\n      slt\n        /* \"#utility.yul\":1006:1125   */\n      iszero\n      tag_90\n      jumpi\n        /* \"#utility.yul\":1044:1123   */\n      tag_91\n      tag_92\n      jump\t// in\n    tag_91:\n        /* \"#utility.yul\":1006:1125   */\n    tag_90:\n        /* \"#utility.yul\":1164:1165   */\n      0x00\n        /* \"#utility.yul\":1189:1242   */\n      tag_93\n        /* \"#utility.yul\":1234:1241   */\n      dup5\n        /* \"#utility.yul\":1225:1231   */\n      dup3\n        /* \"#utility.yul\":1214:1223   */\n      dup6\n        /* \"#utility.yul\":1210:1232   */\n      add\n        /* \"#utility.yul\":1189:1242   */\n      tag_79\n      jump\t// in\n    tag_93:\n        /* \"#utility.yul\":1179:1242   */\n      swap2\n      pop\n        /* \"#utility.yul\":1135:1252   */\n      pop\n        /* \"#utility.yul\":930:1259   */\n      swap3\n      swap2\n      pop\n      pop\n      jump\t// out\n        /* \"#utility.yul\":1265:2099   */\n    tag_22:\n        /* \"#utility.yul\":1353:1359   */\n      0x00\n        /* \"#utility.yul\":1361:1367   */\n      dup1\n        /* \"#utility.yul\":1410:1412   */\n      0x40\n        /* \"#utility.yul\":1398:1407   */\n      dup4\n        /* \"#utility.yul\":1389:1396   */\n      dup6\n        /* \"#utility.yul\":1385:1408   */\n      sub\n        /* \"#utility.yul\":1381:1413   */\n      slt\n        /* \"#utility.yul\":1378:1497   */\n      iszero\n      tag_95\n      jumpi\n        /* \"#utility.yul\":1416:1495   */\n      tag_96\n      tag_92\n      jump\t// in\n    tag_96:\n        /* \"#utility.yul\":1378:1497   */\n    tag_95:\n        /* \"#utility.yul\":1564:1565   */\n      0x00\n        /* \"#utility.yul\":1553:1562   */\n      dup4\n        /* \"#utility.yul\":1549:1566   */\n      add\n        /* \"#utility.yul\":1536:1567   */\n      calldataload\n        /* \"#utility.yul\":1594:1612   */\n      0xffffffffffffffff\n        /* \"#utility.yul\":1586:1592   */\n      dup2\n        /* \"#utility.yul\":1583:1613   */\n      gt\n        /* \"#utility.yul\":1580:1697   */\n      iszero\n      tag_97\n      jumpi\n        /* \"#utility.yul\":1616:1695   */\n      tag_98\n      tag_99\n      jump\t// in\n    tag_98:\n        /* \"#utility.yul\":1580:1697   */\n    tag_97:\n        /* \"#utility.yul\":1721:1784   */\n      tag_100\n        /* \"#utility.yul\":1776:1783   */\n      dup6\n        /* \"#utility.yul\":1767:1773   */\n      dup3\n        /* \"#utility.yul\":1756:1765   */\n      dup7\n        /* \"#utility.yul\":1752:1774   */\n      add\n        /* \"#utility.yul\":1721:1784   */\n      tag_83\n      jump\t// in\n    tag_100:\n        /* \"#utility.yul\":1711:1784   */\n      swap3\n      pop\n        /* \"#utility.yul\":1507:1794   */\n      pop\n        /* \"#utility.yul\":1861:1863   */\n      0x20\n        /* \"#utility.yul\":1850:1859   */\n      dup4\n        /* \"#utility.yul\":1846:1864   */\n      add\n        /* \"#utility.yul\":1833:1865   */\n      calldataload\n        /* \"#utility.yul\":1892:1910   */\n      0xffffffffffffffff\n        /* \"#utility.yul\":1884:1890   */\n      dup2\n        /* \"#utility.yul\":1881:1911   */\n      gt\n        /* \"#utility.yul\":1878:1995   */\n      iszero\n      tag_101\n      jumpi\n        /* \"#utility.yul\":1914:1993   */\n      tag_102\n      tag_99\n      jump\t// in\n    tag_102:\n        /* \"#utility.yul\":1878:1995   */\n    tag_101:\n        /* \"#utility.yul\":2019:2082   */\n      tag_103\n        /* \"#utility.yul\":2074:2081   */\n      dup6\n        /* \"#utility.yul\":2065:2071   */\n      dup3\n        /* \"#utility.yul\":2054:2063   */\n      dup7\n        /* \"#utility.yul\":2050:2072   */\n      add\n        /* \"#utility.yul\":2019:2082   */\n      tag_83\n      jump\t// in\n    tag_103:\n        /* \"#utility.yul\":2009:2082   */\n      swap2\n      pop\n        /* \"#utility.yul\":1804:2092   */\n      pop\n        /* \"#utility.yul\":1265:2099   */\n      swap3\n      pop\n      swap3\n      swap1\n      pop\n      jump\t// out\n        /* \"#utility.yul\":2105:2469   */\n    tag_104:\n        /* \"#utility.yul\":2193:2196   */\n      0x00\n        /* \"#utility.yul\":2221:2260   */\n      tag_106\n        /* \"#utility.yul\":2254:2259   */\n      dup3\n        /* \"#utility.yul\":2221:2260   */\n      tag_107\n      jump\t// in\n    tag_106:\n        /* \"#utility.yul\":2276:2347   */\n      tag_108\n        /* \"#utility.yul\":2340:2346   */\n      dup2\n        /* \"#utility.yul\":2335:2338   */\n      dup6\n        /* \"#utility.yul\":2276:2347   */\n      tag_109\n      jump\t// in\n    tag_108:\n        /* \"#utility.yul\":2269:2347   */\n      swap4\n      pop\n        /* \"#utility.yul\":2356:2408   */\n      tag_110\n        /* \"#utility.yul\":2401:2407   */\n      dup2\n        /* \"#utility.yul\":2396:2399   */\n      dup6\n        /* \"#utility.yul\":2389:2393   */\n      0x20\n        /* \"#utility.yul\":2382:2387   */\n      dup7\n        /* \"#utility.yul\":2378:2394   */\n      add\n        /* \"#utility.yul\":2356:2408   */\n      tag_111\n      jump\t// in\n    tag_110:\n        /* \"#utility.yul\":2433:2462   */\n      tag_112\n        /* \"#utility.yul\":2455:2461   */\n      dup2\n        /* \"#utility.yul\":2433:2462   */\n      tag_113\n      jump\t// in\n    tag_112:\n        /* \"#utility.yul\":2428:2431   */\n      dup5\n        /* \"#utility.yul\":2424:2463   */\n      add\n        /* \"#utility.yul\":2417:2463   */\n      swap2\n      pop\n        /* \"#utility.yul\":2197:2469   */\n      pop\n        /* \"#utility.yul\":2105:2469   */\n      swap3\n      swap2\n      pop\n      pop\n      jump\t// out\n        /* \"#utility.yul\":2475:2593   */\n    tag_114:\n        /* \"#utility.yul\":2562:2586   */\n      tag_116\n        /* \"#utility.yul\":2580:2585   */\n      dup2\n        /* \"#utility.yul\":2562:2586   */\n      tag_117\n      jump\t// in\n    tag_116:\n        /* \"#utility.yul\":2557:2560   */\n      dup3\n        /* \"#utility.yul\":2550:2587   */\n      mstore\n        /* \"#utility.yul\":2475:2593   */\n      pop\n      pop\n      jump\t// out\n        /* \"#utility.yul\":2599:2912   */\n    tag_36:\n        /* \"#utility.yul\":2712:2716   */\n      0x00\n        /* \"#utility.yul\":2750:2752   */\n      0x20\n        /* \"#utility.yul\":2739:2748   */\n      dup3\n        /* \"#utility.yul\":2735:2753   */\n      add\n        /* \"#utility.yul\":2727:2753   */\n      swap1\n      pop\n        /* \"#utility.yul\":2799:2808   */\n      dup2\n        /* \"#utility.yul\":2793:2797   */\n      dup2\n        /* \"#utility.yul\":2789:2809   */\n      sub\n        /* \"#utility.yul\":2785:2786   */\n      0x00\n        /* \"#utility.yul\":2774:2783   */\n      dup4\n        /* \"#utility.yul\":2770:2787   */\n      add\n        /* \"#utility.yul\":2763:2810   */\n      mstore\n        /* \"#utility.yul\":2827:2905   */\n      tag_119\n        /* \"#utility.yul\":2900:2904   */\n      dup2\n        /* \"#utility.yul\":2891:2897   */\n      dup5\n        /* \"#utility.yul\":2827:2905   */\n      tag_104\n      jump\t// in\n    tag_119:\n        /* \"#utility.yul\":2819:2905   */\n      swap1\n      pop\n        /* \"#utility.yul\":2599:2912   */\n      swap3\n      swap2\n      pop\n      pop\n      jump\t// out\n        /* \"#utility.yul\":2918:3140   */\n    tag_16:\n        /* \"#utility.yul\":3011:3015   */\n      0x00\n        /* \"#utility.yul\":3049:3051   */\n      0x20\n        /* \"#utility.yul\":3038:3047   */\n      dup3\n        /* \"#utility.yul\":3034:3052   */\n      add\n        /* \"#utility.yul\":3026:3052   */\n      swap1\n      pop\n        /* \"#utility.yul\":3062:3133   */\n      tag_121\n        /* \"#utility.yul\":3130:3131   */\n      0x00\n        /* \"#utility.yul\":3119:3128   */\n      dup4\n        /* \"#utility.yul\":3115:3132   */\n      add\n        /* \"#utility.yul\":3106:3112   */\n      dup5\n        /* \"#utility.yul\":3062:3133   */\n      tag_114\n      jump\t// in\n    tag_121:\n        /* \"#utility.yul\":2918:3140   */\n      swap3\n      swap2\n      pop\n      pop\n      jump\t// out\n        /* \"#utility.yul\":3146:3275   */\n    tag_73:\n        /* \"#utility.yul\":3180:3186   */\n      0x00\n        /* \"#utility.yul\":3207:3227   */\n      tag_123\n      tag_124\n      jump\t// in\n    tag_123:\n        /* \"#utility.yul\":3197:3227   */\n      swap1\n      pop\n        /* \"#utility.yul\":3236:3269   */\n      tag_125\n        /* \"#utility.yul\":3264:3268   */\n      dup3\n        /* \"#utility.yul\":3256:3262   */\n      dup3\n        /* \"#utility.yul\":3236:3269   */\n      tag_126\n      jump\t// in\n    tag_125:\n        /* \"#utility.yul\":3146:3275   */\n      swap2\n      swap1\n      pop\n      jump\t// out\n        /* \"#utility.yul\":3281:3356   */\n    tag_124:\n        /* \"#utility.yul\":3314:3320   */\n      0x00\n        /* \"#utility.yul\":3347:3349   */\n      0x40\n        /* \"#utility.yul\":3341:3350   */\n      mload\n        /* \"#utility.yul\":3331:3350   */\n      swap1\n      pop\n        /* \"#utility.yul\":3281:3356   */\n      swap1\n      jump\t// out\n        /* \"#utility.yul\":3362:3670   */\n    tag_72:\n        /* \"#utility.yul\":3424:3428   */\n      0x00\n        /* \"#utility.yul\":3514:3532   */\n      0xffffffffffffffff\n        /* \"#utility.yul\":3506:3512   */\n      dup3\n        /* \"#utility.yul\":3503:3533   */\n      gt\n        /* \"#utility.yul\":3500:3556   */\n      iszero\n      tag_129\n      jumpi\n        /* \"#utility.yul\":3536:3554   */\n      tag_130\n      tag_131\n      jump\t// in\n    tag_130:\n        /* \"#utility.yul\":3500:3556   */\n    tag_129:\n        /* \"#utility.yul\":3574:3603   */\n      tag_132\n        /* \"#utility.yul\":3596:3602   */\n      dup3\n        /* \"#utility.yul\":3574:3603   */\n      tag_113\n      jump\t// in\n    tag_132:\n        /* \"#utility.yul\":3566:3603   */\n      swap1\n      pop\n        /* \"#utility.yul\":3658:3662   */\n      0x20\n        /* \"#utility.yul\":3652:3656   */\n      dup2\n        /* \"#utility.yul\":3648:3663   */\n      add\n        /* \"#utility.yul\":3640:3663   */\n      swap1\n      pop\n        /* \"#utility.yul\":3362:3670   */\n      swap2\n      swap1\n      pop\n      jump\t// out\n        /* \"#utility.yul\":3676:3775   */\n    tag_107:\n        /* \"#utility.yul\":3728:3734   */\n      0x00\n        /* \"#utility.yul\":3762:3767   */\n      dup2\n        /* \"#utility.yul\":3756:3768   */\n      mload\n        /* \"#utility.yul\":3746:3768   */\n      swap1\n      pop\n        /* \"#utility.yul\":3676:3775   */\n      swap2\n      swap1\n      pop\n      jump\t// out\n        /* \"#utility.yul\":3781:3950   */\n    tag_109:\n        /* \"#utility.yul\":3865:3876   */\n      0x00\n        /* \"#utility.yul\":3899:3905   */\n      dup3\n        /* \"#utility.yul\":3894:3897   */\n      dup3\n        /* \"#utility.yul\":3887:3906   */\n      mstore\n        /* \"#utility.yul\":3939:3943   */\n      0x20\n        /* \"#utility.yul\":3934:3937   */\n      dup3\n        /* \"#utility.yul\":3930:3944   */\n      add\n        /* \"#utility.yul\":3915:3944   */\n      swap1\n      pop\n        /* \"#utility.yul\":3781:3950   */\n      swap3\n      swap2\n      pop\n      pop\n      jump\t// out\n        /* \"#utility.yul\":3956:4052   */\n    tag_135:\n        /* \"#utility.yul\":3993:4000   */\n      0x00\n        /* \"#utility.yul\":4022:4046   */\n      tag_137\n        /* \"#utility.yul\":4040:4045   */\n      dup3\n        /* \"#utility.yul\":4022:4046   */\n      tag_138\n      jump\t// in\n    tag_137:\n        /* \"#utility.yul\":4011:4046   */\n      swap1\n      pop\n        /* \"#utility.yul\":3956:4052   */\n      swap2\n      swap1\n      pop\n      jump\t// out\n        /* \"#utility.yul\":4058:4184   */\n    tag_138:\n        /* \"#utility.yul\":4095:4102   */\n      0x00\n        /* \"#utility.yul\":4135:4177   */\n      0xffffffffffffffffffffffffffffffffffffffff\n        /* \"#utility.yul\":4128:4133   */\n      dup3\n        /* \"#utility.yul\":4124:4178   */\n      and\n        /* \"#utility.yul\":4113:4178   */\n      swap1\n      pop\n        /* \"#utility.yul\":4058:4184   */\n      swap2\n      swap1\n      pop\n      jump\t// out\n        /* \"#utility.yul\":4190:4267   */\n    tag_117:\n        /* \"#utility.yul\":4227:4234   */\n      0x00\n        /* \"#utility.yul\":4256:4261   */\n      dup2\n        /* \"#utility.yul\":4245:4261   */\n      swap1\n      pop\n        /* \"#utility.yul\":4190:4267   */\n      swap2\n      swap1\n      pop\n      jump\t// out\n        /* \"#utility.yul\":4273:4427   */\n    tag_78:\n        /* \"#utility.yul\":4357:4363   */\n      dup3\n        /* \"#utility.yul\":4352:4355   */\n      dup2\n        /* \"#utility.yul\":4347:4350   */\n      dup4\n        /* \"#utility.yul\":4334:4364   */\n      calldatacopy\n        /* \"#utility.yul\":4419:4420   */\n      0x00\n        /* \"#utility.yul\":4410:4416   */\n      dup4\n        /* \"#utility.yul\":4405:4408   */\n      dup4\n        /* \"#utility.yul\":4401:4417   */\n      add\n        /* \"#utility.yul\":4394:4421   */\n      mstore\n        /* \"#utility.yul\":4273:4427   */\n      pop\n      pop\n      pop\n      jump\t// out\n        /* \"#utility.yul\":4433:4740   */\n    tag_111:\n        /* \"#utility.yul\":4501:4502   */\n      0x00\n        /* \"#utility.yul\":4511:4624   */\n    tag_143:\n        /* \"#utility.yul\":4525:4531   */\n      dup4\n        /* \"#utility.yul\":4522:4523   */\n      dup2\n        /* \"#utility.yul\":4519:4532   */\n      lt\n        /* \"#utility.yul\":4511:4624   */\n      iszero\n      tag_145\n      jumpi\n        /* \"#utility.yul\":4610:4611   */\n      dup1\n        /* \"#utility.yul\":4605:4608   */\n      dup3\n        /* \"#utility.yul\":4601:4612   */\n      add\n        /* \"#utility.yul\":4595:4613   */\n      mload\n        /* \"#utility.yul\":4591:4592   */\n      dup2\n        /* \"#utility.yul\":4586:4589   */\n      dup5\n        /* \"#utility.yul\":4582:4593   */\n      add\n        /* \"#utility.yul\":4575:4614   */\n      mstore\n        /* \"#utility.yul\":4547:4549   */\n      0x20\n        /* \"#utility.yul\":4544:4545   */\n      dup2\n        /* \"#utility.yul\":4540:4550   */\n      add\n        /* \"#utility.yul\":4535:4550   */\n      swap1\n      pop\n        /* \"#utility.yul\":4511:4624   */\n      jump(tag_143)\n    tag_145:\n        /* \"#utility.yul\":4642:4648   */\n      dup4\n        /* \"#utility.yul\":4639:4640   */\n      dup2\n        /* \"#utility.yul\":4636:4649   */\n      gt\n        /* \"#utility.yul\":4633:4734   */\n      iszero\n      tag_146\n      jumpi\n        /* \"#utility.yul\":4722:4723   */\n      0x00\n        /* \"#utility.yul\":4713:4719   */\n      dup5\n        /* \"#utility.yul\":4708:4711   */\n      dup5\n        /* \"#utility.yul\":4704:4720   */\n      add\n        /* \"#utility.yul\":4697:4724   */\n      mstore\n        /* \"#utility.yul\":4633:4734   */\n    tag_146:\n        /* \"#utility.yul\":4482:4740   */\n      pop\n        /* \"#utility.yul\":4433:4740   */\n      pop\n      pop\n      pop\n      jump\t// out\n        /* \"#utility.yul\":4746:5066   */\n    tag_47:\n        /* \"#utility.yul\":4790:4796   */\n      0x00\n        /* \"#utility.yul\":4827:4828   */\n      0x02\n        /* \"#utility.yul\":4821:4825   */\n      dup3\n        /* \"#utility.yul\":4817:4829   */\n      div\n        /* \"#utility.yul\":4807:4829   */\n      swap1\n      pop\n        /* \"#utility.yul\":4874:4875   */\n      0x01\n        /* \"#utility.yul\":4868:4872   */\n      dup3\n        /* \"#utility.yul\":4864:4876   */\n      and\n        /* \"#utility.yul\":4895:4913   */\n      dup1\n        /* \"#utility.yul\":4885:4966   */\n      tag_148\n      jumpi\n        /* \"#utility.yul\":4951:4955   */\n      0x7f\n        /* \"#utility.yul\":4943:4949   */\n      dup3\n        /* \"#utility.yul\":4939:4956   */\n      and\n        /* \"#utility.yul\":4929:4956   */\n      swap2\n      pop\n        /* \"#utility.yul\":4885:4966   */\n    tag_148:\n        /* \"#utility.yul\":5013:5015   */\n      0x20\n        /* \"#utility.yul\":5005:5011   */\n      dup3\n        /* \"#utility.yul\":5002:5016   */\n      lt\n        /* \"#utility.yul\":4982:5000   */\n      dup2\n        /* \"#utility.yul\":4979:5017   */\n      eq\n        /* \"#utility.yul\":4976:5060   */\n      iszero\n      tag_149\n      jumpi\n        /* \"#utility.yul\":5032:5050   */\n      tag_150\n      tag_151\n      jump\t// in\n    tag_150:\n        /* \"#utility.yul\":4976:5060   */\n    tag_149:\n        /* \"#utility.yul\":4797:5066   */\n      pop\n        /* \"#utility.yul\":4746:5066   */\n      swap2\n      swap1\n      pop\n      jump\t// out\n        /* \"#utility.yul\":5072:5353   */\n    tag_126:\n        /* \"#utility.yul\":5155:5182   */\n      tag_153\n        /* \"#utility.yul\":5177:5181   */\n      dup3\n        /* \"#utility.yul\":5155:5182   */\n      tag_113\n      jump\t// in\n    tag_153:\n        /* \"#utility.yul\":5147:5153   */\n      dup2\n        /* \"#utility.yul\":5143:5183   */\n      add\n        /* \"#utility.yul\":5285:5291   */\n      dup2\n        /* \"#utility.yul\":5273:5283   */\n      dup2\n        /* \"#utility.yul\":5270:5292   */\n      lt\n        /* \"#utility.yul\":5249:5267   */\n      0xffffffffffffffff\n        /* \"#utility.yul\":5237:5247   */\n      dup3\n        /* \"#utility.yul\":5234:5268   */\n      gt\n        /* \"#utility.yul\":5231:5293   */\n      or\n        /* \"#utility.yul\":5228:5316   */\n      iszero\n      tag_154\n      jumpi\n        /* \"#utility.yul\":5296:5314   */\n      tag_155\n      tag_131\n      jump\t// in\n    tag_155:\n        /* \"#utility.yul\":5228:5316   */\n    tag_154:\n        /* \"#utility.yul\":5336:5346   */\n      dup1\n        /* \"#utility.yul\":5332:5334   */\n      0x40\n        /* \"#utility.yul\":5325:5347   */\n      mstore\n        /* \"#utility.yul\":5115:5353   */\n      pop\n        /* \"#utility.yul\":5072:5353   */\n      pop\n      pop\n      jump\t// out\n        /* \"#utility.yul\":5359:5539   */\n    tag_151:\n        /* \"#utility.yul\":5407:5484   */\n      0x4e487b7100000000000000000000000000000000000000000000000000000000\n        /* \"#utility.yul\":5404:5405   */\n      0x00\n        /* \"#utility.yul\":5397:5485   */\n      mstore\n        /* \"#utility.yul\":5504:5508   */\n      0x22\n        /* \"#utility.yul\":5501:5502   */\n      0x04\n        /* \"#utility.yul\":5494:5509   */\n      mstore\n        /* \"#utility.yul\":5528:5532   */\n      0x24\n        /* \"#utility.yul\":5525:5526   */\n      0x00\n        /* \"#utility.yul\":5518:5533   */\n      revert\n        /* \"#utility.yul\":5545:5725   */\n    tag_131:\n        /* \"#utility.yul\":5593:5670   */\n      0x4e487b7100000000000000000000000000000000000000000000000000000000\n        /* \"#utility.yul\":5590:5591   */\n      0x00\n        /* \"#utility.yul\":5583:5671   */\n      mstore\n        /* \"#utility.yul\":5690:5694   */\n      0x41\n        /* \"#utility.yul\":5687:5688   */\n      0x04\n        /* \"#utility.yul\":5680:5695   */\n      mstore\n        /* \"#utility.yul\":5714:5718   */\n      0x24\n        /* \"#utility.yul\":5711:5712   */\n      0x00\n        /* \"#utility.yul\":5704:5719   */\n      revert\n        /* \"#utility.yul\":5731:5848   */\n    tag_87:\n        /* \"#utility.yul\":5840:5841   */\n      0x00\n        /* \"#utility.yul\":5837:5838   */\n      dup1\n        /* \"#utility.yul\":5830:5842   */\n      revert\n        /* \"#utility.yul\":5854:5971   */\n    tag_76:\n        /* \"#utility.yul\":5963:5964   */\n      0x00\n        /* \"#utility.yul\":5960:5961   */\n      dup1\n        /* \"#utility.yul\":5953:5965   */\n      revert\n        /* \"#utility.yul\":5977:6094   */\n    tag_99:\n        /* \"#utility.yul\":6086:6087   */\n      0x00\n        /* \"#utility.yul\":6083:6084   */\n      dup1\n        /* \"#utility.yul\":6076:6088   */\n      revert\n        /* \"#utility.yul\":6100:6217   */\n    tag_92:\n        /* \"#utility.yul\":6209:6210   */\n      0x00\n        /* \"#utility.yul\":6206:6207   */\n      dup1\n        /* \"#utility.yul\":6199:6211   */\n      revert\n        /* \"#utility.yul\":6223:6325   */\n    tag_113:\n        /* \"#utility.yul\":6264:6270   */\n      0x00\n        /* \"#utility.yul\":6315:6317   */\n      0x1f\n        /* \"#utility.yul\":6311:6318   */\n      not\n        /* \"#utility.yul\":6306:6308   */\n      0x1f\n        /* \"#utility.yul\":6299:6304   */\n      dup4\n        /* \"#utility.yul\":6295:6309   */\n      add\n        /* \"#utility.yul\":6291:6319   */\n      and\n        /* \"#utility.yul\":6281:6319   */\n      swap1\n      pop\n        /* \"#utility.yul\":6223:6325   */\n      swap2\n      swap1\n      pop\n      jump\t// out\n        /* \"#utility.yul\":6331:6453   */\n    tag_82:\n        /* \"#utility.yul\":6404:6428   */\n      tag_164\n        /* \"#utility.yul\":6422:6427   */\n      dup2\n        /* \"#utility.yul\":6404:6428   */\n      tag_135\n      jump\t// in\n    tag_164:\n        /* \"#utility.yul\":6397:6402   */\n      dup2\n        /* \"#utility.yul\":6394:6429   */\n      eq\n        /* \"#utility.yul\":6384:6447   */\n      tag_165\n      jumpi\n        /* \"#utility.yul\":6443:6444   */\n      0x00\n        /* \"#utility.yul\":6440:6441   */\n      dup1\n        /* \"#utility.yul\":6433:6445   */\n      revert\n        /* \"#utility.yul\":6384:6447   */\n    tag_165:\n        /* \"#utility.yul\":6331:6453   */\n      pop\n      jump\t// out\n\n    auxdata: 0xa2646970667358221220f26a67e8194659bb3c4d156eaf3f394113064c88a4e0af3ea2b86bbfa2b3b4c564736f6c63430008070033\n}\n",
				"bytecode": {
					"linkReferences": {},
					"object": "608060405234801561001057600080fd5b5061077a806100206000396000f3fe6080604052600436106100705760003560e01c806365a5faf91161004e57806365a5faf9146100e55780638da017e314610110578063b73660281461013b578063dcc8fa7f1461016657610070565b80631d71e4fc146100755780632654f756146100b257806355c4e1e2146100bc575b600080fd5b34801561008157600080fd5b5061009c6004803603810190610097919061042d565b610191565b6040516100a9919061053c565b60405180910390f35b6100ba6101a9565b005b3480156100c857600080fd5b506100e360048036038101906100de919061045a565b6101ab565b005b3480156100f157600080fd5b506100fa6101dd565b604051610107919061053c565b60405180910390f35b34801561011c57600080fd5b506101256101e3565b604051610132919061053c565b60405180910390f35b34801561014757600080fd5b506101506101e9565b60405161015d919061051a565b60405180910390f35b34801561017257600080fd5b5061017b610277565b604051610188919061051a565b60405180910390f35b60006020528060005260406000206000915090505481565b565b81600190805190602001906101c1929190610305565b5080600290805190602001906101d8929190610305565b505050565b60045481565b60035481565b600280546101f690610647565b80601f016020809104026020016040519081016040528092919081815260200182805461022290610647565b801561026f5780601f106102445761010080835404028352916020019161026f565b820191906000526020600020905b81548152906001019060200180831161025257829003601f168201915b505050505081565b6001805461028490610647565b80601f01602080910402602001604051908101604052809291908181526020018280546102b090610647565b80156102fd5780601f106102d2576101008083540402835291602001916102fd565b820191906000526020600020905b8154815290600101906020018083116102e057829003601f168201915b505050505081565b82805461031190610647565b90600052602060002090601f016020900481019282610333576000855561037a565b82601f1061034c57805160ff191683800117855561037a565b8280016001018555821561037a579182015b8281111561037957825182559160200191906001019061035e565b5b509050610387919061038b565b5090565b5b808211156103a457600081600090555060010161038c565b5090565b60006103bb6103b68461057c565b610557565b9050828152602081018484840111156103d7576103d661070d565b5b6103e2848285610605565b509392505050565b6000813590506103f98161072d565b92915050565b600082601f83011261041457610413610708565b5b81356104248482602086016103a8565b91505092915050565b60006020828403121561044357610442610717565b5b6000610451848285016103ea565b91505092915050565b6000806040838503121561047157610470610717565b5b600083013567ffffffffffffffff81111561048f5761048e610712565b5b61049b858286016103ff565b925050602083013567ffffffffffffffff8111156104bc576104bb610712565b5b6104c8858286016103ff565b9150509250929050565b60006104dd826105ad565b6104e781856105b8565b93506104f7818560208601610614565b6105008161071c565b840191505092915050565b610514816105fb565b82525050565b6000602082019050818103600083015261053481846104d2565b905092915050565b6000602082019050610551600083018461050b565b92915050565b6000610561610572565b905061056d8282610679565b919050565b6000604051905090565b600067ffffffffffffffff821115610597576105966106d9565b5b6105a08261071c565b9050602081019050919050565b600081519050919050565b600082825260208201905092915050565b60006105d4826105db565b9050919050565b600073ffffffffffffffffffffffffffffffffffffffff82169050919050565b6000819050919050565b82818337600083830152505050565b60005b83811015610632578082015181840152602081019050610617565b83811115610641576000848401525b50505050565b6000600282049050600182168061065f57607f821691505b60208210811415610673576106726106aa565b5b50919050565b6106828261071c565b810181811067ffffffffffffffff821117156106a1576106a06106d9565b5b80604052505050565b7f4e487b7100000000000000000000000000000000000000000000000000000000600052602260045260246000fd5b7f4e487b7100000000000000000000000000000000000000000000000000000000600052604160045260246000fd5b600080fd5b600080fd5b600080fd5b600080fd5b6000601f19601f8301169050919050565b610736816105c9565b811461074157600080fd5b5056fea2646970667358221220f26a67e8194659bb3c4d156eaf3f394113064c88a4e0af3ea2b86bbfa2b3b4c564736f6c63430008070033",
					"opcodes": "PUSH1 0x80 PUSH1 0x40 MSTORE CALLVALUE DUP1 ISZERO PUSH2 0x10 JUMPI PUSH1 0x0 DUP1 REVERT JUMPDEST POP PUSH2 0x77A DUP1 PUSH2 0x20 PUSH1 0x0 CODECOPY PUSH1 0x0 RETURN INVALID PUSH1 0x80 PUSH1 0x40 MSTORE PUSH1 0x4 CALLDATASIZE LT PUSH2 0x70 JUMPI PUSH1 0x0 CALLDATALOAD PUSH1 0xE0 SHR DUP1 PUSH4 0x65A5FAF9 GT PUSH2 0x4E JUMPI DUP1 PUSH4 0x65A5FAF9 EQ PUSH2 0xE5 JUMPI DUP1 PUSH4 0x8DA017E3 EQ PUSH2 0x110 JUMPI DUP1 PUSH4 0xB7366028 EQ PUSH2 0x13B JUMPI DUP1 PUSH4 0xDCC8FA7F EQ PUSH2 0x166 JUMPI PUSH2 0x70 JUMP JUMPDEST DUP1 PUSH4 0x1D71E4FC EQ PUSH2 0x75 JUMPI DUP1 PUSH4 0x2654F756 EQ PUSH2 0xB2 JUMPI DUP1 PUSH4 0x55C4E1E2 EQ PUSH2 0xBC JUMPI JUMPDEST PUSH1 0x0 DUP1 REVERT JUMPDEST CALLVALUE DUP1 ISZERO PUSH2 0x81 JUMPI PUSH1 0x0 DUP1 REVERT JUMPDEST POP PUSH2 0x9C PUSH1 0x4 DUP1 CALLDATASIZE SUB DUP2 ADD SWAP1 PUSH2 0x97 SWAP2 SWAP1 PUSH2 0x42D JUMP JUMPDEST PUSH2 0x191 JUMP JUMPDEST PUSH1 0x40 MLOAD PUSH2 0xA9 SWAP2 SWAP1 PUSH2 0x53C JUMP JUMPDEST PUSH1 0x40 MLOAD DUP1 SWAP2 SUB SWAP1 RETURN JUMPDEST PUSH2 0xBA PUSH2 0x1A9 JUMP JUMPDEST STOP JUMPDEST CALLVALUE DUP1 ISZERO PUSH2 0xC8 JUMPI PUSH1 0x0 DUP1 REVERT JUMPDEST POP PUSH2 0xE3 PUSH1 0x4 DUP1 CALLDATASIZE SUB DUP2 ADD SWAP1 PUSH2 0xDE SWAP2 SWAP1 PUSH2 0x45A JUMP JUMPDEST PUSH2 0x1AB JUMP JUMPDEST STOP JUMPDEST CALLVALUE DUP1 ISZERO PUSH2 0xF1 JUMPI PUSH1 0x0 DUP1 REVERT JUMPDEST POP PUSH2 0xFA PUSH2 0x1DD JUMP JUMPDEST PUSH1 0x40 MLOAD PUSH2 0x107 SWAP2 SWAP1 PUSH2 0x53C JUMP JUMPDEST PUSH1 0x40 MLOAD DUP1 SWAP2 SUB SWAP1 RETURN JUMPDEST CALLVALUE DUP1 ISZERO PUSH2 0x11C JUMPI PUSH1 0x0 DUP1 REVERT JUMPDEST POP PUSH2 0x125 PUSH2 0x1E3 JUMP JUMPDEST PUSH1 0x40 MLOAD PUSH2 0x132 SWAP2 SWAP1 PUSH2 0x53C JUMP JUMPDEST PUSH1 0x40 MLOAD DUP1 SWAP2 SUB SWAP1 RETURN JUMPDEST CALLVALUE DUP1 ISZERO PUSH2 0x147 JUMPI PUSH1 0x0 DUP1 REVERT JUMPDEST POP PUSH2 0x150 PUSH2 0x1E9 JUMP JUMPDEST PUSH1 0x40 MLOAD PUSH2 0x15D SWAP2 SWAP1 PUSH2 0x51A JUMP JUMPDEST PUSH1 0x40 MLOAD DUP1 SWAP2 SUB SWAP1 RETURN JUMPDEST CALLVALUE DUP1 ISZERO PUSH2 0x172 JUMPI PUSH1 0x0 DUP1 REVERT JUMPDEST POP PUSH2 0x17B PUSH2 0x277 JUMP JUMPDEST PUSH1 0x40 MLOAD PUSH2 0x188 SWAP2 SWAP1 PUSH2 0x51A JUMP JUMPDEST PUSH1 0x40 MLOAD DUP1 SWAP2 SUB SWAP1 RETURN JUMPDEST PUSH1 0x0 PUSH1 0x20 MSTORE DUP1 PUSH1 0x0 MSTORE PUSH1 0x40 PUSH1 0x0 KECCAK256 PUSH1 0x0 SWAP2 POP SWAP1 POP SLOAD DUP2 JUMP JUMPDEST JUMP JUMPDEST DUP2 PUSH1 0x1 SWAP1 DUP1 MLOAD SWAP1 PUSH1 0x20 ADD SWAP1 PUSH2 0x1C1 SWAP3 SWAP2 SWAP1 PUSH2 0x305 JUMP JUMPDEST POP DUP1 PUSH1 0x2 SWAP1 DUP1 MLOAD SWAP1 PUSH1 0x20 ADD SWAP1 PUSH2 0x1D8 SWAP3 SWAP2 SWAP1 PUSH2 0x305 JUMP JUMPDEST POP POP POP JUMP JUMPDEST PUSH1 0x4 SLOAD DUP2 JUMP JUMPDEST PUSH1 0x3 SLOAD DUP2 JUMP JUMPDEST PUSH1 0x2 DUP1 SLOAD PUSH2 0x1F6 SWAP1 PUSH2 0x647 JUMP JUMPDEST DUP1 PUSH1 0x1F ADD PUSH1 0x20 DUP1 SWAP2 DIV MUL PUSH1 0x20 ADD PUSH1 0x40 MLOAD SWAP1 DUP2 ADD PUSH1 0x40 MSTORE DUP1 SWAP3 SWAP2 SWAP1 DUP2 DUP2 MSTORE PUSH1 0x20 ADD DUP3 DUP1 SLOAD PUSH2 0x222 SWAP1 PUSH2 0x647 JUMP JUMPDEST DUP1 ISZERO PUSH2 0x26F JUMPI DUP1 PUSH1 0x1F LT PUSH2 0x244 JUMPI PUSH2 0x100 DUP1 DUP4 SLOAD DIV MUL DUP4 MSTORE SWAP2 PUSH1 0x20 ADD SWAP2 PUSH2 0x26F JUMP JUMPDEST DUP3 ADD SWAP2 SWAP1 PUSH1 0x0 MSTORE PUSH1 0x20 PUSH1 0x0 KECCAK256 SWAP1 JUMPDEST DUP2 SLOAD DUP2 MSTORE SWAP1 PUSH1 0x1 ADD SWAP1 PUSH1 0x20 ADD DUP1 DUP4 GT PUSH2 0x252 JUMPI DUP3 SWAP1 SUB PUSH1 0x1F AND DUP3 ADD SWAP2 JUMPDEST POP POP POP POP POP DUP2 JUMP JUMPDEST PUSH1 0x1 DUP1 SLOAD PUSH2 0x284 SWAP1 PUSH2 0x647 JUMP JUMPDEST DUP1 PUSH1 0x1F ADD PUSH1 0x20 DUP1 SWAP2 DIV MUL PUSH1 0x20 ADD PUSH1 0x40 MLOAD SWAP1 DUP2 ADD PUSH1 0x40 MSTORE DUP1 SWAP3 SWAP2 SWAP1 DUP2 DUP2 MSTORE PUSH1 0x20 ADD DUP3 DUP1 SLOAD PUSH2 0x2B0 SWAP1 PUSH2 0x647 JUMP JUMPDEST DUP1 ISZERO PUSH2 0x2FD JUMPI DUP1 PUSH1 0x1F LT PUSH2 0x2D2 JUMPI PUSH2 0x100 DUP1 DUP4 SLOAD DIV MUL DUP4 MSTORE SWAP2 PUSH1 0x20 ADD SWAP2 PUSH2 0x2FD JUMP JUMPDEST DUP3 ADD SWAP2 SWAP1 PUSH1 0x0 MSTORE PUSH1 0x20 PUSH1 0x0 KECCAK256 SWAP1 JUMPDEST DUP2 SLOAD DUP2 MSTORE SWAP1 PUSH1 0x1 ADD SWAP1 PUSH1 0x20 ADD DUP1 DUP4 GT PUSH2 0x2E0 JUMPI DUP3 SWAP1 SUB PUSH1 0x1F AND DUP3 ADD SWAP2 JUMPDEST POP POP POP POP POP DUP2 JUMP JUMPDEST DUP3 DUP1 SLOAD PUSH2 0x311 SWAP1 PUSH2 0x647 JUMP JUMPDEST SWAP1 PUSH1 0x0 MSTORE PUSH1 0x20 PUSH1 0x0 KECCAK256 SWAP1 PUSH1 0x1F ADD PUSH1 0x20 SWAP1 DIV DUP2 ADD SWAP3 DUP3 PUSH2 0x333 JUMPI PUSH1 0x0 DUP6 SSTORE PUSH2 0x37A JUMP JUMPDEST DUP3 PUSH1 0x1F LT PUSH2 0x34C JUMPI DUP1 MLOAD PUSH1 0xFF NOT AND DUP4 DUP1 ADD OR DUP6 SSTORE PUSH2 0x37A JUMP JUMPDEST DUP3 DUP1 ADD PUSH1 0x1 ADD DUP6 SSTORE DUP3 ISZERO PUSH2 0x37A JUMPI SWAP2 DUP3 ADD JUMPDEST DUP3 DUP2 GT ISZERO PUSH2 0x379 JUMPI DUP3 MLOAD DUP3 SSTORE SWAP2 PUSH1 0x20 ADD SWAP2 SWAP1 PUSH1 0x1 ADD SWAP1 PUSH2 0x35E JUMP JUMPDEST JUMPDEST POP SWAP1 POP PUSH2 0x387 SWAP2 SWAP1 PUSH2 0x38B JUMP JUMPDEST POP SWAP1 JUMP JUMPDEST JUMPDEST DUP1 DUP3 GT ISZERO PUSH2 0x3A4 JUMPI PUSH1 0x0 DUP2 PUSH1 0x0 SWAP1 SSTORE POP PUSH1 0x1 ADD PUSH2 0x38C JUMP JUMPDEST POP SWAP1 JUMP JUMPDEST PUSH1 0x0 PUSH2 0x3BB PUSH2 0x3B6 DUP5 PUSH2 0x57C JUMP JUMPDEST PUSH2 0x557 JUMP JUMPDEST SWAP1 POP DUP3 DUP2 MSTORE PUSH1 0x20 DUP2 ADD DUP5 DUP5 DUP5 ADD GT ISZERO PUSH2 0x3D7 JUMPI PUSH2 0x3D6 PUSH2 0x70D JUMP JUMPDEST JUMPDEST PUSH2 0x3E2 DUP5 DUP3 DUP6 PUSH2 0x605 JUMP JUMPDEST POP SWAP4 SWAP3 POP POP POP JUMP JUMPDEST PUSH1 0x0 DUP2 CALLDATALOAD SWAP1 POP PUSH2 0x3F9 DUP2 PUSH2 0x72D JUMP JUMPDEST SWAP3 SWAP2 POP POP JUMP JUMPDEST PUSH1 0x0 DUP3 PUSH1 0x1F DUP4 ADD SLT PUSH2 0x414 JUMPI PUSH2 0x413 PUSH2 0x708 JUMP JUMPDEST JUMPDEST DUP2 CALLDATALOAD PUSH2 0x424 DUP5 DUP3 PUSH1 0x20 DUP7 ADD PUSH2 0x3A8 JUMP JUMPDEST SWAP2 POP POP SWAP3 SWAP2 POP POP JUMP JUMPDEST PUSH1 0x0 PUSH1 0x20 DUP3 DUP5 SUB SLT ISZERO PUSH2 0x443 JUMPI PUSH2 0x442 PUSH2 0x717 JUMP JUMPDEST JUMPDEST PUSH1 0x0 PUSH2 0x451 DUP5 DUP3 DUP6 ADD PUSH2 0x3EA JUMP JUMPDEST SWAP2 POP POP SWAP3 SWAP2 POP POP JUMP JUMPDEST PUSH1 0x0 DUP1 PUSH1 0x40 DUP4 DUP6 SUB SLT ISZERO PUSH2 0x471 JUMPI PUSH2 0x470 PUSH2 0x717 JUMP JUMPDEST JUMPDEST PUSH1 0x0 DUP4 ADD CALLDATALOAD PUSH8 0xFFFFFFFFFFFFFFFF DUP2 GT ISZERO PUSH2 0x48F JUMPI PUSH2 0x48E PUSH2 0x712 JUMP JUMPDEST JUMPDEST PUSH2 0x49B DUP6 DUP3 DUP7 ADD PUSH2 0x3FF JUMP JUMPDEST SWAP3 POP POP PUSH1 0x20 DUP4 ADD CALLDATALOAD PUSH8 0xFFFFFFFFFFFFFFFF DUP2 GT ISZERO PUSH2 0x4BC JUMPI PUSH2 0x4BB PUSH2 0x712 JUMP JUMPDEST JUMPDEST PUSH2 0x4C8 DUP6 DUP3 DUP7 ADD PUSH2 0x3FF JUMP JUMPDEST SWAP2 POP POP SWAP3 POP SWAP3 SWAP1 POP JUMP JUMPDEST PUSH1 0x0 PUSH2 0x4DD DUP3 PUSH2 0x5AD JUMP JUMPDEST PUSH2 0x4E7 DUP2 DUP6 PUSH2 0x5B8 JUMP JUMPDEST SWAP4 POP PUSH2 0x4F7 DUP2 DUP6 PUSH1 0x20 DUP7 ADD PUSH2 0x614 JUMP JUMPDEST PUSH2 0x500 DUP2 PUSH2 0x71C JUMP JUMPDEST DUP5 ADD SWAP2 POP POP SWAP3 SWAP2 POP POP JUMP JUMPDEST PUSH2 0x514 DUP2 PUSH2 0x5FB JUMP JUMPDEST DUP3 MSTORE POP POP JUMP JUMPDEST PUSH1 0x0 PUSH1 0x20 DUP3 ADD SWAP1 POP DUP2 DUP2 SUB PUSH1 0x0 DUP4 ADD MSTORE PUSH2 0x534 DUP2 DUP5 PUSH2 0x4D2 JUMP JUMPDEST SWAP1 POP SWAP3 SWAP2 POP POP JUMP JUMPDEST PUSH1 0x0 PUSH1 0x20 DUP3 ADD SWAP1 POP PUSH2 0x551 PUSH1 0x0 DUP4 ADD DUP5 PUSH2 0x50B JUMP JUMPDEST SWAP3 SWAP2 POP POP JUMP JUMPDEST PUSH1 0x0 PUSH2 0x561 PUSH2 0x572 JUMP JUMPDEST SWAP1 POP PUSH2 0x56D DUP3 DUP3 PUSH2 0x679 JUMP JUMPDEST SWAP2 SWAP1 POP JUMP JUMPDEST PUSH1 0x0 PUSH1 0x40 MLOAD SWAP1 POP SWAP1 JUMP JUMPDEST PUSH1 0x0 PUSH8 0xFFFFFFFFFFFFFFFF DUP3 GT ISZERO PUSH2 0x597 JUMPI PUSH2 0x596 PUSH2 0x6D9 JUMP JUMPDEST JUMPDEST PUSH2 0x5A0 DUP3 PUSH2 0x71C JUMP JUMPDEST SWAP1 POP PUSH1 0x20 DUP2 ADD SWAP1 POP SWAP2 SWAP1 POP JUMP JUMPDEST PUSH1 0x0 DUP2 MLOAD SWAP1 POP SWAP2 SWAP1 POP JUMP JUMPDEST PUSH1 0x0 DUP3 DUP3 MSTORE PUSH1 0x20 DUP3 ADD SWAP1 POP SWAP3 SWAP2 POP POP JUMP JUMPDEST PUSH1 0x0 PUSH2 0x5D4 DUP3 PUSH2 0x5DB JUMP JUMPDEST SWAP1 POP SWAP2 SWAP1 POP JUMP JUMPDEST PUSH1 0x0 PUSH20 0xFFFFFFFFFFFFFFFFFFFFFFFFFFFFFFFFFFFFFFFF DUP3 AND SWAP1 POP SWAP2 SWAP1 POP JUMP JUMPDEST PUSH1 0x0 DUP2 SWAP1 POP SWAP2 SWAP1 POP JUMP JUMPDEST DUP3 DUP2 DUP4 CALLDATACOPY PUSH1 0x0 DUP4 DUP4 ADD MSTORE POP POP POP JUMP JUMPDEST PUSH1 0x0 JUMPDEST DUP4 DUP2 LT ISZERO PUSH2 0x632 JUMPI DUP1 DUP3 ADD MLOAD DUP2 DUP5 ADD MSTORE PUSH1 0x20 DUP2 ADD SWAP1 POP PUSH2 0x617 JUMP JUMPDEST DUP4 DUP2 GT ISZERO PUSH2 0x641 JUMPI PUSH1 0x0 DUP5 DUP5 ADD MSTORE JUMPDEST POP POP POP POP JUMP JUMPDEST PUSH1 0x0 PUSH1 0x2 DUP3 DIV SWAP1 POP PUSH1 0x1 DUP3 AND DUP1 PUSH2 0x65F JUMPI PUSH1 0x7F DUP3 AND SWAP2 POP JUMPDEST PUSH1 0x20 DUP3 LT DUP2 EQ ISZERO PUSH2 0x673 JUMPI PUSH2 0x672 PUSH2 0x6AA JUMP JUMPDEST JUMPDEST POP SWAP2 SWAP1 POP JUMP JUMPDEST PUSH2 0x682 DUP3 PUSH2 0x71C JUMP JUMPDEST DUP2 ADD DUP2 DUP2 LT PUSH8 0xFFFFFFFFFFFFFFFF DUP3 GT OR ISZERO PUSH2 0x6A1 JUMPI PUSH2 0x6A0 PUSH2 0x6D9 JUMP JUMPDEST JUMPDEST DUP1 PUSH1 0x40 MSTORE POP POP POP JUMP JUMPDEST PUSH32 0x4E487B7100000000000000000000000000000000000000000000000000000000 PUSH1 0x0 MSTORE PUSH1 0x22 PUSH1 0x4 MSTORE PUSH1 0x24 PUSH1 0x0 REVERT JUMPDEST PUSH32 0x4E487B7100000000000000000000000000000000000000000000000000000000 PUSH1 0x0 MSTORE PUSH1 0x41 PUSH1 0x4 MSTORE PUSH1 0x24 PUSH1 0x0 REVERT JUMPDEST PUSH1 0x0 DUP1 REVERT JUMPDEST PUSH1 0x0 DUP1 REVERT JUMPDEST PUSH1 0x0 DUP1 REVERT JUMPDEST PUSH1 0x0 DUP1 REVERT JUMPDEST PUSH1 0x0 PUSH1 0x1F NOT PUSH1 0x1F DUP4 ADD AND SWAP1 POP SWAP2 SWAP1 POP JUMP JUMPDEST PUSH2 0x736 DUP2 PUSH2 0x5C9 JUMP JUMPDEST DUP2 EQ PUSH2 0x741 JUMPI PUSH1 0x0 DUP1 REVERT JUMPDEST POP JUMP INVALID LOG2 PUSH5 0x6970667358 0x22 SLT KECCAK256 CALLCODE PUSH11 0x67E8194659BB3C4D156EAF EXTCODEHASH CODECOPY COINBASE SGT MOD 0x4C DUP9 LOG4 0xE0 0xAF RETURNDATACOPY LOG2 0xB8 PUSH12 0xBFA2B3B4C564736F6C634300 ADDMOD SMOD STOP CALLER "
				},
				"gasEstimates": {
					"creation": {
						"codeDepositCost": "382800",
						"executionCost": "418",
						"totalCost": "383218"
					},
					"external": {
						"huuda()": "143",
						"huutajat(address)": "2815",
						"kuvaus()": "infinite",
						"luoMyyntiIlmoitus(string,string)": "infinite",
						"otsikko()": "infinite",
						"paattymisaika()": "2429",
						"pohjahinta()": "2451"
					}
				},
				"methodIdentifiers": {
					"huuda()": "2654f756",
					"huutajat(address)": "1d71e4fc",
					"kuvaus()": "b7366028",
					"luoMyyntiIlmoitus(string,string)": "55c4e1e2",
					"otsikko()": "dcc8fa7f",
					"paattymisaika()": "65a5faf9",
					"pohjahinta()": "8da017e3"
				}
			},
			"storageLayout": {
				"storage": [
					{
						"astId": 54,
						"contract": "contracts/salesannouncement.sol:SalesAnnouncement",
						"label": "huutajat",
						"offset": 0,
						"slot": "0",
						"type": "t_mapping(t_address,t_uint256)"
					},
					{
						"astId": 56,
						"contract": "contracts/salesannouncement.sol:SalesAnnouncement",
						"label": "otsikko",
						"offset": 0,
						"slot": "1",
						"type": "t_string_storage"
					},
					{
						"astId": 58,
						"contract": "contracts/salesannouncement.sol:SalesAnnouncement",
						"label": "kuvaus",
						"offset": 0,
						"slot": "2",
						"type": "t_string_storage"
					},
					{
						"astId": 60,
						"contract": "contracts/salesannouncement.sol:SalesAnnouncement",
						"label": "pohjahinta",
						"offset": 0,
						"slot": "3",
						"type": "t_uint256"
					},
					{
						"astId": 62,
						"contract": "contracts/salesannouncement.sol:SalesAnnouncement",
						"label": "paattymisaika",
						"offset": 0,
						"slot": "4",
						"type": "t_uint256"
					}
				],
				"types": {
					"t_address": {
						"encoding": "inplace",
						"label": "address",
						"numberOfBytes": "20"
					},
					"t_mapping(t_address,t_uint256)": {
						"encoding": "mapping",
						"key": "t_address",
						"label": "mapping(address => uint256)",
						"numberOfBytes": "32",
						"value": "t_uint256"
					},
					"t_string_storage": {
						"encoding": "bytes",
						"label": "string",
						"numberOfBytes": "32"
					},
					"t_uint256": {
						"encoding": "inplace",
						"label": "uint256",
						"numberOfBytes": "32"
					}
				}
			},
			"userdoc": {
				"kind": "user",
				"methods": {},
				"version": 1
			}
		}
	}
}