{
	"data": {
		"bytecode": {
			"linkReferences": {},
			"object": "60806040526000600455600060055534801561001a57600080fd5b5033600160006101000a81548173ffffffffffffffffffffffffffffffffffffffff021916908373ffffffffffffffffffffffffffffffffffffffff16021790555030600260006101000a81548173ffffffffffffffffffffffffffffffffffffffff021916908373ffffffffffffffffffffffffffffffffffffffff160217905550600560038190555061259d806100b46000396000f3fe6080604052600436106200007f5760003560e01c806398fd1987116200005557806398fd19871462000118578063a71060dd1462000148578063d16cdae11462000176578063e6624e0314620001ba5762000087565b806312065fe0146200008c578063413feec614620000bc57806359af85dd14620000ea5762000087565b366200008757005b600080fd5b3480156200009957600080fd5b50620000a4620001da565b604051620000b3919062000cda565b60405180910390f35b348015620000c957600080fd5b50620000e86004803603810190620000e2919062000a07565b62000275565b005b348015620000f757600080fd5b5062000116600480360381019062000110919062000910565b6200034b565b005b3480156200012557600080fd5b5062000130620003f6565b6040516200013f919062000c57565b60405180910390f35b3480156200015557600080fd5b506200017460048036038101906200016e919062000957565b62000554565b005b3480156200018357600080fd5b50620001a260048036038101906200019c919062000a07565b6200068a565b604051620001b1919062000cda565b60405180910390f35b620001d86004803603810190620001d2919062000a07565b6200074c565b005b6000600160009054906101000a900473ffffffffffffffffffffffffffffffffffffffff1673ffffffffffffffffffffffffffffffffffffffff163373ffffffffffffffffffffffffffffffffffffffff16146200026f576040517f08c379a0000000000000000000000000000000000000000000000000000000008152600401620002669062000cb8565b60405180910390fd5b47905090565b600160009054906101000a900473ffffffffffffffffffffffffffffffffffffffff1673ffffffffffffffffffffffffffffffffffffffff163373ffffffffffffffffffffffffffffffffffffffff161462000308576040517f08c379a0000000000000000000000000000000000000000000000000000000008152600401620002ff9062000cb8565b60405180910390fd5b806003819055507fc7dcf55fd82ea00d1ab32899391d8611395cf59d4afb80f87a51c9f671ee43268160405162000340919062000cda565b60405180910390a150565b600080600083815260200190815260200160002060009054906101000a900473ffffffffffffffffffffffffffffffffffffffff1690508073ffffffffffffffffffffffffffffffffffffffff1663e0e3671c846040518263ffffffff1660e01b8152600401620003bd919062000b65565b600060405180830381600087803b158015620003d857600080fd5b505af1158015620003ed573d6000803e3d6000fd5b50505050505050565b6000600160009054906101000a900473ffffffffffffffffffffffffffffffffffffffff1673ffffffffffffffffffffffffffffffffffffffff163373ffffffffffffffffffffffffffffffffffffffff16146200048b576040517f08c379a0000000000000000000000000000000000000000000000000000000008152600401620004829062000cb8565b60405180910390fd5b600062000497620001da565b11620004da576040517f08c379a0000000000000000000000000000000000000000000000000000000008152600401620004d19062000c96565b60405180910390fd5b600160009054906101000a900473ffffffffffffffffffffffffffffffffffffffff1673ffffffffffffffffffffffffffffffffffffffff166108fc62000520620001da565b9081150290604051600060405180830381858888f193505050501580156200054c573d6000803e3d6000fd5b506001905090565b6000600260009054906101000a900473ffffffffffffffffffffffffffffffffffffffff1633868686866003546040516200058f906200083f565b620005a1979695949392919062000b9f565b604051809103906000f080158015620005be573d6000803e3d6000fd5b50905080600080600454815260200190815260200160002060006101000a81548173ffffffffffffffffffffffffffffffffffffffff021916908373ffffffffffffffffffffffffffffffffffffffff16021790555060046000815480929190620006299062000e4b565b919050555060056000815480929190620006439062000e4b565b91905055507fe6146232287030d976116a9d870a339e3a1620f43188c6adcdba72a726d9d03033826040516200067b92919062000c2a565b60405180910390a15050505050565b60008060008084815260200190815260200160002060009054906101000a900473ffffffffffffffffffffffffffffffffffffffff1690508073ffffffffffffffffffffffffffffffffffffffff166312065fe06040518163ffffffff1660e01b815260040160206040518083038186803b1580156200070957600080fd5b505afa1580156200071e573d6000803e3d6000fd5b505050506040513d601f19601f8201168201806040525081019062000744919062000a39565b915050919050565b60006005541162000794576040517f08c379a00000000000000000000000000000000000000000000000000000000081526004016200078b9062000c74565b60405180910390fd5b600080600083815260200190815260200160002060009054906101000a900473ffffffffffffffffffffffffffffffffffffffff1690508073ffffffffffffffffffffffffffffffffffffffff1663d873b3be34336040518363ffffffff1660e01b815260040162000807919062000b82565b6000604051808303818588803b1580156200082157600080fd5b505af115801562000836573d6000803e3d6000fd5b50505050505050565b61159c8062000fcc83390190565b6000620008646200085e8462000d20565b62000cf7565b90508281526020810184848401111562000883576200088262000efc565b5b6200089084828562000dd0565b509392505050565b600081359050620008a98162000f97565b92915050565b600082601f830112620008c757620008c662000ef7565b5b8135620008d98482602086016200084d565b91505092915050565b600081359050620008f38162000fb1565b92915050565b6000815190506200090a8162000fb1565b92915050565b600080604083850312156200092a576200092962000f06565b5b60006200093a8582860162000898565b92505060206200094d85828601620008e2565b9150509250929050565b6000806000806080858703121562000974576200097362000f06565b5b600085013567ffffffffffffffff81111562000995576200099462000f01565b5b620009a387828801620008af565b945050602085013567ffffffffffffffff811115620009c757620009c662000f01565b5b620009d587828801620008af565b9350506040620009e887828801620008e2565b9250506060620009fb87828801620008e2565b91505092959194509250565b60006020828403121562000a205762000a1f62000f06565b5b600062000a3084828501620008e2565b91505092915050565b60006020828403121562000a525762000a5162000f06565b5b600062000a6284828501620008f9565b91505092915050565b62000a768162000d86565b82525050565b62000a878162000d72565b82525050565b62000a988162000d9a565b82525050565b600062000aab8262000d56565b62000ab7818562000d61565b935062000ac981856020860162000ddf565b62000ad48162000f0b565b840191505092915050565b600062000aee600b8362000d61565b915062000afb8262000f1c565b602082019050919050565b600062000b15601c8362000d61565b915062000b228262000f45565b602082019050919050565b600062000b3c601e8362000d61565b915062000b498262000f6e565b602082019050919050565b62000b5f8162000dc6565b82525050565b600060208201905062000b7c600083018462000a7c565b92915050565b600060208201905062000b99600083018462000a6b565b92915050565b600060e08201905062000bb6600083018a62000a6b565b62000bc5602083018962000a6b565b818103604083015262000bd9818862000a9e565b9050818103606083015262000bef818762000a9e565b905062000c00608083018662000b54565b62000c0f60a083018562000b54565b62000c1e60c083018462000b54565b98975050505050505050565b600060408201905062000c41600083018562000a7c565b62000c50602083018462000a7c565b9392505050565b600060208201905062000c6e600083018462000a8d565b92915050565b6000602082019050818103600083015262000c8f8162000adf565b9050919050565b6000602082019050818103600083015262000cb18162000b06565b9050919050565b6000602082019050818103600083015262000cd38162000b2d565b9050919050565b600060208201905062000cf1600083018462000b54565b92915050565b600062000d0362000d16565b905062000d11828262000e15565b919050565b6000604051905090565b600067ffffffffffffffff82111562000d3e5762000d3d62000ec8565b5b62000d498262000f0b565b9050602081019050919050565b600081519050919050565b600082825260208201905092915050565b600062000d7f8262000da6565b9050919050565b600062000d938262000da6565b9050919050565b60008115159050919050565b600073ffffffffffffffffffffffffffffffffffffffff82169050919050565b6000819050919050565b82818337600083830152505050565b60005b8381101562000dff57808201518184015260208101905062000de2565b8381111562000e0f576000848401525b50505050565b62000e208262000f0b565b810181811067ffffffffffffffff8211171562000e425762000e4162000ec8565b5b80604052505050565b600062000e588262000dc6565b91507fffffffffffffffffffffffffffffffffffffffffffffffffffffffffffffffff82141562000e8e5762000e8d62000e99565b5b600182019050919050565b7f4e487b7100000000000000000000000000000000000000000000000000000000600052601160045260246000fd5b7f4e487b7100000000000000000000000000000000000000000000000000000000600052604160045260246000fd5b600080fd5b600080fd5b600080fd5b600080fd5b6000601f19601f8301169050919050565b7f4e6f7468696e6720796574000000000000000000000000000000000000000000600082015250565b7f54686520636f6e747261637420686173206e6f20657468657265756d00000000600082015250565b7f4465636c696e652c20796f7520617265206e6f7420746865206f776e65720000600082015250565b62000fa28162000d72565b811462000fae57600080fd5b50565b62000fbc8162000dc6565b811462000fc857600080fd5b5056fe60806040526000600a553480156200001657600080fd5b506040516200159c3803806200159c83398181016040528101906200003c919062000414565b856000806101000a81548173ffffffffffffffffffffffffffffffffffffffff021916908373ffffffffffffffffffffffffffffffffffffffff16021790555086600160006101000a81548173ffffffffffffffffffffffffffffffffffffffff021916908373ffffffffffffffffffffffffffffffffffffffff1602179055508460049080519060200190620000d5929190620002b8565b508360059080519060200190620000ee929190620002b8565b508260088190555081436200010491906200062d565b60068190555080600981905550620001d66040518060400160405280600a81526020017f6f6d697374616a613a200000000000000000000000000000000000000000000081525060008054906101000a900473ffffffffffffffffffffffffffffffffffffffff166040518060400160405280601781526020017f20687575746f6b617570616e206f6d697374616a613a20000000000000000000815250600160009054906101000a900473ffffffffffffffffffffffffffffffffffffffff16620001e360201b6200030d1760201c565b5050505050505062000864565b620002898484848460405160240162000200949392919062000557565b6040516020818303038152906040527faabc9a31000000000000000000000000000000000000000000000000000000007bffffffffffffffffffffffffffffffffffffffffffffffffffffffff19166020820180517bffffffffffffffffffffffffffffffffffffffffffffffffffffffff83818316178352505050506200028f60201b60201c565b50505050565b60008151905060006a636f6e736f6c652e6c6f679050602083016000808483855afa5050505050565b828054620002c69062000712565b90600052602060002090601f016020900481019282620002ea576000855562000336565b82601f106200030557805160ff191683800117855562000336565b8280016001018555821562000336579182015b828111156200033557825182559160200191906001019062000318565b5b50905062000345919062000349565b5090565b5b80821115620003645760008160009055506001016200034a565b5090565b60006200037f6200037984620005db565b620005b2565b9050828152602081018484840111156200039e576200039d62000810565b5b620003ab848285620006dc565b509392505050565b600081519050620003c48162000830565b92915050565b600082601f830112620003e257620003e16200080b565b5b8151620003f484826020860162000368565b91505092915050565b6000815190506200040e816200084a565b92915050565b600080600080600080600060e0888a0312156200043657620004356200081a565b5b6000620004468a828b01620003b3565b9750506020620004598a828b01620003b3565b965050604088015167ffffffffffffffff8111156200047d576200047c62000815565b5b6200048b8a828b01620003ca565b955050606088015167ffffffffffffffff811115620004af57620004ae62000815565b5b620004bd8a828b01620003ca565b9450506080620004d08a828b01620003fd565b93505060a0620004e38a828b01620003fd565b92505060c0620004f68a828b01620003fd565b91505092959891949750929550565b62000510816200068a565b82525050565b6000620005238262000611565b6200052f81856200061c565b935062000541818560208601620006dc565b6200054c816200081f565b840191505092915050565b6000608082019050818103600083015262000573818762000516565b905062000584602083018662000505565b818103604083015262000598818562000516565b9050620005a9606083018462000505565b95945050505050565b6000620005be620005d1565b9050620005cc828262000748565b919050565b6000604051905090565b600067ffffffffffffffff821115620005f957620005f8620007dc565b5b62000604826200081f565b9050602081019050919050565b600081519050919050565b600082825260208201905092915050565b60006200063a82620006d2565b91506200064783620006d2565b9250827fffffffffffffffffffffffffffffffffffffffffffffffffffffffffffffffff038211156200067f576200067e6200077e565b5b828201905092915050565b60006200069782620006b2565b9050919050565b6000620006ab82620006b2565b9050919050565b600073ffffffffffffffffffffffffffffffffffffffff82169050919050565b6000819050919050565b60005b83811015620006fc578082015181840152602081019050620006df565b838111156200070c576000848401525b50505050565b600060028204905060018216806200072b57607f821691505b60208210811415620007425762000741620007ad565b5b50919050565b62000753826200081f565b810181811067ffffffffffffffff82111715620007755762000774620007dc565b5b80604052505050565b7f4e487b7100000000000000000000000000000000000000000000000000000000600052601160045260246000fd5b7f4e487b7100000000000000000000000000000000000000000000000000000000600052602260045260246000fd5b7f4e487b7100000000000000000000000000000000000000000000000000000000600052604160045260246000fd5b600080fd5b600080fd5b600080fd5b600080fd5b6000601f19601f8301169050919050565b6200083b816200069e565b81146200084757600080fd5b50565b6200085581620006d2565b81146200086157600080fd5b50565b610d2880620008746000396000f3fe6080604052600436106100385760003560e01c806312065fe01461004d578063d873b3be14610078578063e0e3671c1461009457610048565b3661004857610046336100bd565b005b600080fd5b34801561005957600080fd5b506100626102b8565b60405161006f9190610990565b60405180910390f35b610092600480360381019061008d9190610775565b6100bd565b005b3480156100a057600080fd5b506100bb60048036038101906100b69190610748565b6102c0565b005b600654431115610102576040517f08c379a00000000000000000000000000000000000000000000000000000000081526004016100f990610910565b60405180910390fd5b6008543411610146576040517f08c379a000000000000000000000000000000000000000000000000000000000815260040161013d90610950565b60405180910390fd5b6000600a54111561021257600260009054906101000a900473ffffffffffffffffffffffffffffffffffffffff1673ffffffffffffffffffffffffffffffffffffffff166108fc6007549081150290604051600060405180830381858888f193505050501580156101bb573d6000803e3d6000fd5b5080600260006101000a81548173ffffffffffffffffffffffffffffffffffffffff021916908373ffffffffffffffffffffffffffffffffffffffff16021790555034600781905550600754600881905550610264565b80600260006101000a81548173ffffffffffffffffffffffffffffffffffffffff021916908373ffffffffffffffffffffffffffffffffffffffff160217905550346007819055506007546008819055505b7fee242ca320573fd3309d8cc97ef2994fe7704919768fc46f3332be6e9536d0de8134604051610295929190610894565b60405180910390a1600a60008154809291906102b090610b3d565b919050555050565b600047905090565b80600360006101000a81548173ffffffffffffffffffffffffffffffffffffffff021916908373ffffffffffffffffffffffffffffffffffffffff1602179055506103096103af565b5050565b6103a98484848460405160240161032794939291906108bd565b6040516020818303038152906040527faabc9a31000000000000000000000000000000000000000000000000000000007bffffffffffffffffffffffffffffffffffffffffffffffffffffffff19166020820180517bffffffffffffffffffffffffffffffffffffffffffffffffffffffff83818316178352505050506106f5565b50505050565b60008060009054906101000a900473ffffffffffffffffffffffffffffffffffffffff1673ffffffffffffffffffffffffffffffffffffffff16600360009054906101000a900473ffffffffffffffffffffffffffffffffffffffff1673ffffffffffffffffffffffffffffffffffffffff16148061049d5750600260009054906101000a900473ffffffffffffffffffffffffffffffffffffffff1673ffffffffffffffffffffffffffffffffffffffff16600360009054906101000a900473ffffffffffffffffffffffffffffffffffffffff1673ffffffffffffffffffffffffffffffffffffffff16145b6104dc576040517f08c379a00000000000000000000000000000000000000000000000000000000081526004016104d390610970565b60405180910390fd5b600654431015610521576040517f08c379a000000000000000000000000000000000000000000000000000000000815260040161051890610930565b60405180910390fd5b600060095460646105306102b8565b61053a91906109c7565b61054491906109f8565b90506000816105516102b8565b61055b9190610a52565b905060008054906101000a900473ffffffffffffffffffffffffffffffffffffffff1673ffffffffffffffffffffffffffffffffffffffff166108fc829081150290604051600060405180830381858888f193505050501580156105c3573d6000803e3d6000fd5b50600160009054906101000a900473ffffffffffffffffffffffffffffffffffffffff1673ffffffffffffffffffffffffffffffffffffffff166108fc839081150290604051600060405180830381858888f1935050505015801561062c573d6000803e3d6000fd5b50600260009054906101000a900473ffffffffffffffffffffffffffffffffffffffff166000806101000a81548173ffffffffffffffffffffffffffffffffffffffff021916908373ffffffffffffffffffffffffffffffffffffffff1602179055507f5b0833cc9b85dfe4167c39867467dbdef9a05060318b433fd5759b5dca79ba7f600260009054906101000a900473ffffffffffffffffffffffffffffffffffffffff166007546040516106e4929190610894565b60405180910390a160019250505090565b60008151905060006a636f6e736f6c652e6c6f679050602083016000808483855afa5050505050565b60008135905061072d81610cc4565b92915050565b60008135905061074281610cdb565b92915050565b60006020828403121561075e5761075d610be4565b5b600061076c8482850161071e565b91505092915050565b60006020828403121561078b5761078a610be4565b5b600061079984828501610733565b91505092915050565b6107ab81610ad4565b82525050565b6107ba81610a86565b82525050565b60006107cb826109ab565b6107d581856109b6565b93506107e5818560208601610b0a565b6107ee81610be9565b840191505092915050565b6000610806600e836109b6565b915061081182610bfa565b602082019050919050565b6000610829601c836109b6565b915061083482610c23565b602082019050919050565b600061084c6015836109b6565b915061085782610c4c565b602082019050919050565b600061086f602c836109b6565b915061087a82610c75565b604082019050919050565b61088e81610aca565b82525050565b60006040820190506108a960008301856107a2565b6108b66020830184610885565b9392505050565b600060808201905081810360008301526108d781876107c0565b90506108e660208301866107b1565b81810360408301526108f881856107c0565b905061090760608301846107b1565b95945050505050565b60006020820190508181036000830152610929816107f9565b9050919050565b600060208201905081810360008301526109498161081c565b9050919050565b600060208201905081810360008301526109698161083f565b9050919050565b6000602082019050818103600083015261098981610862565b9050919050565b60006020820190506109a56000830184610885565b92915050565b600081519050919050565b600082825260208201905092915050565b60006109d282610aca565b91506109dd83610aca565b9250826109ed576109ec610bb5565b5b828204905092915050565b6000610a0382610aca565b9150610a0e83610aca565b9250817fffffffffffffffffffffffffffffffffffffffffffffffffffffffffffffffff0483118215151615610a4757610a46610b86565b5b828202905092915050565b6000610a5d82610aca565b9150610a6883610aca565b925082821015610a7b57610a7a610b86565b5b828203905092915050565b6000610a9182610aaa565b9050919050565b6000610aa382610aaa565b9050919050565b600073ffffffffffffffffffffffffffffffffffffffff82169050919050565b6000819050919050565b6000610adf82610ae6565b9050919050565b6000610af182610af8565b9050919050565b6000610b0382610aaa565b9050919050565b60005b83811015610b28578082015181840152602081019050610b0d565b83811115610b37576000848401525b50505050565b6000610b4882610aca565b91507fffffffffffffffffffffffffffffffffffffffffffffffffffffffffffffffff821415610b7b57610b7a610b86565b5b600182019050919050565b7f4e487b7100000000000000000000000000000000000000000000000000000000600052601160045260246000fd5b7f4e487b7100000000000000000000000000000000000000000000000000000000600052601260045260246000fd5b600080fd5b6000601f19601f8301169050919050565b7f41756374696f6e20636c6f736564000000000000000000000000000000000000600082015250565b7f5468652061756374696f6e206973207374696c6c2072756e6e696e6700000000600082015250565b7f596f7572206f6666657220697320746f6f206c6f770000000000000000000000600082015250565b7f596f7520617265206e6f7420746865207375626d6974746572206f662074686560008201527f2073616c65206e6f746963650000000000000000000000000000000000000000602082015250565b610ccd81610a86565b8114610cd857600080fd5b50565b610ce481610a98565b8114610cef57600080fd5b5056fea2646970667358221220fd70005f47f203a29cd530cf69e63e00fc1099802d8e3d422183c2467e69a32564736f6c63430008070033a26469706673582212208532d1438e05f72c086ef7cee1063bca07a20c3c7e8bb924166db17a8274409b64736f6c63430008070033",
			"opcodes": "PUSH1 0x80 PUSH1 0x40 MSTORE PUSH1 0x0 PUSH1 0x4 SSTORE PUSH1 0x0 PUSH1 0x5 SSTORE CALLVALUE DUP1 ISZERO PUSH2 0x1A JUMPI PUSH1 0x0 DUP1 REVERT JUMPDEST POP CALLER PUSH1 0x1 PUSH1 0x0 PUSH2 0x100 EXP DUP2 SLOAD DUP2 PUSH20 0xFFFFFFFFFFFFFFFFFFFFFFFFFFFFFFFFFFFFFFFF MUL NOT AND SWAP1 DUP4 PUSH20 0xFFFFFFFFFFFFFFFFFFFFFFFFFFFFFFFFFFFFFFFF AND MUL OR SWAP1 SSTORE POP ADDRESS PUSH1 0x2 PUSH1 0x0 PUSH2 0x100 EXP DUP2 SLOAD DUP2 PUSH20 0xFFFFFFFFFFFFFFFFFFFFFFFFFFFFFFFFFFFFFFFF MUL NOT AND SWAP1 DUP4 PUSH20 0xFFFFFFFFFFFFFFFFFFFFFFFFFFFFFFFFFFFFFFFF AND MUL OR SWAP1 SSTORE POP PUSH1 0x5 PUSH1 0x3 DUP2 SWAP1 SSTORE POP PUSH2 0x259D DUP1 PUSH2 0xB4 PUSH1 0x0 CODECOPY PUSH1 0x0 RETURN INVALID PUSH1 0x80 PUSH1 0x40 MSTORE PUSH1 0x4 CALLDATASIZE LT PUSH3 0x7F JUMPI PUSH1 0x0 CALLDATALOAD PUSH1 0xE0 SHR DUP1 PUSH4 0x98FD1987 GT PUSH3 0x55 JUMPI DUP1 PUSH4 0x98FD1987 EQ PUSH3 0x118 JUMPI DUP1 PUSH4 0xA71060DD EQ PUSH3 0x148 JUMPI DUP1 PUSH4 0xD16CDAE1 EQ PUSH3 0x176 JUMPI DUP1 PUSH4 0xE6624E03 EQ PUSH3 0x1BA JUMPI PUSH3 0x87 JUMP JUMPDEST DUP1 PUSH4 0x12065FE0 EQ PUSH3 0x8C JUMPI DUP1 PUSH4 0x413FEEC6 EQ PUSH3 0xBC JUMPI DUP1 PUSH4 0x59AF85DD EQ PUSH3 0xEA JUMPI PUSH3 0x87 JUMP JUMPDEST CALLDATASIZE PUSH3 0x87 JUMPI STOP JUMPDEST PUSH1 0x0 DUP1 REVERT JUMPDEST CALLVALUE DUP1 ISZERO PUSH3 0x99 JUMPI PUSH1 0x0 DUP1 REVERT JUMPDEST POP PUSH3 0xA4 PUSH3 0x1DA JUMP JUMPDEST PUSH1 0x40 MLOAD PUSH3 0xB3 SWAP2 SWAP1 PUSH3 0xCDA JUMP JUMPDEST PUSH1 0x40 MLOAD DUP1 SWAP2 SUB SWAP1 RETURN JUMPDEST CALLVALUE DUP1 ISZERO PUSH3 0xC9 JUMPI PUSH1 0x0 DUP1 REVERT JUMPDEST POP PUSH3 0xE8 PUSH1 0x4 DUP1 CALLDATASIZE SUB DUP2 ADD SWAP1 PUSH3 0xE2 SWAP2 SWAP1 PUSH3 0xA07 JUMP JUMPDEST PUSH3 0x275 JUMP JUMPDEST STOP JUMPDEST CALLVALUE DUP1 ISZERO PUSH3 0xF7 JUMPI PUSH1 0x0 DUP1 REVERT JUMPDEST POP PUSH3 0x116 PUSH1 0x4 DUP1 CALLDATASIZE SUB DUP2 ADD SWAP1 PUSH3 0x110 SWAP2 SWAP1 PUSH3 0x910 JUMP JUMPDEST PUSH3 0x34B JUMP JUMPDEST STOP JUMPDEST CALLVALUE DUP1 ISZERO PUSH3 0x125 JUMPI PUSH1 0x0 DUP1 REVERT JUMPDEST POP PUSH3 0x130 PUSH3 0x3F6 JUMP JUMPDEST PUSH1 0x40 MLOAD PUSH3 0x13F SWAP2 SWAP1 PUSH3 0xC57 JUMP JUMPDEST PUSH1 0x40 MLOAD DUP1 SWAP2 SUB SWAP1 RETURN JUMPDEST CALLVALUE DUP1 ISZERO PUSH3 0x155 JUMPI PUSH1 0x0 DUP1 REVERT JUMPDEST POP PUSH3 0x174 PUSH1 0x4 DUP1 CALLDATASIZE SUB DUP2 ADD SWAP1 PUSH3 0x16E SWAP2 SWAP1 PUSH3 0x957 JUMP JUMPDEST PUSH3 0x554 JUMP JUMPDEST STOP JUMPDEST CALLVALUE DUP1 ISZERO PUSH3 0x183 JUMPI PUSH1 0x0 DUP1 REVERT JUMPDEST POP PUSH3 0x1A2 PUSH1 0x4 DUP1 CALLDATASIZE SUB DUP2 ADD SWAP1 PUSH3 0x19C SWAP2 SWAP1 PUSH3 0xA07 JUMP JUMPDEST PUSH3 0x68A JUMP JUMPDEST PUSH1 0x40 MLOAD PUSH3 0x1B1 SWAP2 SWAP1 PUSH3 0xCDA JUMP JUMPDEST PUSH1 0x40 MLOAD DUP1 SWAP2 SUB SWAP1 RETURN JUMPDEST PUSH3 0x1D8 PUSH1 0x4 DUP1 CALLDATASIZE SUB DUP2 ADD SWAP1 PUSH3 0x1D2 SWAP2 SWAP1 PUSH3 0xA07 JUMP JUMPDEST PUSH3 0x74C JUMP JUMPDEST STOP JUMPDEST PUSH1 0x0 PUSH1 0x1 PUSH1 0x0 SWAP1 SLOAD SWAP1 PUSH2 0x100 EXP SWAP1 DIV PUSH20 0xFFFFFFFFFFFFFFFFFFFFFFFFFFFFFFFFFFFFFFFF AND PUSH20 0xFFFFFFFFFFFFFFFFFFFFFFFFFFFFFFFFFFFFFFFF AND CALLER PUSH20 0xFFFFFFFFFFFFFFFFFFFFFFFFFFFFFFFFFFFFFFFF AND EQ PUSH3 0x26F JUMPI PUSH1 0x40 MLOAD PUSH32 0x8C379A000000000000000000000000000000000000000000000000000000000 DUP2 MSTORE PUSH1 0x4 ADD PUSH3 0x266 SWAP1 PUSH3 0xCB8 JUMP JUMPDEST PUSH1 0x40 MLOAD DUP1 SWAP2 SUB SWAP1 REVERT JUMPDEST SELFBALANCE SWAP1 POP SWAP1 JUMP JUMPDEST PUSH1 0x1 PUSH1 0x0 SWAP1 SLOAD SWAP1 PUSH2 0x100 EXP SWAP1 DIV PUSH20 0xFFFFFFFFFFFFFFFFFFFFFFFFFFFFFFFFFFFFFFFF AND PUSH20 0xFFFFFFFFFFFFFFFFFFFFFFFFFFFFFFFFFFFFFFFF AND CALLER PUSH20 0xFFFFFFFFFFFFFFFFFFFFFFFFFFFFFFFFFFFFFFFF AND EQ PUSH3 0x308 JUMPI PUSH1 0x40 MLOAD PUSH32 0x8C379A000000000000000000000000000000000000000000000000000000000 DUP2 MSTORE PUSH1 0x4 ADD PUSH3 0x2FF SWAP1 PUSH3 0xCB8 JUMP JUMPDEST PUSH1 0x40 MLOAD DUP1 SWAP2 SUB SWAP1 REVERT JUMPDEST DUP1 PUSH1 0x3 DUP2 SWAP1 SSTORE POP PUSH32 0xC7DCF55FD82EA00D1AB32899391D8611395CF59D4AFB80F87A51C9F671EE4326 DUP2 PUSH1 0x40 MLOAD PUSH3 0x340 SWAP2 SWAP1 PUSH3 0xCDA JUMP JUMPDEST PUSH1 0x40 MLOAD DUP1 SWAP2 SUB SWAP1 LOG1 POP JUMP JUMPDEST PUSH1 0x0 DUP1 PUSH1 0x0 DUP4 DUP2 MSTORE PUSH1 0x20 ADD SWAP1 DUP2 MSTORE PUSH1 0x20 ADD PUSH1 0x0 KECCAK256 PUSH1 0x0 SWAP1 SLOAD SWAP1 PUSH2 0x100 EXP SWAP1 DIV PUSH20 0xFFFFFFFFFFFFFFFFFFFFFFFFFFFFFFFFFFFFFFFF AND SWAP1 POP DUP1 PUSH20 0xFFFFFFFFFFFFFFFFFFFFFFFFFFFFFFFFFFFFFFFF AND PUSH4 0xE0E3671C DUP5 PUSH1 0x40 MLOAD DUP3 PUSH4 0xFFFFFFFF AND PUSH1 0xE0 SHL DUP2 MSTORE PUSH1 0x4 ADD PUSH3 0x3BD SWAP2 SWAP1 PUSH3 0xB65 JUMP JUMPDEST PUSH1 0x0 PUSH1 0x40 MLOAD DUP1 DUP4 SUB DUP2 PUSH1 0x0 DUP8 DUP1 EXTCODESIZE ISZERO DUP1 ISZERO PUSH3 0x3D8 JUMPI PUSH1 0x0 DUP1 REVERT JUMPDEST POP GAS CALL ISZERO DUP1 ISZERO PUSH3 0x3ED JUMPI RETURNDATASIZE PUSH1 0x0 DUP1 RETURNDATACOPY RETURNDATASIZE PUSH1 0x0 REVERT JUMPDEST POP POP POP POP POP POP POP JUMP JUMPDEST PUSH1 0x0 PUSH1 0x1 PUSH1 0x0 SWAP1 SLOAD SWAP1 PUSH2 0x100 EXP SWAP1 DIV PUSH20 0xFFFFFFFFFFFFFFFFFFFFFFFFFFFFFFFFFFFFFFFF AND PUSH20 0xFFFFFFFFFFFFFFFFFFFFFFFFFFFFFFFFFFFFFFFF AND CALLER PUSH20 0xFFFFFFFFFFFFFFFFFFFFFFFFFFFFFFFFFFFFFFFF AND EQ PUSH3 0x48B JUMPI PUSH1 0x40 MLOAD PUSH32 0x8C379A000000000000000000000000000000000000000000000000000000000 DUP2 MSTORE PUSH1 0x4 ADD PUSH3 0x482 SWAP1 PUSH3 0xCB8 JUMP JUMPDEST PUSH1 0x40 MLOAD DUP1 SWAP2 SUB SWAP1 REVERT JUMPDEST PUSH1 0x0 PUSH3 0x497 PUSH3 0x1DA JUMP JUMPDEST GT PUSH3 0x4DA JUMPI PUSH1 0x40 MLOAD PUSH32 0x8C379A000000000000000000000000000000000000000000000000000000000 DUP2 MSTORE PUSH1 0x4 ADD PUSH3 0x4D1 SWAP1 PUSH3 0xC96 JUMP JUMPDEST PUSH1 0x40 MLOAD DUP1 SWAP2 SUB SWAP1 REVERT JUMPDEST PUSH1 0x1 PUSH1 0x0 SWAP1 SLOAD SWAP1 PUSH2 0x100 EXP SWAP1 DIV PUSH20 0xFFFFFFFFFFFFFFFFFFFFFFFFFFFFFFFFFFFFFFFF AND PUSH20 0xFFFFFFFFFFFFFFFFFFFFFFFFFFFFFFFFFFFFFFFF AND PUSH2 0x8FC PUSH3 0x520 PUSH3 0x1DA JUMP JUMPDEST SWAP1 DUP2 ISZERO MUL SWAP1 PUSH1 0x40 MLOAD PUSH1 0x0 PUSH1 0x40 MLOAD DUP1 DUP4 SUB DUP2 DUP6 DUP9 DUP9 CALL SWAP4 POP POP POP POP ISZERO DUP1 ISZERO PUSH3 0x54C JUMPI RETURNDATASIZE PUSH1 0x0 DUP1 RETURNDATACOPY RETURNDATASIZE PUSH1 0x0 REVERT JUMPDEST POP PUSH1 0x1 SWAP1 POP SWAP1 JUMP JUMPDEST PUSH1 0x0 PUSH1 0x2 PUSH1 0x0 SWAP1 SLOAD SWAP1 PUSH2 0x100 EXP SWAP1 DIV PUSH20 0xFFFFFFFFFFFFFFFFFFFFFFFFFFFFFFFFFFFFFFFF AND CALLER DUP7 DUP7 DUP7 DUP7 PUSH1 0x3 SLOAD PUSH1 0x40 MLOAD PUSH3 0x58F SWAP1 PUSH3 0x83F JUMP JUMPDEST PUSH3 0x5A1 SWAP8 SWAP7 SWAP6 SWAP5 SWAP4 SWAP3 SWAP2 SWAP1 PUSH3 0xB9F JUMP JUMPDEST PUSH1 0x40 MLOAD DUP1 SWAP2 SUB SWAP1 PUSH1 0x0 CREATE DUP1 ISZERO DUP1 ISZERO PUSH3 0x5BE JUMPI RETURNDATASIZE PUSH1 0x0 DUP1 RETURNDATACOPY RETURNDATASIZE PUSH1 0x0 REVERT JUMPDEST POP SWAP1 POP DUP1 PUSH1 0x0 DUP1 PUSH1 0x4 SLOAD DUP2 MSTORE PUSH1 0x20 ADD SWAP1 DUP2 MSTORE PUSH1 0x20 ADD PUSH1 0x0 KECCAK256 PUSH1 0x0 PUSH2 0x100 EXP DUP2 SLOAD DUP2 PUSH20 0xFFFFFFFFFFFFFFFFFFFFFFFFFFFFFFFFFFFFFFFF MUL NOT AND SWAP1 DUP4 PUSH20 0xFFFFFFFFFFFFFFFFFFFFFFFFFFFFFFFFFFFFFFFF AND MUL OR SWAP1 SSTORE POP PUSH1 0x4 PUSH1 0x0 DUP2 SLOAD DUP1 SWAP3 SWAP2 SWAP1 PUSH3 0x629 SWAP1 PUSH3 0xE4B JUMP JUMPDEST SWAP2 SWAP1 POP SSTORE POP PUSH1 0x5 PUSH1 0x0 DUP2 SLOAD DUP1 SWAP3 SWAP2 SWAP1 PUSH3 0x643 SWAP1 PUSH3 0xE4B JUMP JUMPDEST SWAP2 SWAP1 POP SSTORE POP PUSH32 0xE6146232287030D976116A9D870A339E3A1620F43188C6ADCDBA72A726D9D030 CALLER DUP3 PUSH1 0x40 MLOAD PUSH3 0x67B SWAP3 SWAP2 SWAP1 PUSH3 0xC2A JUMP JUMPDEST PUSH1 0x40 MLOAD DUP1 SWAP2 SUB SWAP1 LOG1 POP POP POP POP POP JUMP JUMPDEST PUSH1 0x0 DUP1 PUSH1 0x0 DUP1 DUP5 DUP2 MSTORE PUSH1 0x20 ADD SWAP1 DUP2 MSTORE PUSH1 0x20 ADD PUSH1 0x0 KECCAK256 PUSH1 0x0 SWAP1 SLOAD SWAP1 PUSH2 0x100 EXP SWAP1 DIV PUSH20 0xFFFFFFFFFFFFFFFFFFFFFFFFFFFFFFFFFFFFFFFF AND SWAP1 POP DUP1 PUSH20 0xFFFFFFFFFFFFFFFFFFFFFFFFFFFFFFFFFFFFFFFF AND PUSH4 0x12065FE0 PUSH1 0x40 MLOAD DUP2 PUSH4 0xFFFFFFFF AND PUSH1 0xE0 SHL DUP2 MSTORE PUSH1 0x4 ADD PUSH1 0x20 PUSH1 0x40 MLOAD DUP1 DUP4 SUB DUP2 DUP7 DUP1 EXTCODESIZE ISZERO DUP1 ISZERO PUSH3 0x709 JUMPI PUSH1 0x0 DUP1 REVERT JUMPDEST POP GAS STATICCALL ISZERO DUP1 ISZERO PUSH3 0x71E JUMPI RETURNDATASIZE PUSH1 0x0 DUP1 RETURNDATACOPY RETURNDATASIZE PUSH1 0x0 REVERT JUMPDEST POP POP POP POP PUSH1 0x40 MLOAD RETURNDATASIZE PUSH1 0x1F NOT PUSH1 0x1F DUP3 ADD AND DUP3 ADD DUP1 PUSH1 0x40 MSTORE POP DUP2 ADD SWAP1 PUSH3 0x744 SWAP2 SWAP1 PUSH3 0xA39 JUMP JUMPDEST SWAP2 POP POP SWAP2 SWAP1 POP JUMP JUMPDEST PUSH1 0x0 PUSH1 0x5 SLOAD GT PUSH3 0x794 JUMPI PUSH1 0x40 MLOAD PUSH32 0x8C379A000000000000000000000000000000000000000000000000000000000 DUP2 MSTORE PUSH1 0x4 ADD PUSH3 0x78B SWAP1 PUSH3 0xC74 JUMP JUMPDEST PUSH1 0x40 MLOAD DUP1 SWAP2 SUB SWAP1 REVERT JUMPDEST PUSH1 0x0 DUP1 PUSH1 0x0 DUP4 DUP2 MSTORE PUSH1 0x20 ADD SWAP1 DUP2 MSTORE PUSH1 0x20 ADD PUSH1 0x0 KECCAK256 PUSH1 0x0 SWAP1 SLOAD SWAP1 PUSH2 0x100 EXP SWAP1 DIV PUSH20 0xFFFFFFFFFFFFFFFFFFFFFFFFFFFFFFFFFFFFFFFF AND SWAP1 POP DUP1 PUSH20 0xFFFFFFFFFFFFFFFFFFFFFFFFFFFFFFFFFFFFFFFF AND PUSH4 0xD873B3BE CALLVALUE CALLER PUSH1 0x40 MLOAD DUP4 PUSH4 0xFFFFFFFF AND PUSH1 0xE0 SHL DUP2 MSTORE PUSH1 0x4 ADD PUSH3 0x807 SWAP2 SWAP1 PUSH3 0xB82 JUMP JUMPDEST PUSH1 0x0 PUSH1 0x40 MLOAD DUP1 DUP4 SUB DUP2 DUP6 DUP9 DUP1 EXTCODESIZE ISZERO DUP1 ISZERO PUSH3 0x821 JUMPI PUSH1 0x0 DUP1 REVERT JUMPDEST POP GAS CALL ISZERO DUP1 ISZERO PUSH3 0x836 JUMPI RETURNDATASIZE PUSH1 0x0 DUP1 RETURNDATACOPY RETURNDATASIZE PUSH1 0x0 REVERT JUMPDEST POP POP POP POP POP POP POP JUMP JUMPDEST PUSH2 0x159C DUP1 PUSH3 0xFCC DUP4 CODECOPY ADD SWAP1 JUMP JUMPDEST PUSH1 0x0 PUSH3 0x864 PUSH3 0x85E DUP5 PUSH3 0xD20 JUMP JUMPDEST PUSH3 0xCF7 JUMP JUMPDEST SWAP1 POP DUP3 DUP2 MSTORE PUSH1 0x20 DUP2 ADD DUP5 DUP5 DUP5 ADD GT ISZERO PUSH3 0x883 JUMPI PUSH3 0x882 PUSH3 0xEFC JUMP JUMPDEST JUMPDEST PUSH3 0x890 DUP5 DUP3 DUP6 PUSH3 0xDD0 JUMP JUMPDEST POP SWAP4 SWAP3 POP POP POP JUMP JUMPDEST PUSH1 0x0 DUP2 CALLDATALOAD SWAP1 POP PUSH3 0x8A9 DUP2 PUSH3 0xF97 JUMP JUMPDEST SWAP3 SWAP2 POP POP JUMP JUMPDEST PUSH1 0x0 DUP3 PUSH1 0x1F DUP4 ADD SLT PUSH3 0x8C7 JUMPI PUSH3 0x8C6 PUSH3 0xEF7 JUMP JUMPDEST JUMPDEST DUP2 CALLDATALOAD PUSH3 0x8D9 DUP5 DUP3 PUSH1 0x20 DUP7 ADD PUSH3 0x84D JUMP JUMPDEST SWAP2 POP POP SWAP3 SWAP2 POP POP JUMP JUMPDEST PUSH1 0x0 DUP2 CALLDATALOAD SWAP1 POP PUSH3 0x8F3 DUP2 PUSH3 0xFB1 JUMP JUMPDEST SWAP3 SWAP2 POP POP JUMP JUMPDEST PUSH1 0x0 DUP2 MLOAD SWAP1 POP PUSH3 0x90A DUP2 PUSH3 0xFB1 JUMP JUMPDEST SWAP3 SWAP2 POP POP JUMP JUMPDEST PUSH1 0x0 DUP1 PUSH1 0x40 DUP4 DUP6 SUB SLT ISZERO PUSH3 0x92A JUMPI PUSH3 0x929 PUSH3 0xF06 JUMP JUMPDEST JUMPDEST PUSH1 0x0 PUSH3 0x93A DUP6 DUP3 DUP7 ADD PUSH3 0x898 JUMP JUMPDEST SWAP3 POP POP PUSH1 0x20 PUSH3 0x94D DUP6 DUP3 DUP7 ADD PUSH3 0x8E2 JUMP JUMPDEST SWAP2 POP POP SWAP3 POP SWAP3 SWAP1 POP JUMP JUMPDEST PUSH1 0x0 DUP1 PUSH1 0x0 DUP1 PUSH1 0x80 DUP6 DUP8 SUB SLT ISZERO PUSH3 0x974 JUMPI PUSH3 0x973 PUSH3 0xF06 JUMP JUMPDEST JUMPDEST PUSH1 0x0 DUP6 ADD CALLDATALOAD PUSH8 0xFFFFFFFFFFFFFFFF DUP2 GT ISZERO PUSH3 0x995 JUMPI PUSH3 0x994 PUSH3 0xF01 JUMP JUMPDEST JUMPDEST PUSH3 0x9A3 DUP8 DUP3 DUP9 ADD PUSH3 0x8AF JUMP JUMPDEST SWAP5 POP POP PUSH1 0x20 DUP6 ADD CALLDATALOAD PUSH8 0xFFFFFFFFFFFFFFFF DUP2 GT ISZERO PUSH3 0x9C7 JUMPI PUSH3 0x9C6 PUSH3 0xF01 JUMP JUMPDEST JUMPDEST PUSH3 0x9D5 DUP8 DUP3 DUP9 ADD PUSH3 0x8AF JUMP JUMPDEST SWAP4 POP POP PUSH1 0x40 PUSH3 0x9E8 DUP8 DUP3 DUP9 ADD PUSH3 0x8E2 JUMP JUMPDEST SWAP3 POP POP PUSH1 0x60 PUSH3 0x9FB DUP8 DUP3 DUP9 ADD PUSH3 0x8E2 JUMP JUMPDEST SWAP2 POP POP SWAP3 SWAP6 SWAP2 SWAP5 POP SWAP3 POP JUMP JUMPDEST PUSH1 0x0 PUSH1 0x20 DUP3 DUP5 SUB SLT ISZERO PUSH3 0xA20 JUMPI PUSH3 0xA1F PUSH3 0xF06 JUMP JUMPDEST JUMPDEST PUSH1 0x0 PUSH3 0xA30 DUP5 DUP3 DUP6 ADD PUSH3 0x8E2 JUMP JUMPDEST SWAP2 POP POP SWAP3 SWAP2 POP POP JUMP JUMPDEST PUSH1 0x0 PUSH1 0x20 DUP3 DUP5 SUB SLT ISZERO PUSH3 0xA52 JUMPI PUSH3 0xA51 PUSH3 0xF06 JUMP JUMPDEST JUMPDEST PUSH1 0x0 PUSH3 0xA62 DUP5 DUP3 DUP6 ADD PUSH3 0x8F9 JUMP JUMPDEST SWAP2 POP POP SWAP3 SWAP2 POP POP JUMP JUMPDEST PUSH3 0xA76 DUP2 PUSH3 0xD86 JUMP JUMPDEST DUP3 MSTORE POP POP JUMP JUMPDEST PUSH3 0xA87 DUP2 PUSH3 0xD72 JUMP JUMPDEST DUP3 MSTORE POP POP JUMP JUMPDEST PUSH3 0xA98 DUP2 PUSH3 0xD9A JUMP JUMPDEST DUP3 MSTORE POP POP JUMP JUMPDEST PUSH1 0x0 PUSH3 0xAAB DUP3 PUSH3 0xD56 JUMP JUMPDEST PUSH3 0xAB7 DUP2 DUP6 PUSH3 0xD61 JUMP JUMPDEST SWAP4 POP PUSH3 0xAC9 DUP2 DUP6 PUSH1 0x20 DUP7 ADD PUSH3 0xDDF JUMP JUMPDEST PUSH3 0xAD4 DUP2 PUSH3 0xF0B JUMP JUMPDEST DUP5 ADD SWAP2 POP POP SWAP3 SWAP2 POP POP JUMP JUMPDEST PUSH1 0x0 PUSH3 0xAEE PUSH1 0xB DUP4 PUSH3 0xD61 JUMP JUMPDEST SWAP2 POP PUSH3 0xAFB DUP3 PUSH3 0xF1C JUMP JUMPDEST PUSH1 0x20 DUP3 ADD SWAP1 POP SWAP2 SWAP1 POP JUMP JUMPDEST PUSH1 0x0 PUSH3 0xB15 PUSH1 0x1C DUP4 PUSH3 0xD61 JUMP JUMPDEST SWAP2 POP PUSH3 0xB22 DUP3 PUSH3 0xF45 JUMP JUMPDEST PUSH1 0x20 DUP3 ADD SWAP1 POP SWAP2 SWAP1 POP JUMP JUMPDEST PUSH1 0x0 PUSH3 0xB3C PUSH1 0x1E DUP4 PUSH3 0xD61 JUMP JUMPDEST SWAP2 POP PUSH3 0xB49 DUP3 PUSH3 0xF6E JUMP JUMPDEST PUSH1 0x20 DUP3 ADD SWAP1 POP SWAP2 SWAP1 POP JUMP JUMPDEST PUSH3 0xB5F DUP2 PUSH3 0xDC6 JUMP JUMPDEST DUP3 MSTORE POP POP JUMP JUMPDEST PUSH1 0x0 PUSH1 0x20 DUP3 ADD SWAP1 POP PUSH3 0xB7C PUSH1 0x0 DUP4 ADD DUP5 PUSH3 0xA7C JUMP JUMPDEST SWAP3 SWAP2 POP POP JUMP JUMPDEST PUSH1 0x0 PUSH1 0x20 DUP3 ADD SWAP1 POP PUSH3 0xB99 PUSH1 0x0 DUP4 ADD DUP5 PUSH3 0xA6B JUMP JUMPDEST SWAP3 SWAP2 POP POP JUMP JUMPDEST PUSH1 0x0 PUSH1 0xE0 DUP3 ADD SWAP1 POP PUSH3 0xBB6 PUSH1 0x0 DUP4 ADD DUP11 PUSH3 0xA6B JUMP JUMPDEST PUSH3 0xBC5 PUSH1 0x20 DUP4 ADD DUP10 PUSH3 0xA6B JUMP JUMPDEST DUP2 DUP2 SUB PUSH1 0x40 DUP4 ADD MSTORE PUSH3 0xBD9 DUP2 DUP9 PUSH3 0xA9E JUMP JUMPDEST SWAP1 POP DUP2 DUP2 SUB PUSH1 0x60 DUP4 ADD MSTORE PUSH3 0xBEF DUP2 DUP8 PUSH3 0xA9E JUMP JUMPDEST SWAP1 POP PUSH3 0xC00 PUSH1 0x80 DUP4 ADD DUP7 PUSH3 0xB54 JUMP JUMPDEST PUSH3 0xC0F PUSH1 0xA0 DUP4 ADD DUP6 PUSH3 0xB54 JUMP JUMPDEST PUSH3 0xC1E PUSH1 0xC0 DUP4 ADD DUP5 PUSH3 0xB54 JUMP JUMPDEST SWAP9 SWAP8 POP POP POP POP POP POP POP POP JUMP JUMPDEST PUSH1 0x0 PUSH1 0x40 DUP3 ADD SWAP1 POP PUSH3 0xC41 PUSH1 0x0 DUP4 ADD DUP6 PUSH3 0xA7C JUMP JUMPDEST PUSH3 0xC50 PUSH1 0x20 DUP4 ADD DUP5 PUSH3 0xA7C JUMP JUMPDEST SWAP4 SWAP3 POP POP POP JUMP JUMPDEST PUSH1 0x0 PUSH1 0x20 DUP3 ADD SWAP1 POP PUSH3 0xC6E PUSH1 0x0 DUP4 ADD DUP5 PUSH3 0xA8D JUMP JUMPDEST SWAP3 SWAP2 POP POP JUMP JUMPDEST PUSH1 0x0 PUSH1 0x20 DUP3 ADD SWAP1 POP DUP2 DUP2 SUB PUSH1 0x0 DUP4 ADD MSTORE PUSH3 0xC8F DUP2 PUSH3 0xADF JUMP JUMPDEST SWAP1 POP SWAP2 SWAP1 POP JUMP JUMPDEST PUSH1 0x0 PUSH1 0x20 DUP3 ADD SWAP1 POP DUP2 DUP2 SUB PUSH1 0x0 DUP4 ADD MSTORE PUSH3 0xCB1 DUP2 PUSH3 0xB06 JUMP JUMPDEST SWAP1 POP SWAP2 SWAP1 POP JUMP JUMPDEST PUSH1 0x0 PUSH1 0x20 DUP3 ADD SWAP1 POP DUP2 DUP2 SUB PUSH1 0x0 DUP4 ADD MSTORE PUSH3 0xCD3 DUP2 PUSH3 0xB2D JUMP JUMPDEST SWAP1 POP SWAP2 SWAP1 POP JUMP JUMPDEST PUSH1 0x0 PUSH1 0x20 DUP3 ADD SWAP1 POP PUSH3 0xCF1 PUSH1 0x0 DUP4 ADD DUP5 PUSH3 0xB54 JUMP JUMPDEST SWAP3 SWAP2 POP POP JUMP JUMPDEST PUSH1 0x0 PUSH3 0xD03 PUSH3 0xD16 JUMP JUMPDEST SWAP1 POP PUSH3 0xD11 DUP3 DUP3 PUSH3 0xE15 JUMP JUMPDEST SWAP2 SWAP1 POP JUMP JUMPDEST PUSH1 0x0 PUSH1 0x40 MLOAD SWAP1 POP SWAP1 JUMP JUMPDEST PUSH1 0x0 PUSH8 0xFFFFFFFFFFFFFFFF DUP3 GT ISZERO PUSH3 0xD3E JUMPI PUSH3 0xD3D PUSH3 0xEC8 JUMP JUMPDEST JUMPDEST PUSH3 0xD49 DUP3 PUSH3 0xF0B JUMP JUMPDEST SWAP1 POP PUSH1 0x20 DUP2 ADD SWAP1 POP SWAP2 SWAP1 POP JUMP JUMPDEST PUSH1 0x0 DUP2 MLOAD SWAP1 POP SWAP2 SWAP1 POP JUMP JUMPDEST PUSH1 0x0 DUP3 DUP3 MSTORE PUSH1 0x20 DUP3 ADD SWAP1 POP SWAP3 SWAP2 POP POP JUMP JUMPDEST PUSH1 0x0 PUSH3 0xD7F DUP3 PUSH3 0xDA6 JUMP JUMPDEST SWAP1 POP SWAP2 SWAP1 POP JUMP JUMPDEST PUSH1 0x0 PUSH3 0xD93 DUP3 PUSH3 0xDA6 JUMP JUMPDEST SWAP1 POP SWAP2 SWAP1 POP JUMP JUMPDEST PUSH1 0x0 DUP2 ISZERO ISZERO SWAP1 POP SWAP2 SWAP1 POP JUMP JUMPDEST PUSH1 0x0 PUSH20 0xFFFFFFFFFFFFFFFFFFFFFFFFFFFFFFFFFFFFFFFF DUP3 AND SWAP1 POP SWAP2 SWAP1 POP JUMP JUMPDEST PUSH1 0x0 DUP2 SWAP1 POP SWAP2 SWAP1 POP JUMP JUMPDEST DUP3 DUP2 DUP4 CALLDATACOPY PUSH1 0x0 DUP4 DUP4 ADD MSTORE POP POP POP JUMP JUMPDEST PUSH1 0x0 JUMPDEST DUP4 DUP2 LT ISZERO PUSH3 0xDFF JUMPI DUP1 DUP3 ADD MLOAD DUP2 DUP5 ADD MSTORE PUSH1 0x20 DUP2 ADD SWAP1 POP PUSH3 0xDE2 JUMP JUMPDEST DUP4 DUP2 GT ISZERO PUSH3 0xE0F JUMPI PUSH1 0x0 DUP5 DUP5 ADD MSTORE JUMPDEST POP POP POP POP JUMP JUMPDEST PUSH3 0xE20 DUP3 PUSH3 0xF0B JUMP JUMPDEST DUP2 ADD DUP2 DUP2 LT PUSH8 0xFFFFFFFFFFFFFFFF DUP3 GT OR ISZERO PUSH3 0xE42 JUMPI PUSH3 0xE41 PUSH3 0xEC8 JUMP JUMPDEST JUMPDEST DUP1 PUSH1 0x40 MSTORE POP POP POP JUMP JUMPDEST PUSH1 0x0 PUSH3 0xE58 DUP3 PUSH3 0xDC6 JUMP JUMPDEST SWAP2 POP PUSH32 0xFFFFFFFFFFFFFFFFFFFFFFFFFFFFFFFFFFFFFFFFFFFFFFFFFFFFFFFFFFFFFFFF DUP3 EQ ISZERO PUSH3 0xE8E JUMPI PUSH3 0xE8D PUSH3 0xE99 JUMP JUMPDEST JUMPDEST PUSH1 0x1 DUP3 ADD SWAP1 POP SWAP2 SWAP1 POP JUMP JUMPDEST PUSH32 0x4E487B7100000000000000000000000000000000000000000000000000000000 PUSH1 0x0 MSTORE PUSH1 0x11 PUSH1 0x4 MSTORE PUSH1 0x24 PUSH1 0x0 REVERT JUMPDEST PUSH32 0x4E487B7100000000000000000000000000000000000000000000000000000000 PUSH1 0x0 MSTORE PUSH1 0x41 PUSH1 0x4 MSTORE PUSH1 0x24 PUSH1 0x0 REVERT JUMPDEST PUSH1 0x0 DUP1 REVERT JUMPDEST PUSH1 0x0 DUP1 REVERT JUMPDEST PUSH1 0x0 DUP1 REVERT JUMPDEST PUSH1 0x0 DUP1 REVERT JUMPDEST PUSH1 0x0 PUSH1 0x1F NOT PUSH1 0x1F DUP4 ADD AND SWAP1 POP SWAP2 SWAP1 POP JUMP JUMPDEST PUSH32 0x4E6F7468696E6720796574000000000000000000000000000000000000000000 PUSH1 0x0 DUP3 ADD MSTORE POP JUMP JUMPDEST PUSH32 0x54686520636F6E747261637420686173206E6F20657468657265756D00000000 PUSH1 0x0 DUP3 ADD MSTORE POP JUMP JUMPDEST PUSH32 0x4465636C696E652C20796F7520617265206E6F7420746865206F776E65720000 PUSH1 0x0 DUP3 ADD MSTORE POP JUMP JUMPDEST PUSH3 0xFA2 DUP2 PUSH3 0xD72 JUMP JUMPDEST DUP2 EQ PUSH3 0xFAE JUMPI PUSH1 0x0 DUP1 REVERT JUMPDEST POP JUMP JUMPDEST PUSH3 0xFBC DUP2 PUSH3 0xDC6 JUMP JUMPDEST DUP2 EQ PUSH3 0xFC8 JUMPI PUSH1 0x0 DUP1 REVERT JUMPDEST POP JUMP INVALID PUSH1 0x80 PUSH1 0x40 MSTORE PUSH1 0x0 PUSH1 0xA SSTORE CALLVALUE DUP1 ISZERO PUSH3 0x16 JUMPI PUSH1 0x0 DUP1 REVERT JUMPDEST POP PUSH1 0x40 MLOAD PUSH3 0x159C CODESIZE SUB DUP1 PUSH3 0x159C DUP4 CODECOPY DUP2 DUP2 ADD PUSH1 0x40 MSTORE DUP2 ADD SWAP1 PUSH3 0x3C SWAP2 SWAP1 PUSH3 0x414 JUMP JUMPDEST DUP6 PUSH1 0x0 DUP1 PUSH2 0x100 EXP DUP2 SLOAD DUP2 PUSH20 0xFFFFFFFFFFFFFFFFFFFFFFFFFFFFFFFFFFFFFFFF MUL NOT AND SWAP1 DUP4 PUSH20 0xFFFFFFFFFFFFFFFFFFFFFFFFFFFFFFFFFFFFFFFF AND MUL OR SWAP1 SSTORE POP DUP7 PUSH1 0x1 PUSH1 0x0 PUSH2 0x100 EXP DUP2 SLOAD DUP2 PUSH20 0xFFFFFFFFFFFFFFFFFFFFFFFFFFFFFFFFFFFFFFFF MUL NOT AND SWAP1 DUP4 PUSH20 0xFFFFFFFFFFFFFFFFFFFFFFFFFFFFFFFFFFFFFFFF AND MUL OR SWAP1 SSTORE POP DUP5 PUSH1 0x4 SWAP1 DUP1 MLOAD SWAP1 PUSH1 0x20 ADD SWAP1 PUSH3 0xD5 SWAP3 SWAP2 SWAP1 PUSH3 0x2B8 JUMP JUMPDEST POP DUP4 PUSH1 0x5 SWAP1 DUP1 MLOAD SWAP1 PUSH1 0x20 ADD SWAP1 PUSH3 0xEE SWAP3 SWAP2 SWAP1 PUSH3 0x2B8 JUMP JUMPDEST POP DUP3 PUSH1 0x8 DUP2 SWAP1 SSTORE POP DUP2 NUMBER PUSH3 0x104 SWAP2 SWAP1 PUSH3 0x62D JUMP JUMPDEST PUSH1 0x6 DUP2 SWAP1 SSTORE POP DUP1 PUSH1 0x9 DUP2 SWAP1 SSTORE POP PUSH3 0x1D6 PUSH1 0x40 MLOAD DUP1 PUSH1 0x40 ADD PUSH1 0x40 MSTORE DUP1 PUSH1 0xA DUP2 MSTORE PUSH1 0x20 ADD PUSH32 0x6F6D697374616A613A2000000000000000000000000000000000000000000000 DUP2 MSTORE POP PUSH1 0x0 DUP1 SLOAD SWAP1 PUSH2 0x100 EXP SWAP1 DIV PUSH20 0xFFFFFFFFFFFFFFFFFFFFFFFFFFFFFFFFFFFFFFFF AND PUSH1 0x40 MLOAD DUP1 PUSH1 0x40 ADD PUSH1 0x40 MSTORE DUP1 PUSH1 0x17 DUP2 MSTORE PUSH1 0x20 ADD PUSH32 0x20687575746F6B617570616E206F6D697374616A613A20000000000000000000 DUP2 MSTORE POP PUSH1 0x1 PUSH1 0x0 SWAP1 SLOAD SWAP1 PUSH2 0x100 EXP SWAP1 DIV PUSH20 0xFFFFFFFFFFFFFFFFFFFFFFFFFFFFFFFFFFFFFFFF AND PUSH3 0x1E3 PUSH1 0x20 SHL PUSH3 0x30D OR PUSH1 0x20 SHR JUMP JUMPDEST POP POP POP POP POP POP POP PUSH3 0x864 JUMP JUMPDEST PUSH3 0x289 DUP5 DUP5 DUP5 DUP5 PUSH1 0x40 MLOAD PUSH1 0x24 ADD PUSH3 0x200 SWAP5 SWAP4 SWAP3 SWAP2 SWAP1 PUSH3 0x557 JUMP JUMPDEST PUSH1 0x40 MLOAD PUSH1 0x20 DUP2 DUP4 SUB SUB DUP2 MSTORE SWAP1 PUSH1 0x40 MSTORE PUSH32 0xAABC9A3100000000000000000000000000000000000000000000000000000000 PUSH28 0xFFFFFFFFFFFFFFFFFFFFFFFFFFFFFFFFFFFFFFFFFFFFFFFFFFFFFFFF NOT AND PUSH1 0x20 DUP3 ADD DUP1 MLOAD PUSH28 0xFFFFFFFFFFFFFFFFFFFFFFFFFFFFFFFFFFFFFFFFFFFFFFFFFFFFFFFF DUP4 DUP2 DUP4 AND OR DUP4 MSTORE POP POP POP POP PUSH3 0x28F PUSH1 0x20 SHL PUSH1 0x20 SHR JUMP JUMPDEST POP POP POP POP JUMP JUMPDEST PUSH1 0x0 DUP2 MLOAD SWAP1 POP PUSH1 0x0 PUSH11 0x636F6E736F6C652E6C6F67 SWAP1 POP PUSH1 0x20 DUP4 ADD PUSH1 0x0 DUP1 DUP5 DUP4 DUP6 GAS STATICCALL POP POP POP POP POP JUMP JUMPDEST DUP3 DUP1 SLOAD PUSH3 0x2C6 SWAP1 PUSH3 0x712 JUMP JUMPDEST SWAP1 PUSH1 0x0 MSTORE PUSH1 0x20 PUSH1 0x0 KECCAK256 SWAP1 PUSH1 0x1F ADD PUSH1 0x20 SWAP1 DIV DUP2 ADD SWAP3 DUP3 PUSH3 0x2EA JUMPI PUSH1 0x0 DUP6 SSTORE PUSH3 0x336 JUMP JUMPDEST DUP3 PUSH1 0x1F LT PUSH3 0x305 JUMPI DUP1 MLOAD PUSH1 0xFF NOT AND DUP4 DUP1 ADD OR DUP6 SSTORE PUSH3 0x336 JUMP JUMPDEST DUP3 DUP1 ADD PUSH1 0x1 ADD DUP6 SSTORE DUP3 ISZERO PUSH3 0x336 JUMPI SWAP2 DUP3 ADD JUMPDEST DUP3 DUP2 GT ISZERO PUSH3 0x335 JUMPI DUP3 MLOAD DUP3 SSTORE SWAP2 PUSH1 0x20 ADD SWAP2 SWAP1 PUSH1 0x1 ADD SWAP1 PUSH3 0x318 JUMP JUMPDEST JUMPDEST POP SWAP1 POP PUSH3 0x345 SWAP2 SWAP1 PUSH3 0x349 JUMP JUMPDEST POP SWAP1 JUMP JUMPDEST JUMPDEST DUP1 DUP3 GT ISZERO PUSH3 0x364 JUMPI PUSH1 0x0 DUP2 PUSH1 0x0 SWAP1 SSTORE POP PUSH1 0x1 ADD PUSH3 0x34A JUMP JUMPDEST POP SWAP1 JUMP JUMPDEST PUSH1 0x0 PUSH3 0x37F PUSH3 0x379 DUP5 PUSH3 0x5DB JUMP JUMPDEST PUSH3 0x5B2 JUMP JUMPDEST SWAP1 POP DUP3 DUP2 MSTORE PUSH1 0x20 DUP2 ADD DUP5 DUP5 DUP5 ADD GT ISZERO PUSH3 0x39E JUMPI PUSH3 0x39D PUSH3 0x810 JUMP JUMPDEST JUMPDEST PUSH3 0x3AB DUP5 DUP3 DUP6 PUSH3 0x6DC JUMP JUMPDEST POP SWAP4 SWAP3 POP POP POP JUMP JUMPDEST PUSH1 0x0 DUP2 MLOAD SWAP1 POP PUSH3 0x3C4 DUP2 PUSH3 0x830 JUMP JUMPDEST SWAP3 SWAP2 POP POP JUMP JUMPDEST PUSH1 0x0 DUP3 PUSH1 0x1F DUP4 ADD SLT PUSH3 0x3E2 JUMPI PUSH3 0x3E1 PUSH3 0x80B JUMP JUMPDEST JUMPDEST DUP2 MLOAD PUSH3 0x3F4 DUP5 DUP3 PUSH1 0x20 DUP7 ADD PUSH3 0x368 JUMP JUMPDEST SWAP2 POP POP SWAP3 SWAP2 POP POP JUMP JUMPDEST PUSH1 0x0 DUP2 MLOAD SWAP1 POP PUSH3 0x40E DUP2 PUSH3 0x84A JUMP JUMPDEST SWAP3 SWAP2 POP POP JUMP JUMPDEST PUSH1 0x0 DUP1 PUSH1 0x0 DUP1 PUSH1 0x0 DUP1 PUSH1 0x0 PUSH1 0xE0 DUP9 DUP11 SUB SLT ISZERO PUSH3 0x436 JUMPI PUSH3 0x435 PUSH3 0x81A JUMP JUMPDEST JUMPDEST PUSH1 0x0 PUSH3 0x446 DUP11 DUP3 DUP12 ADD PUSH3 0x3B3 JUMP JUMPDEST SWAP8 POP POP PUSH1 0x20 PUSH3 0x459 DUP11 DUP3 DUP12 ADD PUSH3 0x3B3 JUMP JUMPDEST SWAP7 POP POP PUSH1 0x40 DUP9 ADD MLOAD PUSH8 0xFFFFFFFFFFFFFFFF DUP2 GT ISZERO PUSH3 0x47D JUMPI PUSH3 0x47C PUSH3 0x815 JUMP JUMPDEST JUMPDEST PUSH3 0x48B DUP11 DUP3 DUP12 ADD PUSH3 0x3CA JUMP JUMPDEST SWAP6 POP POP PUSH1 0x60 DUP9 ADD MLOAD PUSH8 0xFFFFFFFFFFFFFFFF DUP2 GT ISZERO PUSH3 0x4AF JUMPI PUSH3 0x4AE PUSH3 0x815 JUMP JUMPDEST JUMPDEST PUSH3 0x4BD DUP11 DUP3 DUP12 ADD PUSH3 0x3CA JUMP JUMPDEST SWAP5 POP POP PUSH1 0x80 PUSH3 0x4D0 DUP11 DUP3 DUP12 ADD PUSH3 0x3FD JUMP JUMPDEST SWAP4 POP POP PUSH1 0xA0 PUSH3 0x4E3 DUP11 DUP3 DUP12 ADD PUSH3 0x3FD JUMP JUMPDEST SWAP3 POP POP PUSH1 0xC0 PUSH3 0x4F6 DUP11 DUP3 DUP12 ADD PUSH3 0x3FD JUMP JUMPDEST SWAP2 POP POP SWAP3 SWAP6 SWAP9 SWAP2 SWAP5 SWAP8 POP SWAP3 SWAP6 POP JUMP JUMPDEST PUSH3 0x510 DUP2 PUSH3 0x68A JUMP JUMPDEST DUP3 MSTORE POP POP JUMP JUMPDEST PUSH1 0x0 PUSH3 0x523 DUP3 PUSH3 0x611 JUMP JUMPDEST PUSH3 0x52F DUP2 DUP6 PUSH3 0x61C JUMP JUMPDEST SWAP4 POP PUSH3 0x541 DUP2 DUP6 PUSH1 0x20 DUP7 ADD PUSH3 0x6DC JUMP JUMPDEST PUSH3 0x54C DUP2 PUSH3 0x81F JUMP JUMPDEST DUP5 ADD SWAP2 POP POP SWAP3 SWAP2 POP POP JUMP JUMPDEST PUSH1 0x0 PUSH1 0x80 DUP3 ADD SWAP1 POP DUP2 DUP2 SUB PUSH1 0x0 DUP4 ADD MSTORE PUSH3 0x573 DUP2 DUP8 PUSH3 0x516 JUMP JUMPDEST SWAP1 POP PUSH3 0x584 PUSH1 0x20 DUP4 ADD DUP7 PUSH3 0x505 JUMP JUMPDEST DUP2 DUP2 SUB PUSH1 0x40 DUP4 ADD MSTORE PUSH3 0x598 DUP2 DUP6 PUSH3 0x516 JUMP JUMPDEST SWAP1 POP PUSH3 0x5A9 PUSH1 0x60 DUP4 ADD DUP5 PUSH3 0x505 JUMP JUMPDEST SWAP6 SWAP5 POP POP POP POP POP JUMP JUMPDEST PUSH1 0x0 PUSH3 0x5BE PUSH3 0x5D1 JUMP JUMPDEST SWAP1 POP PUSH3 0x5CC DUP3 DUP3 PUSH3 0x748 JUMP JUMPDEST SWAP2 SWAP1 POP JUMP JUMPDEST PUSH1 0x0 PUSH1 0x40 MLOAD SWAP1 POP SWAP1 JUMP JUMPDEST PUSH1 0x0 PUSH8 0xFFFFFFFFFFFFFFFF DUP3 GT ISZERO PUSH3 0x5F9 JUMPI PUSH3 0x5F8 PUSH3 0x7DC JUMP JUMPDEST JUMPDEST PUSH3 0x604 DUP3 PUSH3 0x81F JUMP JUMPDEST SWAP1 POP PUSH1 0x20 DUP2 ADD SWAP1 POP SWAP2 SWAP1 POP JUMP JUMPDEST PUSH1 0x0 DUP2 MLOAD SWAP1 POP SWAP2 SWAP1 POP JUMP JUMPDEST PUSH1 0x0 DUP3 DUP3 MSTORE PUSH1 0x20 DUP3 ADD SWAP1 POP SWAP3 SWAP2 POP POP JUMP JUMPDEST PUSH1 0x0 PUSH3 0x63A DUP3 PUSH3 0x6D2 JUMP JUMPDEST SWAP2 POP PUSH3 0x647 DUP4 PUSH3 0x6D2 JUMP JUMPDEST SWAP3 POP DUP3 PUSH32 0xFFFFFFFFFFFFFFFFFFFFFFFFFFFFFFFFFFFFFFFFFFFFFFFFFFFFFFFFFFFFFFFF SUB DUP3 GT ISZERO PUSH3 0x67F JUMPI PUSH3 0x67E PUSH3 0x77E JUMP JUMPDEST JUMPDEST DUP3 DUP3 ADD SWAP1 POP SWAP3 SWAP2 POP POP JUMP JUMPDEST PUSH1 0x0 PUSH3 0x697 DUP3 PUSH3 0x6B2 JUMP JUMPDEST SWAP1 POP SWAP2 SWAP1 POP JUMP JUMPDEST PUSH1 0x0 PUSH3 0x6AB DUP3 PUSH3 0x6B2 JUMP JUMPDEST SWAP1 POP SWAP2 SWAP1 POP JUMP JUMPDEST PUSH1 0x0 PUSH20 0xFFFFFFFFFFFFFFFFFFFFFFFFFFFFFFFFFFFFFFFF DUP3 AND SWAP1 POP SWAP2 SWAP1 POP JUMP JUMPDEST PUSH1 0x0 DUP2 SWAP1 POP SWAP2 SWAP1 POP JUMP JUMPDEST PUSH1 0x0 JUMPDEST DUP4 DUP2 LT ISZERO PUSH3 0x6FC JUMPI DUP1 DUP3 ADD MLOAD DUP2 DUP5 ADD MSTORE PUSH1 0x20 DUP2 ADD SWAP1 POP PUSH3 0x6DF JUMP JUMPDEST DUP4 DUP2 GT ISZERO PUSH3 0x70C JUMPI PUSH1 0x0 DUP5 DUP5 ADD MSTORE JUMPDEST POP POP POP POP JUMP JUMPDEST PUSH1 0x0 PUSH1 0x2 DUP3 DIV SWAP1 POP PUSH1 0x1 DUP3 AND DUP1 PUSH3 0x72B JUMPI PUSH1 0x7F DUP3 AND SWAP2 POP JUMPDEST PUSH1 0x20 DUP3 LT DUP2 EQ ISZERO PUSH3 0x742 JUMPI PUSH3 0x741 PUSH3 0x7AD JUMP JUMPDEST JUMPDEST POP SWAP2 SWAP1 POP JUMP JUMPDEST PUSH3 0x753 DUP3 PUSH3 0x81F JUMP JUMPDEST DUP2 ADD DUP2 DUP2 LT PUSH8 0xFFFFFFFFFFFFFFFF DUP3 GT OR ISZERO PUSH3 0x775 JUMPI PUSH3 0x774 PUSH3 0x7DC JUMP JUMPDEST JUMPDEST DUP1 PUSH1 0x40 MSTORE POP POP POP JUMP JUMPDEST PUSH32 0x4E487B7100000000000000000000000000000000000000000000000000000000 PUSH1 0x0 MSTORE PUSH1 0x11 PUSH1 0x4 MSTORE PUSH1 0x24 PUSH1 0x0 REVERT JUMPDEST PUSH32 0x4E487B7100000000000000000000000000000000000000000000000000000000 PUSH1 0x0 MSTORE PUSH1 0x22 PUSH1 0x4 MSTORE PUSH1 0x24 PUSH1 0x0 REVERT JUMPDEST PUSH32 0x4E487B7100000000000000000000000000000000000000000000000000000000 PUSH1 0x0 MSTORE PUSH1 0x41 PUSH1 0x4 MSTORE PUSH1 0x24 PUSH1 0x0 REVERT JUMPDEST PUSH1 0x0 DUP1 REVERT JUMPDEST PUSH1 0x0 DUP1 REVERT JUMPDEST PUSH1 0x0 DUP1 REVERT JUMPDEST PUSH1 0x0 DUP1 REVERT JUMPDEST PUSH1 0x0 PUSH1 0x1F NOT PUSH1 0x1F DUP4 ADD AND SWAP1 POP SWAP2 SWAP1 POP JUMP JUMPDEST PUSH3 0x83B DUP2 PUSH3 0x69E JUMP JUMPDEST DUP2 EQ PUSH3 0x847 JUMPI PUSH1 0x0 DUP1 REVERT JUMPDEST POP JUMP JUMPDEST PUSH3 0x855 DUP2 PUSH3 0x6D2 JUMP JUMPDEST DUP2 EQ PUSH3 0x861 JUMPI PUSH1 0x0 DUP1 REVERT JUMPDEST POP JUMP JUMPDEST PUSH2 0xD28 DUP1 PUSH3 0x874 PUSH1 0x0 CODECOPY PUSH1 0x0 RETURN INVALID PUSH1 0x80 PUSH1 0x40 MSTORE PUSH1 0x4 CALLDATASIZE LT PUSH2 0x38 JUMPI PUSH1 0x0 CALLDATALOAD PUSH1 0xE0 SHR DUP1 PUSH4 0x12065FE0 EQ PUSH2 0x4D JUMPI DUP1 PUSH4 0xD873B3BE EQ PUSH2 0x78 JUMPI DUP1 PUSH4 0xE0E3671C EQ PUSH2 0x94 JUMPI PUSH2 0x48 JUMP JUMPDEST CALLDATASIZE PUSH2 0x48 JUMPI PUSH2 0x46 CALLER PUSH2 0xBD JUMP JUMPDEST STOP JUMPDEST PUSH1 0x0 DUP1 REVERT JUMPDEST CALLVALUE DUP1 ISZERO PUSH2 0x59 JUMPI PUSH1 0x0 DUP1 REVERT JUMPDEST POP PUSH2 0x62 PUSH2 0x2B8 JUMP JUMPDEST PUSH1 0x40 MLOAD PUSH2 0x6F SWAP2 SWAP1 PUSH2 0x990 JUMP JUMPDEST PUSH1 0x40 MLOAD DUP1 SWAP2 SUB SWAP1 RETURN JUMPDEST PUSH2 0x92 PUSH1 0x4 DUP1 CALLDATASIZE SUB DUP2 ADD SWAP1 PUSH2 0x8D SWAP2 SWAP1 PUSH2 0x775 JUMP JUMPDEST PUSH2 0xBD JUMP JUMPDEST STOP JUMPDEST CALLVALUE DUP1 ISZERO PUSH2 0xA0 JUMPI PUSH1 0x0 DUP1 REVERT JUMPDEST POP PUSH2 0xBB PUSH1 0x4 DUP1 CALLDATASIZE SUB DUP2 ADD SWAP1 PUSH2 0xB6 SWAP2 SWAP1 PUSH2 0x748 JUMP JUMPDEST PUSH2 0x2C0 JUMP JUMPDEST STOP JUMPDEST PUSH1 0x6 SLOAD NUMBER GT ISZERO PUSH2 0x102 JUMPI PUSH1 0x40 MLOAD PUSH32 0x8C379A000000000000000000000000000000000000000000000000000000000 DUP2 MSTORE PUSH1 0x4 ADD PUSH2 0xF9 SWAP1 PUSH2 0x910 JUMP JUMPDEST PUSH1 0x40 MLOAD DUP1 SWAP2 SUB SWAP1 REVERT JUMPDEST PUSH1 0x8 SLOAD CALLVALUE GT PUSH2 0x146 JUMPI PUSH1 0x40 MLOAD PUSH32 0x8C379A000000000000000000000000000000000000000000000000000000000 DUP2 MSTORE PUSH1 0x4 ADD PUSH2 0x13D SWAP1 PUSH2 0x950 JUMP JUMPDEST PUSH1 0x40 MLOAD DUP1 SWAP2 SUB SWAP1 REVERT JUMPDEST PUSH1 0x0 PUSH1 0xA SLOAD GT ISZERO PUSH2 0x212 JUMPI PUSH1 0x2 PUSH1 0x0 SWAP1 SLOAD SWAP1 PUSH2 0x100 EXP SWAP1 DIV PUSH20 0xFFFFFFFFFFFFFFFFFFFFFFFFFFFFFFFFFFFFFFFF AND PUSH20 0xFFFFFFFFFFFFFFFFFFFFFFFFFFFFFFFFFFFFFFFF AND PUSH2 0x8FC PUSH1 0x7 SLOAD SWAP1 DUP2 ISZERO MUL SWAP1 PUSH1 0x40 MLOAD PUSH1 0x0 PUSH1 0x40 MLOAD DUP1 DUP4 SUB DUP2 DUP6 DUP9 DUP9 CALL SWAP4 POP POP POP POP ISZERO DUP1 ISZERO PUSH2 0x1BB JUMPI RETURNDATASIZE PUSH1 0x0 DUP1 RETURNDATACOPY RETURNDATASIZE PUSH1 0x0 REVERT JUMPDEST POP DUP1 PUSH1 0x2 PUSH1 0x0 PUSH2 0x100 EXP DUP2 SLOAD DUP2 PUSH20 0xFFFFFFFFFFFFFFFFFFFFFFFFFFFFFFFFFFFFFFFF MUL NOT AND SWAP1 DUP4 PUSH20 0xFFFFFFFFFFFFFFFFFFFFFFFFFFFFFFFFFFFFFFFF AND MUL OR SWAP1 SSTORE POP CALLVALUE PUSH1 0x7 DUP2 SWAP1 SSTORE POP PUSH1 0x7 SLOAD PUSH1 0x8 DUP2 SWAP1 SSTORE POP PUSH2 0x264 JUMP JUMPDEST DUP1 PUSH1 0x2 PUSH1 0x0 PUSH2 0x100 EXP DUP2 SLOAD DUP2 PUSH20 0xFFFFFFFFFFFFFFFFFFFFFFFFFFFFFFFFFFFFFFFF MUL NOT AND SWAP1 DUP4 PUSH20 0xFFFFFFFFFFFFFFFFFFFFFFFFFFFFFFFFFFFFFFFF AND MUL OR SWAP1 SSTORE POP CALLVALUE PUSH1 0x7 DUP2 SWAP1 SSTORE POP PUSH1 0x7 SLOAD PUSH1 0x8 DUP2 SWAP1 SSTORE POP JUMPDEST PUSH32 0xEE242CA320573FD3309D8CC97EF2994FE7704919768FC46F3332BE6E9536D0DE DUP2 CALLVALUE PUSH1 0x40 MLOAD PUSH2 0x295 SWAP3 SWAP2 SWAP1 PUSH2 0x894 JUMP JUMPDEST PUSH1 0x40 MLOAD DUP1 SWAP2 SUB SWAP1 LOG1 PUSH1 0xA PUSH1 0x0 DUP2 SLOAD DUP1 SWAP3 SWAP2 SWAP1 PUSH2 0x2B0 SWAP1 PUSH2 0xB3D JUMP JUMPDEST SWAP2 SWAP1 POP SSTORE POP POP JUMP JUMPDEST PUSH1 0x0 SELFBALANCE SWAP1 POP SWAP1 JUMP JUMPDEST DUP1 PUSH1 0x3 PUSH1 0x0 PUSH2 0x100 EXP DUP2 SLOAD DUP2 PUSH20 0xFFFFFFFFFFFFFFFFFFFFFFFFFFFFFFFFFFFFFFFF MUL NOT AND SWAP1 DUP4 PUSH20 0xFFFFFFFFFFFFFFFFFFFFFFFFFFFFFFFFFFFFFFFF AND MUL OR SWAP1 SSTORE POP PUSH2 0x309 PUSH2 0x3AF JUMP JUMPDEST POP POP JUMP JUMPDEST PUSH2 0x3A9 DUP5 DUP5 DUP5 DUP5 PUSH1 0x40 MLOAD PUSH1 0x24 ADD PUSH2 0x327 SWAP5 SWAP4 SWAP3 SWAP2 SWAP1 PUSH2 0x8BD JUMP JUMPDEST PUSH1 0x40 MLOAD PUSH1 0x20 DUP2 DUP4 SUB SUB DUP2 MSTORE SWAP1 PUSH1 0x40 MSTORE PUSH32 0xAABC9A3100000000000000000000000000000000000000000000000000000000 PUSH28 0xFFFFFFFFFFFFFFFFFFFFFFFFFFFFFFFFFFFFFFFFFFFFFFFFFFFFFFFF NOT AND PUSH1 0x20 DUP3 ADD DUP1 MLOAD PUSH28 0xFFFFFFFFFFFFFFFFFFFFFFFFFFFFFFFFFFFFFFFFFFFFFFFFFFFFFFFF DUP4 DUP2 DUP4 AND OR DUP4 MSTORE POP POP POP POP PUSH2 0x6F5 JUMP JUMPDEST POP POP POP POP JUMP JUMPDEST PUSH1 0x0 DUP1 PUSH1 0x0 SWAP1 SLOAD SWAP1 PUSH2 0x100 EXP SWAP1 DIV PUSH20 0xFFFFFFFFFFFFFFFFFFFFFFFFFFFFFFFFFFFFFFFF AND PUSH20 0xFFFFFFFFFFFFFFFFFFFFFFFFFFFFFFFFFFFFFFFF AND PUSH1 0x3 PUSH1 0x0 SWAP1 SLOAD SWAP1 PUSH2 0x100 EXP SWAP1 DIV PUSH20 0xFFFFFFFFFFFFFFFFFFFFFFFFFFFFFFFFFFFFFFFF AND PUSH20 0xFFFFFFFFFFFFFFFFFFFFFFFFFFFFFFFFFFFFFFFF AND EQ DUP1 PUSH2 0x49D JUMPI POP PUSH1 0x2 PUSH1 0x0 SWAP1 SLOAD SWAP1 PUSH2 0x100 EXP SWAP1 DIV PUSH20 0xFFFFFFFFFFFFFFFFFFFFFFFFFFFFFFFFFFFFFFFF AND PUSH20 0xFFFFFFFFFFFFFFFFFFFFFFFFFFFFFFFFFFFFFFFF AND PUSH1 0x3 PUSH1 0x0 SWAP1 SLOAD SWAP1 PUSH2 0x100 EXP SWAP1 DIV PUSH20 0xFFFFFFFFFFFFFFFFFFFFFFFFFFFFFFFFFFFFFFFF AND PUSH20 0xFFFFFFFFFFFFFFFFFFFFFFFFFFFFFFFFFFFFFFFF AND EQ JUMPDEST PUSH2 0x4DC JUMPI PUSH1 0x40 MLOAD PUSH32 0x8C379A000000000000000000000000000000000000000000000000000000000 DUP2 MSTORE PUSH1 0x4 ADD PUSH2 0x4D3 SWAP1 PUSH2 0x970 JUMP JUMPDEST PUSH1 0x40 MLOAD DUP1 SWAP2 SUB SWAP1 REVERT JUMPDEST PUSH1 0x6 SLOAD NUMBER LT ISZERO PUSH2 0x521 JUMPI PUSH1 0x40 MLOAD PUSH32 0x8C379A000000000000000000000000000000000000000000000000000000000 DUP2 MSTORE PUSH1 0x4 ADD PUSH2 0x518 SWAP1 PUSH2 0x930 JUMP JUMPDEST PUSH1 0x40 MLOAD DUP1 SWAP2 SUB SWAP1 REVERT JUMPDEST PUSH1 0x0 PUSH1 0x9 SLOAD PUSH1 0x64 PUSH2 0x530 PUSH2 0x2B8 JUMP JUMPDEST PUSH2 0x53A SWAP2 SWAP1 PUSH2 0x9C7 JUMP JUMPDEST PUSH2 0x544 SWAP2 SWAP1 PUSH2 0x9F8 JUMP JUMPDEST SWAP1 POP PUSH1 0x0 DUP2 PUSH2 0x551 PUSH2 0x2B8 JUMP JUMPDEST PUSH2 0x55B SWAP2 SWAP1 PUSH2 0xA52 JUMP JUMPDEST SWAP1 POP PUSH1 0x0 DUP1 SLOAD SWAP1 PUSH2 0x100 EXP SWAP1 DIV PUSH20 0xFFFFFFFFFFFFFFFFFFFFFFFFFFFFFFFFFFFFFFFF AND PUSH20 0xFFFFFFFFFFFFFFFFFFFFFFFFFFFFFFFFFFFFFFFF AND PUSH2 0x8FC DUP3 SWAP1 DUP2 ISZERO MUL SWAP1 PUSH1 0x40 MLOAD PUSH1 0x0 PUSH1 0x40 MLOAD DUP1 DUP4 SUB DUP2 DUP6 DUP9 DUP9 CALL SWAP4 POP POP POP POP ISZERO DUP1 ISZERO PUSH2 0x5C3 JUMPI RETURNDATASIZE PUSH1 0x0 DUP1 RETURNDATACOPY RETURNDATASIZE PUSH1 0x0 REVERT JUMPDEST POP PUSH1 0x1 PUSH1 0x0 SWAP1 SLOAD SWAP1 PUSH2 0x100 EXP SWAP1 DIV PUSH20 0xFFFFFFFFFFFFFFFFFFFFFFFFFFFFFFFFFFFFFFFF AND PUSH20 0xFFFFFFFFFFFFFFFFFFFFFFFFFFFFFFFFFFFFFFFF AND PUSH2 0x8FC DUP4 SWAP1 DUP2 ISZERO MUL SWAP1 PUSH1 0x40 MLOAD PUSH1 0x0 PUSH1 0x40 MLOAD DUP1 DUP4 SUB DUP2 DUP6 DUP9 DUP9 CALL SWAP4 POP POP POP POP ISZERO DUP1 ISZERO PUSH2 0x62C JUMPI RETURNDATASIZE PUSH1 0x0 DUP1 RETURNDATACOPY RETURNDATASIZE PUSH1 0x0 REVERT JUMPDEST POP PUSH1 0x2 PUSH1 0x0 SWAP1 SLOAD SWAP1 PUSH2 0x100 EXP SWAP1 DIV PUSH20 0xFFFFFFFFFFFFFFFFFFFFFFFFFFFFFFFFFFFFFFFF AND PUSH1 0x0 DUP1 PUSH2 0x100 EXP DUP2 SLOAD DUP2 PUSH20 0xFFFFFFFFFFFFFFFFFFFFFFFFFFFFFFFFFFFFFFFF MUL NOT AND SWAP1 DUP4 PUSH20 0xFFFFFFFFFFFFFFFFFFFFFFFFFFFFFFFFFFFFFFFF AND MUL OR SWAP1 SSTORE POP PUSH32 0x5B0833CC9B85DFE4167C39867467DBDEF9A05060318B433FD5759B5DCA79BA7F PUSH1 0x2 PUSH1 0x0 SWAP1 SLOAD SWAP1 PUSH2 0x100 EXP SWAP1 DIV PUSH20 0xFFFFFFFFFFFFFFFFFFFFFFFFFFFFFFFFFFFFFFFF AND PUSH1 0x7 SLOAD PUSH1 0x40 MLOAD PUSH2 0x6E4 SWAP3 SWAP2 SWAP1 PUSH2 0x894 JUMP JUMPDEST PUSH1 0x40 MLOAD DUP1 SWAP2 SUB SWAP1 LOG1 PUSH1 0x1 SWAP3 POP POP POP SWAP1 JUMP JUMPDEST PUSH1 0x0 DUP2 MLOAD SWAP1 POP PUSH1 0x0 PUSH11 0x636F6E736F6C652E6C6F67 SWAP1 POP PUSH1 0x20 DUP4 ADD PUSH1 0x0 DUP1 DUP5 DUP4 DUP6 GAS STATICCALL POP POP POP POP POP JUMP JUMPDEST PUSH1 0x0 DUP2 CALLDATALOAD SWAP1 POP PUSH2 0x72D DUP2 PUSH2 0xCC4 JUMP JUMPDEST SWAP3 SWAP2 POP POP JUMP JUMPDEST PUSH1 0x0 DUP2 CALLDATALOAD SWAP1 POP PUSH2 0x742 DUP2 PUSH2 0xCDB JUMP JUMPDEST SWAP3 SWAP2 POP POP JUMP JUMPDEST PUSH1 0x0 PUSH1 0x20 DUP3 DUP5 SUB SLT ISZERO PUSH2 0x75E JUMPI PUSH2 0x75D PUSH2 0xBE4 JUMP JUMPDEST JUMPDEST PUSH1 0x0 PUSH2 0x76C DUP5 DUP3 DUP6 ADD PUSH2 0x71E JUMP JUMPDEST SWAP2 POP POP SWAP3 SWAP2 POP POP JUMP JUMPDEST PUSH1 0x0 PUSH1 0x20 DUP3 DUP5 SUB SLT ISZERO PUSH2 0x78B JUMPI PUSH2 0x78A PUSH2 0xBE4 JUMP JUMPDEST JUMPDEST PUSH1 0x0 PUSH2 0x799 DUP5 DUP3 DUP6 ADD PUSH2 0x733 JUMP JUMPDEST SWAP2 POP POP SWAP3 SWAP2 POP POP JUMP JUMPDEST PUSH2 0x7AB DUP2 PUSH2 0xAD4 JUMP JUMPDEST DUP3 MSTORE POP POP JUMP JUMPDEST PUSH2 0x7BA DUP2 PUSH2 0xA86 JUMP JUMPDEST DUP3 MSTORE POP POP JUMP JUMPDEST PUSH1 0x0 PUSH2 0x7CB DUP3 PUSH2 0x9AB JUMP JUMPDEST PUSH2 0x7D5 DUP2 DUP6 PUSH2 0x9B6 JUMP JUMPDEST SWAP4 POP PUSH2 0x7E5 DUP2 DUP6 PUSH1 0x20 DUP7 ADD PUSH2 0xB0A JUMP JUMPDEST PUSH2 0x7EE DUP2 PUSH2 0xBE9 JUMP JUMPDEST DUP5 ADD SWAP2 POP POP SWAP3 SWAP2 POP POP JUMP JUMPDEST PUSH1 0x0 PUSH2 0x806 PUSH1 0xE DUP4 PUSH2 0x9B6 JUMP JUMPDEST SWAP2 POP PUSH2 0x811 DUP3 PUSH2 0xBFA JUMP JUMPDEST PUSH1 0x20 DUP3 ADD SWAP1 POP SWAP2 SWAP1 POP JUMP JUMPDEST PUSH1 0x0 PUSH2 0x829 PUSH1 0x1C DUP4 PUSH2 0x9B6 JUMP JUMPDEST SWAP2 POP PUSH2 0x834 DUP3 PUSH2 0xC23 JUMP JUMPDEST PUSH1 0x20 DUP3 ADD SWAP1 POP SWAP2 SWAP1 POP JUMP JUMPDEST PUSH1 0x0 PUSH2 0x84C PUSH1 0x15 DUP4 PUSH2 0x9B6 JUMP JUMPDEST SWAP2 POP PUSH2 0x857 DUP3 PUSH2 0xC4C JUMP JUMPDEST PUSH1 0x20 DUP3 ADD SWAP1 POP SWAP2 SWAP1 POP JUMP JUMPDEST PUSH1 0x0 PUSH2 0x86F PUSH1 0x2C DUP4 PUSH2 0x9B6 JUMP JUMPDEST SWAP2 POP PUSH2 0x87A DUP3 PUSH2 0xC75 JUMP JUMPDEST PUSH1 0x40 DUP3 ADD SWAP1 POP SWAP2 SWAP1 POP JUMP JUMPDEST PUSH2 0x88E DUP2 PUSH2 0xACA JUMP JUMPDEST DUP3 MSTORE POP POP JUMP JUMPDEST PUSH1 0x0 PUSH1 0x40 DUP3 ADD SWAP1 POP PUSH2 0x8A9 PUSH1 0x0 DUP4 ADD DUP6 PUSH2 0x7A2 JUMP JUMPDEST PUSH2 0x8B6 PUSH1 0x20 DUP4 ADD DUP5 PUSH2 0x885 JUMP JUMPDEST SWAP4 SWAP3 POP POP POP JUMP JUMPDEST PUSH1 0x0 PUSH1 0x80 DUP3 ADD SWAP1 POP DUP2 DUP2 SUB PUSH1 0x0 DUP4 ADD MSTORE PUSH2 0x8D7 DUP2 DUP8 PUSH2 0x7C0 JUMP JUMPDEST SWAP1 POP PUSH2 0x8E6 PUSH1 0x20 DUP4 ADD DUP7 PUSH2 0x7B1 JUMP JUMPDEST DUP2 DUP2 SUB PUSH1 0x40 DUP4 ADD MSTORE PUSH2 0x8F8 DUP2 DUP6 PUSH2 0x7C0 JUMP JUMPDEST SWAP1 POP PUSH2 0x907 PUSH1 0x60 DUP4 ADD DUP5 PUSH2 0x7B1 JUMP JUMPDEST SWAP6 SWAP5 POP POP POP POP POP JUMP JUMPDEST PUSH1 0x0 PUSH1 0x20 DUP3 ADD SWAP1 POP DUP2 DUP2 SUB PUSH1 0x0 DUP4 ADD MSTORE PUSH2 0x929 DUP2 PUSH2 0x7F9 JUMP JUMPDEST SWAP1 POP SWAP2 SWAP1 POP JUMP JUMPDEST PUSH1 0x0 PUSH1 0x20 DUP3 ADD SWAP1 POP DUP2 DUP2 SUB PUSH1 0x0 DUP4 ADD MSTORE PUSH2 0x949 DUP2 PUSH2 0x81C JUMP JUMPDEST SWAP1 POP SWAP2 SWAP1 POP JUMP JUMPDEST PUSH1 0x0 PUSH1 0x20 DUP3 ADD SWAP1 POP DUP2 DUP2 SUB PUSH1 0x0 DUP4 ADD MSTORE PUSH2 0x969 DUP2 PUSH2 0x83F JUMP JUMPDEST SWAP1 POP SWAP2 SWAP1 POP JUMP JUMPDEST PUSH1 0x0 PUSH1 0x20 DUP3 ADD SWAP1 POP DUP2 DUP2 SUB PUSH1 0x0 DUP4 ADD MSTORE PUSH2 0x989 DUP2 PUSH2 0x862 JUMP JUMPDEST SWAP1 POP SWAP2 SWAP1 POP JUMP JUMPDEST PUSH1 0x0 PUSH1 0x20 DUP3 ADD SWAP1 POP PUSH2 0x9A5 PUSH1 0x0 DUP4 ADD DUP5 PUSH2 0x885 JUMP JUMPDEST SWAP3 SWAP2 POP POP JUMP JUMPDEST PUSH1 0x0 DUP2 MLOAD SWAP1 POP SWAP2 SWAP1 POP JUMP JUMPDEST PUSH1 0x0 DUP3 DUP3 MSTORE PUSH1 0x20 DUP3 ADD SWAP1 POP SWAP3 SWAP2 POP POP JUMP JUMPDEST PUSH1 0x0 PUSH2 0x9D2 DUP3 PUSH2 0xACA JUMP JUMPDEST SWAP2 POP PUSH2 0x9DD DUP4 PUSH2 0xACA JUMP JUMPDEST SWAP3 POP DUP3 PUSH2 0x9ED JUMPI PUSH2 0x9EC PUSH2 0xBB5 JUMP JUMPDEST JUMPDEST DUP3 DUP3 DIV SWAP1 POP SWAP3 SWAP2 POP POP JUMP JUMPDEST PUSH1 0x0 PUSH2 0xA03 DUP3 PUSH2 0xACA JUMP JUMPDEST SWAP2 POP PUSH2 0xA0E DUP4 PUSH2 0xACA JUMP JUMPDEST SWAP3 POP DUP2 PUSH32 0xFFFFFFFFFFFFFFFFFFFFFFFFFFFFFFFFFFFFFFFFFFFFFFFFFFFFFFFFFFFFFFFF DIV DUP4 GT DUP3 ISZERO ISZERO AND ISZERO PUSH2 0xA47 JUMPI PUSH2 0xA46 PUSH2 0xB86 JUMP JUMPDEST JUMPDEST DUP3 DUP3 MUL SWAP1 POP SWAP3 SWAP2 POP POP JUMP JUMPDEST PUSH1 0x0 PUSH2 0xA5D DUP3 PUSH2 0xACA JUMP JUMPDEST SWAP2 POP PUSH2 0xA68 DUP4 PUSH2 0xACA JUMP JUMPDEST SWAP3 POP DUP3 DUP3 LT ISZERO PUSH2 0xA7B JUMPI PUSH2 0xA7A PUSH2 0xB86 JUMP JUMPDEST JUMPDEST DUP3 DUP3 SUB SWAP1 POP SWAP3 SWAP2 POP POP JUMP JUMPDEST PUSH1 0x0 PUSH2 0xA91 DUP3 PUSH2 0xAAA JUMP JUMPDEST SWAP1 POP SWAP2 SWAP1 POP JUMP JUMPDEST PUSH1 0x0 PUSH2 0xAA3 DUP3 PUSH2 0xAAA JUMP JUMPDEST SWAP1 POP SWAP2 SWAP1 POP JUMP JUMPDEST PUSH1 0x0 PUSH20 0xFFFFFFFFFFFFFFFFFFFFFFFFFFFFFFFFFFFFFFFF DUP3 AND SWAP1 POP SWAP2 SWAP1 POP JUMP JUMPDEST PUSH1 0x0 DUP2 SWAP1 POP SWAP2 SWAP1 POP JUMP JUMPDEST PUSH1 0x0 PUSH2 0xADF DUP3 PUSH2 0xAE6 JUMP JUMPDEST SWAP1 POP SWAP2 SWAP1 POP JUMP JUMPDEST PUSH1 0x0 PUSH2 0xAF1 DUP3 PUSH2 0xAF8 JUMP JUMPDEST SWAP1 POP SWAP2 SWAP1 POP JUMP JUMPDEST PUSH1 0x0 PUSH2 0xB03 DUP3 PUSH2 0xAAA JUMP JUMPDEST SWAP1 POP SWAP2 SWAP1 POP JUMP JUMPDEST PUSH1 0x0 JUMPDEST DUP4 DUP2 LT ISZERO PUSH2 0xB28 JUMPI DUP1 DUP3 ADD MLOAD DUP2 DUP5 ADD MSTORE PUSH1 0x20 DUP2 ADD SWAP1 POP PUSH2 0xB0D JUMP JUMPDEST DUP4 DUP2 GT ISZERO PUSH2 0xB37 JUMPI PUSH1 0x0 DUP5 DUP5 ADD MSTORE JUMPDEST POP POP POP POP JUMP JUMPDEST PUSH1 0x0 PUSH2 0xB48 DUP3 PUSH2 0xACA JUMP JUMPDEST SWAP2 POP PUSH32 0xFFFFFFFFFFFFFFFFFFFFFFFFFFFFFFFFFFFFFFFFFFFFFFFFFFFFFFFFFFFFFFFF DUP3 EQ ISZERO PUSH2 0xB7B JUMPI PUSH2 0xB7A PUSH2 0xB86 JUMP JUMPDEST JUMPDEST PUSH1 0x1 DUP3 ADD SWAP1 POP SWAP2 SWAP1 POP JUMP JUMPDEST PUSH32 0x4E487B7100000000000000000000000000000000000000000000000000000000 PUSH1 0x0 MSTORE PUSH1 0x11 PUSH1 0x4 MSTORE PUSH1 0x24 PUSH1 0x0 REVERT JUMPDEST PUSH32 0x4E487B7100000000000000000000000000000000000000000000000000000000 PUSH1 0x0 MSTORE PUSH1 0x12 PUSH1 0x4 MSTORE PUSH1 0x24 PUSH1 0x0 REVERT JUMPDEST PUSH1 0x0 DUP1 REVERT JUMPDEST PUSH1 0x0 PUSH1 0x1F NOT PUSH1 0x1F DUP4 ADD AND SWAP1 POP SWAP2 SWAP1 POP JUMP JUMPDEST PUSH32 0x41756374696F6E20636C6F736564000000000000000000000000000000000000 PUSH1 0x0 DUP3 ADD MSTORE POP JUMP JUMPDEST PUSH32 0x5468652061756374696F6E206973207374696C6C2072756E6E696E6700000000 PUSH1 0x0 DUP3 ADD MSTORE POP JUMP JUMPDEST PUSH32 0x596F7572206F6666657220697320746F6F206C6F770000000000000000000000 PUSH1 0x0 DUP3 ADD MSTORE POP JUMP JUMPDEST PUSH32 0x596F7520617265206E6F7420746865207375626D6974746572206F6620746865 PUSH1 0x0 DUP3 ADD MSTORE PUSH32 0x2073616C65206E6F746963650000000000000000000000000000000000000000 PUSH1 0x20 DUP3 ADD MSTORE POP JUMP JUMPDEST PUSH2 0xCCD DUP2 PUSH2 0xA86 JUMP JUMPDEST DUP2 EQ PUSH2 0xCD8 JUMPI PUSH1 0x0 DUP1 REVERT JUMPDEST POP JUMP JUMPDEST PUSH2 0xCE4 DUP2 PUSH2 0xA98 JUMP JUMPDEST DUP2 EQ PUSH2 0xCEF JUMPI PUSH1 0x0 DUP1 REVERT JUMPDEST POP JUMP INVALID LOG2 PUSH5 0x6970667358 0x22 SLT KECCAK256 REVERT PUSH17 0x5F47F203A29CD530CF69E63E00FC1099 DUP1 0x2D DUP15 RETURNDATASIZE TIMESTAMP 0x21 DUP4 0xC2 CHAINID PUSH31 0x69A32564736F6C63430008070033A26469706673582212208532D1438E05F7 0x2C ADDMOD PUSH15 0xF7CEE1063BCA07A20C3C7E8BB92416 PUSH14 0xB17A8274409B64736F6C63430008 SMOD STOP CALLER "
		},
		"gasEstimates": {
			"creation": {
				"codeDepositCost": "1925800",
				"executionCost": "82691",
				"totalCost": "2008491"
			},
			"external": {
				"createAnotice(string,string,uint256,uint256)": "infinite",
				"exchangeCommission(uint256)": "infinite",
				"getAnnouncement(uint256)": "infinite",
				"getBalance()": "2607",
				"getFinish(address,uint256)": "infinite",
				"makeAshout(uint256)": "infinite",
				"raiseETH()": "infinite"
			}
		},
		"methodIdentifiers": {
			"createAnotice(string,string,uint256,uint256)": "a71060dd",
			"exchangeCommission(uint256)": "413feec6",
			"getAnnouncement(uint256)": "d16cdae1",
			"getBalance()": "12065fe0",
			"getFinish(address,uint256)": "59af85dd",
			"makeAshout(uint256)": "e6624e03",
			"raiseETH()": "98fd1987"
		}
	},
	"abi": [
		{
			"inputs": [],
			"stateMutability": "nonpayable",
			"type": "constructor"
		},
		{
			"anonymous": false,
			"inputs": [
				{
					"indexed": false,
					"internalType": "address",
					"name": "who",
					"type": "address"
				},
				{
					"indexed": false,
					"internalType": "address",
					"name": "addr",
					"type": "address"
				}
			],
			"name": "newSalesAd",
			"type": "event"
		},
		{
			"anonymous": false,
			"inputs": [
				{
					"indexed": false,
					"internalType": "uint256",
					"name": "newReward",
					"type": "uint256"
				}
			],
			"name": "rewardChange",
			"type": "event"
		},
		{
			"inputs": [
				{
					"internalType": "string",
					"name": "_title",
					"type": "string"
				},
				{
					"internalType": "string",
					"name": "_description",
					"type": "string"
				},
				{
					"internalType": "uint256",
					"name": "_startprice",
					"type": "uint256"
				},
				{
					"internalType": "uint256",
					"name": "_endtime",
					"type": "uint256"
				}
			],
			"name": "createAnotice",
			"outputs": [],
			"stateMutability": "nonpayable",
			"type": "function"
		},
		{
			"inputs": [
				{
					"internalType": "uint256",
					"name": "_reward",
					"type": "uint256"
				}
			],
			"name": "exchangeCommission",
			"outputs": [],
			"stateMutability": "nonpayable",
			"type": "function"
		},
		{
			"inputs": [
				{
					"internalType": "uint256",
					"name": "_index",
					"type": "uint256"
				}
			],
			"name": "getAnnouncement",
			"outputs": [
				{
					"internalType": "uint256",
					"name": "",
					"type": "uint256"
				}
			],
			"stateMutability": "view",
			"type": "function"
		},
		{
			"inputs": [],
			"name": "getBalance",
			"outputs": [
				{
					"internalType": "uint256",
					"name": "",
					"type": "uint256"
				}
			],
			"stateMutability": "view",
			"type": "function"
		},
		{
			"inputs": [
				{
					"internalType": "address",
					"name": "isOwner",
					"type": "address"
				},
				{
					"internalType": "uint256",
					"name": "_index",
					"type": "uint256"
				}
			],
			"name": "getFinish",
			"outputs": [],
			"stateMutability": "nonpayable",
			"type": "function"
		},
		{
			"inputs": [
				{
					"internalType": "uint256",
					"name": "_index",
					"type": "uint256"
				}
			],
			"name": "makeAshout",
			"outputs": [],
			"stateMutability": "payable",
			"type": "function"
		},
		{
			"inputs": [],
			"name": "raiseETH",
			"outputs": [
				{
					"internalType": "bool",
					"name": "",
					"type": "bool"
				}
			],
			"stateMutability": "nonpayable",
			"type": "function"
		},
		{
			"stateMutability": "payable",
			"type": "receive"
		}
	]
}