{
	"data": {
		"bytecode": {
			"linkReferences": {},
			"object": "6080604052600060045534801561001557600080fd5b5033600160006101000a81548173ffffffffffffffffffffffffffffffffffffffff021916908373ffffffffffffffffffffffffffffffffffffffff16021790555030600260006101000a81548173ffffffffffffffffffffffffffffffffffffffff021916908373ffffffffffffffffffffffffffffffffffffffff16021790555060056003819055506126c7806100af6000396000f3fe6080604052600436106200007f5760003560e01c8063a71060dd1162000055578063a71060dd1462000130578063d16cdae1146200015e578063e511beec14620001a2578063e6624e0314620001d05762000087565b806312065fe0146200008c578063413feec614620000bc57806398fd198714620001005762000087565b366200008757005b600080fd5b3480156200009957600080fd5b50620000a4620001f0565b604051620000b3919062000875565b60405180910390f35b348015620000c957600080fd5b50620000e86004803603810190620000e29190620008d7565b6200028b565b604051620000f7919062000926565b60405180910390f35b3480156200010d57600080fd5b5062000118620003b0565b60405162000127919062000926565b60405180910390f35b3480156200013d57600080fd5b506200015c600480360381019062000156919062000aa5565b6200050e565b005b3480156200016b57600080fd5b506200018a6004803603810190620001849190620008d7565b6200062a565b60405162000199919062000b9a565b60405180910390f35b348015620001af57600080fd5b50620001ce6004803603810190620001c8919062000be8565b6200066b565b005b620001ee6004803603810190620001e89190620008d7565b62000729565b005b6000600160009054906101000a900473ffffffffffffffffffffffffffffffffffffffff1673ffffffffffffffffffffffffffffffffffffffff163373ffffffffffffffffffffffffffffffffffffffff161462000285576040517f08c379a00000000000000000000000000000000000000000000000000000000081526004016200027c9062000c90565b60405180910390fd5b47905090565b6000600160009054906101000a900473ffffffffffffffffffffffffffffffffffffffff1673ffffffffffffffffffffffffffffffffffffffff163373ffffffffffffffffffffffffffffffffffffffff161462000320576040517f08c379a0000000000000000000000000000000000000000000000000000000008152600401620003179062000c90565b60405180910390fd5b601982111562000367576040517f08c379a00000000000000000000000000000000000000000000000000000000081526004016200035e9062000d28565b60405180910390fd5b816003819055507fc7dcf55fd82ea00d1ab32899391d8611395cf59d4afb80f87a51c9f671ee4326826040516200039f919062000875565b60405180910390a160019050919050565b6000600160009054906101000a900473ffffffffffffffffffffffffffffffffffffffff1673ffffffffffffffffffffffffffffffffffffffff163373ffffffffffffffffffffffffffffffffffffffff161462000445576040517f08c379a00000000000000000000000000000000000000000000000000000000081526004016200043c9062000c90565b60405180910390fd5b600062000451620001f0565b1162000494576040517f08c379a00000000000000000000000000000000000000000000000000000000081526004016200048b9062000d9a565b60405180910390fd5b600160009054906101000a900473ffffffffffffffffffffffffffffffffffffffff1673ffffffffffffffffffffffffffffffffffffffff166108fc620004da620001f0565b9081150290604051600060405180830381858888f1935050505015801562000506573d6000803e3d6000fd5b506001905090565b6000600260009054906101000a900473ffffffffffffffffffffffffffffffffffffffff16338686868660035460405162000549906200084c565b6200055b979695949392919062000e59565b604051809103906000f08015801562000578573d6000803e3d6000fd5b50905080600080600454815260200190815260200160002060006101000a81548173ffffffffffffffffffffffffffffffffffffffff021916908373ffffffffffffffffffffffffffffffffffffffff16021790555060046000815480929190620005e39062000f13565b91905055507fe6146232287030d976116a9d870a339e3a1620f43188c6adcdba72a726d9d03033826040516200061b92919062000f60565b60405180910390a15050505050565b60008060008084815260200190815260200160002060009054906101000a900473ffffffffffffffffffffffffffffffffffffffff16905080915050919050565b600080600083815260200190815260200160002060009054906101000a900473ffffffffffffffffffffffffffffffffffffffff1690508073ffffffffffffffffffffffffffffffffffffffff1663e0e3671c846040518263ffffffff1660e01b8152600401620006dd919062000b9a565b6020604051808303816000875af1158015620006fd573d6000803e3d6000fd5b505050506040513d601f19601f8201168201806040525081019062000723919062000fbe565b50505050565b60006004541180156200074c5750600160045462000748919062000ff0565b8111155b6200078e576040517f08c379a000000000000000000000000000000000000000000000000000000000815260040162000785906200107b565b60405180910390fd5b600080600083815260200190815260200160002060009054906101000a900473ffffffffffffffffffffffffffffffffffffffff1690508073ffffffffffffffffffffffffffffffffffffffff1663d873b3be34336040518363ffffffff1660e01b81526004016200080191906200109d565b60206040518083038185885af115801562000820573d6000803e3d6000fd5b50505050506040513d601f19601f8201168201806040525081019062000847919062000fbe565b505050565b6115d780620010bb83390190565b6000819050919050565b6200086f816200085a565b82525050565b60006020820190506200088c600083018462000864565b92915050565b6000604051905090565b600080fd5b600080fd5b620008b1816200085a565b8114620008bd57600080fd5b50565b600081359050620008d181620008a6565b92915050565b600060208284031215620008f057620008ef6200089c565b5b60006200090084828501620008c0565b91505092915050565b60008115159050919050565b620009208162000909565b82525050565b60006020820190506200093d600083018462000915565b92915050565b600080fd5b600080fd5b6000601f19601f8301169050919050565b7f4e487b7100000000000000000000000000000000000000000000000000000000600052604160045260246000fd5b62000998826200094d565b810181811067ffffffffffffffff82111715620009ba57620009b96200095e565b5b80604052505050565b6000620009cf62000892565b9050620009dd82826200098d565b919050565b600067ffffffffffffffff82111562000a0057620009ff6200095e565b5b62000a0b826200094d565b9050602081019050919050565b82818337600083830152505050565b600062000a3e62000a3884620009e2565b620009c3565b90508281526020810184848401111562000a5d5762000a5c62000948565b5b62000a6a84828562000a18565b509392505050565b600082601f83011262000a8a5762000a8962000943565b5b813562000a9c84826020860162000a27565b91505092915050565b6000806000806080858703121562000ac25762000ac16200089c565b5b600085013567ffffffffffffffff81111562000ae35762000ae2620008a1565b5b62000af18782880162000a72565b945050602085013567ffffffffffffffff81111562000b155762000b14620008a1565b5b62000b238782880162000a72565b935050604062000b3687828801620008c0565b925050606062000b4987828801620008c0565b91505092959194509250565b600073ffffffffffffffffffffffffffffffffffffffff82169050919050565b600062000b828262000b55565b9050919050565b62000b948162000b75565b82525050565b600060208201905062000bb1600083018462000b89565b92915050565b62000bc28162000b75565b811462000bce57600080fd5b50565b60008135905062000be28162000bb7565b92915050565b6000806040838503121562000c025762000c016200089c565b5b600062000c128582860162000bd1565b925050602062000c2585828601620008c0565b9150509250929050565b600082825260208201905092915050565b7f4465636c696e652c20796f7520617265206e6f7420746865206f776e65720000600082015250565b600062000c78601e8362000c2f565b915062000c858262000c40565b602082019050919050565b6000602082019050818103600083015262000cab8162000c69565b9050919050565b7f546865206d6178696d756d20616d6f756e74206f66207468652072657761726460008201527f2069732032352500000000000000000000000000000000000000000000000000602082015250565b600062000d1060278362000c2f565b915062000d1d8262000cb2565b604082019050919050565b6000602082019050818103600083015262000d438162000d01565b9050919050565b7f54686520636f6e747261637420686173206e6f20657468657265756d00000000600082015250565b600062000d82601c8362000c2f565b915062000d8f8262000d4a565b602082019050919050565b6000602082019050818103600083015262000db58162000d73565b9050919050565b600062000dc98262000b55565b9050919050565b62000ddb8162000dbc565b82525050565b600081519050919050565b60005b8381101562000e0c57808201518184015260208101905062000def565b60008484015250505050565b600062000e258262000de1565b62000e31818562000c2f565b935062000e4381856020860162000dec565b62000e4e816200094d565b840191505092915050565b600060e08201905062000e70600083018a62000dd0565b62000e7f602083018962000dd0565b818103604083015262000e93818862000e18565b9050818103606083015262000ea9818762000e18565b905062000eba608083018662000864565b62000ec960a083018562000864565b62000ed860c083018462000864565b98975050505050505050565b7f4e487b7100000000000000000000000000000000000000000000000000000000600052601160045260246000fd5b600062000f20826200085a565b91507fffffffffffffffffffffffffffffffffffffffffffffffffffffffffffffffff820362000f555762000f5462000ee4565b5b600182019050919050565b600060408201905062000f77600083018562000b89565b62000f86602083018462000b89565b9392505050565b62000f988162000909565b811462000fa457600080fd5b50565b60008151905062000fb88162000f8d565b92915050565b60006020828403121562000fd75762000fd66200089c565b5b600062000fe78482850162000fa7565b91505092915050565b600062000ffd826200085a565b91506200100a836200085a565b925082820390508181111562001025576200102462000ee4565b5b92915050565b7f5468657265206973206e6f2073616c6520616e6e6f756e63656d656e74000000600082015250565b600062001063601d8362000c2f565b915062001070826200102b565b602082019050919050565b60006020820190508181036000830152620010968162001054565b9050919050565b6000602082019050620010b4600083018462000dd0565b9291505056fe60806040523480156200001157600080fd5b50604051620015d7380380620015d783398181016040528101906200003791906200033e565b856000806101000a81548173ffffffffffffffffffffffffffffffffffffffff021916908373ffffffffffffffffffffffffffffffffffffffff16021790555086600160006101000a81548173ffffffffffffffffffffffffffffffffffffffff021916908373ffffffffffffffffffffffffffffffffffffffff1602179055508460049081620000c9919062000670565b508360059081620000db919062000670565b50826008819055508143620000f1919062000786565b6006819055508060098190555050505050505050620007c1565b6000604051905090565b600080fd5b600080fd5b600073ffffffffffffffffffffffffffffffffffffffff82169050919050565b60006200014c826200011f565b9050919050565b6200015e816200013f565b81146200016a57600080fd5b50565b6000815190506200017e8162000153565b92915050565b600080fd5b600080fd5b6000601f19601f8301169050919050565b7f4e487b7100000000000000000000000000000000000000000000000000000000600052604160045260246000fd5b620001d9826200018e565b810181811067ffffffffffffffff82111715620001fb57620001fa6200019f565b5b80604052505050565b6000620002106200010b565b90506200021e8282620001ce565b919050565b600067ffffffffffffffff8211156200024157620002406200019f565b5b6200024c826200018e565b9050602081019050919050565b60005b83811015620002795780820151818401526020810190506200025c565b60008484015250505050565b60006200029c620002968462000223565b62000204565b905082815260208101848484011115620002bb57620002ba62000189565b5b620002c884828562000259565b509392505050565b600082601f830112620002e857620002e762000184565b5b8151620002fa84826020860162000285565b91505092915050565b6000819050919050565b620003188162000303565b81146200032457600080fd5b50565b60008151905062000338816200030d565b92915050565b600080600080600080600060e0888a03121562000360576200035f62000115565b5b6000620003708a828b016200016d565b9750506020620003838a828b016200016d565b965050604088015167ffffffffffffffff811115620003a757620003a66200011a565b5b620003b58a828b01620002d0565b955050606088015167ffffffffffffffff811115620003d957620003d86200011a565b5b620003e78a828b01620002d0565b9450506080620003fa8a828b0162000327565b93505060a06200040d8a828b0162000327565b92505060c0620004208a828b0162000327565b91505092959891949750929550565b600081519050919050565b7f4e487b7100000000000000000000000000000000000000000000000000000000600052602260045260246000fd5b600060028204905060018216806200048257607f821691505b6020821081036200049857620004976200043a565b5b50919050565b60008190508160005260206000209050919050565b60006020601f8301049050919050565b600082821b905092915050565b600060088302620005027fffffffffffffffffffffffffffffffffffffffffffffffffffffffffffffffff82620004c3565b6200050e8683620004c3565b95508019841693508086168417925050509392505050565b6000819050919050565b6000620005516200054b620005458462000303565b62000526565b62000303565b9050919050565b6000819050919050565b6200056d8362000530565b620005856200057c8262000558565b848454620004d0565b825550505050565b600090565b6200059c6200058d565b620005a981848462000562565b505050565b5b81811015620005d157620005c560008262000592565b600181019050620005af565b5050565b601f8211156200062057620005ea816200049e565b620005f584620004b3565b8101602085101562000605578190505b6200061d6200061485620004b3565b830182620005ae565b50505b505050565b600082821c905092915050565b6000620006456000198460080262000625565b1980831691505092915050565b600062000660838362000632565b9150826002028217905092915050565b6200067b826200042f565b67ffffffffffffffff8111156200069757620006966200019f565b5b620006a3825462000469565b620006b0828285620005d5565b600060209050601f831160018114620006e85760008415620006d3578287015190505b620006df858262000652565b8655506200074f565b601f198416620006f8866200049e565b60005b828110156200072257848901518255600182019150602085019450602081019050620006fb565b868310156200074257848901516200073e601f89168262000632565b8355505b6001600288020188555050505b505050505050565b7f4e487b7100000000000000000000000000000000000000000000000000000000600052601160045260246000fd5b6000620007938262000303565b9150620007a08362000303565b9250828201905080821115620007bb57620007ba62000757565b5b92915050565b610e0680620007d16000396000f3fe6080604052600436106100385760003560e01c806312065fe014610087578063d873b3be146100b2578063e0e3671c146100e257610082565b36610082576100463361011f565b507f9602c9bf39185ec2fcbd124729acbf2b44ccdc503248b578822c3b2297ca757033346040516100789291906108ad565b60405180910390a1005b600080fd5b34801561009357600080fd5b5061009c610355565b6040516100a991906108d6565b60405180910390f35b6100cc60048036038101906100c79190610934565b61011f565b6040516100d9919061097c565b60405180910390f35b3480156100ee57600080fd5b50610109600480360381019061010491906109c3565b61035d565b604051610116919061097c565b60405180910390f35b6000600654431115610166576040517f08c379a000000000000000000000000000000000000000000000000000000000815260040161015d90610a4d565b60405180910390fd5b60085434116101aa576040517f08c379a00000000000000000000000000000000000000000000000000000000081526004016101a190610ab9565b60405180910390fd5b600073ffffffffffffffffffffffffffffffffffffffff16600260009054906101000a900473ffffffffffffffffffffffffffffffffffffffff1673ffffffffffffffffffffffffffffffffffffffff16146102c157600260009054906101000a900473ffffffffffffffffffffffffffffffffffffffff1673ffffffffffffffffffffffffffffffffffffffff166108fc6007549081150290604051600060405180830381858888f1935050505015801561026a573d6000803e3d6000fd5b5081600260006101000a81548173ffffffffffffffffffffffffffffffffffffffff021916908373ffffffffffffffffffffffffffffffffffffffff16021790555034600781905550600754600881905550610313565b81600260006101000a81548173ffffffffffffffffffffffffffffffffffffffff021916908373ffffffffffffffffffffffffffffffffffffffff160217905550346007819055506007546008819055505b7fee242ca320573fd3309d8cc97ef2994fe7704919768fc46f3332be6e9536d0de8234604051610344929190610b38565b60405180910390a160019050919050565b600047905090565b600081600360006101000a81548173ffffffffffffffffffffffffffffffffffffffff021916908373ffffffffffffffffffffffffffffffffffffffff1602179055506103a86103b2565b5060019050919050565b60008060009054906101000a900473ffffffffffffffffffffffffffffffffffffffff1673ffffffffffffffffffffffffffffffffffffffff16600360009054906101000a900473ffffffffffffffffffffffffffffffffffffffff1673ffffffffffffffffffffffffffffffffffffffff1614806104a05750600260009054906101000a900473ffffffffffffffffffffffffffffffffffffffff1673ffffffffffffffffffffffffffffffffffffffff16600360009054906101000a900473ffffffffffffffffffffffffffffffffffffffff1673ffffffffffffffffffffffffffffffffffffffff16145b6104df576040517f08c379a00000000000000000000000000000000000000000000000000000000081526004016104d690610bd3565b60405180910390fd5b600654431015610524576040517f08c379a000000000000000000000000000000000000000000000000000000000815260040161051b90610c3f565b60405180910390fd5b600073ffffffffffffffffffffffffffffffffffffffff16600260009054906101000a900473ffffffffffffffffffffffffffffffffffffffff1673ffffffffffffffffffffffffffffffffffffffff16036105b5576040517f08c379a00000000000000000000000000000000000000000000000000000000081526004016105ac90610cab565b60405180910390fd5b60006105bf610355565b905060006064600954836105d39190610cfa565b6105dd9190610d6b565b9050600081836105ed9190610d9c565b90506105f882610791565b60008054906101000a900473ffffffffffffffffffffffffffffffffffffffff1673ffffffffffffffffffffffffffffffffffffffff166108fc829081150290604051600060405180830381858888f1935050505015801561065e573d6000803e3d6000fd5b50600160009054906101000a900473ffffffffffffffffffffffffffffffffffffffff1673ffffffffffffffffffffffffffffffffffffffff166108fc839081150290604051600060405180830381858888f193505050501580156106c7573d6000803e3d6000fd5b50600260009054906101000a900473ffffffffffffffffffffffffffffffffffffffff166000806101000a81548173ffffffffffffffffffffffffffffffffffffffff021916908373ffffffffffffffffffffffffffffffffffffffff1602179055507f5b0833cc9b85dfe4167c39867467dbdef9a05060318b433fd5759b5dca79ba7f600260009054906101000a900473ffffffffffffffffffffffffffffffffffffffff1660075460405161077f929190610b38565b60405180910390a16001935050505090565b610827816040516024016107a591906108d6565b6040516020818303038152906040527ff82c50f1000000000000000000000000000000000000000000000000000000007bffffffffffffffffffffffffffffffffffffffffffffffffffffffff19166020820180517bffffffffffffffffffffffffffffffffffffffffffffffffffffffff838183161783525050505061082a565b50565b60008151905060006a636f6e736f6c652e6c6f679050602083016000808483855afa5050505050565b600073ffffffffffffffffffffffffffffffffffffffff82169050919050565b600061087e82610853565b9050919050565b61088e81610873565b82525050565b6000819050919050565b6108a781610894565b82525050565b60006040820190506108c26000830185610885565b6108cf602083018461089e565b9392505050565b60006020820190506108eb600083018461089e565b92915050565b600080fd5b600061090182610853565b9050919050565b610911816108f6565b811461091c57600080fd5b50565b60008135905061092e81610908565b92915050565b60006020828403121561094a576109496108f1565b5b60006109588482850161091f565b91505092915050565b60008115159050919050565b61097681610961565b82525050565b6000602082019050610991600083018461096d565b92915050565b6109a081610873565b81146109ab57600080fd5b50565b6000813590506109bd81610997565b92915050565b6000602082840312156109d9576109d86108f1565b5b60006109e7848285016109ae565b91505092915050565b600082825260208201905092915050565b7f41756374696f6e20636c6f736564000000000000000000000000000000000000600082015250565b6000610a37600e836109f0565b9150610a4282610a01565b602082019050919050565b60006020820190508181036000830152610a6681610a2a565b9050919050565b7f596f7572206f6666657220697320746f6f206c6f770000000000000000000000600082015250565b6000610aa36015836109f0565b9150610aae82610a6d565b602082019050919050565b60006020820190508181036000830152610ad281610a96565b9050919050565b6000819050919050565b6000610afe610af9610af484610853565b610ad9565b610853565b9050919050565b6000610b1082610ae3565b9050919050565b6000610b2282610b05565b9050919050565b610b3281610b17565b82525050565b6000604082019050610b4d6000830185610b29565b610b5a602083018461089e565b9392505050565b7f596f7520617265206e6f74207468652073656e646572206f662074686520736160008201527f6c65206e6f74696365206f722074686520686967686573742062696464657200602082015250565b6000610bbd603f836109f0565b9150610bc882610b61565b604082019050919050565b60006020820190508181036000830152610bec81610bb0565b9050919050565b7f5468652061756374696f6e206973207374696c6c2072756e6e696e6700000000600082015250565b6000610c29601c836109f0565b9150610c3482610bf3565b602082019050919050565b60006020820190508181036000830152610c5881610c1c565b9050919050565b7f4e6f206f6e652073686f75746564207468652070726f64756374000000000000600082015250565b6000610c95601a836109f0565b9150610ca082610c5f565b602082019050919050565b60006020820190508181036000830152610cc481610c88565b9050919050565b7f4e487b7100000000000000000000000000000000000000000000000000000000600052601160045260246000fd5b6000610d0582610894565b9150610d1083610894565b9250828202610d1e81610894565b91508282048414831517610d3557610d34610ccb565b5b5092915050565b7f4e487b7100000000000000000000000000000000000000000000000000000000600052601260045260246000fd5b6000610d7682610894565b9150610d8183610894565b925082610d9157610d90610d3c565b5b828204905092915050565b6000610da782610894565b9150610db283610894565b9250828203905081811115610dca57610dc9610ccb565b5b9291505056fea2646970667358221220c9be3fca815a267828bd41953ba261566f00a7a22d418ed6003b8361837d1fab64736f6c63430008110033a2646970667358221220046e2abf590f8c4fc4dd6739eab36b0ce33482773381a7013d9ae73f86f7195a64736f6c63430008110033",
			"opcodes": "PUSH1 0x80 PUSH1 0x40 MSTORE PUSH1 0x0 PUSH1 0x4 SSTORE CALLVALUE DUP1 ISZERO PUSH2 0x15 JUMPI PUSH1 0x0 DUP1 REVERT JUMPDEST POP CALLER PUSH1 0x1 PUSH1 0x0 PUSH2 0x100 EXP DUP2 SLOAD DUP2 PUSH20 0xFFFFFFFFFFFFFFFFFFFFFFFFFFFFFFFFFFFFFFFF MUL NOT AND SWAP1 DUP4 PUSH20 0xFFFFFFFFFFFFFFFFFFFFFFFFFFFFFFFFFFFFFFFF AND MUL OR SWAP1 SSTORE POP ADDRESS PUSH1 0x2 PUSH1 0x0 PUSH2 0x100 EXP DUP2 SLOAD DUP2 PUSH20 0xFFFFFFFFFFFFFFFFFFFFFFFFFFFFFFFFFFFFFFFF MUL NOT AND SWAP1 DUP4 PUSH20 0xFFFFFFFFFFFFFFFFFFFFFFFFFFFFFFFFFFFFFFFF AND MUL OR SWAP1 SSTORE POP PUSH1 0x5 PUSH1 0x3 DUP2 SWAP1 SSTORE POP PUSH2 0x26C7 DUP1 PUSH2 0xAF PUSH1 0x0 CODECOPY PUSH1 0x0 RETURN INVALID PUSH1 0x80 PUSH1 0x40 MSTORE PUSH1 0x4 CALLDATASIZE LT PUSH3 0x7F JUMPI PUSH1 0x0 CALLDATALOAD PUSH1 0xE0 SHR DUP1 PUSH4 0xA71060DD GT PUSH3 0x55 JUMPI DUP1 PUSH4 0xA71060DD EQ PUSH3 0x130 JUMPI DUP1 PUSH4 0xD16CDAE1 EQ PUSH3 0x15E JUMPI DUP1 PUSH4 0xE511BEEC EQ PUSH3 0x1A2 JUMPI DUP1 PUSH4 0xE6624E03 EQ PUSH3 0x1D0 JUMPI PUSH3 0x87 JUMP JUMPDEST DUP1 PUSH4 0x12065FE0 EQ PUSH3 0x8C JUMPI DUP1 PUSH4 0x413FEEC6 EQ PUSH3 0xBC JUMPI DUP1 PUSH4 0x98FD1987 EQ PUSH3 0x100 JUMPI PUSH3 0x87 JUMP JUMPDEST CALLDATASIZE PUSH3 0x87 JUMPI STOP JUMPDEST PUSH1 0x0 DUP1 REVERT JUMPDEST CALLVALUE DUP1 ISZERO PUSH3 0x99 JUMPI PUSH1 0x0 DUP1 REVERT JUMPDEST POP PUSH3 0xA4 PUSH3 0x1F0 JUMP JUMPDEST PUSH1 0x40 MLOAD PUSH3 0xB3 SWAP2 SWAP1 PUSH3 0x875 JUMP JUMPDEST PUSH1 0x40 MLOAD DUP1 SWAP2 SUB SWAP1 RETURN JUMPDEST CALLVALUE DUP1 ISZERO PUSH3 0xC9 JUMPI PUSH1 0x0 DUP1 REVERT JUMPDEST POP PUSH3 0xE8 PUSH1 0x4 DUP1 CALLDATASIZE SUB DUP2 ADD SWAP1 PUSH3 0xE2 SWAP2 SWAP1 PUSH3 0x8D7 JUMP JUMPDEST PUSH3 0x28B JUMP JUMPDEST PUSH1 0x40 MLOAD PUSH3 0xF7 SWAP2 SWAP1 PUSH3 0x926 JUMP JUMPDEST PUSH1 0x40 MLOAD DUP1 SWAP2 SUB SWAP1 RETURN JUMPDEST CALLVALUE DUP1 ISZERO PUSH3 0x10D JUMPI PUSH1 0x0 DUP1 REVERT JUMPDEST POP PUSH3 0x118 PUSH3 0x3B0 JUMP JUMPDEST PUSH1 0x40 MLOAD PUSH3 0x127 SWAP2 SWAP1 PUSH3 0x926 JUMP JUMPDEST PUSH1 0x40 MLOAD DUP1 SWAP2 SUB SWAP1 RETURN JUMPDEST CALLVALUE DUP1 ISZERO PUSH3 0x13D JUMPI PUSH1 0x0 DUP1 REVERT JUMPDEST POP PUSH3 0x15C PUSH1 0x4 DUP1 CALLDATASIZE SUB DUP2 ADD SWAP1 PUSH3 0x156 SWAP2 SWAP1 PUSH3 0xAA5 JUMP JUMPDEST PUSH3 0x50E JUMP JUMPDEST STOP JUMPDEST CALLVALUE DUP1 ISZERO PUSH3 0x16B JUMPI PUSH1 0x0 DUP1 REVERT JUMPDEST POP PUSH3 0x18A PUSH1 0x4 DUP1 CALLDATASIZE SUB DUP2 ADD SWAP1 PUSH3 0x184 SWAP2 SWAP1 PUSH3 0x8D7 JUMP JUMPDEST PUSH3 0x62A JUMP JUMPDEST PUSH1 0x40 MLOAD PUSH3 0x199 SWAP2 SWAP1 PUSH3 0xB9A JUMP JUMPDEST PUSH1 0x40 MLOAD DUP1 SWAP2 SUB SWAP1 RETURN JUMPDEST CALLVALUE DUP1 ISZERO PUSH3 0x1AF JUMPI PUSH1 0x0 DUP1 REVERT JUMPDEST POP PUSH3 0x1CE PUSH1 0x4 DUP1 CALLDATASIZE SUB DUP2 ADD SWAP1 PUSH3 0x1C8 SWAP2 SWAP1 PUSH3 0xBE8 JUMP JUMPDEST PUSH3 0x66B JUMP JUMPDEST STOP JUMPDEST PUSH3 0x1EE PUSH1 0x4 DUP1 CALLDATASIZE SUB DUP2 ADD SWAP1 PUSH3 0x1E8 SWAP2 SWAP1 PUSH3 0x8D7 JUMP JUMPDEST PUSH3 0x729 JUMP JUMPDEST STOP JUMPDEST PUSH1 0x0 PUSH1 0x1 PUSH1 0x0 SWAP1 SLOAD SWAP1 PUSH2 0x100 EXP SWAP1 DIV PUSH20 0xFFFFFFFFFFFFFFFFFFFFFFFFFFFFFFFFFFFFFFFF AND PUSH20 0xFFFFFFFFFFFFFFFFFFFFFFFFFFFFFFFFFFFFFFFF AND CALLER PUSH20 0xFFFFFFFFFFFFFFFFFFFFFFFFFFFFFFFFFFFFFFFF AND EQ PUSH3 0x285 JUMPI PUSH1 0x40 MLOAD PUSH32 0x8C379A000000000000000000000000000000000000000000000000000000000 DUP2 MSTORE PUSH1 0x4 ADD PUSH3 0x27C SWAP1 PUSH3 0xC90 JUMP JUMPDEST PUSH1 0x40 MLOAD DUP1 SWAP2 SUB SWAP1 REVERT JUMPDEST SELFBALANCE SWAP1 POP SWAP1 JUMP JUMPDEST PUSH1 0x0 PUSH1 0x1 PUSH1 0x0 SWAP1 SLOAD SWAP1 PUSH2 0x100 EXP SWAP1 DIV PUSH20 0xFFFFFFFFFFFFFFFFFFFFFFFFFFFFFFFFFFFFFFFF AND PUSH20 0xFFFFFFFFFFFFFFFFFFFFFFFFFFFFFFFFFFFFFFFF AND CALLER PUSH20 0xFFFFFFFFFFFFFFFFFFFFFFFFFFFFFFFFFFFFFFFF AND EQ PUSH3 0x320 JUMPI PUSH1 0x40 MLOAD PUSH32 0x8C379A000000000000000000000000000000000000000000000000000000000 DUP2 MSTORE PUSH1 0x4 ADD PUSH3 0x317 SWAP1 PUSH3 0xC90 JUMP JUMPDEST PUSH1 0x40 MLOAD DUP1 SWAP2 SUB SWAP1 REVERT JUMPDEST PUSH1 0x19 DUP3 GT ISZERO PUSH3 0x367 JUMPI PUSH1 0x40 MLOAD PUSH32 0x8C379A000000000000000000000000000000000000000000000000000000000 DUP2 MSTORE PUSH1 0x4 ADD PUSH3 0x35E SWAP1 PUSH3 0xD28 JUMP JUMPDEST PUSH1 0x40 MLOAD DUP1 SWAP2 SUB SWAP1 REVERT JUMPDEST DUP2 PUSH1 0x3 DUP2 SWAP1 SSTORE POP PUSH32 0xC7DCF55FD82EA00D1AB32899391D8611395CF59D4AFB80F87A51C9F671EE4326 DUP3 PUSH1 0x40 MLOAD PUSH3 0x39F SWAP2 SWAP1 PUSH3 0x875 JUMP JUMPDEST PUSH1 0x40 MLOAD DUP1 SWAP2 SUB SWAP1 LOG1 PUSH1 0x1 SWAP1 POP SWAP2 SWAP1 POP JUMP JUMPDEST PUSH1 0x0 PUSH1 0x1 PUSH1 0x0 SWAP1 SLOAD SWAP1 PUSH2 0x100 EXP SWAP1 DIV PUSH20 0xFFFFFFFFFFFFFFFFFFFFFFFFFFFFFFFFFFFFFFFF AND PUSH20 0xFFFFFFFFFFFFFFFFFFFFFFFFFFFFFFFFFFFFFFFF AND CALLER PUSH20 0xFFFFFFFFFFFFFFFFFFFFFFFFFFFFFFFFFFFFFFFF AND EQ PUSH3 0x445 JUMPI PUSH1 0x40 MLOAD PUSH32 0x8C379A000000000000000000000000000000000000000000000000000000000 DUP2 MSTORE PUSH1 0x4 ADD PUSH3 0x43C SWAP1 PUSH3 0xC90 JUMP JUMPDEST PUSH1 0x40 MLOAD DUP1 SWAP2 SUB SWAP1 REVERT JUMPDEST PUSH1 0x0 PUSH3 0x451 PUSH3 0x1F0 JUMP JUMPDEST GT PUSH3 0x494 JUMPI PUSH1 0x40 MLOAD PUSH32 0x8C379A000000000000000000000000000000000000000000000000000000000 DUP2 MSTORE PUSH1 0x4 ADD PUSH3 0x48B SWAP1 PUSH3 0xD9A JUMP JUMPDEST PUSH1 0x40 MLOAD DUP1 SWAP2 SUB SWAP1 REVERT JUMPDEST PUSH1 0x1 PUSH1 0x0 SWAP1 SLOAD SWAP1 PUSH2 0x100 EXP SWAP1 DIV PUSH20 0xFFFFFFFFFFFFFFFFFFFFFFFFFFFFFFFFFFFFFFFF AND PUSH20 0xFFFFFFFFFFFFFFFFFFFFFFFFFFFFFFFFFFFFFFFF AND PUSH2 0x8FC PUSH3 0x4DA PUSH3 0x1F0 JUMP JUMPDEST SWAP1 DUP2 ISZERO MUL SWAP1 PUSH1 0x40 MLOAD PUSH1 0x0 PUSH1 0x40 MLOAD DUP1 DUP4 SUB DUP2 DUP6 DUP9 DUP9 CALL SWAP4 POP POP POP POP ISZERO DUP1 ISZERO PUSH3 0x506 JUMPI RETURNDATASIZE PUSH1 0x0 DUP1 RETURNDATACOPY RETURNDATASIZE PUSH1 0x0 REVERT JUMPDEST POP PUSH1 0x1 SWAP1 POP SWAP1 JUMP JUMPDEST PUSH1 0x0 PUSH1 0x2 PUSH1 0x0 SWAP1 SLOAD SWAP1 PUSH2 0x100 EXP SWAP1 DIV PUSH20 0xFFFFFFFFFFFFFFFFFFFFFFFFFFFFFFFFFFFFFFFF AND CALLER DUP7 DUP7 DUP7 DUP7 PUSH1 0x3 SLOAD PUSH1 0x40 MLOAD PUSH3 0x549 SWAP1 PUSH3 0x84C JUMP JUMPDEST PUSH3 0x55B SWAP8 SWAP7 SWAP6 SWAP5 SWAP4 SWAP3 SWAP2 SWAP1 PUSH3 0xE59 JUMP JUMPDEST PUSH1 0x40 MLOAD DUP1 SWAP2 SUB SWAP1 PUSH1 0x0 CREATE DUP1 ISZERO DUP1 ISZERO PUSH3 0x578 JUMPI RETURNDATASIZE PUSH1 0x0 DUP1 RETURNDATACOPY RETURNDATASIZE PUSH1 0x0 REVERT JUMPDEST POP SWAP1 POP DUP1 PUSH1 0x0 DUP1 PUSH1 0x4 SLOAD DUP2 MSTORE PUSH1 0x20 ADD SWAP1 DUP2 MSTORE PUSH1 0x20 ADD PUSH1 0x0 KECCAK256 PUSH1 0x0 PUSH2 0x100 EXP DUP2 SLOAD DUP2 PUSH20 0xFFFFFFFFFFFFFFFFFFFFFFFFFFFFFFFFFFFFFFFF MUL NOT AND SWAP1 DUP4 PUSH20 0xFFFFFFFFFFFFFFFFFFFFFFFFFFFFFFFFFFFFFFFF AND MUL OR SWAP1 SSTORE POP PUSH1 0x4 PUSH1 0x0 DUP2 SLOAD DUP1 SWAP3 SWAP2 SWAP1 PUSH3 0x5E3 SWAP1 PUSH3 0xF13 JUMP JUMPDEST SWAP2 SWAP1 POP SSTORE POP PUSH32 0xE6146232287030D976116A9D870A339E3A1620F43188C6ADCDBA72A726D9D030 CALLER DUP3 PUSH1 0x40 MLOAD PUSH3 0x61B SWAP3 SWAP2 SWAP1 PUSH3 0xF60 JUMP JUMPDEST PUSH1 0x40 MLOAD DUP1 SWAP2 SUB SWAP1 LOG1 POP POP POP POP POP JUMP JUMPDEST PUSH1 0x0 DUP1 PUSH1 0x0 DUP1 DUP5 DUP2 MSTORE PUSH1 0x20 ADD SWAP1 DUP2 MSTORE PUSH1 0x20 ADD PUSH1 0x0 KECCAK256 PUSH1 0x0 SWAP1 SLOAD SWAP1 PUSH2 0x100 EXP SWAP1 DIV PUSH20 0xFFFFFFFFFFFFFFFFFFFFFFFFFFFFFFFFFFFFFFFF AND SWAP1 POP DUP1 SWAP2 POP POP SWAP2 SWAP1 POP JUMP JUMPDEST PUSH1 0x0 DUP1 PUSH1 0x0 DUP4 DUP2 MSTORE PUSH1 0x20 ADD SWAP1 DUP2 MSTORE PUSH1 0x20 ADD PUSH1 0x0 KECCAK256 PUSH1 0x0 SWAP1 SLOAD SWAP1 PUSH2 0x100 EXP SWAP1 DIV PUSH20 0xFFFFFFFFFFFFFFFFFFFFFFFFFFFFFFFFFFFFFFFF AND SWAP1 POP DUP1 PUSH20 0xFFFFFFFFFFFFFFFFFFFFFFFFFFFFFFFFFFFFFFFF AND PUSH4 0xE0E3671C DUP5 PUSH1 0x40 MLOAD DUP3 PUSH4 0xFFFFFFFF AND PUSH1 0xE0 SHL DUP2 MSTORE PUSH1 0x4 ADD PUSH3 0x6DD SWAP2 SWAP1 PUSH3 0xB9A JUMP JUMPDEST PUSH1 0x20 PUSH1 0x40 MLOAD DUP1 DUP4 SUB DUP2 PUSH1 0x0 DUP8 GAS CALL ISZERO DUP1 ISZERO PUSH3 0x6FD JUMPI RETURNDATASIZE PUSH1 0x0 DUP1 RETURNDATACOPY RETURNDATASIZE PUSH1 0x0 REVERT JUMPDEST POP POP POP POP PUSH1 0x40 MLOAD RETURNDATASIZE PUSH1 0x1F NOT PUSH1 0x1F DUP3 ADD AND DUP3 ADD DUP1 PUSH1 0x40 MSTORE POP DUP2 ADD SWAP1 PUSH3 0x723 SWAP2 SWAP1 PUSH3 0xFBE JUMP JUMPDEST POP POP POP POP JUMP JUMPDEST PUSH1 0x0 PUSH1 0x4 SLOAD GT DUP1 ISZERO PUSH3 0x74C JUMPI POP PUSH1 0x1 PUSH1 0x4 SLOAD PUSH3 0x748 SWAP2 SWAP1 PUSH3 0xFF0 JUMP JUMPDEST DUP2 GT ISZERO JUMPDEST PUSH3 0x78E JUMPI PUSH1 0x40 MLOAD PUSH32 0x8C379A000000000000000000000000000000000000000000000000000000000 DUP2 MSTORE PUSH1 0x4 ADD PUSH3 0x785 SWAP1 PUSH3 0x107B JUMP JUMPDEST PUSH1 0x40 MLOAD DUP1 SWAP2 SUB SWAP1 REVERT JUMPDEST PUSH1 0x0 DUP1 PUSH1 0x0 DUP4 DUP2 MSTORE PUSH1 0x20 ADD SWAP1 DUP2 MSTORE PUSH1 0x20 ADD PUSH1 0x0 KECCAK256 PUSH1 0x0 SWAP1 SLOAD SWAP1 PUSH2 0x100 EXP SWAP1 DIV PUSH20 0xFFFFFFFFFFFFFFFFFFFFFFFFFFFFFFFFFFFFFFFF AND SWAP1 POP DUP1 PUSH20 0xFFFFFFFFFFFFFFFFFFFFFFFFFFFFFFFFFFFFFFFF AND PUSH4 0xD873B3BE CALLVALUE CALLER PUSH1 0x40 MLOAD DUP4 PUSH4 0xFFFFFFFF AND PUSH1 0xE0 SHL DUP2 MSTORE PUSH1 0x4 ADD PUSH3 0x801 SWAP2 SWAP1 PUSH3 0x109D JUMP JUMPDEST PUSH1 0x20 PUSH1 0x40 MLOAD DUP1 DUP4 SUB DUP2 DUP6 DUP9 GAS CALL ISZERO DUP1 ISZERO PUSH3 0x820 JUMPI RETURNDATASIZE PUSH1 0x0 DUP1 RETURNDATACOPY RETURNDATASIZE PUSH1 0x0 REVERT JUMPDEST POP POP POP POP POP PUSH1 0x40 MLOAD RETURNDATASIZE PUSH1 0x1F NOT PUSH1 0x1F DUP3 ADD AND DUP3 ADD DUP1 PUSH1 0x40 MSTORE POP DUP2 ADD SWAP1 PUSH3 0x847 SWAP2 SWAP1 PUSH3 0xFBE JUMP JUMPDEST POP POP POP JUMP JUMPDEST PUSH2 0x15D7 DUP1 PUSH3 0x10BB DUP4 CODECOPY ADD SWAP1 JUMP JUMPDEST PUSH1 0x0 DUP2 SWAP1 POP SWAP2 SWAP1 POP JUMP JUMPDEST PUSH3 0x86F DUP2 PUSH3 0x85A JUMP JUMPDEST DUP3 MSTORE POP POP JUMP JUMPDEST PUSH1 0x0 PUSH1 0x20 DUP3 ADD SWAP1 POP PUSH3 0x88C PUSH1 0x0 DUP4 ADD DUP5 PUSH3 0x864 JUMP JUMPDEST SWAP3 SWAP2 POP POP JUMP JUMPDEST PUSH1 0x0 PUSH1 0x40 MLOAD SWAP1 POP SWAP1 JUMP JUMPDEST PUSH1 0x0 DUP1 REVERT JUMPDEST PUSH1 0x0 DUP1 REVERT JUMPDEST PUSH3 0x8B1 DUP2 PUSH3 0x85A JUMP JUMPDEST DUP2 EQ PUSH3 0x8BD JUMPI PUSH1 0x0 DUP1 REVERT JUMPDEST POP JUMP JUMPDEST PUSH1 0x0 DUP2 CALLDATALOAD SWAP1 POP PUSH3 0x8D1 DUP2 PUSH3 0x8A6 JUMP JUMPDEST SWAP3 SWAP2 POP POP JUMP JUMPDEST PUSH1 0x0 PUSH1 0x20 DUP3 DUP5 SUB SLT ISZERO PUSH3 0x8F0 JUMPI PUSH3 0x8EF PUSH3 0x89C JUMP JUMPDEST JUMPDEST PUSH1 0x0 PUSH3 0x900 DUP5 DUP3 DUP6 ADD PUSH3 0x8C0 JUMP JUMPDEST SWAP2 POP POP SWAP3 SWAP2 POP POP JUMP JUMPDEST PUSH1 0x0 DUP2 ISZERO ISZERO SWAP1 POP SWAP2 SWAP1 POP JUMP JUMPDEST PUSH3 0x920 DUP2 PUSH3 0x909 JUMP JUMPDEST DUP3 MSTORE POP POP JUMP JUMPDEST PUSH1 0x0 PUSH1 0x20 DUP3 ADD SWAP1 POP PUSH3 0x93D PUSH1 0x0 DUP4 ADD DUP5 PUSH3 0x915 JUMP JUMPDEST SWAP3 SWAP2 POP POP JUMP JUMPDEST PUSH1 0x0 DUP1 REVERT JUMPDEST PUSH1 0x0 DUP1 REVERT JUMPDEST PUSH1 0x0 PUSH1 0x1F NOT PUSH1 0x1F DUP4 ADD AND SWAP1 POP SWAP2 SWAP1 POP JUMP JUMPDEST PUSH32 0x4E487B7100000000000000000000000000000000000000000000000000000000 PUSH1 0x0 MSTORE PUSH1 0x41 PUSH1 0x4 MSTORE PUSH1 0x24 PUSH1 0x0 REVERT JUMPDEST PUSH3 0x998 DUP3 PUSH3 0x94D JUMP JUMPDEST DUP2 ADD DUP2 DUP2 LT PUSH8 0xFFFFFFFFFFFFFFFF DUP3 GT OR ISZERO PUSH3 0x9BA JUMPI PUSH3 0x9B9 PUSH3 0x95E JUMP JUMPDEST JUMPDEST DUP1 PUSH1 0x40 MSTORE POP POP POP JUMP JUMPDEST PUSH1 0x0 PUSH3 0x9CF PUSH3 0x892 JUMP JUMPDEST SWAP1 POP PUSH3 0x9DD DUP3 DUP3 PUSH3 0x98D JUMP JUMPDEST SWAP2 SWAP1 POP JUMP JUMPDEST PUSH1 0x0 PUSH8 0xFFFFFFFFFFFFFFFF DUP3 GT ISZERO PUSH3 0xA00 JUMPI PUSH3 0x9FF PUSH3 0x95E JUMP JUMPDEST JUMPDEST PUSH3 0xA0B DUP3 PUSH3 0x94D JUMP JUMPDEST SWAP1 POP PUSH1 0x20 DUP2 ADD SWAP1 POP SWAP2 SWAP1 POP JUMP JUMPDEST DUP3 DUP2 DUP4 CALLDATACOPY PUSH1 0x0 DUP4 DUP4 ADD MSTORE POP POP POP JUMP JUMPDEST PUSH1 0x0 PUSH3 0xA3E PUSH3 0xA38 DUP5 PUSH3 0x9E2 JUMP JUMPDEST PUSH3 0x9C3 JUMP JUMPDEST SWAP1 POP DUP3 DUP2 MSTORE PUSH1 0x20 DUP2 ADD DUP5 DUP5 DUP5 ADD GT ISZERO PUSH3 0xA5D JUMPI PUSH3 0xA5C PUSH3 0x948 JUMP JUMPDEST JUMPDEST PUSH3 0xA6A DUP5 DUP3 DUP6 PUSH3 0xA18 JUMP JUMPDEST POP SWAP4 SWAP3 POP POP POP JUMP JUMPDEST PUSH1 0x0 DUP3 PUSH1 0x1F DUP4 ADD SLT PUSH3 0xA8A JUMPI PUSH3 0xA89 PUSH3 0x943 JUMP JUMPDEST JUMPDEST DUP2 CALLDATALOAD PUSH3 0xA9C DUP5 DUP3 PUSH1 0x20 DUP7 ADD PUSH3 0xA27 JUMP JUMPDEST SWAP2 POP POP SWAP3 SWAP2 POP POP JUMP JUMPDEST PUSH1 0x0 DUP1 PUSH1 0x0 DUP1 PUSH1 0x80 DUP6 DUP8 SUB SLT ISZERO PUSH3 0xAC2 JUMPI PUSH3 0xAC1 PUSH3 0x89C JUMP JUMPDEST JUMPDEST PUSH1 0x0 DUP6 ADD CALLDATALOAD PUSH8 0xFFFFFFFFFFFFFFFF DUP2 GT ISZERO PUSH3 0xAE3 JUMPI PUSH3 0xAE2 PUSH3 0x8A1 JUMP JUMPDEST JUMPDEST PUSH3 0xAF1 DUP8 DUP3 DUP9 ADD PUSH3 0xA72 JUMP JUMPDEST SWAP5 POP POP PUSH1 0x20 DUP6 ADD CALLDATALOAD PUSH8 0xFFFFFFFFFFFFFFFF DUP2 GT ISZERO PUSH3 0xB15 JUMPI PUSH3 0xB14 PUSH3 0x8A1 JUMP JUMPDEST JUMPDEST PUSH3 0xB23 DUP8 DUP3 DUP9 ADD PUSH3 0xA72 JUMP JUMPDEST SWAP4 POP POP PUSH1 0x40 PUSH3 0xB36 DUP8 DUP3 DUP9 ADD PUSH3 0x8C0 JUMP JUMPDEST SWAP3 POP POP PUSH1 0x60 PUSH3 0xB49 DUP8 DUP3 DUP9 ADD PUSH3 0x8C0 JUMP JUMPDEST SWAP2 POP POP SWAP3 SWAP6 SWAP2 SWAP5 POP SWAP3 POP JUMP JUMPDEST PUSH1 0x0 PUSH20 0xFFFFFFFFFFFFFFFFFFFFFFFFFFFFFFFFFFFFFFFF DUP3 AND SWAP1 POP SWAP2 SWAP1 POP JUMP JUMPDEST PUSH1 0x0 PUSH3 0xB82 DUP3 PUSH3 0xB55 JUMP JUMPDEST SWAP1 POP SWAP2 SWAP1 POP JUMP JUMPDEST PUSH3 0xB94 DUP2 PUSH3 0xB75 JUMP JUMPDEST DUP3 MSTORE POP POP JUMP JUMPDEST PUSH1 0x0 PUSH1 0x20 DUP3 ADD SWAP1 POP PUSH3 0xBB1 PUSH1 0x0 DUP4 ADD DUP5 PUSH3 0xB89 JUMP JUMPDEST SWAP3 SWAP2 POP POP JUMP JUMPDEST PUSH3 0xBC2 DUP2 PUSH3 0xB75 JUMP JUMPDEST DUP2 EQ PUSH3 0xBCE JUMPI PUSH1 0x0 DUP1 REVERT JUMPDEST POP JUMP JUMPDEST PUSH1 0x0 DUP2 CALLDATALOAD SWAP1 POP PUSH3 0xBE2 DUP2 PUSH3 0xBB7 JUMP JUMPDEST SWAP3 SWAP2 POP POP JUMP JUMPDEST PUSH1 0x0 DUP1 PUSH1 0x40 DUP4 DUP6 SUB SLT ISZERO PUSH3 0xC02 JUMPI PUSH3 0xC01 PUSH3 0x89C JUMP JUMPDEST JUMPDEST PUSH1 0x0 PUSH3 0xC12 DUP6 DUP3 DUP7 ADD PUSH3 0xBD1 JUMP JUMPDEST SWAP3 POP POP PUSH1 0x20 PUSH3 0xC25 DUP6 DUP3 DUP7 ADD PUSH3 0x8C0 JUMP JUMPDEST SWAP2 POP POP SWAP3 POP SWAP3 SWAP1 POP JUMP JUMPDEST PUSH1 0x0 DUP3 DUP3 MSTORE PUSH1 0x20 DUP3 ADD SWAP1 POP SWAP3 SWAP2 POP POP JUMP JUMPDEST PUSH32 0x4465636C696E652C20796F7520617265206E6F7420746865206F776E65720000 PUSH1 0x0 DUP3 ADD MSTORE POP JUMP JUMPDEST PUSH1 0x0 PUSH3 0xC78 PUSH1 0x1E DUP4 PUSH3 0xC2F JUMP JUMPDEST SWAP2 POP PUSH3 0xC85 DUP3 PUSH3 0xC40 JUMP JUMPDEST PUSH1 0x20 DUP3 ADD SWAP1 POP SWAP2 SWAP1 POP JUMP JUMPDEST PUSH1 0x0 PUSH1 0x20 DUP3 ADD SWAP1 POP DUP2 DUP2 SUB PUSH1 0x0 DUP4 ADD MSTORE PUSH3 0xCAB DUP2 PUSH3 0xC69 JUMP JUMPDEST SWAP1 POP SWAP2 SWAP1 POP JUMP JUMPDEST PUSH32 0x546865206D6178696D756D20616D6F756E74206F662074686520726577617264 PUSH1 0x0 DUP3 ADD MSTORE PUSH32 0x2069732032352500000000000000000000000000000000000000000000000000 PUSH1 0x20 DUP3 ADD MSTORE POP JUMP JUMPDEST PUSH1 0x0 PUSH3 0xD10 PUSH1 0x27 DUP4 PUSH3 0xC2F JUMP JUMPDEST SWAP2 POP PUSH3 0xD1D DUP3 PUSH3 0xCB2 JUMP JUMPDEST PUSH1 0x40 DUP3 ADD SWAP1 POP SWAP2 SWAP1 POP JUMP JUMPDEST PUSH1 0x0 PUSH1 0x20 DUP3 ADD SWAP1 POP DUP2 DUP2 SUB PUSH1 0x0 DUP4 ADD MSTORE PUSH3 0xD43 DUP2 PUSH3 0xD01 JUMP JUMPDEST SWAP1 POP SWAP2 SWAP1 POP JUMP JUMPDEST PUSH32 0x54686520636F6E747261637420686173206E6F20657468657265756D00000000 PUSH1 0x0 DUP3 ADD MSTORE POP JUMP JUMPDEST PUSH1 0x0 PUSH3 0xD82 PUSH1 0x1C DUP4 PUSH3 0xC2F JUMP JUMPDEST SWAP2 POP PUSH3 0xD8F DUP3 PUSH3 0xD4A JUMP JUMPDEST PUSH1 0x20 DUP3 ADD SWAP1 POP SWAP2 SWAP1 POP JUMP JUMPDEST PUSH1 0x0 PUSH1 0x20 DUP3 ADD SWAP1 POP DUP2 DUP2 SUB PUSH1 0x0 DUP4 ADD MSTORE PUSH3 0xDB5 DUP2 PUSH3 0xD73 JUMP JUMPDEST SWAP1 POP SWAP2 SWAP1 POP JUMP JUMPDEST PUSH1 0x0 PUSH3 0xDC9 DUP3 PUSH3 0xB55 JUMP JUMPDEST SWAP1 POP SWAP2 SWAP1 POP JUMP JUMPDEST PUSH3 0xDDB DUP2 PUSH3 0xDBC JUMP JUMPDEST DUP3 MSTORE POP POP JUMP JUMPDEST PUSH1 0x0 DUP2 MLOAD SWAP1 POP SWAP2 SWAP1 POP JUMP JUMPDEST PUSH1 0x0 JUMPDEST DUP4 DUP2 LT ISZERO PUSH3 0xE0C JUMPI DUP1 DUP3 ADD MLOAD DUP2 DUP5 ADD MSTORE PUSH1 0x20 DUP2 ADD SWAP1 POP PUSH3 0xDEF JUMP JUMPDEST PUSH1 0x0 DUP5 DUP5 ADD MSTORE POP POP POP POP JUMP JUMPDEST PUSH1 0x0 PUSH3 0xE25 DUP3 PUSH3 0xDE1 JUMP JUMPDEST PUSH3 0xE31 DUP2 DUP6 PUSH3 0xC2F JUMP JUMPDEST SWAP4 POP PUSH3 0xE43 DUP2 DUP6 PUSH1 0x20 DUP7 ADD PUSH3 0xDEC JUMP JUMPDEST PUSH3 0xE4E DUP2 PUSH3 0x94D JUMP JUMPDEST DUP5 ADD SWAP2 POP POP SWAP3 SWAP2 POP POP JUMP JUMPDEST PUSH1 0x0 PUSH1 0xE0 DUP3 ADD SWAP1 POP PUSH3 0xE70 PUSH1 0x0 DUP4 ADD DUP11 PUSH3 0xDD0 JUMP JUMPDEST PUSH3 0xE7F PUSH1 0x20 DUP4 ADD DUP10 PUSH3 0xDD0 JUMP JUMPDEST DUP2 DUP2 SUB PUSH1 0x40 DUP4 ADD MSTORE PUSH3 0xE93 DUP2 DUP9 PUSH3 0xE18 JUMP JUMPDEST SWAP1 POP DUP2 DUP2 SUB PUSH1 0x60 DUP4 ADD MSTORE PUSH3 0xEA9 DUP2 DUP8 PUSH3 0xE18 JUMP JUMPDEST SWAP1 POP PUSH3 0xEBA PUSH1 0x80 DUP4 ADD DUP7 PUSH3 0x864 JUMP JUMPDEST PUSH3 0xEC9 PUSH1 0xA0 DUP4 ADD DUP6 PUSH3 0x864 JUMP JUMPDEST PUSH3 0xED8 PUSH1 0xC0 DUP4 ADD DUP5 PUSH3 0x864 JUMP JUMPDEST SWAP9 SWAP8 POP POP POP POP POP POP POP POP JUMP JUMPDEST PUSH32 0x4E487B7100000000000000000000000000000000000000000000000000000000 PUSH1 0x0 MSTORE PUSH1 0x11 PUSH1 0x4 MSTORE PUSH1 0x24 PUSH1 0x0 REVERT JUMPDEST PUSH1 0x0 PUSH3 0xF20 DUP3 PUSH3 0x85A JUMP JUMPDEST SWAP2 POP PUSH32 0xFFFFFFFFFFFFFFFFFFFFFFFFFFFFFFFFFFFFFFFFFFFFFFFFFFFFFFFFFFFFFFFF DUP3 SUB PUSH3 0xF55 JUMPI PUSH3 0xF54 PUSH3 0xEE4 JUMP JUMPDEST JUMPDEST PUSH1 0x1 DUP3 ADD SWAP1 POP SWAP2 SWAP1 POP JUMP JUMPDEST PUSH1 0x0 PUSH1 0x40 DUP3 ADD SWAP1 POP PUSH3 0xF77 PUSH1 0x0 DUP4 ADD DUP6 PUSH3 0xB89 JUMP JUMPDEST PUSH3 0xF86 PUSH1 0x20 DUP4 ADD DUP5 PUSH3 0xB89 JUMP JUMPDEST SWAP4 SWAP3 POP POP POP JUMP JUMPDEST PUSH3 0xF98 DUP2 PUSH3 0x909 JUMP JUMPDEST DUP2 EQ PUSH3 0xFA4 JUMPI PUSH1 0x0 DUP1 REVERT JUMPDEST POP JUMP JUMPDEST PUSH1 0x0 DUP2 MLOAD SWAP1 POP PUSH3 0xFB8 DUP2 PUSH3 0xF8D JUMP JUMPDEST SWAP3 SWAP2 POP POP JUMP JUMPDEST PUSH1 0x0 PUSH1 0x20 DUP3 DUP5 SUB SLT ISZERO PUSH3 0xFD7 JUMPI PUSH3 0xFD6 PUSH3 0x89C JUMP JUMPDEST JUMPDEST PUSH1 0x0 PUSH3 0xFE7 DUP5 DUP3 DUP6 ADD PUSH3 0xFA7 JUMP JUMPDEST SWAP2 POP POP SWAP3 SWAP2 POP POP JUMP JUMPDEST PUSH1 0x0 PUSH3 0xFFD DUP3 PUSH3 0x85A JUMP JUMPDEST SWAP2 POP PUSH3 0x100A DUP4 PUSH3 0x85A JUMP JUMPDEST SWAP3 POP DUP3 DUP3 SUB SWAP1 POP DUP2 DUP2 GT ISZERO PUSH3 0x1025 JUMPI PUSH3 0x1024 PUSH3 0xEE4 JUMP JUMPDEST JUMPDEST SWAP3 SWAP2 POP POP JUMP JUMPDEST PUSH32 0x5468657265206973206E6F2073616C6520616E6E6F756E63656D656E74000000 PUSH1 0x0 DUP3 ADD MSTORE POP JUMP JUMPDEST PUSH1 0x0 PUSH3 0x1063 PUSH1 0x1D DUP4 PUSH3 0xC2F JUMP JUMPDEST SWAP2 POP PUSH3 0x1070 DUP3 PUSH3 0x102B JUMP JUMPDEST PUSH1 0x20 DUP3 ADD SWAP1 POP SWAP2 SWAP1 POP JUMP JUMPDEST PUSH1 0x0 PUSH1 0x20 DUP3 ADD SWAP1 POP DUP2 DUP2 SUB PUSH1 0x0 DUP4 ADD MSTORE PUSH3 0x1096 DUP2 PUSH3 0x1054 JUMP JUMPDEST SWAP1 POP SWAP2 SWAP1 POP JUMP JUMPDEST PUSH1 0x0 PUSH1 0x20 DUP3 ADD SWAP1 POP PUSH3 0x10B4 PUSH1 0x0 DUP4 ADD DUP5 PUSH3 0xDD0 JUMP JUMPDEST SWAP3 SWAP2 POP POP JUMP INVALID PUSH1 0x80 PUSH1 0x40 MSTORE CALLVALUE DUP1 ISZERO PUSH3 0x11 JUMPI PUSH1 0x0 DUP1 REVERT JUMPDEST POP PUSH1 0x40 MLOAD PUSH3 0x15D7 CODESIZE SUB DUP1 PUSH3 0x15D7 DUP4 CODECOPY DUP2 DUP2 ADD PUSH1 0x40 MSTORE DUP2 ADD SWAP1 PUSH3 0x37 SWAP2 SWAP1 PUSH3 0x33E JUMP JUMPDEST DUP6 PUSH1 0x0 DUP1 PUSH2 0x100 EXP DUP2 SLOAD DUP2 PUSH20 0xFFFFFFFFFFFFFFFFFFFFFFFFFFFFFFFFFFFFFFFF MUL NOT AND SWAP1 DUP4 PUSH20 0xFFFFFFFFFFFFFFFFFFFFFFFFFFFFFFFFFFFFFFFF AND MUL OR SWAP1 SSTORE POP DUP7 PUSH1 0x1 PUSH1 0x0 PUSH2 0x100 EXP DUP2 SLOAD DUP2 PUSH20 0xFFFFFFFFFFFFFFFFFFFFFFFFFFFFFFFFFFFFFFFF MUL NOT AND SWAP1 DUP4 PUSH20 0xFFFFFFFFFFFFFFFFFFFFFFFFFFFFFFFFFFFFFFFF AND MUL OR SWAP1 SSTORE POP DUP5 PUSH1 0x4 SWAP1 DUP2 PUSH3 0xC9 SWAP2 SWAP1 PUSH3 0x670 JUMP JUMPDEST POP DUP4 PUSH1 0x5 SWAP1 DUP2 PUSH3 0xDB SWAP2 SWAP1 PUSH3 0x670 JUMP JUMPDEST POP DUP3 PUSH1 0x8 DUP2 SWAP1 SSTORE POP DUP2 NUMBER PUSH3 0xF1 SWAP2 SWAP1 PUSH3 0x786 JUMP JUMPDEST PUSH1 0x6 DUP2 SWAP1 SSTORE POP DUP1 PUSH1 0x9 DUP2 SWAP1 SSTORE POP POP POP POP POP POP POP POP PUSH3 0x7C1 JUMP JUMPDEST PUSH1 0x0 PUSH1 0x40 MLOAD SWAP1 POP SWAP1 JUMP JUMPDEST PUSH1 0x0 DUP1 REVERT JUMPDEST PUSH1 0x0 DUP1 REVERT JUMPDEST PUSH1 0x0 PUSH20 0xFFFFFFFFFFFFFFFFFFFFFFFFFFFFFFFFFFFFFFFF DUP3 AND SWAP1 POP SWAP2 SWAP1 POP JUMP JUMPDEST PUSH1 0x0 PUSH3 0x14C DUP3 PUSH3 0x11F JUMP JUMPDEST SWAP1 POP SWAP2 SWAP1 POP JUMP JUMPDEST PUSH3 0x15E DUP2 PUSH3 0x13F JUMP JUMPDEST DUP2 EQ PUSH3 0x16A JUMPI PUSH1 0x0 DUP1 REVERT JUMPDEST POP JUMP JUMPDEST PUSH1 0x0 DUP2 MLOAD SWAP1 POP PUSH3 0x17E DUP2 PUSH3 0x153 JUMP JUMPDEST SWAP3 SWAP2 POP POP JUMP JUMPDEST PUSH1 0x0 DUP1 REVERT JUMPDEST PUSH1 0x0 DUP1 REVERT JUMPDEST PUSH1 0x0 PUSH1 0x1F NOT PUSH1 0x1F DUP4 ADD AND SWAP1 POP SWAP2 SWAP1 POP JUMP JUMPDEST PUSH32 0x4E487B7100000000000000000000000000000000000000000000000000000000 PUSH1 0x0 MSTORE PUSH1 0x41 PUSH1 0x4 MSTORE PUSH1 0x24 PUSH1 0x0 REVERT JUMPDEST PUSH3 0x1D9 DUP3 PUSH3 0x18E JUMP JUMPDEST DUP2 ADD DUP2 DUP2 LT PUSH8 0xFFFFFFFFFFFFFFFF DUP3 GT OR ISZERO PUSH3 0x1FB JUMPI PUSH3 0x1FA PUSH3 0x19F JUMP JUMPDEST JUMPDEST DUP1 PUSH1 0x40 MSTORE POP POP POP JUMP JUMPDEST PUSH1 0x0 PUSH3 0x210 PUSH3 0x10B JUMP JUMPDEST SWAP1 POP PUSH3 0x21E DUP3 DUP3 PUSH3 0x1CE JUMP JUMPDEST SWAP2 SWAP1 POP JUMP JUMPDEST PUSH1 0x0 PUSH8 0xFFFFFFFFFFFFFFFF DUP3 GT ISZERO PUSH3 0x241 JUMPI PUSH3 0x240 PUSH3 0x19F JUMP JUMPDEST JUMPDEST PUSH3 0x24C DUP3 PUSH3 0x18E JUMP JUMPDEST SWAP1 POP PUSH1 0x20 DUP2 ADD SWAP1 POP SWAP2 SWAP1 POP JUMP JUMPDEST PUSH1 0x0 JUMPDEST DUP4 DUP2 LT ISZERO PUSH3 0x279 JUMPI DUP1 DUP3 ADD MLOAD DUP2 DUP5 ADD MSTORE PUSH1 0x20 DUP2 ADD SWAP1 POP PUSH3 0x25C JUMP JUMPDEST PUSH1 0x0 DUP5 DUP5 ADD MSTORE POP POP POP POP JUMP JUMPDEST PUSH1 0x0 PUSH3 0x29C PUSH3 0x296 DUP5 PUSH3 0x223 JUMP JUMPDEST PUSH3 0x204 JUMP JUMPDEST SWAP1 POP DUP3 DUP2 MSTORE PUSH1 0x20 DUP2 ADD DUP5 DUP5 DUP5 ADD GT ISZERO PUSH3 0x2BB JUMPI PUSH3 0x2BA PUSH3 0x189 JUMP JUMPDEST JUMPDEST PUSH3 0x2C8 DUP5 DUP3 DUP6 PUSH3 0x259 JUMP JUMPDEST POP SWAP4 SWAP3 POP POP POP JUMP JUMPDEST PUSH1 0x0 DUP3 PUSH1 0x1F DUP4 ADD SLT PUSH3 0x2E8 JUMPI PUSH3 0x2E7 PUSH3 0x184 JUMP JUMPDEST JUMPDEST DUP2 MLOAD PUSH3 0x2FA DUP5 DUP3 PUSH1 0x20 DUP7 ADD PUSH3 0x285 JUMP JUMPDEST SWAP2 POP POP SWAP3 SWAP2 POP POP JUMP JUMPDEST PUSH1 0x0 DUP2 SWAP1 POP SWAP2 SWAP1 POP JUMP JUMPDEST PUSH3 0x318 DUP2 PUSH3 0x303 JUMP JUMPDEST DUP2 EQ PUSH3 0x324 JUMPI PUSH1 0x0 DUP1 REVERT JUMPDEST POP JUMP JUMPDEST PUSH1 0x0 DUP2 MLOAD SWAP1 POP PUSH3 0x338 DUP2 PUSH3 0x30D JUMP JUMPDEST SWAP3 SWAP2 POP POP JUMP JUMPDEST PUSH1 0x0 DUP1 PUSH1 0x0 DUP1 PUSH1 0x0 DUP1 PUSH1 0x0 PUSH1 0xE0 DUP9 DUP11 SUB SLT ISZERO PUSH3 0x360 JUMPI PUSH3 0x35F PUSH3 0x115 JUMP JUMPDEST JUMPDEST PUSH1 0x0 PUSH3 0x370 DUP11 DUP3 DUP12 ADD PUSH3 0x16D JUMP JUMPDEST SWAP8 POP POP PUSH1 0x20 PUSH3 0x383 DUP11 DUP3 DUP12 ADD PUSH3 0x16D JUMP JUMPDEST SWAP7 POP POP PUSH1 0x40 DUP9 ADD MLOAD PUSH8 0xFFFFFFFFFFFFFFFF DUP2 GT ISZERO PUSH3 0x3A7 JUMPI PUSH3 0x3A6 PUSH3 0x11A JUMP JUMPDEST JUMPDEST PUSH3 0x3B5 DUP11 DUP3 DUP12 ADD PUSH3 0x2D0 JUMP JUMPDEST SWAP6 POP POP PUSH1 0x60 DUP9 ADD MLOAD PUSH8 0xFFFFFFFFFFFFFFFF DUP2 GT ISZERO PUSH3 0x3D9 JUMPI PUSH3 0x3D8 PUSH3 0x11A JUMP JUMPDEST JUMPDEST PUSH3 0x3E7 DUP11 DUP3 DUP12 ADD PUSH3 0x2D0 JUMP JUMPDEST SWAP5 POP POP PUSH1 0x80 PUSH3 0x3FA DUP11 DUP3 DUP12 ADD PUSH3 0x327 JUMP JUMPDEST SWAP4 POP POP PUSH1 0xA0 PUSH3 0x40D DUP11 DUP3 DUP12 ADD PUSH3 0x327 JUMP JUMPDEST SWAP3 POP POP PUSH1 0xC0 PUSH3 0x420 DUP11 DUP3 DUP12 ADD PUSH3 0x327 JUMP JUMPDEST SWAP2 POP POP SWAP3 SWAP6 SWAP9 SWAP2 SWAP5 SWAP8 POP SWAP3 SWAP6 POP JUMP JUMPDEST PUSH1 0x0 DUP2 MLOAD SWAP1 POP SWAP2 SWAP1 POP JUMP JUMPDEST PUSH32 0x4E487B7100000000000000000000000000000000000000000000000000000000 PUSH1 0x0 MSTORE PUSH1 0x22 PUSH1 0x4 MSTORE PUSH1 0x24 PUSH1 0x0 REVERT JUMPDEST PUSH1 0x0 PUSH1 0x2 DUP3 DIV SWAP1 POP PUSH1 0x1 DUP3 AND DUP1 PUSH3 0x482 JUMPI PUSH1 0x7F DUP3 AND SWAP2 POP JUMPDEST PUSH1 0x20 DUP3 LT DUP2 SUB PUSH3 0x498 JUMPI PUSH3 0x497 PUSH3 0x43A JUMP JUMPDEST JUMPDEST POP SWAP2 SWAP1 POP JUMP JUMPDEST PUSH1 0x0 DUP2 SWAP1 POP DUP2 PUSH1 0x0 MSTORE PUSH1 0x20 PUSH1 0x0 KECCAK256 SWAP1 POP SWAP2 SWAP1 POP JUMP JUMPDEST PUSH1 0x0 PUSH1 0x20 PUSH1 0x1F DUP4 ADD DIV SWAP1 POP SWAP2 SWAP1 POP JUMP JUMPDEST PUSH1 0x0 DUP3 DUP3 SHL SWAP1 POP SWAP3 SWAP2 POP POP JUMP JUMPDEST PUSH1 0x0 PUSH1 0x8 DUP4 MUL PUSH3 0x502 PUSH32 0xFFFFFFFFFFFFFFFFFFFFFFFFFFFFFFFFFFFFFFFFFFFFFFFFFFFFFFFFFFFFFFFF DUP3 PUSH3 0x4C3 JUMP JUMPDEST PUSH3 0x50E DUP7 DUP4 PUSH3 0x4C3 JUMP JUMPDEST SWAP6 POP DUP1 NOT DUP5 AND SWAP4 POP DUP1 DUP7 AND DUP5 OR SWAP3 POP POP POP SWAP4 SWAP3 POP POP POP JUMP JUMPDEST PUSH1 0x0 DUP2 SWAP1 POP SWAP2 SWAP1 POP JUMP JUMPDEST PUSH1 0x0 PUSH3 0x551 PUSH3 0x54B PUSH3 0x545 DUP5 PUSH3 0x303 JUMP JUMPDEST PUSH3 0x526 JUMP JUMPDEST PUSH3 0x303 JUMP JUMPDEST SWAP1 POP SWAP2 SWAP1 POP JUMP JUMPDEST PUSH1 0x0 DUP2 SWAP1 POP SWAP2 SWAP1 POP JUMP JUMPDEST PUSH3 0x56D DUP4 PUSH3 0x530 JUMP JUMPDEST PUSH3 0x585 PUSH3 0x57C DUP3 PUSH3 0x558 JUMP JUMPDEST DUP5 DUP5 SLOAD PUSH3 0x4D0 JUMP JUMPDEST DUP3 SSTORE POP POP POP POP JUMP JUMPDEST PUSH1 0x0 SWAP1 JUMP JUMPDEST PUSH3 0x59C PUSH3 0x58D JUMP JUMPDEST PUSH3 0x5A9 DUP2 DUP5 DUP5 PUSH3 0x562 JUMP JUMPDEST POP POP POP JUMP JUMPDEST JUMPDEST DUP2 DUP2 LT ISZERO PUSH3 0x5D1 JUMPI PUSH3 0x5C5 PUSH1 0x0 DUP3 PUSH3 0x592 JUMP JUMPDEST PUSH1 0x1 DUP2 ADD SWAP1 POP PUSH3 0x5AF JUMP JUMPDEST POP POP JUMP JUMPDEST PUSH1 0x1F DUP3 GT ISZERO PUSH3 0x620 JUMPI PUSH3 0x5EA DUP2 PUSH3 0x49E JUMP JUMPDEST PUSH3 0x5F5 DUP5 PUSH3 0x4B3 JUMP JUMPDEST DUP2 ADD PUSH1 0x20 DUP6 LT ISZERO PUSH3 0x605 JUMPI DUP2 SWAP1 POP JUMPDEST PUSH3 0x61D PUSH3 0x614 DUP6 PUSH3 0x4B3 JUMP JUMPDEST DUP4 ADD DUP3 PUSH3 0x5AE JUMP JUMPDEST POP POP JUMPDEST POP POP POP JUMP JUMPDEST PUSH1 0x0 DUP3 DUP3 SHR SWAP1 POP SWAP3 SWAP2 POP POP JUMP JUMPDEST PUSH1 0x0 PUSH3 0x645 PUSH1 0x0 NOT DUP5 PUSH1 0x8 MUL PUSH3 0x625 JUMP JUMPDEST NOT DUP1 DUP4 AND SWAP2 POP POP SWAP3 SWAP2 POP POP JUMP JUMPDEST PUSH1 0x0 PUSH3 0x660 DUP4 DUP4 PUSH3 0x632 JUMP JUMPDEST SWAP2 POP DUP3 PUSH1 0x2 MUL DUP3 OR SWAP1 POP SWAP3 SWAP2 POP POP JUMP JUMPDEST PUSH3 0x67B DUP3 PUSH3 0x42F JUMP JUMPDEST PUSH8 0xFFFFFFFFFFFFFFFF DUP2 GT ISZERO PUSH3 0x697 JUMPI PUSH3 0x696 PUSH3 0x19F JUMP JUMPDEST JUMPDEST PUSH3 0x6A3 DUP3 SLOAD PUSH3 0x469 JUMP JUMPDEST PUSH3 0x6B0 DUP3 DUP3 DUP6 PUSH3 0x5D5 JUMP JUMPDEST PUSH1 0x0 PUSH1 0x20 SWAP1 POP PUSH1 0x1F DUP4 GT PUSH1 0x1 DUP2 EQ PUSH3 0x6E8 JUMPI PUSH1 0x0 DUP5 ISZERO PUSH3 0x6D3 JUMPI DUP3 DUP8 ADD MLOAD SWAP1 POP JUMPDEST PUSH3 0x6DF DUP6 DUP3 PUSH3 0x652 JUMP JUMPDEST DUP7 SSTORE POP PUSH3 0x74F JUMP JUMPDEST PUSH1 0x1F NOT DUP5 AND PUSH3 0x6F8 DUP7 PUSH3 0x49E JUMP JUMPDEST PUSH1 0x0 JUMPDEST DUP3 DUP2 LT ISZERO PUSH3 0x722 JUMPI DUP5 DUP10 ADD MLOAD DUP3 SSTORE PUSH1 0x1 DUP3 ADD SWAP2 POP PUSH1 0x20 DUP6 ADD SWAP5 POP PUSH1 0x20 DUP2 ADD SWAP1 POP PUSH3 0x6FB JUMP JUMPDEST DUP7 DUP4 LT ISZERO PUSH3 0x742 JUMPI DUP5 DUP10 ADD MLOAD PUSH3 0x73E PUSH1 0x1F DUP10 AND DUP3 PUSH3 0x632 JUMP JUMPDEST DUP4 SSTORE POP JUMPDEST PUSH1 0x1 PUSH1 0x2 DUP9 MUL ADD DUP9 SSTORE POP POP POP JUMPDEST POP POP POP POP POP POP JUMP JUMPDEST PUSH32 0x4E487B7100000000000000000000000000000000000000000000000000000000 PUSH1 0x0 MSTORE PUSH1 0x11 PUSH1 0x4 MSTORE PUSH1 0x24 PUSH1 0x0 REVERT JUMPDEST PUSH1 0x0 PUSH3 0x793 DUP3 PUSH3 0x303 JUMP JUMPDEST SWAP2 POP PUSH3 0x7A0 DUP4 PUSH3 0x303 JUMP JUMPDEST SWAP3 POP DUP3 DUP3 ADD SWAP1 POP DUP1 DUP3 GT ISZERO PUSH3 0x7BB JUMPI PUSH3 0x7BA PUSH3 0x757 JUMP JUMPDEST JUMPDEST SWAP3 SWAP2 POP POP JUMP JUMPDEST PUSH2 0xE06 DUP1 PUSH3 0x7D1 PUSH1 0x0 CODECOPY PUSH1 0x0 RETURN INVALID PUSH1 0x80 PUSH1 0x40 MSTORE PUSH1 0x4 CALLDATASIZE LT PUSH2 0x38 JUMPI PUSH1 0x0 CALLDATALOAD PUSH1 0xE0 SHR DUP1 PUSH4 0x12065FE0 EQ PUSH2 0x87 JUMPI DUP1 PUSH4 0xD873B3BE EQ PUSH2 0xB2 JUMPI DUP1 PUSH4 0xE0E3671C EQ PUSH2 0xE2 JUMPI PUSH2 0x82 JUMP JUMPDEST CALLDATASIZE PUSH2 0x82 JUMPI PUSH2 0x46 CALLER PUSH2 0x11F JUMP JUMPDEST POP PUSH32 0x9602C9BF39185EC2FCBD124729ACBF2B44CCDC503248B578822C3B2297CA7570 CALLER CALLVALUE PUSH1 0x40 MLOAD PUSH2 0x78 SWAP3 SWAP2 SWAP1 PUSH2 0x8AD JUMP JUMPDEST PUSH1 0x40 MLOAD DUP1 SWAP2 SUB SWAP1 LOG1 STOP JUMPDEST PUSH1 0x0 DUP1 REVERT JUMPDEST CALLVALUE DUP1 ISZERO PUSH2 0x93 JUMPI PUSH1 0x0 DUP1 REVERT JUMPDEST POP PUSH2 0x9C PUSH2 0x355 JUMP JUMPDEST PUSH1 0x40 MLOAD PUSH2 0xA9 SWAP2 SWAP1 PUSH2 0x8D6 JUMP JUMPDEST PUSH1 0x40 MLOAD DUP1 SWAP2 SUB SWAP1 RETURN JUMPDEST PUSH2 0xCC PUSH1 0x4 DUP1 CALLDATASIZE SUB DUP2 ADD SWAP1 PUSH2 0xC7 SWAP2 SWAP1 PUSH2 0x934 JUMP JUMPDEST PUSH2 0x11F JUMP JUMPDEST PUSH1 0x40 MLOAD PUSH2 0xD9 SWAP2 SWAP1 PUSH2 0x97C JUMP JUMPDEST PUSH1 0x40 MLOAD DUP1 SWAP2 SUB SWAP1 RETURN JUMPDEST CALLVALUE DUP1 ISZERO PUSH2 0xEE JUMPI PUSH1 0x0 DUP1 REVERT JUMPDEST POP PUSH2 0x109 PUSH1 0x4 DUP1 CALLDATASIZE SUB DUP2 ADD SWAP1 PUSH2 0x104 SWAP2 SWAP1 PUSH2 0x9C3 JUMP JUMPDEST PUSH2 0x35D JUMP JUMPDEST PUSH1 0x40 MLOAD PUSH2 0x116 SWAP2 SWAP1 PUSH2 0x97C JUMP JUMPDEST PUSH1 0x40 MLOAD DUP1 SWAP2 SUB SWAP1 RETURN JUMPDEST PUSH1 0x0 PUSH1 0x6 SLOAD NUMBER GT ISZERO PUSH2 0x166 JUMPI PUSH1 0x40 MLOAD PUSH32 0x8C379A000000000000000000000000000000000000000000000000000000000 DUP2 MSTORE PUSH1 0x4 ADD PUSH2 0x15D SWAP1 PUSH2 0xA4D JUMP JUMPDEST PUSH1 0x40 MLOAD DUP1 SWAP2 SUB SWAP1 REVERT JUMPDEST PUSH1 0x8 SLOAD CALLVALUE GT PUSH2 0x1AA JUMPI PUSH1 0x40 MLOAD PUSH32 0x8C379A000000000000000000000000000000000000000000000000000000000 DUP2 MSTORE PUSH1 0x4 ADD PUSH2 0x1A1 SWAP1 PUSH2 0xAB9 JUMP JUMPDEST PUSH1 0x40 MLOAD DUP1 SWAP2 SUB SWAP1 REVERT JUMPDEST PUSH1 0x0 PUSH20 0xFFFFFFFFFFFFFFFFFFFFFFFFFFFFFFFFFFFFFFFF AND PUSH1 0x2 PUSH1 0x0 SWAP1 SLOAD SWAP1 PUSH2 0x100 EXP SWAP1 DIV PUSH20 0xFFFFFFFFFFFFFFFFFFFFFFFFFFFFFFFFFFFFFFFF AND PUSH20 0xFFFFFFFFFFFFFFFFFFFFFFFFFFFFFFFFFFFFFFFF AND EQ PUSH2 0x2C1 JUMPI PUSH1 0x2 PUSH1 0x0 SWAP1 SLOAD SWAP1 PUSH2 0x100 EXP SWAP1 DIV PUSH20 0xFFFFFFFFFFFFFFFFFFFFFFFFFFFFFFFFFFFFFFFF AND PUSH20 0xFFFFFFFFFFFFFFFFFFFFFFFFFFFFFFFFFFFFFFFF AND PUSH2 0x8FC PUSH1 0x7 SLOAD SWAP1 DUP2 ISZERO MUL SWAP1 PUSH1 0x40 MLOAD PUSH1 0x0 PUSH1 0x40 MLOAD DUP1 DUP4 SUB DUP2 DUP6 DUP9 DUP9 CALL SWAP4 POP POP POP POP ISZERO DUP1 ISZERO PUSH2 0x26A JUMPI RETURNDATASIZE PUSH1 0x0 DUP1 RETURNDATACOPY RETURNDATASIZE PUSH1 0x0 REVERT JUMPDEST POP DUP2 PUSH1 0x2 PUSH1 0x0 PUSH2 0x100 EXP DUP2 SLOAD DUP2 PUSH20 0xFFFFFFFFFFFFFFFFFFFFFFFFFFFFFFFFFFFFFFFF MUL NOT AND SWAP1 DUP4 PUSH20 0xFFFFFFFFFFFFFFFFFFFFFFFFFFFFFFFFFFFFFFFF AND MUL OR SWAP1 SSTORE POP CALLVALUE PUSH1 0x7 DUP2 SWAP1 SSTORE POP PUSH1 0x7 SLOAD PUSH1 0x8 DUP2 SWAP1 SSTORE POP PUSH2 0x313 JUMP JUMPDEST DUP2 PUSH1 0x2 PUSH1 0x0 PUSH2 0x100 EXP DUP2 SLOAD DUP2 PUSH20 0xFFFFFFFFFFFFFFFFFFFFFFFFFFFFFFFFFFFFFFFF MUL NOT AND SWAP1 DUP4 PUSH20 0xFFFFFFFFFFFFFFFFFFFFFFFFFFFFFFFFFFFFFFFF AND MUL OR SWAP1 SSTORE POP CALLVALUE PUSH1 0x7 DUP2 SWAP1 SSTORE POP PUSH1 0x7 SLOAD PUSH1 0x8 DUP2 SWAP1 SSTORE POP JUMPDEST PUSH32 0xEE242CA320573FD3309D8CC97EF2994FE7704919768FC46F3332BE6E9536D0DE DUP3 CALLVALUE PUSH1 0x40 MLOAD PUSH2 0x344 SWAP3 SWAP2 SWAP1 PUSH2 0xB38 JUMP JUMPDEST PUSH1 0x40 MLOAD DUP1 SWAP2 SUB SWAP1 LOG1 PUSH1 0x1 SWAP1 POP SWAP2 SWAP1 POP JUMP JUMPDEST PUSH1 0x0 SELFBALANCE SWAP1 POP SWAP1 JUMP JUMPDEST PUSH1 0x0 DUP2 PUSH1 0x3 PUSH1 0x0 PUSH2 0x100 EXP DUP2 SLOAD DUP2 PUSH20 0xFFFFFFFFFFFFFFFFFFFFFFFFFFFFFFFFFFFFFFFF MUL NOT AND SWAP1 DUP4 PUSH20 0xFFFFFFFFFFFFFFFFFFFFFFFFFFFFFFFFFFFFFFFF AND MUL OR SWAP1 SSTORE POP PUSH2 0x3A8 PUSH2 0x3B2 JUMP JUMPDEST POP PUSH1 0x1 SWAP1 POP SWAP2 SWAP1 POP JUMP JUMPDEST PUSH1 0x0 DUP1 PUSH1 0x0 SWAP1 SLOAD SWAP1 PUSH2 0x100 EXP SWAP1 DIV PUSH20 0xFFFFFFFFFFFFFFFFFFFFFFFFFFFFFFFFFFFFFFFF AND PUSH20 0xFFFFFFFFFFFFFFFFFFFFFFFFFFFFFFFFFFFFFFFF AND PUSH1 0x3 PUSH1 0x0 SWAP1 SLOAD SWAP1 PUSH2 0x100 EXP SWAP1 DIV PUSH20 0xFFFFFFFFFFFFFFFFFFFFFFFFFFFFFFFFFFFFFFFF AND PUSH20 0xFFFFFFFFFFFFFFFFFFFFFFFFFFFFFFFFFFFFFFFF AND EQ DUP1 PUSH2 0x4A0 JUMPI POP PUSH1 0x2 PUSH1 0x0 SWAP1 SLOAD SWAP1 PUSH2 0x100 EXP SWAP1 DIV PUSH20 0xFFFFFFFFFFFFFFFFFFFFFFFFFFFFFFFFFFFFFFFF AND PUSH20 0xFFFFFFFFFFFFFFFFFFFFFFFFFFFFFFFFFFFFFFFF AND PUSH1 0x3 PUSH1 0x0 SWAP1 SLOAD SWAP1 PUSH2 0x100 EXP SWAP1 DIV PUSH20 0xFFFFFFFFFFFFFFFFFFFFFFFFFFFFFFFFFFFFFFFF AND PUSH20 0xFFFFFFFFFFFFFFFFFFFFFFFFFFFFFFFFFFFFFFFF AND EQ JUMPDEST PUSH2 0x4DF JUMPI PUSH1 0x40 MLOAD PUSH32 0x8C379A000000000000000000000000000000000000000000000000000000000 DUP2 MSTORE PUSH1 0x4 ADD PUSH2 0x4D6 SWAP1 PUSH2 0xBD3 JUMP JUMPDEST PUSH1 0x40 MLOAD DUP1 SWAP2 SUB SWAP1 REVERT JUMPDEST PUSH1 0x6 SLOAD NUMBER LT ISZERO PUSH2 0x524 JUMPI PUSH1 0x40 MLOAD PUSH32 0x8C379A000000000000000000000000000000000000000000000000000000000 DUP2 MSTORE PUSH1 0x4 ADD PUSH2 0x51B SWAP1 PUSH2 0xC3F JUMP JUMPDEST PUSH1 0x40 MLOAD DUP1 SWAP2 SUB SWAP1 REVERT JUMPDEST PUSH1 0x0 PUSH20 0xFFFFFFFFFFFFFFFFFFFFFFFFFFFFFFFFFFFFFFFF AND PUSH1 0x2 PUSH1 0x0 SWAP1 SLOAD SWAP1 PUSH2 0x100 EXP SWAP1 DIV PUSH20 0xFFFFFFFFFFFFFFFFFFFFFFFFFFFFFFFFFFFFFFFF AND PUSH20 0xFFFFFFFFFFFFFFFFFFFFFFFFFFFFFFFFFFFFFFFF AND SUB PUSH2 0x5B5 JUMPI PUSH1 0x40 MLOAD PUSH32 0x8C379A000000000000000000000000000000000000000000000000000000000 DUP2 MSTORE PUSH1 0x4 ADD PUSH2 0x5AC SWAP1 PUSH2 0xCAB JUMP JUMPDEST PUSH1 0x40 MLOAD DUP1 SWAP2 SUB SWAP1 REVERT JUMPDEST PUSH1 0x0 PUSH2 0x5BF PUSH2 0x355 JUMP JUMPDEST SWAP1 POP PUSH1 0x0 PUSH1 0x64 PUSH1 0x9 SLOAD DUP4 PUSH2 0x5D3 SWAP2 SWAP1 PUSH2 0xCFA JUMP JUMPDEST PUSH2 0x5DD SWAP2 SWAP1 PUSH2 0xD6B JUMP JUMPDEST SWAP1 POP PUSH1 0x0 DUP2 DUP4 PUSH2 0x5ED SWAP2 SWAP1 PUSH2 0xD9C JUMP JUMPDEST SWAP1 POP PUSH2 0x5F8 DUP3 PUSH2 0x791 JUMP JUMPDEST PUSH1 0x0 DUP1 SLOAD SWAP1 PUSH2 0x100 EXP SWAP1 DIV PUSH20 0xFFFFFFFFFFFFFFFFFFFFFFFFFFFFFFFFFFFFFFFF AND PUSH20 0xFFFFFFFFFFFFFFFFFFFFFFFFFFFFFFFFFFFFFFFF AND PUSH2 0x8FC DUP3 SWAP1 DUP2 ISZERO MUL SWAP1 PUSH1 0x40 MLOAD PUSH1 0x0 PUSH1 0x40 MLOAD DUP1 DUP4 SUB DUP2 DUP6 DUP9 DUP9 CALL SWAP4 POP POP POP POP ISZERO DUP1 ISZERO PUSH2 0x65E JUMPI RETURNDATASIZE PUSH1 0x0 DUP1 RETURNDATACOPY RETURNDATASIZE PUSH1 0x0 REVERT JUMPDEST POP PUSH1 0x1 PUSH1 0x0 SWAP1 SLOAD SWAP1 PUSH2 0x100 EXP SWAP1 DIV PUSH20 0xFFFFFFFFFFFFFFFFFFFFFFFFFFFFFFFFFFFFFFFF AND PUSH20 0xFFFFFFFFFFFFFFFFFFFFFFFFFFFFFFFFFFFFFFFF AND PUSH2 0x8FC DUP4 SWAP1 DUP2 ISZERO MUL SWAP1 PUSH1 0x40 MLOAD PUSH1 0x0 PUSH1 0x40 MLOAD DUP1 DUP4 SUB DUP2 DUP6 DUP9 DUP9 CALL SWAP4 POP POP POP POP ISZERO DUP1 ISZERO PUSH2 0x6C7 JUMPI RETURNDATASIZE PUSH1 0x0 DUP1 RETURNDATACOPY RETURNDATASIZE PUSH1 0x0 REVERT JUMPDEST POP PUSH1 0x2 PUSH1 0x0 SWAP1 SLOAD SWAP1 PUSH2 0x100 EXP SWAP1 DIV PUSH20 0xFFFFFFFFFFFFFFFFFFFFFFFFFFFFFFFFFFFFFFFF AND PUSH1 0x0 DUP1 PUSH2 0x100 EXP DUP2 SLOAD DUP2 PUSH20 0xFFFFFFFFFFFFFFFFFFFFFFFFFFFFFFFFFFFFFFFF MUL NOT AND SWAP1 DUP4 PUSH20 0xFFFFFFFFFFFFFFFFFFFFFFFFFFFFFFFFFFFFFFFF AND MUL OR SWAP1 SSTORE POP PUSH32 0x5B0833CC9B85DFE4167C39867467DBDEF9A05060318B433FD5759B5DCA79BA7F PUSH1 0x2 PUSH1 0x0 SWAP1 SLOAD SWAP1 PUSH2 0x100 EXP SWAP1 DIV PUSH20 0xFFFFFFFFFFFFFFFFFFFFFFFFFFFFFFFFFFFFFFFF AND PUSH1 0x7 SLOAD PUSH1 0x40 MLOAD PUSH2 0x77F SWAP3 SWAP2 SWAP1 PUSH2 0xB38 JUMP JUMPDEST PUSH1 0x40 MLOAD DUP1 SWAP2 SUB SWAP1 LOG1 PUSH1 0x1 SWAP4 POP POP POP POP SWAP1 JUMP JUMPDEST PUSH2 0x827 DUP2 PUSH1 0x40 MLOAD PUSH1 0x24 ADD PUSH2 0x7A5 SWAP2 SWAP1 PUSH2 0x8D6 JUMP JUMPDEST PUSH1 0x40 MLOAD PUSH1 0x20 DUP2 DUP4 SUB SUB DUP2 MSTORE SWAP1 PUSH1 0x40 MSTORE PUSH32 0xF82C50F100000000000000000000000000000000000000000000000000000000 PUSH28 0xFFFFFFFFFFFFFFFFFFFFFFFFFFFFFFFFFFFFFFFFFFFFFFFFFFFFFFFF NOT AND PUSH1 0x20 DUP3 ADD DUP1 MLOAD PUSH28 0xFFFFFFFFFFFFFFFFFFFFFFFFFFFFFFFFFFFFFFFFFFFFFFFFFFFFFFFF DUP4 DUP2 DUP4 AND OR DUP4 MSTORE POP POP POP POP PUSH2 0x82A JUMP JUMPDEST POP JUMP JUMPDEST PUSH1 0x0 DUP2 MLOAD SWAP1 POP PUSH1 0x0 PUSH11 0x636F6E736F6C652E6C6F67 SWAP1 POP PUSH1 0x20 DUP4 ADD PUSH1 0x0 DUP1 DUP5 DUP4 DUP6 GAS STATICCALL POP POP POP POP POP JUMP JUMPDEST PUSH1 0x0 PUSH20 0xFFFFFFFFFFFFFFFFFFFFFFFFFFFFFFFFFFFFFFFF DUP3 AND SWAP1 POP SWAP2 SWAP1 POP JUMP JUMPDEST PUSH1 0x0 PUSH2 0x87E DUP3 PUSH2 0x853 JUMP JUMPDEST SWAP1 POP SWAP2 SWAP1 POP JUMP JUMPDEST PUSH2 0x88E DUP2 PUSH2 0x873 JUMP JUMPDEST DUP3 MSTORE POP POP JUMP JUMPDEST PUSH1 0x0 DUP2 SWAP1 POP SWAP2 SWAP1 POP JUMP JUMPDEST PUSH2 0x8A7 DUP2 PUSH2 0x894 JUMP JUMPDEST DUP3 MSTORE POP POP JUMP JUMPDEST PUSH1 0x0 PUSH1 0x40 DUP3 ADD SWAP1 POP PUSH2 0x8C2 PUSH1 0x0 DUP4 ADD DUP6 PUSH2 0x885 JUMP JUMPDEST PUSH2 0x8CF PUSH1 0x20 DUP4 ADD DUP5 PUSH2 0x89E JUMP JUMPDEST SWAP4 SWAP3 POP POP POP JUMP JUMPDEST PUSH1 0x0 PUSH1 0x20 DUP3 ADD SWAP1 POP PUSH2 0x8EB PUSH1 0x0 DUP4 ADD DUP5 PUSH2 0x89E JUMP JUMPDEST SWAP3 SWAP2 POP POP JUMP JUMPDEST PUSH1 0x0 DUP1 REVERT JUMPDEST PUSH1 0x0 PUSH2 0x901 DUP3 PUSH2 0x853 JUMP JUMPDEST SWAP1 POP SWAP2 SWAP1 POP JUMP JUMPDEST PUSH2 0x911 DUP2 PUSH2 0x8F6 JUMP JUMPDEST DUP2 EQ PUSH2 0x91C JUMPI PUSH1 0x0 DUP1 REVERT JUMPDEST POP JUMP JUMPDEST PUSH1 0x0 DUP2 CALLDATALOAD SWAP1 POP PUSH2 0x92E DUP2 PUSH2 0x908 JUMP JUMPDEST SWAP3 SWAP2 POP POP JUMP JUMPDEST PUSH1 0x0 PUSH1 0x20 DUP3 DUP5 SUB SLT ISZERO PUSH2 0x94A JUMPI PUSH2 0x949 PUSH2 0x8F1 JUMP JUMPDEST JUMPDEST PUSH1 0x0 PUSH2 0x958 DUP5 DUP3 DUP6 ADD PUSH2 0x91F JUMP JUMPDEST SWAP2 POP POP SWAP3 SWAP2 POP POP JUMP JUMPDEST PUSH1 0x0 DUP2 ISZERO ISZERO SWAP1 POP SWAP2 SWAP1 POP JUMP JUMPDEST PUSH2 0x976 DUP2 PUSH2 0x961 JUMP JUMPDEST DUP3 MSTORE POP POP JUMP JUMPDEST PUSH1 0x0 PUSH1 0x20 DUP3 ADD SWAP1 POP PUSH2 0x991 PUSH1 0x0 DUP4 ADD DUP5 PUSH2 0x96D JUMP JUMPDEST SWAP3 SWAP2 POP POP JUMP JUMPDEST PUSH2 0x9A0 DUP2 PUSH2 0x873 JUMP JUMPDEST DUP2 EQ PUSH2 0x9AB JUMPI PUSH1 0x0 DUP1 REVERT JUMPDEST POP JUMP JUMPDEST PUSH1 0x0 DUP2 CALLDATALOAD SWAP1 POP PUSH2 0x9BD DUP2 PUSH2 0x997 JUMP JUMPDEST SWAP3 SWAP2 POP POP JUMP JUMPDEST PUSH1 0x0 PUSH1 0x20 DUP3 DUP5 SUB SLT ISZERO PUSH2 0x9D9 JUMPI PUSH2 0x9D8 PUSH2 0x8F1 JUMP JUMPDEST JUMPDEST PUSH1 0x0 PUSH2 0x9E7 DUP5 DUP3 DUP6 ADD PUSH2 0x9AE JUMP JUMPDEST SWAP2 POP POP SWAP3 SWAP2 POP POP JUMP JUMPDEST PUSH1 0x0 DUP3 DUP3 MSTORE PUSH1 0x20 DUP3 ADD SWAP1 POP SWAP3 SWAP2 POP POP JUMP JUMPDEST PUSH32 0x41756374696F6E20636C6F736564000000000000000000000000000000000000 PUSH1 0x0 DUP3 ADD MSTORE POP JUMP JUMPDEST PUSH1 0x0 PUSH2 0xA37 PUSH1 0xE DUP4 PUSH2 0x9F0 JUMP JUMPDEST SWAP2 POP PUSH2 0xA42 DUP3 PUSH2 0xA01 JUMP JUMPDEST PUSH1 0x20 DUP3 ADD SWAP1 POP SWAP2 SWAP1 POP JUMP JUMPDEST PUSH1 0x0 PUSH1 0x20 DUP3 ADD SWAP1 POP DUP2 DUP2 SUB PUSH1 0x0 DUP4 ADD MSTORE PUSH2 0xA66 DUP2 PUSH2 0xA2A JUMP JUMPDEST SWAP1 POP SWAP2 SWAP1 POP JUMP JUMPDEST PUSH32 0x596F7572206F6666657220697320746F6F206C6F770000000000000000000000 PUSH1 0x0 DUP3 ADD MSTORE POP JUMP JUMPDEST PUSH1 0x0 PUSH2 0xAA3 PUSH1 0x15 DUP4 PUSH2 0x9F0 JUMP JUMPDEST SWAP2 POP PUSH2 0xAAE DUP3 PUSH2 0xA6D JUMP JUMPDEST PUSH1 0x20 DUP3 ADD SWAP1 POP SWAP2 SWAP1 POP JUMP JUMPDEST PUSH1 0x0 PUSH1 0x20 DUP3 ADD SWAP1 POP DUP2 DUP2 SUB PUSH1 0x0 DUP4 ADD MSTORE PUSH2 0xAD2 DUP2 PUSH2 0xA96 JUMP JUMPDEST SWAP1 POP SWAP2 SWAP1 POP JUMP JUMPDEST PUSH1 0x0 DUP2 SWAP1 POP SWAP2 SWAP1 POP JUMP JUMPDEST PUSH1 0x0 PUSH2 0xAFE PUSH2 0xAF9 PUSH2 0xAF4 DUP5 PUSH2 0x853 JUMP JUMPDEST PUSH2 0xAD9 JUMP JUMPDEST PUSH2 0x853 JUMP JUMPDEST SWAP1 POP SWAP2 SWAP1 POP JUMP JUMPDEST PUSH1 0x0 PUSH2 0xB10 DUP3 PUSH2 0xAE3 JUMP JUMPDEST SWAP1 POP SWAP2 SWAP1 POP JUMP JUMPDEST PUSH1 0x0 PUSH2 0xB22 DUP3 PUSH2 0xB05 JUMP JUMPDEST SWAP1 POP SWAP2 SWAP1 POP JUMP JUMPDEST PUSH2 0xB32 DUP2 PUSH2 0xB17 JUMP JUMPDEST DUP3 MSTORE POP POP JUMP JUMPDEST PUSH1 0x0 PUSH1 0x40 DUP3 ADD SWAP1 POP PUSH2 0xB4D PUSH1 0x0 DUP4 ADD DUP6 PUSH2 0xB29 JUMP JUMPDEST PUSH2 0xB5A PUSH1 0x20 DUP4 ADD DUP5 PUSH2 0x89E JUMP JUMPDEST SWAP4 SWAP3 POP POP POP JUMP JUMPDEST PUSH32 0x596F7520617265206E6F74207468652073656E646572206F6620746865207361 PUSH1 0x0 DUP3 ADD MSTORE PUSH32 0x6C65206E6F74696365206F722074686520686967686573742062696464657200 PUSH1 0x20 DUP3 ADD MSTORE POP JUMP JUMPDEST PUSH1 0x0 PUSH2 0xBBD PUSH1 0x3F DUP4 PUSH2 0x9F0 JUMP JUMPDEST SWAP2 POP PUSH2 0xBC8 DUP3 PUSH2 0xB61 JUMP JUMPDEST PUSH1 0x40 DUP3 ADD SWAP1 POP SWAP2 SWAP1 POP JUMP JUMPDEST PUSH1 0x0 PUSH1 0x20 DUP3 ADD SWAP1 POP DUP2 DUP2 SUB PUSH1 0x0 DUP4 ADD MSTORE PUSH2 0xBEC DUP2 PUSH2 0xBB0 JUMP JUMPDEST SWAP1 POP SWAP2 SWAP1 POP JUMP JUMPDEST PUSH32 0x5468652061756374696F6E206973207374696C6C2072756E6E696E6700000000 PUSH1 0x0 DUP3 ADD MSTORE POP JUMP JUMPDEST PUSH1 0x0 PUSH2 0xC29 PUSH1 0x1C DUP4 PUSH2 0x9F0 JUMP JUMPDEST SWAP2 POP PUSH2 0xC34 DUP3 PUSH2 0xBF3 JUMP JUMPDEST PUSH1 0x20 DUP3 ADD SWAP1 POP SWAP2 SWAP1 POP JUMP JUMPDEST PUSH1 0x0 PUSH1 0x20 DUP3 ADD SWAP1 POP DUP2 DUP2 SUB PUSH1 0x0 DUP4 ADD MSTORE PUSH2 0xC58 DUP2 PUSH2 0xC1C JUMP JUMPDEST SWAP1 POP SWAP2 SWAP1 POP JUMP JUMPDEST PUSH32 0x4E6F206F6E652073686F75746564207468652070726F64756374000000000000 PUSH1 0x0 DUP3 ADD MSTORE POP JUMP JUMPDEST PUSH1 0x0 PUSH2 0xC95 PUSH1 0x1A DUP4 PUSH2 0x9F0 JUMP JUMPDEST SWAP2 POP PUSH2 0xCA0 DUP3 PUSH2 0xC5F JUMP JUMPDEST PUSH1 0x20 DUP3 ADD SWAP1 POP SWAP2 SWAP1 POP JUMP JUMPDEST PUSH1 0x0 PUSH1 0x20 DUP3 ADD SWAP1 POP DUP2 DUP2 SUB PUSH1 0x0 DUP4 ADD MSTORE PUSH2 0xCC4 DUP2 PUSH2 0xC88 JUMP JUMPDEST SWAP1 POP SWAP2 SWAP1 POP JUMP JUMPDEST PUSH32 0x4E487B7100000000000000000000000000000000000000000000000000000000 PUSH1 0x0 MSTORE PUSH1 0x11 PUSH1 0x4 MSTORE PUSH1 0x24 PUSH1 0x0 REVERT JUMPDEST PUSH1 0x0 PUSH2 0xD05 DUP3 PUSH2 0x894 JUMP JUMPDEST SWAP2 POP PUSH2 0xD10 DUP4 PUSH2 0x894 JUMP JUMPDEST SWAP3 POP DUP3 DUP3 MUL PUSH2 0xD1E DUP2 PUSH2 0x894 JUMP JUMPDEST SWAP2 POP DUP3 DUP3 DIV DUP5 EQ DUP4 ISZERO OR PUSH2 0xD35 JUMPI PUSH2 0xD34 PUSH2 0xCCB JUMP JUMPDEST JUMPDEST POP SWAP3 SWAP2 POP POP JUMP JUMPDEST PUSH32 0x4E487B7100000000000000000000000000000000000000000000000000000000 PUSH1 0x0 MSTORE PUSH1 0x12 PUSH1 0x4 MSTORE PUSH1 0x24 PUSH1 0x0 REVERT JUMPDEST PUSH1 0x0 PUSH2 0xD76 DUP3 PUSH2 0x894 JUMP JUMPDEST SWAP2 POP PUSH2 0xD81 DUP4 PUSH2 0x894 JUMP JUMPDEST SWAP3 POP DUP3 PUSH2 0xD91 JUMPI PUSH2 0xD90 PUSH2 0xD3C JUMP JUMPDEST JUMPDEST DUP3 DUP3 DIV SWAP1 POP SWAP3 SWAP2 POP POP JUMP JUMPDEST PUSH1 0x0 PUSH2 0xDA7 DUP3 PUSH2 0x894 JUMP JUMPDEST SWAP2 POP PUSH2 0xDB2 DUP4 PUSH2 0x894 JUMP JUMPDEST SWAP3 POP DUP3 DUP3 SUB SWAP1 POP DUP2 DUP2 GT ISZERO PUSH2 0xDCA JUMPI PUSH2 0xDC9 PUSH2 0xCCB JUMP JUMPDEST JUMPDEST SWAP3 SWAP2 POP POP JUMP INVALID LOG2 PUSH5 0x6970667358 0x22 SLT KECCAK256 0xC9 0xBE EXTCODEHASH 0xCA DUP2 GAS 0x26 PUSH25 0x28BD41953BA261566F00A7A22D418ED6003B8361837D1FAB64 PUSH20 0x6F6C63430008110033A264697066735822122004 PUSH15 0x2ABF590F8C4FC4DD6739EAB36B0CE3 CALLVALUE DUP3 PUSH24 0x3381A7013D9AE73F86F7195A64736F6C6343000811003300 "
		},
		"gasEstimates": {
			"creation": {
				"codeDepositCost": "1985400",
				"executionCost": "77757",
				"totalCost": "2063157"
			},
			"external": {
				"completeAuction(address,uint256)": "infinite",
				"createAnotice(string,string,uint256,uint256)": "infinite",
				"exchangeCommission(uint256)": "infinite",
				"getAnnouncement(uint256)": "2900",
				"getBalance()": "2607",
				"makeAshout(uint256)": "infinite",
				"raiseETH()": "infinite"
			}
		},
		"methodIdentifiers": {
			"completeAuction(address,uint256)": "e511beec",
			"createAnotice(string,string,uint256,uint256)": "a71060dd",
			"exchangeCommission(uint256)": "413feec6",
			"getAnnouncement(uint256)": "d16cdae1",
			"getBalance()": "12065fe0",
			"makeAshout(uint256)": "e6624e03",
			"raiseETH()": "98fd1987"
		}
	},
	"abi": [
		{
			"inputs": [],
			"stateMutability": "nonpayable",
			"type": "constructor"
		},
		{
			"anonymous": false,
			"inputs": [
				{
					"indexed": false,
					"internalType": "address",
					"name": "who",
					"type": "address"
				},
				{
					"indexed": false,
					"internalType": "address",
					"name": "addr",
					"type": "address"
				}
			],
			"name": "newSalesAd",
			"type": "event"
		},
		{
			"anonymous": false,
			"inputs": [
				{
					"indexed": false,
					"internalType": "uint256",
					"name": "newReward",
					"type": "uint256"
				}
			],
			"name": "rewardChange",
			"type": "event"
		},
		{
			"inputs": [
				{
					"internalType": "address",
					"name": "isOwner",
					"type": "address"
				},
				{
					"internalType": "uint256",
					"name": "_index",
					"type": "uint256"
				}
			],
			"name": "completeAuction",
			"outputs": [],
			"stateMutability": "nonpayable",
			"type": "function"
		},
		{
			"inputs": [
				{
					"internalType": "string",
					"name": "_title",
					"type": "string"
				},
				{
					"internalType": "string",
					"name": "_description",
					"type": "string"
				},
				{
					"internalType": "uint256",
					"name": "_startprice",
					"type": "uint256"
				},
				{
					"internalType": "uint256",
					"name": "_endtime",
					"type": "uint256"
				}
			],
			"name": "createAnotice",
			"outputs": [],
			"stateMutability": "nonpayable",
			"type": "function"
		},
		{
			"inputs": [
				{
					"internalType": "uint256",
					"name": "_reward",
					"type": "uint256"
				}
			],
			"name": "exchangeCommission",
			"outputs": [
				{
					"internalType": "bool",
					"name": "",
					"type": "bool"
				}
			],
			"stateMutability": "nonpayable",
			"type": "function"
		},
		{
			"inputs": [
				{
					"internalType": "uint256",
					"name": "_index",
					"type": "uint256"
				}
			],
			"name": "getAnnouncement",
			"outputs": [
				{
					"internalType": "address",
					"name": "",
					"type": "address"
				}
			],
			"stateMutability": "view",
			"type": "function"
		},
		{
			"inputs": [],
			"name": "getBalance",
			"outputs": [
				{
					"internalType": "uint256",
					"name": "",
					"type": "uint256"
				}
			],
			"stateMutability": "view",
			"type": "function"
		},
		{
			"inputs": [
				{
					"internalType": "uint256",
					"name": "_index",
					"type": "uint256"
				}
			],
			"name": "makeAshout",
			"outputs": [],
			"stateMutability": "payable",
			"type": "function"
		},
		{
			"inputs": [],
			"name": "raiseETH",
			"outputs": [
				{
					"internalType": "bool",
					"name": "",
					"type": "bool"
				}
			],
			"stateMutability": "nonpayable",
			"type": "function"
		},
		{
			"stateMutability": "payable",
			"type": "receive"
		}
	]
}